:100000000C94C3000C94EB000C94EB000C94EB00EC
:100010000C94EB000C94EB000C94EB000C94EB00B4
:100020000C94EB000C94EB000C94EB000C94EB00A4
:100030000C94EB000C94EB000C94EB000C94EB0094
:100040000C9417290C94EB000C942C270C94AF27DC
:100050000C94EB000C94EB000C94EB000C94EB0074
:100060000C94EB000C94EB00760085009300A1004B
:10007000AF00BB00BF0056697465737365206D6F78
:100080007465757200416363656C2E206D6F7465D5
:100090007572004D656D6F69726520646973706F6C
:1000A00000466F726D617420454550524F4D0052AD
:1000B00065746F7572206D656E750052756E0050B7
:1000C0006172616D65747261676500040E1F401F87
:1000D0001F1F1F00040E1F4040404040001F1F1FF5
:1000E0001F4040404000404040401F1F1F1F004035
:1000F000404040401F0E04001F1F1F1F401F0E04E2
:1001000000CB00D400DD00E600EF00F800205945E8
:1001100053203E4E4F3C003E5945533C204E4F200D
:10012000000D01170100000000240027002A000034
:10013000000000250028002B0000000000230026FE
:10014000002900040404040404040402020202025C
:10015000020303030303030102040810204080018B
:10016000020408102001020408102000000007000B
:10017000020100000304060000000000000000006F
:1001800031049F1D622711241FBECFEFD8E0DEBFD0
:10019000CDBF15E0A0E0B1E0E8E4FEE502C00590C7
:1001A0000D92AA32B107D9F716E0AAE2B5E001C074
:1001B0001D92A43AB107E1F711E0C6E8D1E004C00E
:1001C0002297FE010E94E72EC038D107C9F70E948E
:1001D00008290C94222F0C940000FB01DC010590EF
:1001E0000D920020E1F70895DC01FB014115510556
:1001F00049F04150504029F005900D92002029F01F
:10020000F8CF1C9205900020E9F7E61BF70B319719
:10021000CF010895FC0105900020E9F780959095A5
:100220008E0F9F1F0895FB01DC0101900D920020AD
:10023000E1F70895DC01FB014115510549F04150FA
:10024000504029F001900D92002029F0F8CF1C9227
:1002500001900020E9F7E61BF70B3197CF010895D5
:10026000A0E0B0E0E6E3F1E00C94F52E7C01EB01B8
:100270008A01690109C0CE012196F6010995F701AD
:1002800081937F010150104001151105A1F7CDB7F1
:10029000DEB7E8E00C94112FBF92CF92DF92EF927D
:1002A000FF920F931F937B018C01FB010995B82EE0
:1002B000C8010196F7010995C82EC8010296F701F9
:1002C0000995D82EC8010396F7010995982F6B2D33
:1002D0007C2D8D2D1F910F91FF90EF90DF90CF908F
:1002E000BF900895DF92EF92FF920F931F937B01CF
:1002F0008C01FB010995D82EC8010196F7010995DB
:10030000982F8D2D1F910F91FF90EF90DF90089502
:10031000AEE0B0E0EEE8F1E00C94F92E0D891E8914
:1003200086E08C831A8309838FEF9FE79E838D83FA
:100330009E01275E3F4FCE0101966F89788DA901FE
:100340000E94AC012F813885020F131FF801108223
:100350002E96E4E00C94152FABE0B0E0E2EBF1E078
:100360000C94EB2E3C012B015A01FC0117821682E2
:10037000838181FD03C06FEF7FEFC6C19AE0892EB4
:100380001E010894211C311CF3012381F20123FD7D
:10039000859123FF81912F01882309F4B2C1853211
:1003A00039F423FD859123FF81912F01853229F4B2
:1003B00090E0B3010E949F03E7CF982FFF24EE2423
:1003C0009924FFE1FF15D0F09B3269F09C3228F4AC
:1003D000903259F0933291F40EC09D3249F090332F
:1003E00069F441E024C052E0F52A84E0F82A28C0EC
:1003F00098E0F92A25C0E0E1FE2A22C0F7FC29C0D6
:10040000892F80538A3070F4F6FE05C0989C902C9A
:100410001124980E15C0E89CE02C1124E80EF0E29F
:10042000FF2A0EC09E3229F4F6FC6BC140E4F42A88
:1004300007C09C3619F450E8F52A02C0983649F4F2
:10044000F20123FD959123FF91912F01992309F04A
:10045000B8CF892F8554833018F08052833038F418
:1004600044E050E0A40EB51E5FE359830FC09336FD
:1004700031F0933779F0933509F056C020C0F5017B
:100480008081898342E050E0A40EB51E610101E045
:1004900010E012C0F501C080D180F6FC03C06FEF00
:1004A0007FEF02C0692D70E042E050E0A40EB51E5F
:1004B000C6010E9494038C015FE7F52214C0F50188
:1004C000C080D180F6FC03C06FEF7FEF02C0692DC2
:1004D00070E042E050E0A40EB51EC6010E94890300
:1004E0008C0150E8F52AF3FE07C01AC080E290E0C4
:1004F000B3010E949F03EA948E2D90E0081719071C
:10050000A8F30EC0F601F7FC8591F7FE81916F010B
:1005100090E0B3010E949F03E110EA940150104063
:100520000115110579F7EAC0943611F0993669F58D
:10053000F7FE08C0F501208131814281538184E0BA
:1005400090E00AC0F501808191819C01442737FD2C
:100550004095542F82E090E0A80EB91E9FE6F92244
:1005600057FF09C050954095309521953F4F4F4F0B
:100570005F4FE0E8FE2ACA01B901A1012AE030E09C
:100580000E94CB03D82ED21840C0953729F41F2DD6
:100590001F7E2AE030E01DC01F2D197F9F3661F0BD
:1005A000903720F4983509F0ACC00FC0903739F07F
:1005B000983709F0A6C004C028E030E00AC01061F6
:1005C00014FD146020E130E004C014FD166020E149
:1005D00032E017FF08C0F50160817181828193814B
:1005E00044E050E008C0F50180819181BC0180E0C9
:1005F00090E042E050E0A40EB51EA1010E94CB03A2
:10060000D82ED2188FE7F82EF122F6FE0BC05EEF3F
:10061000F522D91438F4F4FE07C0F2FC05C08FEEC1
:10062000F82202C01D2D01C0192DF4FE0DC0FE01DF
:10063000ED0DF11D8081803319F499EEF92208C087
:100640001F5FF2FE05C003C08F2D867809F01F5F83
:100650000F2DF3FC14C0F0FE0FC01E1510F09D2CE2
:100660000BC09D2C9E0C911A1E2D06C080E290E0BE
:10067000B3010E949F031F5F1E15C0F304C01E1527
:1006800010F4E11A01C0EE2404FF0FC080E390E0F3
:10069000B3010E949F0302FF1DC001FD03C088E754
:1006A00090E00EC088E590E00BC0802F867891F036
:1006B00001FF02C08BE201C080E2F7FC8DE290E016
:1006C000B3010E949F0306C080E390E0B3010E9443
:1006D0009F039A94D914C0F3DA94F101ED0DF11D42
:1006E000808190E0B3010E949F03DD20A9F706C03E
:1006F00080E290E0B3010E949F03EA94EE20C1F7EC
:1007000043CEF30166817781CB012B96E2E10C9415
:10071000072FFC010590615070400110D8F78095BB
:1007200090958E0F9F1F0895FC01615070400190BD
:100730000110D8F7809590958E0F9F1F08950F9305
:100740001F93CF93DF938C01EB018B8181FF1BC043
:1007500082FF0DC02E813F818C819D812817390732
:1007600064F4E881F9810193F983E88306C0E885A0
:10077000F985802F0995892B31F48E819F8101960F
:100780009F838E8302C00FEF1FEFC801DF91CF91CF
:100790001F910F910895FA01AA27283051F12031B5
:1007A00081F1E8946F936E7F6E5F7F4F8F4F9F4F05
:1007B000AF4FB1E03ED0B4E03CD0670F781F891F47
:1007C0009A1FA11D680F791F8A1F911DA11D6A0F15
:1007D000711D811D911DA11D20D009F468943F91C8
:1007E0002AE0269F11243019305D3193DEF6CF01C7
:1007F0000895462F4770405D4193B3E00FD0C9F78D
:10080000F6CF462F4F70405D4A3318F0495D31FDF9
:100810004052419302D0A9F7EACFB4E0A69597954C
:10082000879577956795BA95C9F700976105710522
:1008300008959B01AC010A2E06945795479537956C
:100840002795BA95C9F7620F731F841F951FA01DC6
:1008500008959C01F999FECF32BD21BDF89A80B56B
:100860000895CF92EF920F931F9308EF15E0C80100
:1008700064E070E00E94B31E90932B0580932A05DC
:10088000C80162E070E00E94B31E90932D05809332
:100890002C05C80162E070E00E94B31E90932F0502
:1008A00080932E05C80162E070E00E94B31E909311
:1008B000310580933005C80164E070E00E94B31EEA
:1008C0009093330580933205C80164E070E00E9484
:1008D000B31E9093350580933405C80164E070E041
:1008E0000E94B31E9093370580933605C80168E6D1
:1008F00070E00E94B31E90933905809338058AE317
:1009000095E061E773E048E753E029E733E001E071
:10091000E7E0EE2E0E94B71A8DE495E067E873E0F9
:100920004FE853E020E933E00E94B71A80E695E0F3
:1009300068E049E024E005E076E0E72E57E0C52EC8
:100940000E945E1D85E795E061E04CE02DE004E04B
:1009500035E0E32ECC24C3940E9428251F910F91EB
:10096000EF90CF90089585E795E00E9407209B01C6
:10097000AC016093D5057093D6058093D70590930D
:10098000D805609132057091330588EF95E00E949B
:10099000151E089585E795E00E94611F8823B1F038
:1009A00085E795E00E94321F9B01AC016093C90569
:1009B0007093CA058093CB059093CC056091340564
:1009C0007091350588EF95E00E94151E85E795E04A
:1009D0000E94661F8823B1F085E795E00E94451FBD
:1009E0009B01AC016093CD057093CE058093CF053C
:1009F0009093D005609136057091370588EF95E0AA
:100A00000E94151E08950F931F9305E715E060914E
:100A1000D3057091D405882777FD8095982F0E9483
:100A2000D62CAB01BC01C8010E94D3216091D10535
:100A30007091D205882777FD8095982F0E94D62C3B
:100A4000AB01BC01C8010E9431264091D5055091EF
:100A5000D6056091D7057091D805C8010E940D2078
:100A60001F910F910895AF92BF92CF92DF92EF92B4
:100A7000FF920F931F93CF93DF936C017B01142F91
:100A8000052F68597F4F0E94CC1D8823F9F0812FD4
:100A9000902FEC0100E010E0F7E6AF2EB12CAC0E89
:100AA000BD1EC601B7010E94C91D4881841731F0DF
:100AB000C601B7010E94121E0F5F1F4FCA15DB054A
:100AC00039F00894E11CF11C2196EBCF00E010E016
:100AD000C801DF91CF911F910F91FF90EF90DF90B0
:100AE000CF90BF90AF9008952F923F924F925F9218
:100AF0006F927F928F929F92AF92BF92CF92DF922E
:100B0000EF92FF920F931F93DF93CF93CDB7DEB792
:100B10006C970FB6F894DEBF0FBECDBF0E945F2961
:100B20002091DF053091E0054091E1055091E2050B
:100B3000621B730B840B950B693C71058105910554
:100B400008F404C180E695E060E040E00E94711C7A
:100B500085E795E00E9407206B017C0185E795E021
:100B60000E940120698F7A8F8B8F9C8F4090DB05CC
:100B70005090DC056090DD057090DE056091D90530
:100B80007091DA05882777FD8095982F0E94D62CE2
:100B90004B015C018DB79EB70C970FB6F8949EBFC2
:100BA0000FBE8DBF0DB71EB70F5F1F4FB8E02B2EC6
:100BB000312C2C0E3D1EADB7BEB712963C922E9234
:100BC000119780E091E0F80193838283C701B60119
:100BD0000E94D62CA30192010E948A2DA5019401A6
:100BE0000E943B2CD80114966D937D938D939C931A
:100BF0001797698D7A8D8B8D9C8D0E94D62CA301C1
:100C000092010E948A2DA50194010E943B2CF801BB
:100C100060877187828793870E9488018DB79EB70E
:100C20000C960FB6F8949EBF0FBE8DBF80E695E080
:100C3000B1010E94F22880E695E060E041E00E9468
:100C4000711CE091C705F091C805EE0FFF1FEE0F74
:100C5000FF1FE256FC4FE080F18002811381C80142
:100C6000B70120E03CE34CE156EC0E94372C9E019A
:100C70002F5F3F4F882331F4C90161E171E00E9489
:100C8000130121C0ADB7BEB718970FB6F894BEBF19
:100C90000FBEADBFEDB7FEB7319612963C932E93C3
:100CA000119787E191E093838283E482F582068342
:100CB00017830E948801EDB7FEB738960FB6F894F7
:100CC000FEBF0FBEEDBF8DB79EB708970FB6F89465
:100CD0009EBF0FBE8DBFADB7BEB711968E01085F28
:100CE0001F4FEDB7FEB7128301838EE191E013969B
:100CF0009C938E931297E091C705F091C805E75435
:100D0000FB4F8081992787FD909515969C938E9334
:100D10001497CE01019617969C938E9316970E9476
:100D200088018DB79EB708960FB6F8949EBF0FBE88
:100D30008DBFC8010E94AB140E945F296093DF053C
:100D40007093E0058093E1059093E2056C960FB6F1
:100D5000F894DEBF0FBECDBFCF91DF911F910F91F1
:100D6000FF90EF90DF90CF90BF90AF909F908F90CB
:100D70007F906F905F904F903F902F9008956F926B
:100D80007F928F929F92AF92BF92CF92DF92EF921B
:100D9000FF920F931F93CF93DF938130910519F04A
:100DA000029721F406C0C1E0D0E005C0C0E0D0E069
:100DB00002C0CFEFDFEF8DE495E00E94E319C82E6B
:100DC000DD24A60110EBA12E14E0B12E2EC041505F
:100DD00050404230510560F423E0C216D10441F482
:100DE000AE014A9DE0014B9DD00D5A9DD00D1124BE
:100DF0008DE495E00E94A61A8DE495E00E94E31927
:100E0000182FAE01662757FD6095762F85E795E090
:100E10000E94C42185E795E00E9403270E94740583
:100E2000A601212F30E0C9016C01C601019703978B
:100E300070F285E795E00E9401206B014B01AA2426
:100E400097FCA094BA2C85E795E00E940720A501A5
:100E50009401261B370B480B590B12161306140668
:100E6000150644F485E795E00E940720E601C61BBD
:100E7000D70B07C085E795E00E940720EB01CC194E
:100E8000DD0985E795E00E94AE229B01AC010E943E
:100E9000D32B20E030E040E050E00E94862D181671
:100EA0004CF485E795E00E94AE229B01AC010E94C4
:100EB000D32B0AC085E795E00E94AE2220E030E007
:100EC00040E050EC0E948A2DA62F482F692F85E71D
:100ED00095E02A2F372FE42FF62FA901BF010E949A
:100EE000312685E795E00E94A32485E795E00E94DE
:100EF00001207B018C0185E795E00E940720E61A1E
:100F0000F70A080B190B1E141F04100611065CF4D7
:100F100085E795E00E9401207B018C0185E795E043
:100F20000E9407200AC085E795E00E9407207B0108
:100F30008C0185E795E00E940120A8019701261BFE
:100F4000370B480B590BCE01AA2797FDA095BA2F56
:100F500082179307A407B50734F485E795E0B50138
:100F6000A4010E94A72185E795E00E94012022E0CC
:100F700030E040E050E00E94CA2E613071058105EA
:100F80009105D9F585E795E00E9401203B014C01D0
:100F900085E795E00E940120161617061806190627
:100FA0003CF485E795E00E9401205B016C010BC0D9
:100FB00085E795E00E940120AA24BB246501A61ABA
:100FC000B70AC80AD90A85E795E00E9401207B018B
:100FD0008C01C401B301A60195010E94CA2E4427C9
:100FE00037FD4095542F2E0D3F1D401F511F85E7A3
:100FF00095E0BA01A9010E94A7216091D1057091E5
:10100000D205882777FD8095982F0E94D62CAB01BA
:10101000BC0185E795E00E94312606C085E795E092
:101020000E9403270E94740585E795E00E9407202F
:101030007B018C0185E795E00E940120E616F7060A
:101040000807190759F769EC70E080E090E00E940A
:10105000D8290E9474050E94B3040E940305DF9101
:10106000CF911F910F91FF90EF90DF90CF90BF90A5
:10107000AF909F908F907F906F9008952F923F92A6
:101080004F925F926F927F928F929F92AF92BF9298
:10109000CF92DF92EF92FF920F931F93DF93CF9344
:1010A000CDB7DEB7C75AD0400FB6F894DEBF0FBE3B
:1010B000CDBF82E790E09E8B8D8B188E1F8A81E0DA
:1010C00090E09C8F8B8F91E09F8F98A319A28CE06A
:1010D0008AA31BA29CA38DE290E09FA38EA38FE026
:1010E0008DA380E695E00E94A01C86E291E00E941C
:1010F000AB14CE0145960E9456188F89988D0097A3
:1011000019F0019771F796C485E795E040E050E04B
:1011100060E070E00E94292285E795E040E050E021
:1011200060E070E00E94312685E795E00E9407208C
:10113000AB01BC0185E795E00E94A7210E94B304A2
:1011400080E695E00E94A01C0E947405C556DF4F02
:1011500019821882CB59D040C156DF4F1882CF591F
:10116000D040C356DF4F19821882CD59D04085E751
:1011700095E00E9403270E947405C156DF4F288125
:10118000CF59D0402130D1F585E795E00E94F11F7D
:10119000611571058105910549F40E94B3040E940F
:1011A0007405C156DF4F1882CF59D0400E945F2985
:1011B0002091C3053091C4054091C5055091C605E5
:1011C000621B730B840B950B693C710581059105BE
:1011D000F8F081E090E00E948411C356DF4F9983BC
:1011E0008883CD59D0400E945F296093C3057093D6
:1011F000C4058093C5059093C6050AC082E390E0BC
:101200000E948411C356DF4F99838883CD59D04003
:10121000C356DF4F88819981CD59D04086349105DE
:1012200009F41FC2873491050CF58330910509F448
:1012300046C08430910544F48130910509F497C08B
:10124000029709F094CF96C0C356DF4FA881B981A9
:10125000CD59D040A630B10509F443CFA334B10530
:1012600009F4AFC0149709F082CF54C0C356DF4FC2
:10127000E881F981CD59D040EE34F10509F4FDC083
:10128000EF34F1054CF4E734F10509F44BC2ED34C9
:10129000F10509F06CCF6AC1C356DF4F288139814F
:1012A000CD59D0402435310509F4DDC22A35310548
:1012B00009F49DC02335310509F059CF60C08DE494
:1012C00095E00E94E319833009F051CF85E795E05E
:1012D0000E94661F882361F080E391E00E94FE185F
:1012E000019709F01AC285E795E00E945C1F15C2BC
:1012F00087E491E00E94FE18019709F00EC285E78D
:1013000095E00E940720AB01BC0185E795E00E94B3
:101310004D1F2AC08DE495E00E94E319833009F047
:1013200026CF85E795E00E94611F882361F08EE556
:1013300091E00E94FE18019709F0EFC185E795E062
:101340000E94571FEAC185E791E00E94FE180197AD
:1013500009F0E3C185E795E00E940720AB01BC01DD
:1013600085E795E00E943A1F0E94CA04D6C181E039
:1013700090E002C082E090E00E94BF06F8CE85E7D0
:1013800095E040E050E060E070E00E94292285E7AF
:1013900095E040E050E060E070E00E94312685E793
:1013A00095E00E940720AB01BC0185E795E00E9413
:1013B000A7210E94B304C156DF4F1882CF59D040F5
:1013C000D6CE85E795E00E94611F882329F085E746
:1013D00095E00E94321F06C280E695E060E041E0A1
:1013E0000E94711C8CE891E00E94AB14C0CE8AE38D
:1013F00095E00E94E319082F10E012C08AE395E0FF
:101400000E94A61A8AE395E00E94E319C556DF4FB1
:1014100019830883CB59D04040E0282F342F89010D
:10142000C8010197039750F3C556DF4F8881998112
:10143000CB59D0408230910521F0039709F097CE27
:101440000FC085E795E040E050E060E070E00E946A
:10145000A72191E0C156DF4F9883CF59D04087CE66
:1014600085E795E040E050E060E070E00E940D20EC
:101470000E94CA040E94B304DAC28091C705909109
:10148000C8058931910531F001969093C805809384
:10149000C70504C01092C8051092C7058AE395E0FD
:1014A0000E94E319082F10E012C08AE395E00E9421
:1014B000A61A8AE395E00E94E319C556DF4F198307
:1014C0000883CB59D04040E0282F342F8901C80130
:1014D0000197039750F3C556DF4FA881B981CB59C7
:1014E000D040139709F0A3C2E091C705F091C80559
:1014F000EE0FFF1FEE0FFF1FE256FC4FA080B180E2
:10150000C280D380C601B50120E03CE34CE156EC3B
:101510000E94372C882309F48AC26091D905709102
:10152000DA05882777FD8095982F0E94D62C9B019D
:10153000AC01C601B5010E948A2D2091DB053091D6
:10154000DC054091DD055091DE050E943B2C0E9498
:10155000A32CAB01BC0185E795E00E94A721B1E077
:10156000C156DF4FB883CF59D04061C28091C705C3
:101570009091C805009731F001979093C80580932A
:10158000C70506C0E9E1F0E0F093C805E093C705A0
:101590008AE395E00E94E319082F10E012C08AE365
:1015A00095E00E94A61A8AE395E00E94E319C556C9
:1015B000DF4F19830883CB59D04040E0282F342FC8
:1015C0008901C8010197039750F3C556DF4F288161
:1015D0003981CB59D0402330310509F028C2E09140
:1015E000C705F091C805EE0FFF1FEE0FFF1FE25673
:1015F000FC4FA080B180C280D380C601B50120E03D
:101600003CE34CE156EC0E94372C882309F40FC2CE
:101610006091D9057091DA05882777FD8095982F1C
:101620000E94D62C9B01AC01C601B5010E948A2DF7
:101630002091DB053091DC054091DD055091DE0500
:101640000E943B2C0E94A32CAB01BC0185E795E0D6
:101650000E94A72131E0C156DF4F3883CF59D040D7
:10166000E6C185E991E00E94FE18019709F055C096
:10167000609138057091390588EF95E041E554E0B7
:101680000E94330560913805709139058EE993E029
:1016900048E650E029E234E00E94300109EB14E012
:1016A000BEE9CB2EB3E0DB2E8DB79EB70A970FB6FF
:1016B000F8949EBF0FBE8DBFEDB7FEB7319629E6F9
:1016C00030E02C0F3D1FADB7BEB712963C932E9362
:1016D00011978BEA91E093838283D8018D918D01DC
:1016E000992787FD909595838483D6012D913D910F
:1016F0004D915D916D0126833783408751870E940C
:101700008801EDB7FEB73A960FB6F894FEBF0FBE4C
:10171000EDBFF4E0033D1F0739F680E695E00E9437
:10172000A01C85C18AE395E00E94E319082F10E010
:1017300012C08AE395E00E94A61A8AE395E00E940F
:10174000E319C556DF4F19830883CB59D04040E0D9
:10175000282F342F8901C8010197039750F3C556EC
:10176000DF4F28813981CB59D0402230310529F013
:101770002330310509F0FBCC42C0E091C705F09160
:10178000C805EE0FFF1FEE0FFF1FE256FC4FA080B3
:10179000B180C280D380C601B50120E03CE34CE1BA
:1017A00056EC0E94372C882309F4E1CC6091D905CE
:1017B0007091DA05882777FD8095982F0E94D62CA6
:1017C0009B01AC01C601B5010E948A2D2091DB0569
:1017D0003091DC054091DD055091DE050E943B2CE7
:1017E0000E94A32CAB01BC0185E795E00E94A721D4
:1017F00031E0C156DF4F3883CF59D040B8CC85E7B0
:1018000095E00E940720C090C705D090C805CC0C79
:10181000DD1CCC0CDD1CAEE9B3E0CA0EDB1E0E9461
:10182000D62C2091DB053091DC054091DD055091EF
:10183000DE050E948A2D7B018C016091D905709193
:10184000DA05882777FD8095982F0E94D62C9B017A
:10185000AC01C801B7010E943B2CF6016083718383
:1018600082839383DAC085E795E00E9407200E9477
:10187000D62C2091DB053091DC054091DD0550919F
:10188000DE050E948A2D7B018C016091D905709143
:10189000DA05882777FD8095982F0E94D62C9B012A
:1018A000AC01C801B7010E943B2C3B014C012DEC5F
:1018B0003CEC4CE45EE30E94862D18165CF40F2E7F
:1018C000FDEC2F2EFCEC3F2EFCE44F2EFEE35F2EB2
:1018D000F02D0AC00F2EF0E02F2EF0E03F2EF0E0AA
:1018E0004F2EF0E05F2EF02D2091C7053091C805F6
:1018F000C056DF4F39832883C05AD040232B09F4C8
:101900008CC0C201B10120E030E040E050E00E9414
:10191000862D18160CF081C0C056DF4FA880B98004
:10192000C05AD0406501CC0CDD1CCC0CDD1C8EE90E
:1019300093E0C80ED91ED5011197CE55DF4FB9835C
:10194000A883C25AD040CD01A0E0B0E0CC55DF4F13
:1019500088839983AA83BB83C45AD0405CC0C05695
:10196000DF4FE881F981C05AD040AE16BF0639F486
:10197000D6016D927D928D929C92139745C0CE5563
:10198000DF4FE881F981C25AD040AE16BF0639F464
:10199000C401B301A20191010E94D22B2FC0A11456
:1019A000B10469F480E090E0A0E0B0E080939E0391
:1019B00090939F03A093A003B093A10325C0B5010A
:1019C000882777FD8095982F0E94D62C7B018C016B
:1019D000CC55DF4F688179818A819B81C45AD04080
:1019E0000E94D42C9B01AC01C401B3010E943B2C8A
:1019F0009B01AC01C801B7010E948A2DD6016D93ED
:101A00007D938D939C9313970894A108B108ECEFF4
:101A1000FFEFCE0EDF1EB7FEA2CF609138057091AA
:101A2000390588EF95E04EE953E00E9433050E94A6
:101A300074059DCB28E630E03BA72AA71DA61CA66F
:101A400084E090E099AB88AB91E09CAB9DAB1EAA83
:101A50008CE08FAB18AE99AF8DE290E09CAF8BAF6E
:101A60008FE08AAF4FE3842E912C8C0E9D1E30ECBC
:101A7000E32E32E1F32E24E6222E312C94E5C92EFA
:101A8000D12CCC0EDD1E81ED482E85E0582E5E0156
:101A90000894A11CB11C06ED602E01E0702E80E6BA
:101AA00095E00E94A01C83EB91E00E94AB14CE0154
:101AB0008A960E9456188CA59DA58230910509F43E
:101AC000B2C0833091052CF4009751F0019739F79B
:101AD0003EC08330910509F4C2C0049701F701CBE1
:101AE000E3EDF5E0D401ED93FC9323961FAE1EAE1B
:101AF00023972796FFAEEEAE27972B963FAE2EAEDE
:101B00002B97F7E02E96FFAF2E9781E02F968FAFA1
:101B10002F9784E060968FAF609762961FAE1EAEDF
:101B2000629780E695E00E94A01C80E695E06EEB4F
:101B300071E00E94F228C4010E94DF1160912E051D
:101B400070912F054091D3055091D40558C0D6010E
:101B500011965C924E9213961C921E92129780914F
:101B6000D3059091D40517969C938E9316978AE08F
:101B700090E01B969C938E931A97E7E01E96EC9349
:101B80001E9781E01F968C931F9784E050968C934C
:101B9000509752961C921E92519780E695E00E94B3
:101BA000A01C00D000D000D0EDB7FEB73196ADB785
:101BB000BEB71296BC92AE921197738262828091E8
:101BC000D3059091D405958384830E948801EDB755
:101BD000FEB736960FB6F894FEBF0FBEEDBF80E697
:101BE00095E0B5010E94F228C6010E94DF116091C4
:101BF0003005709131054091D1055091D20588EFA3
:101C000095E00E946A1E882309F449CF80E695E09A
:101C10000E94A01C8FEC91E00E94AB140E9403056F
:101C200088EE93E019C080E695E00E94A01C84EE47
:101C300091E00E94AB1480E695E067E041E00E94ED
:101C4000711C0E94291BBC0180E695E04AE050E02F
:101C50000E94DF2888EB9BE00E94841120CF80EF58
:101C600091E00E94FE18019709F019CF00E010E002
:101C700088EF95E0B80140E00E94121E0F5F1F4FF1
:101C8000F2E000301F07A1F70ACFAF92BF92CF92C8
:101C9000DF92EF92FF920F931F93DF93CF93CDB715
:101CA000DEB7E2970FB6F894DEBF0FBECDBF8C0152
:101CB0006B015A01DC01ED90FC90B701882777FD9C
:101CC0008095982F0E94D62C9B01AC010E943B2E40
:101CD000882311F4EF2879F588EF95E0B6010E948A
:101CE0001C1FF801808391832DB73EB728503040E8
:101CF0000FB6F8943EBF0FBE2DBFEDB7FEB73196BD
:101D00009E012F5F3F4FADB7BEB712963C932E9307
:101D1000119721E032E033832283B582A482868347
:101D200097830E948801EDB7FEB738960FB6F894F6
:101D3000FEBF0FBEEDBFE2960FB6F894DEBF0FBE3A
:101D4000CDBFCF91DF911F910F91FF90EF90DF906A
:101D5000CF90BF90AF9008958F929F92AF92BF9215
:101D6000CF92DF92EF92FF920F931F93DF93CF9367
:101D7000CDB7DEB7E2970FB6F894DEBF0FBECDBF8A
:101D80006C015B014A01DC01ED90FD900D911C910D
:101D9000C801B7010E94D62C9B01AC010E943B2ECA
:101DA000882329F4E114F1040105110599F588EF60
:101DB00095E0B5010E94021FF60160837183828362
:101DC00093832DB73EB72A5030400FB6F8943EBFEC
:101DD0000FBE2DBFEDB7FEB731969E012F5F3F4F6F
:101DE000ADB7BEB712963C932E93119729E032E01F
:101DF0003383228395828482668377838087918769
:101E00000E948801EDB7FEB73A960FB6F894FEBF70
:101E10000FBEEDBFE2960FB6F894DEBF0FBECDBF8A
:101E2000CF91DF911F910F91FF90EF90DF90CF90B6
:101E3000BF90AF909F908F900895AF92BF92CF9236
:101E4000DF92EF92FF920F931F93DF93CF93CDB763
:101E5000DEB7C456D0400FB6F894DEBF0FBECDBF7C
:101E600088E061E00E94622A89E061E00E94622AC3
:101E700084E061E00E94622A85E061E00E94622ABB
:101E800086E061E00E94622A87E061E00E94622AA7
:101E90008BE061E00E94622A8CE061E00E94622A8D
:101EA0008DE061E00E94622ACE01019662E172E05B
:101EB0000E941301C0902A05D0902B05E090DB050D
:101EC000F090DC050091DD051091DE05C801B70139
:101ED000A80197010E943B2E882351F4C801B70145
:101EE00020E030E040E050E00E94372C8823D1F51C
:101EF00088EF95E0B6010E94D31E6093DB057093D6
:101F0000DC058093DD059093DE052DB73EB72A50A2
:101F100030400FB6F8943EBF0FBE2DBFEDB7FEB7F1
:101F200031969E012D5C3F4FADB7BEB712963C93E4
:101F30002E93119725E232E0338322839E012F5F97
:101F40003F4F3583248366837783808791870E9400
:101F500088012DB73EB7265F3F4F0FB6F8943EBFBE
:101F60000FBE2DBF8E010F5F1F4FC8016FE272E0E1
:101F70000E94130160912C0570912D0589ED95E06B
:101F8000A8010E94450EC80165E472E00E94130199
:101F900060912E0570912F0583ED95E0A8010E94B8
:101FA000450EC8016EE572E00E9413016091300594
:101FB0007091310581ED95E0A8010E94450EC801A0
:101FC0006AE772E00E941301609132057091330557
:101FD00085ED95E0A8010E94AC0EC8016DE972E0A4
:101FE0000E941301609134057091350589EC95E0EC
:101FF000A8010E94AC0EC80167EB72E00E941301B9
:1020000060913605709137058DEC95E0A8010E942E
:10201000AC0E60913805709139058EE993E048E681
:1020200050E029E234E00E943001A9EBEA2EA4E05E
:10203000FA2EFEE9CF2EF3E0DF2E58010BEA11E075
:102040008DB79EB70A970FB6F8949EBF0FBE8DBF8F
:10205000EDB7FEB73196ADB7BEB71196AC921197FA
:102060001296BC9213830283D7018D917D0199272B
:1020700087FD909595838483D6012D913D914D9157
:102080005D916D0126833783408751870E948801C7
:102090002DB73EB7265F3F4F0FB6F8943EBF0FBE39
:1020A0002DBF33EDE31634E0F30651F60E9403052D
:1020B0004091C9055091CA056091CB057091CC053E
:1020C00085E795E00E943A1F4091CD055091CE05DD
:1020D0006091CF057091D00585E795E00E944D1F76
:1020E00080E695E060E142E020E00E94A81C80E6E6
:1020F00095E00E94671C80E695E00E94A01C24E603
:1021000030E0309347042093460482E390E09093BC
:102110004D0480934C0484EF91E0909345048093A8
:10212000440430934B0420934A0480E695E066E033
:1021300074E04CE054E020E130E002E010E0EEE733
:10214000EE2E0E946519CC59DF4F0FB6F894DEBF12
:102150000FBECDBFCF91DF911F910F91FF90EF90F8
:10216000DF90CF90BF90AF900895A091ED05B09112
:10217000EE0520E010C08E1719F4822F8F5F0895AE
:102180009F5FFA01E90FF11DE081EE23A1F72F5FB8
:102190001296263029F04D915C91119790E0F1CF85
:1021A00008958F929F92AF92BF92CF92DF92EF925B
:1021B000FF920F931F93CF93DF93862E942E022FBF
:1021C000E22EFF240894E108F108843608F083E643
:1021D00090E0880F991F9C012E9DC0012F9D900DAE
:1021E0003E9D900D112464E670E00E94952E6B01D7
:1021F0000894C11CD11CC60162E070E00E94952EBB
:10220000EB0110E0AA24BB246FC0412F490D80913F
:10221000E3059091E405682D0E94711C812F90E0E8
:102220008C179D07A1F5112359F4E091E305F09176
:10223000E405A081B1812D913C91CF0160E033C0D4
:10224000CE15DF0559F4E091E305F091E405A08196
:10225000B1812D913C91CF0165E025C0A091E305AE
:10226000B091E405CA14DB0449F4ED91FC91119797
:102270000190F081E02DCD0162E030C0ED91FC9144
:1022800011970190F081E02DCD0163E027C011236B
:1022900069F4E091E305F091E405A081B1812D910D
:1022A0003C91CF0161E0F901099519C0A091E305C6
:1022B000B091E4058E159F0549F4ED91FC911197BD
:1022C0000190F081E02DCD0164E008C0ED91FC911A
:1022D00011970190F081E02DCD0160E209951F5F1B
:1022E00082E090E0A80EB91E101708F48ECFDF919F
:1022F000CF911F910F91FF90EF90DF90CF90BF9003
:10230000AF909F908F9008958F929F92AF92BF92BF
:10231000CF92DF92EF92FF920F93DF93CF9300D093
:10232000CDB7DEB79A8389830E945F294B015C0198
:1023300000E089819A816C01EE24D7FCE094FE2CA8
:1023400012C0ED91FC9111970190F081E02DCD012B
:102350000995882339F00E94B510282F332727FDCF
:1023600030951EC00F5F802F90E0880F991FE0917D
:10237000E905F091EA05E80FF91FA081B1811097F6
:1023800001F70E945F29681979098A099B096C1570
:102390007D058E059F0510F400E0E5CF20E030E0DC
:1023A000C9010F900F90CF91DF910F91FF90EF90A7
:1023B000DF90CF90BF90AF909F908F9008952F9215
:1023C0003F924F925F926F927F928F929F92AF92C5
:1023D000BF92CF92DF92EF92FF920F931F93DF9302
:1023E000CF93CDB7DEB727970FB6F894DEBF0FBEF9
:1023F000CDBF8C012DB73EB73F832E83DC01ED911D
:10240000FC911197E080F18050967C90A72CBB2422
:10241000C5010196EDB7FEB7E81BF90B0FB6F894AE
:10242000FEBF0FBEEDBFCDB6DEB60894C11CD11CF9
:1024300080E090E205C0F601E80FF11D90838F5F08
:102440008715C8F3F601EA0DFB1D10828091E305A4
:102450009091E405D8011E966C911E971F964C91A1
:10246000DE011196E5EEF2E025E001900D9221509B
:10247000E1F70E94711C46018091E3059091E4050B
:10248000B6010E94F2288091E3059091E405F801DD
:10249000668547850E94711CD80151968D919C914B
:1024A0005297009719F0019769F50EC000D000D03F
:1024B00000D0EDB7FEB73196ADB7BEB71196CC924E
:1024C000D18282EE92E010C08B81870D8B8300D089
:1024D00000D000D0EDB7FEB73196ADB7BEB71196BC
:1024E000CC92D182CE01019693838283F582E482DD
:1024F0000E948801EDB7FEB736960FB6F894FEBF7E
:102500000FBEEDBF8091E3059091E405B4010E94F8
:10251000F2288091E3059091E405D8011E966C9114
:102520001E971F964C910E94711C8091E30590911B
:10253000E4050E94551CAC0CBD1CF2EE2F2EF2E0FF
:102540003F2EE0E36E2E670C2E010894411C511CB7
:1025500082E390E00E948411833009F4AEC084309D
:1025600028F4813061F0823099F72CC0853009F46D
:10257000C0C0853008F4AFC0863051F7C8C0F8013C
:1025800082859385E80EF91E868197818E159F05B9
:1025900014F4E280F3808091E3059091E405D80182
:1025A0001E966C911E971F964C910E94711C80E0A4
:1025B00006C0F601E80FF11DB0E2B0838F5F87150A
:1025C000C0F322C0F80182859385E81AF90A828156
:1025D0009381E816F90614F4E680F7808091E3050C
:1025E0009091E405D8011E966C911E971F964C9110
:1025F0000E94711C80E006C0F601E80FF11DB0E2F8
:10260000B0838F5F8715C0F3F50110828091E305D9
:102610009091E405B4010E94F2288091E305909125
:10262000E405D8011E966C911E971F964C910E944E
:10263000711CF80181899289009719F0019749F579
:102640000EC000D000D000D0EDB7FEB73196ADB7C8
:10265000BEB711968C929182338222820EC06B8219
:1026600000D000D000D0EDB7FEB73196ADB7BEB701
:1026700011968C92918253824282F582E4820E946A
:102680008801EDB7FEB736960FB6F894FEBF0FBEC1
:10269000EDBF8091E3059091E405B4010E94F2281A
:1026A0008091E3059091E405D8011E966C911E97E8
:1026B0001F964C910E94711C4BCFD801ED91FC915B
:1026C000F182E0828091E3059091E4050E945F1C15
:1026D0002DEF3FEF24C0D801ED91FC91F182E08213
:1026E0008091E3059091E4050E945F1C2CEF3FEF81
:1026F00016C0D801ED91FC91F182E0828091E30552
:102700009091E4050E945F1C21E030E008C08091B8
:10271000E3059091E4050E945F1C2FEF3FEFC90194
:10272000EE81FF810FB6F894FEBF0FBEEDBF279676
:102730000FB6F894DEBF0FBECDBFCF91DF911F91D2
:102740000F91FF90EF90DF90CF90BF90AF909F9050
:102750008F907F906F905F904F903F902F90089553
:102760008F929F92AF92BF92CF92DF92EF92FF92A1
:102770000F931F93CF93DF936C01DC011B969C900A
:102780001B971A968C9000E0FF24A92CBB24089478
:10279000A108B1085DC0F60182819381800F911D6F
:1027A000C081D181FE0101900020E9F73197EC1B37
:1027B000FD0B8E179F0728F4C80FD91F68816A3058
:1027C00019F40F5F10E001C0162FD6011F964C912F
:1027D0001F974F0D8091E3059091E4051E966C9133
:1027E0000E94711CEE2431C0A091E305B091E40574
:1027F000112351F4ED91FC9111970190F081E02D9E
:10280000CD0160E2099520C0ED91FC9111970190F6
:10281000F081E02DCD01612F09950F5FD601ED917B
:10282000FC911197E00FF11D12968D919C911397D9
:10283000E80FF91F10811A3039F48E2D90E08A15B7
:102840009B0514F40F5F10E0E394E91468F2F3942D
:10285000F81408F4A0CFF60181899289019769F5EF
:10286000D601EC911196FC91DF010D900020E9F763
:102870007D010894E108F108EE1AFF0AF601628171
:102880007381882777FD8095982F24E630E040E01B
:1028900050E00E94562E00E010E0A80197010E942F
:1028A000CA2E822FD6011E969C911E97990E692DD5
:1028B0001F964C91282D0E94D110DF91CF911F912E
:1028C0000F91FF90EF90DF90CF90BF90AF909F90CF
:1028D0008F900895CF92DF92EF92FF920F931F9304
:1028E000CF93DF937C016B018901BC01620F731FE1
:1028F000552747FD509590E21AC037FD0AC0F701F1
:1029000001900020E9F7EE19FF093297E217F3076B
:1029100028F4F601E80FF11D908305C0CC0DDD1DF4
:10292000FB01808188832F5F3F4F6F5F7F4F822F36
:10293000801BC82FD0E0C417D507FCF24C0D5D1DDD
:10294000FA011082DF91CF911F910F91FF90EF90CC
:10295000DF90CF9008958F929F92AF92BF92CF92C7
:10296000DF92EF92FF920F931F93DF93CF93CDB738
:10297000DEB765970FB6F894DEBF0FBECDBF6C0112
:10298000E090E505F090E605C70162E070E00E9486
:10299000952E8B01AA24BB24BE016F5F7F4F8CE371
:1029A000882EBEE39B2E2BC0F60101900020E9F794
:1029B0003197EC19FD09AF0156954795CA018E1B59
:1029C0009F0B800F911F2817390728F4260F371FF8
:1029D000F901908213C0400F511F2417350728F0CA
:1029E000260F371FF901808209C0260F371FF60115
:1029F000EA0DF11D8081F9018083A394B3942B2DFE
:102A000030E02E153F0584F2BE016F5F7F4FE60E6A
:102A1000F71EF70110828091E3059091E4050E9472
:102A2000F22865960FB6F894DEBF0FBECDBFCF91EA
:102A3000DF911F910F91FF90EF90DF90CF90BF90AB
:102A4000AF909F908F9008954F925F926F927F9278
:102A50008F929F92AF92BF92CF92DF92EF92FF92AE
:102A60000F931F93CF93DF932C014B0159016C01FE
:102A7000C20ED31E8901E42EFF24E7FCF09490E2FD
:102A8000692E18C017FD07C0C2010E940A010197F4
:102A90008017910728F4F401E70DF11D608205C04D
:102AA000F6018491C80DD91D88830F5F1F4F0894CC
:102AB000C11CD11C702E7A18C72DD0E0CE15DF05B1
:102AC0000CF3E80CF91CF7011082DF91CF911F91F4
:102AD0000F91FF90EF90DF90CF90BF90AF909F90BD
:102AE0008F907F906F905F904F9008952F923F92BC
:102AF0004F925F926F927F928F929F92AF92BF920E
:102B0000CF92DF92EF92FF920F931F93DF93CF93B9
:102B1000CDB7DEB7A0970FB6F894DEBF0FBECDBF1E
:102B20007C01DC011B96BC91BA8FFC01F285F98F08
:102B3000FB9F002D1124DC011D96BC91B88FFC0178
:102B4000F485FF8B0E945F293B014C01D701519610
:102B50008C91519712964D915C91139785FF16C0F9
:102B6000202F2695142F121B17FF02C010E016C04D
:102B7000F70186819781400F511D421B510984172F
:102B8000950764F4182F1F5F101B08C0CA01602F3F
:102B900070E00E94952E609F102D11240150F02F9F
:102BA000F10FFB8F0F5FD70116962D913C91179770
:102BB0008F2F90E0281739070CF42B8FC401B30135
:102BC00024EF31E040E050E00E94A82EC901DA0174
:102BD0003C014D01A12E1C8EE12FF0E0FE8FED8F08
:102BE000E00FF11DF8A3EF8F1E010894211C311C8A
:102BF00029C1FB8DFA1510F490E0BFC0D7015196A2
:102C00008D919C9152979C012870307090FF64C008
:102C1000232BD1F112968D919C911397481659064A
:102C200099F5C201880F991FED91FC91E80FF91FEA
:102C30000081D180E02FFD2DDF010D900020E9F70C
:102C40001197AE1BBF0BF7011089212F30E02A1717
:102C50003B07D0F42A0F3B1F40E050E0C401B30112
:102C60000E94CA2E9B01AC0139014A01611A710808
:102C700081089108802F9D2DB101412F93010E9461
:102C80006A14F1E0FC8F82C08A2D90E0880F991FB2
:102C9000D701ED91FC911197E80FF91F60817181C7
:102CA00050964C9150E04F5F5F4FC1010E941A0156
:102CB000982FF7018089981708F068C0892F06C0FF
:102CC000F101E80FF11D20E220838F5FD7015096BC
:102CD0009C918917A8F348C0232B09F4CBC1F701B5
:102CE000828193814816590609F0C4C1C201880F38
:102CF000991F0190F081E02DE80FF91FC590D49045
:102D0000C6010E940A01D7015096BC900B2D10E01D
:102D10000817190708F0AEC1C6010E940A01080F82
:102D2000191F980140E050E0C401B3010E94CA2E6F
:102D30009B01AC0139014A016B18710881089108A7
:102D4000C601B1014B2D93010E942415B1E0BC8F47
:102D50001DC0F101E80FF11D20E220838F5FD70134
:102D600050969C918917A8F3F101E90FF11D0DC050
:102D7000E20DF31DB0E2B0839F5FF7018089E92F78
:102D8000F0E09817A8F3E20DF31D1082F2012D8DEB
:102D90003E8DE21BF30BCF01698D70E00E94952EF2
:102DA000D70150968C91509790E001969C01629FBC
:102DB000C001639F900D729F900D11241E962C915F
:102DC000280FCF01698D70E00E94952ED7011F96C4
:102DD0004C91480F8091E3059091E405622F0E9489
:102DE000711CF701818980FF25C00091E3051091D6
:102DF000E405FB8DFA15A8F0D801ED91FC91019046
:102E0000F081E02DD70112968D919C911397481671
:102E1000590619F46091EB0502C06091EC05C801F8
:102E200008C0D801ED91FC910190F081E02DC8011E
:102E300060E209958091E3059091E405B1010E945B
:102E4000F228A3944A2C5524EF8DF8A14E165F0664
:102E50000CF4CFCED70151968C9181FF36C0809172
:102E6000E3059091E405688D4F890E94711CDD2473
:102E700023C0F701828193810091E3051091E4055D
:102E80002817390751F4D801ED91FC910190F08198
:102E9000E02DC8016091EB050DC0D801ED91FC91CA
:102EA0008D2D6AE00E94752E692F6F5C0190F08174
:102EB000E02DC8010995D3942D2D30E0F7018681CE
:102EC000978182179307ACF64AC082FF48C02DB79E
:102ED0003EB72A5030400FB6F8943EBF0FBE2DBF0C
:102EE000EDB7FEB731968E010F5F1F4FADB7BEB77E
:102EF00012961C930E9311978FEE92E09383828328
:102F00008091EB05992787FD909595838483D70160
:102F100012968D919C9113970196978386831696AE
:102F20008D919C9117970196918780870E948801C7
:102F3000EDB7FEB73A960FB6F894FEBF0FBEEDBFE1
:102F40008091E3059091E405688D4F890E94711C82
:102F50008091E3059091E405B8010E94F228D70121
:102F600051964C91519746FF2CC012962D913C9151
:102F700013972F5F3F4F16966D917C9117976F5F58
:102F80007F4F84E690E0FC012E9FC0012F9F900DA3
:102F90003E9F900D11240E94952E862FD7015096AA
:102FA0006C916F5FBA8D6B9F602D1124F701968530
:102FB000690F942F90959170691B4785298D0E9408
:102FC000D110D70151968C9151970091E305109142
:102FD000E40584FF32C012962D913C911397ED8D3C
:102FE000FE8D2E1B3F0BC901698D70E00E94952E4E
:102FF000D70150968C91509790E00196FC016E9FFE
:10300000C0016F9F900D7E9F900D11241E96EC9134
:10301000E80FC901698D70E00E94952ED7011F96B7
:103020004C91480FC8016E2F0E94711C8091E305DE
:103030009091E4050E94431C03C0C8010E944D1CEE
:103040008C8DA0960FB6F894DEBF0FBECDBFCF918A
:10305000DF911F910F91FF90EF90DF90CF90BF9085
:10306000AF909F908F907F906F905F904F903F9028
:103070002F9008958A2D90E0880F991FD701ED9128
:10308000FC911197E80FF91F6591749150964C913E
:1030900050E04F5F5F4FC1010E94F400982FF7018D
:1030A0008089981708F072CE892F59CECF92DF927F
:1030B000FF920F931F93DF93CF93CDB7DEB78C01B1
:1030C000CDB6DEB6FC01808990E001962DB73EB703
:1030D000281B390B0FB6F8943EBF0FBE2DBFC80199
:1030E0000E947615F82E82E390E00E948411F80188
:1030F000338522858330910581F1843091054CF42C
:103100008130910599F082309105E4F4892B59F0D2
:103110004CC085309105B9F1853091053CF1069799
:1031200009F043C039C0FF20F1F2D9CFF801828104
:1031300093811816190614F4019744C0F80186818A
:10314000978140C0F80122813381868197812817B9
:103150003907F4F52F5F3F4F40C0F8018785228182
:103160003381281B310937FDBACF37C0F801878575
:1031700022813381280F311D868197818217930721
:103180000CF4ADCF2AC08091E3059091E4050E9434
:103190005F1C21E030E024C08091E3059091E405BC
:1031A0000E945F1C2FEF3FEF1BC0F801428153814B
:1031B000239FC0011124840F951F26813781281772
:1031C00039071CF0938382838ACF4217530721F477
:1031D000F8011382128283CFF801338322837FCFD9
:1031E000C9010FB6F894DEBE0FBECDBECF91DF9100
:1031F0001F910F91FF90DF90CF9008950F931F9331
:10320000DF93CF93CDB7DEB765970FB6F894DEBFE7
:103210000FBECDBF8C018091E3059091E4050E9423
:10322000A01C1A8309831C821B824091E5055091E2
:10323000E6052091E7053091E80518861F82249F56
:10324000C001259F900D349F900D11240A9721F005
:1032500081E090E098878F832B874C871F86188AA0
:103260001B8A1A8A8E010F5F1F4FC8010E94B0137C
:1032700081E291E09A8389831C821B8281E090E045
:1032800098878F8389E0898B8091E50589508F87A6
:103290008091E7058150888B81E08B878C871B8A22
:1032A0001A8AC8010E9456188F5F9F4F19F08B81B0
:1032B0009C8100C065960FB6F894DEBF0FBECDBFEF
:1032C000CF91DF911F910F910895EF92FF920F938D
:1032D0001F93DF93CF93CDB7DEB72A970FB6F8943D
:1032E000DEBF0FBECDBF9093E4058093E3057093DE
:1032F000EA056093E9055093EE054093ED053093A0
:10330000E6052093E5051093E8050093E705E092B4
:10331000EB0525EA2093EC05892BE9F000E010E0AD
:103320007E010894E11CF11CF801EE0FFF1FEF5F16
:10333000FE4F65917491C7010E94ED008091E305F5
:103340009091E405602FA7010E941B1C0F5F1F4F87
:103350000630110549F71092EF052A960FB6F8943A
:10336000DEBF0FBECDBFCF91DF911F910F91FF90B8
:10337000EF900895FC018281089570934504609355
:10338000440408957093470460934604089570932D
:10339000490460934804089570934B0460934A0471
:1033A000089570934D0460934C040895FC01838547
:1033B0008F3F11F480E008950784F089E02DE80F35
:1033C000F11D80810895FC01848508951F93CF939A
:1033D000DF93EC01E881F9810288F389E02D0995FA
:1033E000182F8C85823009F467C0833030F488232D
:1033F00071F0813009F0A5C04BC0843009F476C06B
:10340000843008F47BC0853009F09BC00BC01F3F9F
:10341000D9F10E945F296C837D838E839F8385E031
:103420008C878FC01F3F91F18B85811739F50E94E2
:103430005F292C813D814E815F81621B730B840B60
:10344000950B209146043091470440E050E0261748
:1034500037074807590708F074C081E08C870E943D
:103460005F296C837D838E839F836093F0057093C7
:10347000F1058093F2059093F30561C00E945F29E6
:103480006C837D838E839F831B875BC01C86FCCFF0
:103490001F3F49F08B85811711F482E001C085E060
:1034A0008C8782E001C084E08C870E945F296C8356
:1034B0007D838E839F8345C08B858117A1F70E94F2
:1034C0005F292C813D814E815F81621B730B840BD0
:1034D000950B209144043091450440E050E02617BC
:1034E00037074807590768F583E0DECF1F3F11F41F
:1034F0001C8627C085E08C871B87D7CF8B858117DB
:1035000019F084E08C8715C00E945F292C813D81D1
:103510004E815F81621B730B840B950B20914A04D3
:1035200030914B0440E050E0261737074807590711
:1035300040F40E945F296C837D838E839F838B85FB
:1035400001C08FEFDF91CF911F910895CF93DF934B
:10355000EC010E94E6198F3F11F480E005C0EF8571
:10356000F889E80FF11D8081DF91CF910895EF92E6
:103570000F931F93CF93DF93EC0187ED94E0998332
:10358000888388E08A83788B6F875E874D873A8B44
:10359000298B0887E9868FEF8B871C860E945F291D
:1035A0006C837D838E839F8300E010E012C0ED85E5
:1035B000FE85E00FF11F808160E00E94622AED85A8
:1035C000FE85E00FF11F808160E00E94A12A0F5F5D
:1035D0001F4F888590E0081719074CF3DF91CF91B2
:1035E0001F910F91EF9008951F93CF93DF93EC01FC
:1035F00010E027C0ED85FE85E10FF11D80810E945E
:10360000402A598540E020E030E018C0E989FA8975
:10361000E20FF31F0190F081E02DE81BF90BF7FF9B
:1036200003C0F095E195FF4F2E5F3F4F3A972CF482
:10363000519F802D1124840F08C04F5F451730F330
:103640001F5F88851817B0F28FEFDF91CF911F9120
:103650000895DF93CF9300D0CDB7DEB72091A006B9
:103660003091A106CE0101962115310529F4845A25
:1036700096409A83898318C0AC01421B530BE0919A
:10368000A206F091A30620E030E008C0808191817D
:103690000296280F391F0280F381E02D3097B1F791
:1036A000240F351F3A83298389819A810F900F90C7
:1036B000CF91DF9108950F931F938C01FC018681B8
:1036C00060E00E94A12A81E090E00E949329F80125
:1036D000868161E00E94A12A81E090E00E94932906
:1036E000F801868160E00E94A12A84E690E00E94B1
:1036F00093291F910F910895CF92DF92EF92FF923D
:103700000F931F93CF93DF93D82EC92E282F392FD5
:10371000C9018C01C0E0D0E0E62EFF24F8018781CA
:1037200061E00E94622AB7010C2E02C07595679570
:103730000A94E2F76170F80187810E94A12A21961C
:103740000F5F1F4FC830D10549F78D2D9C2D0E946A
:103750005B1BDF91CF911F910F91FF90EF90DF9056
:10376000CF900895CF92DF92EF92FF920F931F9325
:10377000CF93DF93D82EC92E282F392FC9018C0162
:10378000C0E0D0E0E62EFF24F801878161E00E94CE
:10379000622AB7010C2E02C0759567950A94E2F76C
:1037A0006170F80187810E94A12A21960F5F1F4F47
:1037B000C430D10549F78D2D9C2D0E945B1BDF91F4
:1037C000CF911F910F91FF90EF90DF90CF900895D0
:1037D0001F93CF93DF93EC01162F8C81642F0E94EF
:1037E000A12A8D818F3F19F060E00E94A12A8F8568
:1037F00084FF05C0CE01612F0E947C1B0EC0612F8B
:1038000070E084E0759567958A95E1F7CE010E9496
:10381000B21BCE01612F0E94B21BDF91CF911F918D
:10382000089541E00E94E81B81E090E0089540E0A7
:103830000E94E81B0895EF92FF920F931F93CF937E
:10384000DF938C017A016770660F660F660F606404
:103850000E94171CC0E0D0E0D801ED91FC91D70187
:10386000AC0FBD1F0190F081E02DC8016C9109954E
:103870002196C830D10581F7DF91CF911F910F912B
:10388000FF90EF900895FC016089862F8160808B06
:103890006960CF010E94171C0895FC0160896E7F4A
:1038A000608B68600E94171C0895FC016089862F58
:1038B0008260808B6A60CF010E94171C0895FC0112
:1038C00060896D7F608B68600E94171C0895FC0101
:1038D0006089862F8460808B6C60CF010E94171CEA
:1038E0000895DF93CF93CDB7DEB728970FB6F8943E
:1038F000DEBF0FBECDBF9C01FE013196A3EFB4E049
:1039000088E00D9001928150E1F7F9018389481711
:1039100010F0482F4150E42FF0E0EE0FFF1FEC0FA6
:10392000FD1F8181680F6068C9010E94171C2896DD
:103930000FB6F894DEBF0FBECDBFCF91DF910895D3
:1039400061E00E94171C80ED97E00E949329089582
:10395000CF93DF93EC01423018F08F8588608F871A
:103960004B8B1C8A222329F0413019F48F85846007
:103970008F8780E593EC0E9493298C8160E00E9400
:10398000A12A8E8160E00E94A12A8D818F3F19F0CB
:1039900060E00E94A12A6F8564FD1DC0CE0163E036
:1039A0000E94B21B84E991E10E949329CE0163E059
:1039B0000E94B21B84E991E10E949329CE0163E049
:1039C0000E94B21B86E990E00E949329CE0162E03A
:1039D0000E94B21B16C06062CE010E94171C84E9CF
:1039E00091E10E9493296F856062CE010E94171CAD
:1039F00086E990E00E9493296F856062CE010E9463
:103A0000171C6F856062CE010E94171C84E0888BB2
:103A1000CE010E94671CCE010E94A01C82E0898B0F
:103A2000CE0166E00E94171CDF91CF9108956F923E
:103A30007F928F92AF92CF92EF920F931F93DF936B
:103A4000CF93CDB7DEB73C01162F842FF30144830B
:103A500025830683E782C086A18682869D8593871B
:103A60009E8594879F8595879889968761E00E94B7
:103A7000622AF30185818F3F19F061E00E94622A7A
:103A8000F301868161E00E94622A112319F0F3019B
:103A9000178603C080E1F3018787C30160E141E03D
:103AA00020E00E94A81CCF91DF911F910F91EF9011
:103AB000CF90AF908F907F906F9008958F92AF923C
:103AC000CF92EF920F931F93CF93DF93DC01362FAA
:103AD000542F722F102FAE2C8C2C13961C921E92EA
:103AE00012978FEE94E011969C938E9300D000D0A5
:103AF000EDB7FEB73196CDB7DEB7198211821282CB
:103B00001382CD0161E0432F2FEF052FE72EC12E49
:103B10000E94171D0F900F900F900F90DF91CF9183
:103B20001F910F91EF90CF90AF908F9008959C01CF
:103B3000F999FECF32BD21BDF89A80B5089584E68B
:103B400090E09093F9058093F805089580914E04D4
:103B500090914F048617970714F081E008958AEF3B
:103B600095E067EF72E00E94F52880E00895CF931A
:103B7000DF93EB016F5F7F4F0E94A61D882331F01A
:103B8000F999FECFD2BDC1BDF89A80B5DF91CF9132
:103B900008950E94B71D0895FC018091F60590914B
:103BA000F70501969093F7058093F6050190F08153
:103BB000E02D309719F0E817F90744F48AEF95E003
:103BC00061E273E00E94F52880E0089580914E0440
:103BD00090914F048617970714F081E008958AEFBB
:103BE00095E067EF72E00E94F52880E008951F934A
:103BF000CF93DF93142FEB016F5F7F4F0E94CC1D9B
:103C0000882361F0F999FECF1FBAD2BDC1BD10BDA6
:103C10000FB6F894FA9AF99A0FBE81E0DF91CF912E
:103C20001F9108950E94F71D08958F929F92AF9261
:103C3000BF92CF92DF92EF92FF920F931F93DF9389
:103C4000CF9300D000D0CDB7DEB75C016B012983E4
:103C50003A834B835C836C5F7F4F0E94CC1D88232B
:103C600011F18E010F5F1F4FEE24FF2494E0892E87
:103C7000912C8C0E9D1EC501B6010E94B71DF80146
:103C80004081841739F0C501B6010E94F71D0894E0
:103C9000E11CF11C0815190541F00894C11CD11C48
:103CA0000F5F1F4FE8CFEE24FF2480E0EF2809F0DC
:103CB00081E00F900F900F900F90CF91DF911F91A7
:103CC0000F91FF90EF90DF90CF90BF90AF909F90BB
:103CD0008F900895CF92DF92EF92FF920F931F93F0
:103CE000DF93CF9300D0CDB7DEB76C017B015A8351
:103CF00049836E5F7F4F0E94CC1D882319F400E03A
:103D000010E022C0C601B7010E94B71D4981841787
:103D100019F400E010E006C0C601B7010E94F71DCB
:103D200001E010E00894E11CF11CC601B7010E94FB
:103D3000B71DFE0131964181841731F0C601B701EC
:103D40000E94F71D0F5F1F4F80E0012B09F081E0FB
:103D50000F900F90CF91DF911F910F91FF90EF90F7
:103D6000DF90CF900895CF93DF93C091F405D09169
:103D7000F5056C0F7D1F7093F5056093F405809138
:103D80004E0490914F04861797074CF48AEF95E004
:103D900067EF72E00E94F528D095C195DF4FCE0104
:103DA000DF91CF9108950F931F93DF93CF9300D0AE
:103DB00000D0CDB7DEB78B016C5F7F4F0E94A61D90
:103DC000882321F470E060E090E00DC0CE01019600
:103DD000B80144E050E027E93DE10E9430017981DB
:103DE0006A819B818C81272F362F492F582FB9014B
:103DF000CA010F900F900F900F90CF91DF911F91FC
:103E00000F910895CF93DF93EB016C5F7F4F0E947A
:103E1000A61D882329F420E030E040E050E007C0F0
:103E2000CE0167E97DE10E944C019B01AC01B90123
:103E3000CA01DF91CF910895CF93DF93EB016E5FBD
:103E40007F4F0E94A61D882319F420E030E006C0B1
:103E5000CE0167E97DE10E9472019C01C901DF91F9
:103E6000CF910895FC01EC5BFF4F608171818281ED
:103E700093810895FC01EC5BFF4F40835183628383
:103E80007383399681E080830895FC01E85BFF4FDE
:103E900060817181828193810895FC01E85BFF4F0D
:103EA000419351936193719381E080830895FC0164
:103EB000E35BFF4F10820895FC01E45BFF4F10822B
:103EC0000895FC01E35BFF4F80810895FC01E45BF2
:103ED000FF4F80810895FC01E35BFF4F8081ED542B
:103EE000F0408823A9F0EC5BFF4F208131814281B3
:103EF0005381E454F04087859089A189B2892817BD
:103F000039074A075B0724F42787308B418B528B94
:103F1000E45BFF4F8081EC54F0408823A9F0E85B1C
:103F2000FF4F2081318142815381E854F0408785E1
:103F30009089A189B28982179307A407B50724F451
:103F40002787308B418B528B0895EF92FF920F930E
:103F50001F93CF93DF93EC017A018B01C35BDF4F9B
:103F60008881CD54D0408823B9F0FE01EC5BFF4F2F
:103F700080819181A281B3812B853C854D855E85B1
:103F8000821B930BA40BB50B8E0D9F1DA01FB11FA1
:103F900080839183A283B383C45BDF4F8881CC5439
:103FA000D0408823B9F0FE01E85BFF4F808191810A
:103FB000A281B3812B853C854D855E85821B930B49
:103FC000A40BB50B8E0D9F1DA01FB11F8083918385
:103FD000A283B383DF91CF911F910F91FF90EF9058
:103FE0000895FC012785308941895289838594850C
:103FF000A585B685281B390B4A0B5B0BB901CA0195
:104000000895FC0167857089818992890895FC0172
:1040100063857485858596850895CF92DF92EF92AA
:10402000FF920F931F936C017A018B01DC01ED91DC
:10403000FC91008CF18DE02D0995F601E386F48664
:1040400005871687D6011F96ED92FD920D931C935E
:10405000529713AA14AA15AA16AA93961D921D92F6
:104060001D921C9296971F910F91FF90EF90DF90F9
:10407000CF9008956F927F928F929F92AF92BF924E
:10408000CF92DF92EF92FF920F931F93CF93DF9324
:10409000EC01AF84B888C988DA888B859C85AD85AA
:1040A000BE85A81AB90ACA0ADB0A2B893C894D8940
:1040B0005E89CA01B9010E948A2D7B018C012B8D7A
:1040C0003C8D4D8D5E8DCA01B9010E94D32B9B01A1
:1040D000AC01C801B7010E943B2C0E94A32C9B019C
:1040E000AC01A114B104C104D104B9F4623071056A
:1040F000810591050CF085C01BA21CA21DA21EA269
:1041000080E090E0A0E0B0E08B8B9C8BAD8BBE8B11
:104110001BAA1CAA1DAA1EAA0BC1EBA8FCA80DA9CC
:104120001EA91A141B041C041D0444F51E141F04AC
:104130001006110674F46A157B058C059D05B4F50F
:10414000CD5BDF4F8881C354D040882309F059C02C
:104150002DC0E114F1040105110509F452C06A15DE
:104160007B058C059D050CF04CC0CD5BDF4F888135
:10417000C354D040813009F044C038C01E141F041D
:1041800010061106DCF488279927DC018A199B099F
:10419000AC09BD09281739074A075B073CF4CD5B1A
:1041A000DF4F8881C354D040813059F58827992743
:1041B000DC01821B930BA40BB50B1FC0E114F104AF
:1041C00001051105F1F088279927DC018A199B095F
:1041D000AC09BD09281739074A075B0794F4CD5B82
:1041E000DF4F8881C354D040882359F4882799270A
:1041F000DC018E199F09A00BB10B8BAB9CABADAB57
:10420000BEAB6BA87CA88DA89EA861147104810424
:104210009104A9F48FA998ADA9ADBAAD8BAF9CAFAD
:10422000ADAFBEAFFE01ED5BFF4F10821A141B0451
:104230001C041D040CF049C081E0808346C0ABAC77
:10424000BCACCDACDEACC601B50120E030E040E056
:1042500050EC0E948A2D7B018C01C401B3010E94A5
:10426000D62C20E030E040E850E40E948A2D20E087
:1042700030E040E85FE30E94D32B9B01AC01C80112
:10428000B7010E943B2C9B01AC01C601B5010E9405
:10429000D32B7B018C016BAF7CAF8DAF9EAFEF96C4
:1042A000A880B980CA80DB80EF979501A6010E94A3
:1042B000862D181624F4D801C70157016D01C501D8
:1042C000D6018BAF9CAFADAFBEAF8BA99CA9ADA9FA
:1042D000BEA90196A11DB11D8BAB9CABADABBEAB16
:1042E0006BAD7CAD8DAD9EAD0E94A82C6BA37CA365
:1042F0008DA39EA360E074E284E799E42BAD3CAD0E
:104300004DAD5EAD0E943B2C9B01AC016B8B7C8B59
:104310008D8B9E8BCD5BDF4F8881C354D04088232B
:1043200039F4DA01C901B0588B8B9C8BAD8BBE8BF5
:10433000DF91CF911F910F91FF90EF90DF90CF9081
:10434000BF90AF909F908F907F906F900895CF9384
:10435000DF93EC018F859889A989BA89841795071D
:10436000A607B70771F04F87588B698B7A8BE88166
:10437000F9810688F789E02DCE010995CE010E94CA
:104380003A20DF91CF910895FC01DB01CA014385FA
:10439000548565857685480F591F6A1F7B1FCF019D
:1043A0000E94A7210895EF92FF920F931F93CF933E
:1043B000DF93EC017A018B016F89788D898D9A8D5D
:1043C000A80197010E94372C8823E1F1EF8AF88E2B
:1043D000098F1A8FEF9660E074E284E799E4A801F0
:1043E00097010E943B2C688379838A839B83EF9794
:1043F0008BA99CA9ADA9BEA9181619061A061B06F9
:104400000CF52B893C894D895E89CA01B9010E944E
:104410008A2D7B018C012B8D3C8D4D8D5E8DCA01CB
:10442000B9010E94D32B9B01AC01C801B7010E94C6
:104430003B2C0E94A32C6BAB7CAB8DAB9EABCE0117
:104440000E943A20DF91CF911F910F91FF90EF9042
:1044500008954F925F926F927F928F929F92AF9248
:10446000BF92CF92DF92EF92FF920F931F93CF9361
:10447000DF932C017A018B01CB01BA01F201238970
:104480003489458956890E94372C882309F455C000
:10449000F201A788B08CC18CD28C3501460197FA05
:1044A000909497F89094C801B701A40193010E94D9
:1044B000372C88231CF4840173010AC0C801B7019A
:1044C000A60195010E94862D181614F48601750127
:1044D000C801B70120E030E040E050E00E94372CF6
:1044E000882331F4F20113A214A215A216A220C04F
:1044F00060E074E284E799E4A80197010E943B2CF4
:104500009F770E94A82CF20163A374A385A396A3AE
:10451000E201CD5BDF4F1882C801B70120E030E037
:1045200040E050E00E94862D181614F481E0888344
:10453000F201E38AF48A058B168BDF91CF911F91EC
:104540000F91FF90EF90DF90CF90BF90AF909F9032
:104550008F907F906F905F904F900895FC0123891A
:10456000348945895689B901CA010895DC0112963A
:104570008C911297833001F1843040F4813089F0BE
:10458000ED91FC911197823098F407C0863011F1BB
:10459000883049F1843079F516C00084F185E02D2A
:1045A0001FC0ED91FC9111970284F385E02D18C096
:1045B0000484F585E02D14C0ED91FC9111970684DB
:1045C000F785E02D0DC0ED91FC9111970088F189E0
:1045D000E02D06C0ED91FC9111970288F389E02D42
:1045E000CD0109950895ED91FC9111970488F58905
:1045F000E02DCD0109950895CF93DF93EC016B89F0
:104600007C898D899E8920E030E040E050E00E9466
:10461000862D18161CF4EFA5F8A902C0E9A9FAA97D
:104620000995DF91CF910895DC014370507060705F
:1046300070704130510561057105F1F0423051054E
:104640006105710534F4411551056105710561F08D
:1046500008954230510561057105B1F043305105AF
:104660006105710501F518C0ED91FC911197048069
:10467000F581E02D62E00EC0ED91FC911197048070
:10468000F581E02D63E006C0ED91FC910480F58199
:10469000E02D61E009950895ED91FC910480F5818C
:1046A000E02D60E009950895CF93DF93EC01CB01F5
:1046B000BA0123E030E040E050E00E94CA2E6130B1
:1046C00071058105910591F06230710581059105B3
:1046D000A9F06115710581059105C1F4E881F981A1
:1046E0000480F581E02DCE0164E00FC0E881F981FE
:1046F0000480F581E02DCE0161E007C0E881F981F9
:104700000480F581E02DCE0162E00995DF91CF9123
:104710000895DC0143705070607070704130510535
:1047200061057105F1F0423051056105710534F400
:10473000411551056105710561F00895423051053B
:1047400061057105B1F0433051056105710501F551
:1047500018C0ED91FC9111970480F581E02D65E082
:104760000EC0ED91FC9111970480F581E02D66E07B
:1047700006C0ED91FC910480F581E02D6AE0099579
:104780000895ED91FC910480F581E02D69E0099593
:104790000895CF93DF93EC01CB01BA0126E030E01E
:1047A00040E050E00E94CA2E6230710581059105FB
:1047B00089F1633071058105910564F46115710516
:1047C00081059105B9F0613071058105910509F008
:1047D00041C018C0643071058105910559F16430FC
:1047E000710581059105F4F065307105810591052C
:1047F00089F528C0E881F9810480F581E02DCE019A
:1048000064E027C0E881F9810480F581E02DCE01C4
:1048100065E01FC0E881F9810480F581E02DCE01BB
:1048200061E017C0E881F9810480F581E02DCE01B7
:1048300063E00FC0E881F9810480F581E02DCE01AD
:1048400062E007C0E881F9810480F581E02DCE01A6
:1048500066E00995DF91CF910895DC0147705070B3
:1048600060707070433051056105710509F443C0F3
:10487000443051056105710584F4413051056105ED
:10488000710549F1423051056105710564F5411525
:10489000510561057105B9F008954530510561056F
:1048A0007105C9F1453051056105710564F1463066
:1048B000510561057105B9F1473051056105710573
:1048C00009F040C038C0ED91FC9111970480F5814A
:1048D000E02D61E02EC0ED91FC9111970480F581EF
:1048E000E02D65E026C0ED91FC9111970480F581E3
:1048F000E02D64E01EC0ED91FC9111970480F581DC
:10490000E02D66E016C0ED91FC9111970480F581D1
:10491000E02D62E00EC0ED91FC9111970480F581CD
:10492000E02D6AE006C0ED91FC910480F581E02D58
:1049300068E009950895ED91FC910480F581E02DE2
:1049400069E009950895AF92BF92CF92DF92EF92FE
:10495000FF920F931F93CF93DF93EC01AB88BC883A
:10496000CD88DE88C601B50120E030E040E050E0AF
:104970000E94372C8823B9F1C601B501A601950123
:104980000E948A2D7B018C012B8D3C8D4D8D5E8D7F
:10499000CA01B9010E94D32B9B01AC01C801B70128
:1049A0000E943B2C0E94A32C7B018C010894E11CEB
:1049B000F11C011D111DC601B50120E030E040E0F1
:1049C00050E00E94862D181624F4CE01B801A701EC
:1049D00008C044275527BA014E195F09600B710BB7
:1049E000CE010E94C421DF91CF911F910F91FF90C2
:1049F000EF90DF90CF90BF90AF900895CF93DF936B
:104A0000EC018A81882309F18B8161E00E94622A8E
:104A10008C8161E00E94622A8A81843011F08830A2
:104A200041F48D8161E00E94622A8E8161E00E94E2
:104A3000622A8EA58F3F49F061E00E94622A6DA52F
:104A400081E068278EA50E94A12ADF91CF91089569
:104A50004F925F926F927F928F929F92AF92BF928E
:104A6000CF92EF920F93FC018FEF94E091838083BC
:104A7000628313861486158616861786108A118A15
:104A8000128A0F2EF0E04F2EF0E05F2EF0E06F2E36
:104A9000F0E07F2EF02D438A548A658A768A0F2EA5
:104AA000F0E08F2EF0E09F2EF0E8AF2EFFE3BF2E58
:104AB000F02D878A908EA18EB28E838E948EA58ED5
:104AC000B68E878E90A2A1A2B2A213A214A215A2A2
:104AD00016A281E090E094A783A78FEF86A717A284
:104AE00010A611A612A6438324830583E682E35B06
:104AF000FF4F10821292EC54F04013AA14AA15AA88
:104B000016AA47AA50AE61AE72AE43AE54AE65AEC1
:104B100076AEFF9681929192A192B1921082E35467
:104B2000F0401782108611861286CC2019F0CF0132
:104B30000E94FE240F91EF90CF90BF90AF909F9076
:104B40008F907F906F905F904F900895CF93DF93F9
:104B5000EC018A81882371F0E881F9810480F58174
:104B6000E02DCE0160E009958EA58F3F19F06DA56F
:104B70000E94A12ADF91CF910895CF92DF92EF9208
:104B8000FF920F931F93CF93DF93FC012281243078
:104B900029F0283019F092E0D92E02C084E0D82EF6
:104BA0008F01C0E0D0E0E62EFF24CC24C394F801AE
:104BB0002381C7010C2E02C0959587950A94E2F7D0
:104BC000678180FD6C25822F0E94A12A21960F5FAC
:104BD0001F4FCD1560F3DF91CF911F910F91FF9083
:104BE000EF90DF90CF900895CF93DF93EC01E881B1
:104BF000F9810480F581E02DCD5BDF4F8881C354BE
:104C0000D040882311F460E001C062E0CE01099534
:104C1000E881F9810480F581E02DCD5BDF4F88814B
:104C2000C354D040882311F461E001C063E0CE0199
:104C300009958BA59CA50E949329E881F9810480A0
:104C4000F581E02DCD5BDF4F8881C354D0408823B0
:104C500011F460E001C062E0CE010995DF91CF91CF
:104C600008956F927F928F929F92AF92BF92CF9250
:104C7000DF92EF92FF920F931F93CF93DF93EC019C
:104C80003A014B01CB01BA0120E030E040E050E0B6
:104C90000E94372C882309F441C0AB8CBC8CCD8C8E
:104CA000DE8CC601B501A40193010E94372C882334
:104CB000A9F16BA97CA98DA99EA90E94D62C7B0184
:104CC0008C01C601B501A40193010E943B2C9B01FC
:104CD000AC01C801B7010E948A2D0E94A32C6BABC6
:104CE0007CAB8DAB9EAB60E070E080E89FE3A401FD
:104CF00093010E943B2C0E94F12D20E034E244E716
:104D000059E40E948A2D6FAB78AF89AF9AAF6B8E52
:104D10007C8E8D8E9E8ECE010E943A20DF91CF91A7
:104D20001F910F91FF90EF90DF90CF90BF90AF90C9
:104D30009F908F907F906F900895EF92FF920F93C6
:104D40001F93CF93DF93EC018BA19CA1ADA1BEA1DA
:104D50000097A105B10509F44EC00E946D297B01A1
:104D60008C012FA138A549A55AA58BA19CA1ADA165
:104D7000BEA1820F931FA41FB51F82179307A4071C
:104D8000B50730F0E816F9060A071B0758F405C006
:104D9000E816F9060A071B0770F1E216F306040786
:104DA000150748F5CD5BDF4F8881C354D0402B8574
:104DB0003C854D855E85813029F42F5F3F4F4F4FF5
:104DC0005F4F04C021503040404050402B873C870B
:104DD0004D875E87E881F9814B855C856D857E8591
:104DE0000680F781E02DCE010995EFA2F8A609A76C
:104DF0001AA781E001C080E0DF91CF911F910F9150
:104E0000FF90EF900895CF93DF93EC010E949D26D1
:104E1000882319F0CE010E943A206B897C898D8904
:104E20009E8920E030E040E050E00E94372C88234B
:104E300071F460E02F85388949895A898B859C8572
:104E4000AD85BE85281739074A075B0709F061E081
:104E5000862FDF91CF9108951F920F920FB60F9278
:104E600011242F938F939F93EF93FF93E0910A0662
:104E7000F0910B06808182FD16C0E0911006F09142
:104E800011062081909113069F5F9F7380911406F5
:104E9000981771F0E0911306F0E0E650FA4F258F75
:104EA0009093130605C0E0911006F0911106E08181
:104EB000FF91EF919F918F912F910F900FBE0F90C7
:104EC0001F9018951092FD051092FC0588EE93E056
:104ED000A0E0B0E08093FE059093FF05A09300064C
:104EE000B09301068DE195E09093FB058093FA0560
:104EF00085EC90E0909307068093060684EC90E0A2
:104F0000909309068093080680EC90E090930B063E
:104F100080930A0681EC90E090930D0680930C0636
:104F200082EC90E090930F0680930E0686EC90E062
:104F30009093110680931006109213061092140697
:104F4000109215061092160608958AEF95E00E94B9
:104F5000252B20E0892B09F021E0822F08951F9254
:104F60000F920FB60F9211242F933F934F935F939D
:104F70006F937F938F939F93AF93BF93EF93FF9321
:104F80008AEF95E00E94F52AFF91EF91BF91AF91D2
:104F90009F918F917F916F915F914F913F912F9151
:104FA0000F900FBE0F901F901895CF92DF92EF9247
:104FB000FF920F931F93CF93DF937C016B018A01C4
:104FC000C0E0D0E00FC0D6016D916D01D701ED9129
:104FD000FC910190F081E02DC7010995C80FD91F00
:104FE000015010400115110571F7CE01DF91CF91ED
:104FF0001F910F91FF90EF90DF90CF900895EF9267
:10500000FF920F931F938C01DC01ED91FC910190B5
:10501000F081E02D6DE009957C01D801ED91FC91C6
:105020000190F081E02DC8016AE009959C012E0DE8
:105030003F1DC9011F910F91FF90EF900895CF93ED
:10504000DF93EC016115710519F420E030E00FC029
:10505000DB010D900020E9F71197A61BB70BE88143
:10506000F9810280F381E02DAD0109959C01C90110
:10507000DF91CF9108954F925F927F928F929F928E
:10508000AF92BF92CF92DF92EF92FF920F931F9356
:10509000DF93CF93CDB7DEB7A1970FB6F894DEBFFD
:1050A0000FBECDBF2C01742ECB01223008F42AE0B4
:1050B00019A231E2C32ED12CCC0EDD1E822E9924F2
:1050C000AA24BB24672D752FA50194010E94A82E48
:1050D00079018A01C801B701A50194010E94562EE9
:1050E000472D461B0894C108D1084A3014F4405D8E
:1050F00001C0495CF6014083E114F104010511058A
:1051000021F07E2C5F2DC801DDCFC201B6010E94C7
:105110001F28A1960FB6F894DEBF0FBECDBFCF916A
:10512000DF911F910F91FF90EF90DF90CF90BF9094
:10513000AF909F908F907F905F904F900895CF9207
:10514000DF92EF92FF920F931F93CF93DF93EC01C7
:105150006A017B012115310541F4E881F981019053
:10516000F081E02D642F09951FC02A303105D1F45C
:1051700077FF17C0E881F9810190F081E02D6DE2A1
:1051800009958C0144275527BA014C195D096E0910
:105190007F09CE012AE00E943B289801280F391F81
:1051A00004C02AE00E943B289C01C901DF91CF91F5
:1051B0001F910F91FF90EF90DF90CF900895EF92A5
:1051C000FF920F931F937B019A010027F7FC009534
:1051D000102FB801A7010E949F281F910F91FF90E7
:1051E000EF9008950E941F280895EF92FF920F9369
:1051F0001F937C010E941F288C01C7010E94FF277A
:10520000080F191FC8011F910F91FF90EF9008958B
:10521000CF93DF930E949D290E941D0FC2ECDBE219
:105220000E943E082097E1F30E94C22BF9CF1F9203
:105230000F920FB60F9211242F933F938F939F934A
:10524000AF93BF9380919B0690919C06A0919D0681
:10525000B0919E0630919F060196A11DB11D232F8E
:105260002D5F2D3720F02D570196A11DB11D2093E4
:105270009F0680939B0690939C06A0939D06B093F7
:105280009E068091970690919806A0919906B091FC
:105290009A060196A11DB11D8093970690939806DA
:1052A000A0939906B0939A06BF91AF919F918F9169
:1052B0003F912F910F900FBE0F901F9018958FB7B1
:1052C000F89420919B0630919C0640919D06509148
:1052D0009E068FBFB901CA0108959FB7F894209127
:1052E0009706309198064091990650919A0686B596
:1052F000A89B06C08F3F21F02F5F3F4F4F4F5F4F5E
:105300009FBF542F432F322F2227280F311D411DBD
:10531000511D82E0220F331F441F551F8A95D1F77C
:10532000B901CA010895019739F0880F991F880FB4
:10533000991F02970197F1F70895789484B58260D8
:1053400084BD84B5816084BD85B5826085BD85B529
:10535000816085BDEEE6F0E0808181608083E1E8D8
:10536000F0E0108280818260808380818160808310
:10537000E0E8F0E0808181608083E1EBF0E0808113
:1053800084608083E0EBF0E0808181608083EAE7E5
:10539000F0E080818460808380818260808380816E
:1053A000816080838081806880831092C10008952D
:1053B000EF92FF920F931F93CF93DF937B018C01AA
:1053C0003FB7F8948091970690919806A09199061E
:1053D000B0919A0626B5A89B05C02F3F19F00196FB
:1053E000A11DB11D3FBFBA2FA92F982F8827820F6B
:1053F000911DA11DB11D52E0880F991FAA1FBB1F4F
:105400005A95D1F7EC0130C00E94D12B3FB7F894E8
:105410008091970690919806A0919906B0919A066E
:1054200026B5A89B05C02F3F19F00196A11DB11DFF
:105430003FBFBA2FA92F982F8827820F911DA11D3A
:10544000B11D32E0880F991FAA1FBB1F3A95D1F7F3
:105450008C1B9D0B885E9340B8F20894E108F1081C
:1054600001091109C851DC4FE114F10401051105CE
:1054700059F6DF91CF911F910F91FF90EF90089512
:10548000982F8E3008F09E5097708091500482952E
:10549000880F880F807C892B80937C0080917A0014
:1054A000806480937A0080917A0086FDFCCF209101
:1054B000780040917900942F80E030E0282B392B40
:1054C000C9010895CF93DF93482F50E0CA01895A4C
:1054D0009E4FFC0134914D5B5E4FFA01849188230D
:1054E00069F190E0880F991FFC01EB5DFE4FA591DB
:1054F000B491FC01E15DFE4FC591D491662351F456
:105500002FB7F8948C91932F909589238C93888151
:1055100089230BC0623061F42FB7F8948C91932FDC
:10552000909589238C938881832B88832FBF06C015
:105530009FB7F8948C91832B8C939FBFDF91CF9171
:105540000895482F50E0CA0185599E4FFC012491CF
:10555000CA01895A9E4FFC0194914D5B5E4FFA013E
:105560003491332309F440C0222351F1233071F0E8
:10557000243028F42130A1F0223011F514C0263057
:10558000B1F02730C1F02430D9F404C080918000FC
:105590008F7703C0809180008F7D8093800010C042
:1055A00084B58F7702C084B58F7D84BD09C080919A
:1055B000B0008F7703C08091B0008F7D8093B000E2
:1055C000E32FF0E0EE0FFF1FE15DFE4FA591B491D8
:1055D0002FB7F894662321F48C919095892302C00B
:1055E0008C91892B8C932FBF0895DC015C968C9154
:1055F0005C97FD01E80FF11DE35AFF4F20815C9697
:105600008C915C9790E001968F7390705C968C9370
:105610005C975696ED91FC91579720835096ED91AB
:10562000FC9151978081806480835B969C915B970D
:105630005C968C915C97981739F45296ED91FC9199
:10564000539780818F7D80830895FC01218D828D09
:1056500030E0205C3F4F281B31092F733070C901A7
:105660000895FC01918D828D981719F42FEF3FEF6B
:1056700006C0828DE80FF11D858D282F30E0C9010D
:105680000895DC0159969C9159975A968C915A9796
:10569000981719F42FEF3FEF10C05A968C915A9734
:1056A000FD01E80FF11D958D5A968C915A978F5FE9
:1056B0008F735A968C93292F30E0C9010895CF93A8
:1056C000DF93EC01888D882361F419C08C9185FFEC
:1056D0000AC0E889F989808185FF05C0CE010E9452
:1056E000F52AAA89BB898C9185FD05C0E889F989CD
:1056F000808186FD04C00FB607FEE8CFF4CFDF91AE
:10570000CF9108950F931F93CF93DF93EC01062F52
:105710009B8D8C8D981791F5E889F989808185FF9B
:105720002DC0EE89FF896083E889F98980818064D2
:1057300080831DC00FB607FC08C0E889F989808105
:1057400085FF03C0CE010E94F52A8C8D181791F3B6
:105750008B8DFE01E80FF11DE35AFF4F00831B8F75
:10576000EA89FB8980818062808381E0888F81E083
:1057700090E0DF91CF911F910F9108951B8D1F5FD6
:105780001F73E3CF85EA97E2892B51F080E090E028
:10579000892B31F00E94A527882311F00E94000078
:1057A000089508955058BB27AA270ED075C166D119
:1057B00030F06BD120F031F49F3F11F41EF45BC147
:1057C0000EF4E095E7FB51C1E92F77D180F3BA17CA
:1057D000620773078407950718F071F49EF58FC16F
:1057E0000EF4E0950B2EBA2FA02D0B01B9019001FC
:1057F0000C01CA01A0011124FF27591B99F0593F40
:1058000050F4503E68F11A16F040A22F232F342F87
:105810004427585FF3CF469537952795A795F040D5
:105820005395C9F77EF41F16BA0B620B730B840BEA
:10583000BAF09150A1F0FF0FBB1F661F771F881FA2
:10584000C2F70EC0BA0F621F731F841F48F48795FA
:1058500077956795B795F7959E3F08F0B3CF9395E9
:10586000880F08F09927EE0F979587950895D9D05E
:1058700008F481E008950CD00FC107D140F0FED0AC
:1058800030F021F45F3F19F0F0C0511139C1F3C07D
:1058900014D198F39923C9F35523B1F3951B550BF4
:1058A000BB27AA2762177307840738F09F5F5F4FF3
:1058B000220F331F441FAA1FA9F333D00E2E3AF034
:1058C000E0E830D091505040E695001CCAF729D04E
:1058D000FE2F27D0660F771F881FBB1F261737079D
:1058E0004807AB07B0E809F0BB0B802DBF01FF27CD
:1058F00093585F4F2AF09E3F510568F0B6C000C133
:105900005F3FECF3983EDCF3869577956795B79506
:10591000F7959F5FC9F7880F911D9695879597F921
:105920000895E1E0660F771F881FBB1F621773079A
:105930008407BA0720F0621B730B840BBA0BEE1FAF
:1059400088F7E095089504D06894B111D9C00895FE
:10595000BCD088F09F5790F0B92F9927B751A0F08D
:10596000D1F0660F771F881F991F1AF0BA95C9F7F3
:1059700012C0B13081F0C3D0B1E00895C0C0672F2C
:10598000782F8827B85F39F0B93FCCF386957795A3
:105990006795B395D9F73EF490958095709561958C
:1059A0007F4F8F4F9F4F0895E89409C097FB3EF4B7
:1059B00090958095709561957F4F8F4F9F4F99235C
:1059C000A9F0F92F96E9BB279395F69587957795DA
:1059D0006795B795F111F8CFFAF4BB0F11F460FF9A
:1059E0001BC06F5F7F4F8F4F9F4F16C0882311F0F2
:1059F00096E911C0772321F09EE8872F762F05C006
:105A0000662371F096E8862F70E060E02AF09A95A0
:105A1000660F771F881FDAF7880F9695879597F995
:105A20000895990F0008550FAA0BE0E8FEEF16162F
:105A30001706E807F907C0F012161306E407F50782
:105A400098F0621B730B840B950B39F40A2661F0F6
:105A5000232B242B252B21F408950A2609F4A14099
:105A6000A6958FEF811D811D089597F99F6780E8A6
:105A700070E060E008959FEF80EC089500240A94A0
:105A80001616170618060906089500240A94121619
:105A90001306140605060895092E0394000C11F44C
:105AA000882352F0BB0F40F4BF2B11F460FF04C0F9
:105AB0006F5F7F4F8F4F9F4F089557FD9058440F52
:105AC000551F59F05F3F71F04795880F97FB991F5D
:105AD00061F09F3F79F0879508951216130614061A
