:100000000C946A010C9492010C9492010C9492014C
:100010000C9492010C9492010C9492010C94920114
:100020000C9492010C9492010C9492010C94920104
:100030000C9492010C9492010C9492010C949201F4
:100040000C94BA300C9492010C94CF2E0C94522F35
:100050000C9492010C9492010C9492010C949201D4
:100060000C9492010C9492016364696E6F707375C5
:1000700078585B65666745464700616E006E666945
:100080006E69747900CDCCCC3D0AD7233C17B7D12B
:100090003877CC2B329595E6241FB14F0A0000200B
:1000A000410000C84200401C4620BCBE4CCA1B0E8A
:1000B0005AAEC59D746E616E00696E6600CB00DA43
:1000C00000E800F60004011001140156697465731C
:1000D0007365206D6F7465757200416363656C2E86
:1000E000206D6F74657572004D656D6F6972652066
:1000F000646973706F00466F726D6174204545507E
:10010000524F4D005265746F7572206D656E7500AB
:1001100052756E00506172616D6574726167650041
:10012000040E1F401F1F1F1F00040E1F40404040B1
:1001300040001F1F1F1F4040404000404040401FE4
:100140001F1F1F0040404040401F0E04001F1F1F84
:100150001F401F0E04002001290132013B01440110
:100160004D0120594553203E4E4F3C003E594553CA
:100170003C204E4F200062016C0100000000240072
:1001800027002A0000000000250028002B000000A6
:1001900000002300260029000404040404040404CD
:1001A0000202020202020303030303030102040822
:1001B00010204080010204081020010204081020D1
:1001C0000000000700020100000304060000000018
:1001D0000000000000407A10F35A00A0724E180987
:1001E0000010A5D4E80000E87648170000E40B549E
:1001F000020000CA9A3B000000E1F505000080966D
:100200009800000040420F000000A086010000009E
:10021000102700000000E803000000006400000058
:1002200000000A00000000000100000000002C7621
:10023000D888DC674F0823DFC1DFAE59E1B1B7963C
:10024000E5E3E453C63AE651997696E8E6C2842699
:10025000EB898C9B62ED407C6FFCEFBC9C9F40F275
:10026000BAA56FA5F490055A2AF75C936B6CF967F1
:100270006DC11BFCE0E40D47FEF520E6B500D0EDB6
:10028000902E0300943577050080841E080000201E
:100290004E0A000000C80C333333330F986E1283BC
:1002A0001141EF8D2114893BE65516CFFEE6DB1890
:1002B000D1844B381BF77C1D901DA4BBE424203255
:1002C00084725E228100C9F124ECA1E53D27D40BA4
:1002D0004225052F11241FBECFEFD8E0DEBFCDBFD2
:1002E00015E0A0E0B1E0E4EBFDE602C005900D9260
:1002F000AA32B107D9F716E0AAE2B5E001C01D9213
:10030000A43AB107E1F712E0C4EDD2E004C02297AD
:10031000FE010E94C136CE3CD107C9F70E94AB3026
:100320000C94D8360C940000FC0120FD08C023FD7D
:1003300005C022FF02C07383628351834083089506
:10034000EF92FF920F931F9344FF02C033E011C05E
:1003500046FF02C034E00DC0DB01FC01AA0FBB1F49
:10036000EE1FFF1F1094D1F76A0F7B1F8E1F9F1F78
:1003700031E0660F771F881F991F3150D1F77B013D
:100380008C01E20EF11C011D111DA8019701B7019E
:10039000CA011F910F91FF90EF9008950F931F9343
:1003A000CF93DF938C01C8010E94C20AEC0197FD34
:1003B00008C00E94C536892BB1F7CE01B8010E9452
:1003C000540BCE01DF91CF911F910F9108958F9221
:1003D0009F92AF92BF92DF92EF92FF920F931F9383
:1003E000CF93DF935C01EB014A01122F0E94C20AF6
:1003F000AC018B3219F08D3251F41068219709F459
:100400006DC0C5010E94C20AAC0197FD67C06DEFC7
:10041000D62ED1228D2D807301F54033F1F4219732
:1004200009F447C0C5010E94C20AAC0197FD41C052
:1004300082E0D82A483711F0483559F480E4D82AA8
:100440002197B9F1C5010E94C20AAC0199232CF48D
:1004500030C0D6FC02C080E1D82AEE24FF248701F8
:10046000242F2053283088F0D4FC09C02A3068F0AB
:10047000D6FE05C02F7D822F8151863028F0CA011B
:10048000B5010E94540B12C02750C801B7014D2D71
:100490000E94A0017B018C0182E0D82A219761F0A3
:1004A000C5010E94C20AAC0197FFDACFD1FC04C09B
:1004B00015C0EE24FF248701D7FE08C010950095D3
:1004C000F094E094E11CF11C011D111DC401B80160
:1004D000A7012D2D0E94940181E001C080E0DF91F1
:1004E000CF911F910F91FF90EF90DF90BF90AF9051
:1004F0009F908F900895A0E2B0E0E1E8F2E00C94C4
:100500008C365C016B018A017901FE01319680E233
:10051000DF011D928A95E9F770E030E060E040E08D
:1005200050E03F01A1E0B0E0F5018381F70183FDD8
:10053000259183FF21917F01222309F481C02E356B
:1005400019F44115510569F1872F90E0841795073B
:1005500044F42D3551F12D3221F4332329F431E0C7
:1005600021C0332309F4622F322F832F869586957D
:100570008695F301E80FF11D832F87704D0102C0AE
:10058000880C991C8A95E2F7208128292083361748
:1005900011F430E007C0361710F43F5FE6CF31505A
:1005A000E4CF71E04F5F5F4FBFCF332319F08E81EF
:1005B00080628E83772359F0FE0131969E012F5D74
:1005C0003F4F808180958193E217F307D1F79924FB
:1005D00093943E010894611C711CC5010E94C20ADB
:1005E000AC0197FD25C0869586958695F301E80FA9
:1005F000F11D808190E09A012770307002C09595BE
:1006000087952A95E2F780FD05C0CA01B5010E94D1
:10061000540B0EC00115110519F0D8014D938D0131
:100620000894C108D1089924C114D104B1F602C0BC
:10063000992031F40115110529F0F801108202C04A
:10064000EE24FF24C701A096EEE00C94A8362F926A
:100650003F925F926F927F928F929F92AF92BF92E2
:10066000CF92DF92EF92FF920F931F93CF93DF937E
:100670003C017B011A010E94C20AEC018B3239F065
:100680008D3211F0552411C0B0E85B2E01C0552405
:100690000894E108F108E114F10409F418C1C30158
:1006A0000E94C20AEC0197FD12C1CE010E94CD3614
:1006B0008936910521F08E36910599F51DC00DE71B
:1006C00010E01CC00894E108F108E114F10471F095
:1006D000C3010E94C20AEC0197FD08C00E94CD36FA
:1006E000D81661F0CE01B3010E94540B20E000380F
:1006F000120709F0ECC008C00AE710E0F8010F5F2C
:100700001F4FD490DD20F1F60D57104029F080E006
:1007100090E0A0E8BFE7CFC080E090E0A0ECBFE7AA
:10072000CAC0CC24DD24882499245401AE0140534E
:10073000242F4A3038F552E0552A852D90E0AC013F
:100740004870507052FE06C0452B11F50894C11C2C
:10075000D11C1EC0452B19F00894C108D108C50151
:10076000B40140E20E94A0014B015C0188E98816B7
:1007700089E9980689E9A80689E1B80648F094E075
:10078000592A06C04E3F81F453FC0EC0E8E05E2AB1
:100790000894E108F108E114F10431F0C3010E946A
:1007A000C20AEC0197FFC2CF51FE91C0C53619F0C5
:1007B000C53409F046C00894E108F108E114F104D9
:1007C00009F485C0C3010E94C20AEC0197FD7FC0F5
:1007D0008B3221F08D3269F4F0E15F2A0894E10850
:1007E000F108E114F10409F472C0C3010E94C20AC5
:1007F000EC01CE01C0970A9708F069C000E010E054
:10080000B801882777FD8095982FAE014053242F9B
:1008100040E20E94A0018B010894E108F108E11474
:10082000F10439F0C3010E94C20AEC01C0970A9793
:1008300038F3B80154FE03C0709561957F4FC60E22
:10084000D71EEF2831F0D7FD04C0CE01B3010E94BE
:10085000540BC501B4010E947734D7FE0DC0A9E93D
:10086000EA2EA0E0FA2ED094C194D108D394C0E22D
:10087000D0E000E010E00EC0F1EBEF2EF0E0FF2E34
:10088000F6CFF70125913591459154910E942D3570
:10089000CC1ADD0ACC16DD06A0F7D695C7950F5FFA
:1008A0001F4F0630110529F0ECEFFFEFEE0EFF1E93
:1008B000F1CFDC01CB0157FCB0582114310429F0F1
:1008C000F10180839183A283B38381E001C080E042
:1008D000DF91CF911F910F91FF90EF90DF90CF901C
:1008E000BF90AF909F908F907F906F905F903F9060
:1008F0002F900895A0E0B0E0E0E8F4E00C948B368F
:100900004C015B013A01FC0117821682552404C197
:10091000812F90E00E94C536892B21F0C4010E94EE
:10092000CE01FAC0153249F4F501F3FC6591F3FEEE
:1009300061915F01653269F415E2C4010E94C20A47
:1009400097FDF6C0181709F4E7C0B4010E94540BD4
:10095000F4C06A3219F0162F00E006C0F3FC1591BE
:10096000F3FE11915F0101E0CC24DD240EC0026092
:10097000B60180E090E040E20E94A0016B01F50129
:10098000F3FC1591F3FE11915F01212F20532A30C2
:1009900070F301FD04C0CC24CA94DC2C04C0C11443
:1009A000D10409F4CAC0183621F01C3699F4F501B7
:1009B0000BC0F501F3FC6591F3FE6191683619F007
:1009C0005F01162F07C008600460F3FC1591F3FE69
:1009D00011915F01112309F4B0C088E690E0612F06
:1009E00070E00E94060A892B09F4A7C0802F00FF3F
:1009F00003C0EE24FF2407C0F301E080F18022E071
:100A000030E0620E731E1E3651F4F40146815781A8
:100A100060E070E0C701202F0E9494017DC0133672
:100A2000B9F481FD03C081E0C82ED12CC4010E941D
:100A3000C20A97FD7DC0E114F10419F0F70181931A
:100A40007F010894C108D108C114D10479F762C0AC
:100A50001B3559F4C401B601A70195010E947B0220
:100A60005C01009709F056C050C0C4010E94CE013D
:100A700097FD5EC01F36D1F1103738F41436A1F15E
:100A80001936A9F11835D1F52DC0133751F01437A7
:100A900018F4103799F526C0153731F1183771F56C
:100AA00021C0C4010E94C20AEC0197FD15C00E943A
:100AB000C536892B29F0CE01B4010E94540B0CC01D
:100AC000E114F10419F0F701C1937F010894C10802
:100AD000D108C114D10429F7E114F104D9F0F701C8
:100AE000108218C0006403C0006201C00061C4012C
:100AF000B601A701202F0E94E70105C0C401B6017D
:100B0000A7010E942703882329F4F40183818073BD
:100B100079F413C000FF5394F401F380F501F3FC62
:100B20001591F3FE11915F01112309F0F1CE05C07B
:100B3000552019F42FEF3FEF02C0252D30E0C901F9
:100B4000CDB7DEB7EFE00C94A736A1E1B0E0EBEA59
:100B5000F5E00C9488363C017F876E876A01FC01C2
:100B600017821682838181FD03C06FEF7FEF71C30F
:100B70009E012F5F3F4F398B288BF3012381EE8538
:100B8000FF8523FD859123FF8191FF87EE878823D1
:100B900009F45CC3853251F4EE85FF8523FD859110
:100BA00023FF8191FF87EE87853229F490E0B3011E
:100BB0000E94040BE2CF982F10E088249924103271
:100BC000B0F49B3269F09C3228F4903251F09332A9
:100BD00071F40BC09D3239F0903349F4116028C094
:100BE0001260146025C0186023C0106121C017FD79
:100BF0002AC0892F80538A3078F416FF06C0FAE0A5
:100C00009F9E902C1124980E13C03AE0839E802C56
:100C10001124880E10620CC09E3221F416FD16C3FA
:100C2000106406C09C3611F4106802C0983659F45E
:100C3000EE85FF8523FD959123FF9191FF87EE8738
:100C4000992309F0BCCF892F8554833020F4812F5C
:100C50008061905E07C0892F8556833008F0A1C15E
:100C6000812F8F7E86FD02C076E0972E6FE3F62EF1
:100C7000F822953619F4F0E4FF2A07C0963619F4E5
:100C800020E8F22A02C091109A94F7FE0BC03BE3D1
:100C9000391520F427E05CE3B52E0EC0B92CB394CF
:100CA00027E00AC047E0491528F427E0BB2447E0C5
:100CB000942E02C0292DBB24C60104969D878C87E3
:100CC000F6016081718182819381AE014F5F5F4F38
:100CD0000B2D0E942E096C010981202E332400FF68
:100CE00004C003FD02C01DE209C0F1FE02C01BE208
:100CF00005C0F2FC02C010E001C010E2C1018C701E
:100D00009070892BB9F1112311F483E001C084E0C4
:100D1000881510F088240AC0881AF3FC07C080E206
:100D200090E0B3010E94040B8A94C9F7112329F0C3
:100D3000812F90E0B3010E94040B23FE03C005EB5A
:100D400010E00EC009EB10E00BC0E114F10409F053
:100D5000805290E0B3010E94040B0F5F1F4F05C04B
:100D6000EF2CFF24F0E1EF22FF24F8018491882387
:100D700061F714C1F7FE12C0BC0C24FE04C08A81C6
:100D8000813309F4BA941B141CF0BB24B3942DC016
:100D9000F8E0FB1550F538E0B32E27C0F6FC25C06F
:100DA000892D90E08C159D054CF02CEFC2162FEF8D
:100DB000D20624F030E8F32A01C09A94992049F031
:100DC000E2E0F0E0EC0FFD1FE90DF11D80818033C2
:100DD000A1F3F7FE0AC0B92CB394892D90E0C81690
:100DE000D90614F0992401C09C18F7FC03C025E033
:100DF00030E009C01C141D041CF021E030E003C0E9
:100E000096012F5F3F4F112311F02F5F3F4F992025
:100E100029F0892D90E00196280F391F882D90E048
:100E20002817390714F0882401C0821A4F2C552442
:100E3000C20189709070892B39F008C080E290E07F
:100E4000B3010E94040B8A948820C1F7112329F072
:100E5000812F90E0B3010E94040B43FE07C008C03D
:100E600080E390E0B3010E94040B8A948820C1F7CC
:100E7000F7FE46C08601D7FE02C000E010E0760112
:100E80000894E11CF11CE01AF10A41E050E04C0F1B
:100E90005D1FE40EF51E26014B185108892D90E0C8
:100EA000AA24BB24A81AB90A5FEF0F3F150729F43B
:100EB0008EE290E0B3010E94040BC016D10634F01C
:100EC000401651061CF4F701808101C080E30150F7
:100ED00010400894E11CF11C0A151B052CF090E051
:100EE000B3010E94040BE0CF0C151D0539F49A8163
:100EF000963318F4953311F424FE81E390E04BC04F
:100F00008A81813309F00F7E90E0B3010E94040BC7
:100F10009920A1F08EE290E0B3010E94040B12E050
:100F2000E1E0F0E0EC0FFD1FE10FF11D1F5F80819C
:100F300090E0B3010E94040B9A9491F744FC03C023
:100F400085E690E002C085E490E0B3010E94040BC6
:100F5000D7FC05C0C114D10441F404FF06C0D094ED
:100F6000C194D108D3948DE201C08BE290E0B3012B
:100F70000E94040B80E305C08F5F26EF3FEFC20E97
:100F8000D31E3AE0C316D104BCF790E0B3010E942F
:100F9000040BC601C096B3010E94040BCC84DD840F
:100FA00052C1933631F0933799F0933509F059C017
:100FB00023C0F601808189835E010894A11CB11CC5
:100FC00022E030E0C20ED31E21E0E22EF12C12C04E
:100FD000F601A080B18016FD03C06FEF7FEF02C065
:100FE000692D70E022E030E0C20ED31EC5010E94E0
:100FF0005F0A7C011F7713C0F601A080B18016FD47
:1010000003C06FEF7FEF02C0692D70E022E030E097
:10101000C20ED31EC5010E94370A7C01106813FF5F
:1010200007C01BC080E290E0B3010E94040B8A94C9
:10103000882D90E0E816F906A8F30FC0F50117FD1A
:10104000859117FF81915F0190E0B3010E94040B2D
:1010500081108A940894E108F108E114F10471F711
:10106000F2C0943611F0993689F517FF08C0F601E1
:10107000208131814281538184E090E00AC0F601F1
:10108000808191819C01442737FD4095542F82E057
:1010900090E0C80ED91E9FE6F92EF12257FF09C035
:1010A00050954095309521953F4F4F4F5F4F90E8B9
:1010B000F92ACA01B901AE014F5F5F4F2AE030E063
:1010C0000E946E0BE82EE889EE1A41C0953721F494
:1010D0001F7E2AE030E01CC0197F9F3661F09037F8
:1010E00020F4983509F0B2C00FC0903739F0983726
:1010F00009F0ACC004C028E030E00AC0106114FD63
:10110000146020E130E004C014FD166020E132E0FC
:1011100017FF08C0F601608171818281938144E0EC
:1011200050E008C0F60180819181BC0180E090E030
:1011300042E050E0C40ED51EAE014F5F5F4F0E94EB
:101140006E0BE82E5889E51A8FE7F82EF122F6FE8D
:101150000BC08EEFF822E91438F4F4FE07C0F2FC5D
:1011600005C09FEEF92202C01E2D01C0192DF4FE0C
:101170000DC0FE01EE0DF11D8081803319F4E9EE02
:10118000FE2208C01F5FF2FE05C003C08F2D8678C7
:1011900009F01F5F0F2DF3FC14C0F0FE0FC01815EF
:1011A00010F09E2C0BC09E2C980C911A182D06C086
:1011B00080E290E0B3010E94040B1F5F1815C0F39A
:1011C00004C0181510F4811A01C0882404FF0FC050
:1011D00080E390E0B3010E94040B02FF1DC001FDFB
:1011E00003C088E790E00EC088E590E00BC0802F38
:1011F000867891F001FF02C08BE201C080E2F7FC2B
:101200008DE290E0B3010E94040B06C080E390E001
:10121000B3010E94040B9A94E914C0F3EA94E1E04C
:10122000F0E0EC0FFD1FEE0DF11D808190E0B301A9
:101230000E94040BEE2091F706C080E290E0B3011B
:101240000E94040B8A948820C1F797CCF301668131
:101250007781CB016196E2E10C94A436283008F046
:1012600027E03327DA01990F311D87FD9160009641
:101270006105710539F432602E5F3D9330E32A95A4
:10128000E1F708959F3F30F080387105610509F05E
:101290003C5F3C5F3D93913008F08068911DDF9387
:1012A000CF931F930F93FF92EF92192F987F9695EC
:1012B000E92F96959695E90FFF27E25DFD4F992757
:1012C0003327EE24FF24A701E70105900894079433
:1012D00028F4360FE71EF81E491F511D660F771FB1
:1012E000881F991F0694A1F70590079428F4E70E2C
:1012F000F81E491F561FC11D770F881F991F661FB3
:101300000694A1F70590079428F4F80E491F561F7C
:10131000C71FD11D880F991F661F771F0694A1F75D
:101320000590079420F4490F561FC71FD81F990F27
:10133000661F771F881F0694A9F784911095177070
:1013400041F0D695C79557954795F794E7941A9528
:10135000C1F7E4EDF1E06894159015913591659130
:10136000959105907FE27395E118F10A430B560BB6
:10137000C90BD009C0F7E10CF11E431F561FC91F4E
:10138000D01D7EF4703311F48A95E6CFE8940150B5
:1013900030F0080F0AF40027021708F4202F2395D5
:1013A000022F7A3328F079E37D932A95E9F710C06C
:1013B0007D932A9589F606949795679537951795A5
:1013C0001794E118F10A430B560BC90BD00998F09A
:1013D00023957E9173957A3308F070E37C93201304
:1013E000B8F77E9170617D9330F0839571E37D93C2
:1013F00070E32A95E1F71124EF90FF900F911F9170
:10140000CF91DF91992787FD90950895FC01059074
:10141000061621F00020D9F7C00108953197CF01B9
:101420000895FB01DC0105900D920020E1F708957D
:10143000DC01FB014115510549F04150504029F0B4
:1014400005900D92002029F0F8CF1C920590002005
:10145000E9F7E61BF70B3197CF010895FC010590E2
:101460000020E9F7809590958E0F9F1F0895FC014D
:101470000590615070400110D8F7809590958E0FBF
:101480009F1F0895FB01DC0101900D920020E1F700
:101490000895DC01FB014115510549F041505040D0
:1014A00029F001900D92002029F0F8CF1C920190B4
:1014B0000020E9F7E61BF70B3197CF010895FC01F7
:1014C0006150704001900110D8F7809590958E0F73
:1014D0009F1F0895A0E0B0E0E0E7FAE00C94923698
:1014E0007C01EB018A01690109C0CE012196F60158
:1014F0000995F70181937F010150104001151105F5
:10150000A1F7CDB7DEB7E8E00C94AE36BF92CF922C
:10151000DF92EF92FF920F931F937B018C01FB01EF
:101520000995B82EC8010196F7010995C82EC80182
:101530000296F7010995D82EC8010396F70109957F
:10154000982F6B2D7C2D8D2D1F910F91FF90EF907B
:10155000DF90CF90BF900895DF92EF92FF920F93AC
:101560001F937B018C01FB010995D82EC8010196C0
:10157000F7010995982F8D2D1F910F91FF90EF90F6
:10158000DF900895CF93DF93EC014B8140FF1AC0A9
:1015900046FF0AC04F7B4B838E819F8101969F83BC
:1015A0008E838A81282F2BC042FF13C0E881F981E6
:1015B0008081282F332727FD30952115310529F407
:1015C00040624B832FEF3FEF1BC03196F983E883D6
:1015D00011C0EA85FB85CE0109959C0197FF0AC0E1
:1015E0009B812F5F3F4F11F080E201C080E1892B8A
:1015F0008B83E8CF8E819F8101969F838E8330E01D
:10160000C901DF91CF9108950F931F93CF93DF937B
:101610008C01EB018B8181FF1BC082FF0DC02E81ED
:101620003F818C819D812817390764F4E881F98115
:101630000193F983E88306C0E885F985802F099531
:10164000892B31F48E819F8101969F838E8302C006
:101650000FEF1FEFC801DF91CF911F910F910895F8
:10166000AEE0B0E0E6E3FBE00C9496360D891E890F
:1016700086E08C831A8309838FEF9FE79E838D8397
:101680009E01275E3F4FCE0101966F89788DA9019B
:101690000E94A5052F813885020F131FF8011082C3
:1016A0002E96E4E00C94B2369C01FB01838180FF0E
:1016B00011C086FD0FC09FEF2F3F390759F02283DD
:1016C00080648F7D8383868197810197978386834A
:1016D00030E002C02FEF3FEFC9010895FA01AA27B9
:1016E000283051F1203181F1E8946F936E7F6E5F65
:1016F0007F4F8F4F9F4FAF4FB1E03ED0B4E03CD013
:10170000670F781F891F9A1FA11D680F791F8A1FF5
:10171000911DA11D6A0F711D811D911DA11D20D05C
:1017200009F468943F912AE0269F11243019305D16
:101730003193DEF6CF010895462F4770405D419307
:10174000B3E00FD0C9F7F6CF462F4F70405D4A3354
:1017500018F0495D31FD4052419302D0A9F7EACF1C
:10176000B4E0A6959795879577956795BA95C9F74B
:1017700000976105710508959B01AC010A2E06943E
:101780005795479537952795BA95C9F7620F731FF7
:10179000841F951FA01D08959C01F999FECF32BDAD
:1017A00021BDF89A80B50895CF92EF920F931F93C1
:1017B00008EF15E0C80164E070E00E94562690939F
:1017C0002B0580932A05C80162E070E00E9456262E
:1017D00090932D0580932C05C80162E070E00E9473
:1017E000562690932F0580932E05C80162E070E085
:1017F0000E9456269093310580933005C80164E01D
:1018000070E00E9456269093330580933205C801FC
:1018100064E070E00E94562690933505809334056D
:10182000C80164E070E00E945626909337058093CB
:101830003605C80168E670E00E9456269093390587
:10184000809338058AE395E061E773E048E753E069
:1018500029E733E001E0E7E0EE2E0E945A228DE412
:1018600095E067E873E04FE853E020E933E00E9439
:101870005A2280E695E068E049E024E005E076E061
:10188000E72E57E0C52E0E94012585E795E061E02F
:101890004CE02DE004E035E0E32ECC24C3940E941C
:1018A000CB2C1F910F91EF90CF90089585E795E095
:1018B0000E94AA279B01AC016093D5057093D605C1
:1018C0008093D7059093D8056091320570913305C8
:1018D00088EF95E00E94B825089585E795E00E947D
:1018E00004278823B1F085E795E00E94D5269B0167
:1018F000AC016093C9057093CA058093CB059093A2
:10190000CC05609134057091350588EF95E00E9413
:10191000B82585E795E00E9409278823B1F085E77F
:1019200095E00E94E8269B01AC016093CD05709381
:10193000CE058093CF059093D005609136057091C8
:10194000370588EF95E00E94B82508950F931F93FF
:1019500005E715E06091D3057091D405882777FDE0
:101960008095982F0E947934AB01BC01C8010E9478
:1019700076296091D1057091D205882777FD8095F1
:10198000982F0E947934AB01BC01C8010E94D42D6C
:101990004091D5055091D6056091D7057091D80535
:1019A000C8010E94B0271F910F910895AF92BF9276
:1019B000CF92DF92EF92FF920F931F93CF93DF931B
:1019C0006C017B01142F052F68597F4F0E946F25F2
:1019D0008823F9F0812F902FEC0100E010E0F7E66A
:1019E000AF2EB12CAC0EBD1EC601B7010E946C25F6
:1019F0004881841731F0C601B7010E94B5250F5FF9
:101A00001F4FCA15DB0539F00894E11CF11C219623
:101A1000EBCF00E010E0C801DF91CF911F910F9153
:101A2000FF90EF90DF90CF90BF90AF9008952F92EE
:101A30003F924F925F926F927F928F929F92AF925E
:101A4000BF92CF92DF92EF92FF920F931F93DF939B
:101A5000CF93CDB7DEB76C970FB6F894DEBF0FBE4D
:101A6000CDBF0E9402312091DF053091E005409109
:101A7000E1055091E205621B730B840B950B693CE9
:101A800071058105910508F404C180E695E060E0E8
:101A900040E00E94142485E795E00E94AA276B018C
:101AA0007C0185E795E00E94A427698F7A8F8B8F50
:101AB0009C8F4090DB055090DC056090DD057090B8
:101AC000DE056091D9057091DA05882777FD80954C
:101AD000982F0E9479344B015C018DB79EB70C970B
:101AE0000FB6F8949EBF0FBE8DBF0DB71EB70F5F28
:101AF0001F4FB8E02B2E312C2C0E3D1EADB7BEB7BC
:101B000012963C922E92119780E091E0F801938317
:101B10008283C701B6010E947934A30192010E9419
:101B20002D35A50194010E94DE33D80114966D93E2
:101B30007D938D939C931797698D7A8D8B8D9C8D5A
:101B40000E947934A30192010E942D35A5019401D0
:101B50000E94DE33F80160877187828793870E9435
:101B6000300B8DB79EB70C960FB6F8949EBF0FBE84
:101B70008DBF80E695E0B1010E94953080E695E04A
:101B800060E041E00E941424E091C705F091C8058F
:101B9000EE0FFF1FEE0FFF1FE256FC4FE080F180BB
:101BA00002811381C801B70120E03CE34CE156EC0F
:101BB0000E94DA339E012F5F3F4F882331F4C90121
:101BC00061E171E00E94420A21C0ADB7BEB718972B
:101BD0000FB6F894BEBF0FBEADBFEDB7FEB73196DE
:101BE00012963C932E93119787E191E09383828321
:101BF000E482F582068317830E94300BEDB7FEB7AF
:101C000038960FB6F894FEBF0FBEEDBF8DB79EB7E6
:101C100008970FB6F8949EBF0FBE8DBFADB7BEB785
:101C200011968E01085F1F4FEDB7FEB71283018337
:101C30008EE191E013969C938E931297E091C705E5
:101C4000F091C805E754FB4F8081992787FD909557
:101C500015969C938E931497CE01019617969C939C
:101C60008E9316970E94300B8DB79EB708960FB6CD
:101C7000F8949EBF0FBE8DBFC8010E944E1C0E94EB
:101C800002316093DF057093E0058093E105909346
:101C9000E2056C960FB6F894DEBF0FBECDBFCF91B4
:101CA000DF911F910F91FF90EF90DF90CF90BF9049
:101CB000AF909F908F907F906F905F904F903F90EC
:101CC0002F9008956F927F928F929F92AF92BF92C2
:101CD000CF92DF92EF92FF920F931F93CF93DF93F8
:101CE0008130910519F0029721F406C0C1E0D0E0DF
:101CF00005C0C0E0D0E002C0CFEFDFEF8DE495E09B
:101D00000E948621C82EDD24A60110EBA12E14E02E
:101D1000B12E2EC0415050404230510560F423E0B6
:101D2000C216D10441F4AE014A9DE0014B9DD00D95
:101D30005A9DD00D11248DE495E00E9449228DE436
:101D400095E00E948621182FAE01662757FD609509
:101D5000762F85E795E00E94672985E795E00E9448
:101D6000A62E0E94170DA601212F30E0C9016C019B
:101D7000C6010197039770F285E795E00E94A427BA
:101D80006B014B01AA2497FCA094BA2C85E795E03F
:101D90000E94AA27A5019401261B370B480B590B5B
:101DA000121613061406150644F485E795E00E9402
:101DB000AA27E601C61BD70B07C085E795E00E945E
:101DC000AA27EB01CC19DD0985E795E00E94512A8D
:101DD0009B01AC010E94763320E030E040E050E00F
:101DE0000E94293518164CF485E795E00E94512A87
:101DF0009B01AC010E9476330AC085E795E00E9402
:101E0000512A20E030E040E050EC0E942D35A62F12
:101E1000482F692F85E795E02A2F372FE42FF62FDB
:101E2000A901BF010E94D42D85E795E00E94462CB0
:101E300085E795E00E94A4277B018C0185E795E06A
:101E40000E94AA27E61AF70A080B190B1E141F0492
:101E5000100611065CF485E795E00E94A4277B013B
:101E60008C0185E795E00E94AA270AC085E795E0E6
:101E70000E94AA277B018C0185E795E00E94A42798
:101E8000A8019701261B370B480B590BCE01AA2737
:101E900097FDA095BA2F82179307A407B50734F4CE
:101EA00085E795E0B501A4010E944A2985E795E000
:101EB0000E94A42722E030E040E050E00E946D360E
:101EC0006130710581059105D9F585E795E00E949E
:101ED000A4273B014C0185E795E00E94A427161634
:101EE0001706180619063CF485E795E00E94A4271A
:101EF0005B016C010BC085E795E00E94A427AA2432
:101F0000BB246501A61AB70AC80AD90A85E795E075
:101F10000E94A4277B018C01C401B301A601950195
:101F20000E946D36442737FD4095542F2E0D3F1DDE
:101F3000401F511F85E795E0BA01A9010E944A2977
:101F40006091D1057091D205882777FD8095982FF3
:101F50000E947934AB01BC0185E795E00E94D42D45
:101F600006C085E795E00E94A62E0E94170D85E722
:101F700095E00E94AA277B018C0185E795E00E94ED
:101F8000A427E616F7060807190759F769EC70E069
:101F900080E090E00E947B310E94170D0E94560C59
:101FA0000E94A60CDF91CF911F910F91FF90EF90AF
:101FB000DF90CF90BF90AF909F908F907F906F9069
:101FC00008952F923F924F925F926F927F928F92DD
:101FD0009F92AF92BF92CF92DF92EF92FF920F93B8
:101FE0001F93DF93CF93CDB7DEB7C75AD0400FB65C
:101FF000F894DEBF0FBECDBF87EC90E09E8B8D8B3B
:10200000188E1F8A81E090E09C8F8B8F91E09F8FCC
:1020100098A319A28CE08AA31BA29CA38DE290E056
:102020009FA38EA38FE08DA380E695E00E944324BA
:1020300086E291E00E944E1CCE0145960E94F91F57
:102040008F89988D009719F0019771F796C485E7ED
:1020500095E040E050E060E070E00E94CC2985E728
:1020600095E040E050E060E070E00E94D42D85E70C
:1020700095E00E94AA27AB01BC0185E795E00E948C
:102080004A290E94560C80E695E00E9443240E9453
:10209000170DC556DF4F19821882CB59D040C15653
:1020A000DF4F1882CF59D040C356DF4F19821882B4
:1020B000CD59D04085E795E00E94A62E0E94170DCD
:1020C000C156DF4F2881CF59D0402130D1F585E767
:1020D00095E00E949427611571058105910549F4E9
:1020E0000E94560C0E94170DC156DF4F1882CF591F
:1020F000D0400E9402312091C3053091C405409127
:10210000C5055091C605621B730B840B950B693C8A
:10211000710581059105F8F081E090E00E94271992
:10212000C356DF4F99838883CD59D0400E94023136
:102130006093C3057093C4058093C5059093C6054D
:102140000AC082E390E00E942719C356DF4F9983AB
:102150008883CD59D040C356DF4F88819981CD59AE
:10216000D0408634910509F41FC2873491050CF5DF
:102170008330910509F446C08430910544F48130E0
:10218000910509F497C0029709F094CF96C0C35601
:10219000DF4FA881B981CD59D040A630B10509F4EF
:1021A00043CFA334B10509F4AFC0149709F082CF2F
:1021B00054C0C356DF4FE881F981CD59D040EE3489
:1021C000F10509F4FDC0EF34F1054CF4E734F105F5
:1021D00009F44BC2ED34F10509F06CCF6AC1C35666
:1021E000DF4F28813981CD59D0402435310509F49C
:1021F000DDC22A35310509F49DC02335310509F0CA
:1022000059CF60C08DE495E00E948621833009F0AB
:1022100051CF85E795E00E940927882361F080E38C
:1022200091E00E94A120019709F01AC285E795E08C
:102230000E94FF2615C287E491E00E94A120019729
:1022400009F00EC285E795E00E94AA27AB01BC0108
:1022500085E795E00E94F0262AC08DE495E00E9473
:102260008621833009F026CF85E795E00E94042778
:10227000882361F08EE591E00E94A120019709F08A
:10228000EFC185E795E00E94FA26EAC185E791E073
:102290000E94A120019709F0E3C185E795E00E9423
:1022A000AA27AB01BC0185E795E00E94DD260E94CC
:1022B0006D0CD6C181E090E002C082E090E00E9407
:1022C000620EF8CE85E795E040E050E060E070E017
:1022D0000E94CC2985E795E040E050E060E070E0A6
:1022E0000E94D42D85E795E00E94AA27AB01BC018E
:1022F00085E795E00E944A290E94560CC156DF4F9F
:102300001882CF59D040D6CE85E795E00E940427A9
:10231000882329F085E795E00E94D52606C280E64D
:1023200095E060E041E00E9414248CE891E00E9476
:102330004E1CC0CE8AE395E00E948621082F10E053
:1023400012C08AE395E00E9449228AE395E00E9448
:102350008621C556DF4F19830883CB59D04040E012
:10236000282F342F8901C8010197039750F3C556D0
:10237000DF4F88819981CB59D0408230910521F07F
:10238000039709F097CE0FC085E795E040E050E055
:1023900060E070E00E944A2991E0C156DF4F9883C7
:1023A000CF59D04087CE85E795E040E050E060E02F
:1023B00070E00E94B0270E946D0C0E94560CDAC299
:1023C0008091C7059091C8058931910531F001963A
:1023D0009093C8058093C70504C01092C805109259
:1023E000C7058AE395E00E948621082F10E012C0FD
:1023F0008AE395E00E9449228AE395E00E948621C3
:10240000C556DF4F19830883CB59D04040E0282FB1
:10241000342F8901C8010197039750F3C556DF4F48
:10242000A881B981CB59D040139709F0A3C2E0919C
:10243000C705F091C805EE0FFF1FEE0FFF1FE25614
:10244000FC4FA080B180C280D380C601B50120E0DE
:102450003CE34CE156EC0E94DA33882309F48AC24B
:102460006091D9057091DA05882777FD8095982FBE
:102470000E9479349B01AC01C601B5010E942D3543
:102480002091DB053091DC054091DD055091DE05A2
:102490000E94DE330E944634AB01BC0185E795E023
:1024A0000E944A29B1E0C156DF4FB883CF59D040CE
:1024B00061C28091C7059091C805009731F00197DE
:1024C0009093C8058093C70506C0E9E1F0E0F0935A
:1024D000C805E093C7058AE395E00E948621082F8E
:1024E00010E012C08AE395E00E9449228AE395E059
:1024F0000E948621C556DF4F19830883CB59D040EF
:1025000040E0282F342F8901C8010197039750F329
:10251000C556DF4F28813981CB59D0402330310552
:1025200009F028C2E091C705F091C805EE0FFF1F22
:10253000EE0FFF1FE256FC4FA080B180C280D38017
:10254000C601B50120E03CE34CE156EC0E94DA33D1
:10255000882309F40FC26091D9057091DA058827A4
:1025600077FD8095982F0E9479349B01AC01C601BC
:10257000B5010E942D352091DB053091DC0540919D
:10258000DD055091DE050E94DE330E944634AB012A
:10259000BC0185E795E00E944A2931E0C156DF4F32
:1025A0003883CF59D040E6C185E991E00E94A1204F
:1025B000019709F055C0609138057091390588EF91
:1025C00095E041E554E00E94D60C60913805709189
:1025D00039058EE993E048E650E02CEC3BE00E94A0
:1025E0006A0A09EB14E0BEE9CB2EB3E0DB2E8DB70F
:1025F0009EB70A970FB6F8949EBF0FBE8DBFEDB77A
:10260000FEB7319629E630E02C0F3D1FADB7BEB7BF
:1026100012963C932E9311978BEA91E093838283D9
:10262000D8018D918D01992787FD9095958384839D
:10263000D6012D913D914D915D916D01268337839A
:10264000408751870E94300BEDB7FEB73A960FB620
:10265000F894FEBF0FBEEDBFF4E0033D1F0739F64F
:1026600080E695E00E94432485C18AE395E00E94BC
:102670008621082F10E012C08AE395E00E944922CB
:102680008AE395E00E948621C556DF4F19830883AF
:10269000CB59D04040E0282F342F8901C801019741
:1026A000039750F3C556DF4F28813981CB59D0406D
:1026B0002230310529F02330310509F0FBCC42C02E
:1026C000E091C705F091C805EE0FFF1FEE0FFF1F49
:1026D000E256FC4FA080B180C280D380C601B50114
:1026E00020E03CE34CE156EC0E94DA33882309F405
:1026F000E1CC6091D9057091DA05882777FD809546
:10270000982F0E9479349B01AC01C601B5010E944B
:102710002D352091DB053091DC054091DD05509190
:10272000DE050E94DE330E944634AB01BC0185E722
:1027300095E00E944A2931E0C156DF4F3883CF59D6
:10274000D040B8CC85E795E00E94AA27C090C70585
:10275000D090C805CC0CDD1CCC0CDD1CAEE9B3E080
:10276000CA0EDB1E0E9479342091DB053091DC0516
:102770004091DD055091DE050E942D357B018C01D5
:102780006091D9057091DA05882777FD8095982F9B
:102790000E9479349B01AC01C801B7010E94DE336D
:1027A000F6016083718382839383DAC085E795E0C5
:1027B0000E94AA270E9479342091DB053091DC0524
:1027C0004091DD055091DE050E942D357B018C0185
:1027D0006091D9057091DA05882777FD8095982F4B
:1027E0000E9479349B01AC01C801B7010E94DE331D
:1027F0003B014C012DEC3CEC4CE45EE30E9429359E
:1028000018165CF40F2EFDEC2F2EFCEC3F2EFCE492
:102810004F2EFEE35F2EF02D0AC00F2EF0E02F2E7C
:10282000F0E03F2EF0E04F2EF0E05F2EF02D2091F3
:10283000C7053091C805C056DF4F39832883C05A79
:10284000D040232B09F48CC0C201B10120E030E05C
:1028500040E050E00E94293518160CF081C0C056A7
:10286000DF4FA880B980C05AD0406501CC0CDD1C78
:10287000CC0CDD1C8EE993E0C80ED91ED501119752
:10288000CE55DF4FB983A883C25AD040CD01A0E016
:10289000B0E0CC55DF4F88839983AA83BB83C45AA9
:1028A000D0405CC0C056DF4FE881F981C05AD040AB
:1028B000AE16BF0639F4D6016D927D928D929C9230
:1028C000139745C0CE55DF4FE881F981C25AD040F9
:1028D000AE16BF0639F4C401B301A20191010E94F2
:1028E00075332FC0A114B10469F480E090E0A0E03A
:1028F000B0E080939E0390939F03A093A003B093B6
:10290000A10325C0B501882777FD8095982F0E94E7
:1029100079347B018C01CC55DF4F688179818A81C4
:102920009B81C45AD0400E9477349B01AC01C40102
:10293000B3010E94DE339B01AC01C801B7010E94C4
:102940002D35D6016D937D938D939C9313970894A9
:10295000A108B108ECEFFFEFCE0EDF1EB7FEA2CF4D
:10296000609138057091390588EF95E04EE953E0A4
:102970000E94D60C0E94170D9DCB2DEB30E03BA79B
:102980002AA71DA61CA684E090E099AB88AB91E035
:102990009CAB9DAB1EAA8CE08FAB18AE99AF8DE2BD
:1029A00090E09CAF8BAF8FE08AAF4FE3842E912CE9
:1029B0008C0E9D1E30ECE32E32E1F32E24E6222E07
:1029C000312C94E5C92ED12CCC0EDD1E81ED482E84
:1029D00085E0582E5E010894A11CB11C06ED602E06
:1029E00001E0702E80E695E00E94432483EB91E0A5
:1029F0000E944E1CCE018A960E94F91F8CA59DA5AF
:102A00008230910509F4B2C0833091052CF400970F
:102A100051F0019739F73EC08330910509F4C2C0E7
:102A2000049701F701CBE3EDF5E0D401ED93FC93BE
:102A300023961FAE1EAE23972796FFAEEEAE2797C6
:102A40002B963FAE2EAE2B97F7E02E96FFAF2E972C
:102A500081E02F968FAF2F9784E060968FAF6097BD
:102A600062961FAE1EAE629780E695E00E944324F8
:102A700080E695E06EEB71E00E949530C4010E9403
:102A8000821960912E0570912F054091D3055091C8
:102A9000D40558C0D60111965C924E9213961C92A2
:102AA0001E9212978091D3059091D40517969C930E
:102AB0008E9316978AE090E01B969C938E931A97BC
:102AC000E7E01E96EC931E9781E01F968C931F976C
:102AD00084E050968C93509752961C921E92519778
:102AE00080E695E00E94432400D000D000D0EDB7EE
:102AF000FEB73196ADB7BEB71296BC92AE921197A3
:102B0000738262828091D3059091D40595838483EA
:102B10000E94300BEDB7FEB736960FB6F894FEBFA5
:102B20000FBEEDBF80E695E0B5010E949530C6016D
:102B30000E94821960913005709131054091D10554
:102B40005091D20588EF95E00E940D26882309F464
:102B500049CF80E695E00E9443248FEC91E00E94EB
:102B60004E1C0E94A60C88EE93E019C080E695E00A
:102B70000E94432484EE91E00E944E1C80E695E082
:102B800067E041E00E9414240E94CC22BC0180E650
:102B900095E04AE050E00E94823088EB9BE00E9482
:102BA000271920CF80EF91E00E94A120019709F022
:102BB00019CF00E010E088EF95E0B80140E00E94F6
:102BC000B5250F5F1F4FF2E000301F07A1F70ACFB6
:102BD000AF92BF92CF92DF92EF92FF920F931F932B
:102BE000DF93CF93CDB7DEB7E2970FB6F894DEBF91
:102BF0000FBECDBF8C016B015A01DC01ED90FC9042
:102C0000B701882777FD8095982F0E9479349B0122
:102C1000AC010E94DE35882311F4EF2879F588EFA6
:102C200095E0B6010E94BF26F801808391832DB7FD
:102C30003EB7285030400FB6F8943EBF0FBE2DBFB0
:102C4000EDB7FEB731969E012F5F3F4FADB7BEB7D0
:102C500012963C932E93119721E032E03383228326
:102C6000B582A482868397830E94300BEDB7FEB7AE
:102C700038960FB6F894FEBF0FBEEDBFE2960FB6C2
:102C8000F894DEBF0FBECDBFCF91DF911F910F91A2
:102C9000FF90EF90DF90CF90BF90AF9008958F920C
:102CA0009F92AF92BF92CF92DF92EF92FF920F93DB
:102CB0001F93DF93CF93CDB7DEB7E2970FB6F894AB
:102CC000DEBF0FBECDBF6C015B014A01DC01ED90A0
:102CD000FD900D911C91C801B7010E9479349B01B0
:102CE000AC010E94DE35882329F4E114F1040105CA
:102CF000110599F588EF95E0B5010E94A526F6012A
:102D000060837183828393832DB73EB72A5030400E
:102D10000FB6F8943EBF0FBE2DBFEDB7FEB731968C
:102D20009E012F5F3F4FADB7BEB712963C932E93D7
:102D3000119729E032E0338322839582848266836F
:102D40007783808791870E94300BEDB7FEB73A9664
:102D50000FB6F894FEBF0FBEEDBFE2960FB6F89423
:102D6000DEBF0FBECDBFCF91DF911F910F91FF90BE
:102D7000EF90DF90CF90BF90AF909F908F9008958D
:102D8000AF92BF92CF92DF92EF92FF920F931F9379
:102D9000DF93CF93CDB7DEB7C456D0400FB6F894CB
:102DA000DEBF0FBECDBF88E061E00E94053289E042
:102DB00061E00E94053284E061E00E94053285E016
:102DC00061E00E94053286E061E00E94053287E002
:102DD00061E00E9405328BE061E00E9405328CE0E8
:102DE00061E00E9405328DE061E00E940532CE0173
:102DF000019662E172E00E94420AC0902A05D090DA
:102E00002B05E090DB05F090DC050091DD051091CD
:102E1000DE05C801B701A80197010E94DE358823AD
:102E200051F4C801B70120E030E040E050E00E94DA
:102E3000DA338823D1F588EF95E0B6010E94762633
:102E40006093DB057093DC058093DD059093DE05D0
:102E50002DB73EB72A5030400FB6F8943EBF0FBE94
:102E60002DBFEDB7FEB731969E012D5C3F4FADB73C
:102E7000BEB712963C932E93119725E232E033832E
:102E800022839E012F5F3F4F3583248366837783A0
:102E9000808791870E94300B2DB73EB7265F3F4F4A
:102EA0000FB6F8943EBF0FBE2DBF8E010F5F1F4FB0
:102EB000C8016FE272E00E94420A60912C05709195
:102EC0002D0589ED95E0A8010E94E815C80165E48B
:102ED00072E00E94420A60912E0570912F0583EDE9
:102EE00095E0A8010E94E815C8016EE572E00E9415
:102EF000420A609130057091310581ED95E0A8019D
:102F00000E94E815C8016AE772E00E94420A6091D7
:102F100032057091330585ED95E0A8010E944F16AA
:102F2000C8016DE972E00E94420A60913405709117
:102F3000350589EC95E0A8010E944F16C80167EBA2
:102F400072E00E94420A60913605709137058DEC5F
:102F500095E0A8010E944F166091380570913905DF
:102F60008EE993E048E650E02CEC3BE00E946A0AD0
:102F7000A9EBEA2EA4E0FA2EFEE9CF2EF3E0DF2E35
:102F800058010BEA11E08DB79EB70A970FB6F89477
:102F90009EBF0FBE8DBFEDB7FEB73196ADB7BEB7C2
:102FA0001196AC9211971296BC9213830283D701AB
:102FB0008D917D01992787FD909595838483D60116
:102FC0002D913D914D915D916D0126833783408711
:102FD00051870E94300B2DB73EB7265F3F4F0FB68B
:102FE000F8943EBF0FBE2DBF33EDE31634E0F30679
:102FF00051F60E94A60C4091C9055091CA056091F6
:10300000CB057091CC0585E795E00E94DD264091C7
:10301000CD055091CE056091CF057091D00585E723
:1030200095E00E94F02680E695E060E142E020E035
:103030000E944B2480E695E00E940A2480E695E0F9
:103040000E94432424E630E0309347042093460452
:1030500082E390E090934D0480934C0484EF91E0E0
:10306000909345048093440430934B0420934A0486
:1030700080E695E066E074E04CE054E020E130E06A
:1030800002E010E0EEE7EE2E0E940821CC59DF4F5F
:103090000FB6F894DEBF0FBECDBFCF91DF911F9169
:1030A0000F91FF90EF90DF90CF90BF90AF90089579
:1030B000A091ED05B091EE0520E010C08E1719F437
:1030C000822F8F5F08959F5FFA01E90FF11DE08164
:1030D000EE23A1F72F5F1296263029F04D915C91D7
:1030E000119790E0F1CF08958F929F92AF92BF9287
:1030F000CF92DF92EF92FF920F931F93CF93DF93C4
:10310000862E942E022FE22EFF240894E108F10867
:10311000843608F083E690E0880F991F9C012E9D6D
:10312000C0012F9D900D3E9D900D112464E670E02E
:103130000E9438366B010894C11CD11CC60162E0A4
:1031400070E00E943836EB0110E0AA24BB246FC067
:10315000412F490D8091E3059091E405682D0E946F
:103160001424812F90E08C179D07A1F5112359F4A9
:10317000E091E305F091E405A081B1812D913C91AE
:10318000CF0160E033C0CE15DF0559F4E091E305CF
:10319000F091E405A081B1812D913C91CF0165E0D2
:1031A00025C0A091E305B091E405CA14DB0449F4FD
:1031B000ED91FC9111970190F081E02DCD0162E03D
:1031C00030C0ED91FC9111970190F081E02DCD017F
:1031D00063E027C0112369F4E091E305F091E40571
:1031E000A081B1812D913C91CF0161E0F901099558
:1031F00019C0A091E305B091E4058E159F0549F42F
:10320000ED91FC9111970190F081E02DCD0164E0EA
:1032100008C0ED91FC9111970190F081E02DCD0156
:1032200060E209951F5F82E090E0A80EB91E1017BA
:1032300008F48ECFDF91CF911F910F91FF90EF9007
:10324000DF90CF90BF90AF909F908F9008958F9216
:103250009F92AF92BF92CF92DF92EF92FF920F9325
:10326000DF93CF9300D0CDB7DEB79A8389830E94D6
:1032700002314B015C0100E089819A816C01EE24EE
:10328000D7FCE094FE2C12C0ED91FC9111970190B7
:10329000F081E02DCD010995882339F00E9458185E
:1032A000282F332727FD30951EC00F5F802F90E019
:1032B000880F991FE091E905F091EA05E80FF91FE1
:1032C000A081B181109701F70E9402316819790934
:1032D0008A099B096C157D058E059F0510F400E099
:1032E000E5CF20E030E0C9010F900F90CF91DF9142
:1032F0000F91FF90EF90DF90CF90BF90AF909F9095
:103300008F9008952F923F924F925F926F927F928B
:103310008F929F92AF92BF92CF92DF92EF92FF92E5
:103320000F931F93DF93CF93CDB7DEB727970FB6D9
:10333000F894DEBF0FBECDBF8C012DB73EB73F83E3
:103340002E83DC01ED91FC911197E080F180509685
:103350007C90A72CBB24C5010196EDB7FEB7E81BF6
:10336000F90B0FB6F894FEBF0FBEEDBFCDB6DEB6BB
:103370000894C11CD11C80E090E205C0F601E80F62
:10338000F11D90838F5F8715C8F3F601EA0DFB1DD1
:1033900010828091E3059091E405D8011E966C910E
:1033A0001E971F964C91DE011196E5EEF2E025E0A6
:1033B00001900D922150E1F70E9414244601809162
:1033C000E3059091E405B6010E9495308091E305F4
:1033D0009091E405F801668547850E941424D80180
:1033E00051968D919C915297009719F0019769F52C
:1033F0000EC000D000D000D0EDB7FEB73196ADB70B
:10340000BEB71196CC92D18282EE92E010C08B8131
:10341000870D8B8300D000D000D0EDB7FEB731967A
:10342000ADB7BEB71196CC92D182CE0101969383EF
:103430008283F582E4820E94300BEDB7FEB73696A8
:103440000FB6F894FEBF0FBEEDBF8091E3059091DB
:10345000E405B4010E9495308091E3059091E40564
:10346000D8011E966C911E971F964C910E941424B1
:103470008091E3059091E4050E94F823AC0CBD1CFB
:10348000F2EE2F2EF2E03F2EE0E36E2E670C2E01BF
:103490000894411C511C82E390E00E94271983305C
:1034A00009F4AEC0843028F4813061F0823099F79D
:1034B0002CC0853009F4C0C0853008F4AFC0863018
:1034C00051F7C8C0F80182859385E80EF91E868100
:1034D00097818E159F0514F4E280F3808091E305B7
:1034E0009091E405D8011E966C911E971F964C9101
:1034F0000E94142480E006C0F601E80FF11DB0E23E
:10350000B0838F5F8715C0F322C0F8018285938551
:10351000E81AF90A82819381E816F90614F4E68024
:10352000F7808091E3059091E405D8011E966C9197
:103530001E971F964C910E94142480E006C0F6014D
:10354000E80FF11DB0E2B0838F5F8715C0F3F5017E
:1035500010828091E3059091E405B4010E949530BA
:103560008091E3059091E405D8011E966C911E9719
:103570001F964C910E941424F8018189928900972A
:1035800019F0019749F50EC000D000D000D0EDB77A
:10359000FEB73196ADB7BEB711968C929182338249
:1035A00022820EC06B8200D000D000D0EDB7FEB7F3
:1035B0003196ADB7BEB711968C92918253824282FA
:1035C000F582E4820E94300BEDB7FEB736960FB657
:1035D000F894FEBF0FBEEDBF8091E3059091E40526
:1035E000B4010E9495308091E3059091E405D801E3
:1035F0001E966C911E971F964C910E9414244BCFDF
:10360000D801ED91FC91F182E0828091E3059091E7
:10361000E4050E9402242DEF3FEF24C0D801ED9174
:10362000FC91F182E0828091E3059091E4050E9493
:1036300002242CEF3FEF16C0D801ED91FC91F182EE
:10364000E0828091E3059091E4050E94022421E04C
:1036500030E008C08091E3059091E4050E940224C7
:103660002FEF3FEFC901EE81FF810FB6F894FEBF47
:103670000FBEEDBF27960FB6F894DEBF0FBECDBFCD
:10368000CF91DF911F910F91FF90EF90DF90CF903E
:10369000BF90AF909F908F907F906F905F904F9072
:1036A0003F902F9008958F929F92AF92BF92CF92AA
:1036B000DF92EF92FF920F931F93CF93DF936C01F2
:1036C000DC011B969C901B971A968C9000E0FF24BF
:1036D000A92CBB240894A108B1085DC0F601828121
:1036E0009381800F911DC081D181FE010190002046
:1036F000E9F73197EC1BFD0B8E179F0728F4C80FD5
:10370000D91F68816A3019F40F5F10E001C0162FCD
:10371000D6011F964C911F974F0D8091E305909114
:10372000E4051E966C910E941424EE2431C0A091F1
:10373000E305B091E405112351F4ED91FC9111974B
:103740000190F081E02DCD0160E2099520C0ED915E
:10375000FC9111970190F081E02DCD01612F099529
:103760000F5FD601ED91FC911197E00FF11D1296BC
:103770008D919C911397E80FF91F10811A3039F43D
:103780008E2D90E08A159B0514F40F5F10E0E394F2
:10379000E91468F2F394F81408F4A0CFF6018189D3
:1037A0009289019769F5D601EC911196FC91DF01A0
:1037B0000D900020E9F77D010894E108F108EE1A68
:1037C000FF0AF60162817381882777FD8095982F23
:1037D00024E630E040E050E00E94F93500E010E0DF
:1037E000A80197010E946D36822FD6011E969C91EA
:1037F0001E97990E692D1F964C91282D0E947418C2
:10380000DF91CF911F910F91FF90EF90DF90CF90BC
:10381000BF90AF909F908F900895CF92DF92EF92DC
:10382000FF920F931F93CF93DF937C016B0189016C
:10383000BC01620F731F552747FD509590E21AC0D7
:1038400037FD0AC0F70101900020E9F7EE19FF09E2
:103850003297E217F30728F4F601E80FF11D908381
:1038600005C0CC0DDD1DFB01808188832F5F3F4F9C
:103870006F5F7F4F822F801BC82FD0E0C417D50702
:10388000FCF24C0D5D1DFA011082DF91CF911F916A
:103890000F91FF90EF90DF90CF9008958F929F92BD
:1038A000AF92BF92CF92DF92EF92FF920F931F934E
:1038B000DF93CF93CDB7DEB765970FB6F894DEBF31
:1038C0000FBECDBF6C01E090E505F090E605C701A5
:1038D00062E070E00E9438368B01AA24BB24BE014E
:1038E0006F5F7F4F8CE3882EBEE39B2E2BC0F601CB
:1038F00001900020E9F73197EC19FD09AF015695C9
:103900004795CA018E1B9F0B800F911F28173907FF
:1039100028F4260F371FF901908213C0400F511F62
:103920002417350728F0260F371FF901808209C0B8
:10393000260F371FF601EA0DF11D8081F901808302
:10394000A394B3942B2D30E02E153F0584F2BE01D5
:103950006F5F7F4FE60EF71EF70110828091E3053F
:103960009091E4050E94953065960FB6F894DEBFFD
:103970000FBECDBFCF91DF911F910F91FF90EF90C0
:10398000DF90CF90BF90AF909F908F9008954F920F
:103990005F926F927F928F929F92AF92BF92CF92DF
:1039A000DF92EF92FF920F931F93CF93DF932C013F
:1039B0004B0159016C01C20ED31E8901E42EFF2474
:1039C000E7FCF09490E2692E18C017FD07C0C20111
:1039D0000E942E0A01978017910728F4F401E70D41
:1039E000F11D608205C0F6018491C80DD91D888340
:1039F0000F5F1F4F0894C11CD11C702E7A18C72D61
:103A0000D0E0CE15DF050CF3E80CF91CF7011082AD
:103A1000DF91CF911F910F91FF90EF90DF90CF90AA
:103A2000BF90AF909F908F907F906F905F904F90DE
:103A300008952F923F924F925F926F927F928F9252
:103A40009F92AF92BF92CF92DF92EF92FF920F932D
:103A50001F93DF93CF93CDB7DEB7A0970FB6F8943F
:103A6000DEBF0FBECDBF7C01DC011B96BC91BA8FBF
:103A7000FC01F285F98FFB9F002D1124DC011D96BE
:103A8000BC91B88FFC01F485FF8B0E9402313B0191
:103A90004C01D70151968C91519712964D915C91A2
:103AA000139785FF16C0202F2695142F121B17FF82
:103AB00002C010E016C0F70186819781400F511DAA
:103AC000421B51098417950764F4182F1F5F101BC0
:103AD00008C0CA01602F70E00E943836609F102D28
:103AE00011240150F02FF10FFB8F0F5FD7011696B5
:103AF0002D913C9117978F2F90E0281739070CF4E0
:103B00002B8FC401B30124EF31E040E050E00E946C
:103B10004B36C901DA013C014D01A12E1C8EE12F6B
:103B2000F0E0FE8FED8FE00FF11DF8A3EF8F1E0187
:103B30000894211C311C29C1FB8DFA1510F490E06A
:103B4000BFC0D70151968D919C9152979C012870CE
:103B5000307090FF64C0232BD1F112968D919C910F
:103B600013974816590699F5C201880F991FED91D0
:103B7000FC91E80FF91F0081D180E02FFD2DDF01BE
:103B80000D900020E9F71197AE1BBF0BF7011089CC
:103B9000212F30E02A173B07D0F42A0F3B1F40E0CB
:103BA00050E0C401B3010E946D369B01AC013901A4
:103BB0004A01611A710881089108802F9D2DB10179
:103BC000412F93010E940D1CF1E0FC8F82C08A2DD1
:103BD00090E0880F991FD701ED91FC911197E80FA4
:103BE000F91F6081718150964C9150E04F5F5F4F9B
:103BF000C1010E94490A982FF7018089981708F09F
:103C000068C0892F06C0F101E80FF11D20E2208372
:103C10008F5FD70150969C918917A8F348C0232B3A
:103C200009F4CBC1F701828193814816590609F046
:103C3000C4C1C201880F991F0190F081E02DE80FE7
:103C4000F91FC590D490C6010E942E0AD701509644
:103C5000BC900B2D10E00817190708F0AEC1C60183
:103C60000E942E0A080F191F980140E050E0C4017D
:103C7000B3010E946D369B01AC0139014A016B18FA
:103C8000710881089108C601B1014B2D93010E9472
:103C9000C71CB1E0BC8F1DC0F101E80FF11D20E28F
:103CA00020838F5FD70150969C918917A8F3F1016B
:103CB000E90FF11D0DC0E20DF31DB0E2B0839F5F6F
:103CC000F7018089E92FF0E09817A8F3E20DF31DC2
:103CD0001082F2012D8D3E8DE21BF30BCF01698D19
:103CE00070E00E943836D70150968C91509790E042
:103CF00001969C01629FC001639F900D729F900D81
:103D000011241E962C91280FCF01698D70E00E941E
:103D10003836D7011F964C91480F8091E30590915A
:103D2000E405622F0E941424F701818980FF25C0D9
:103D30000091E3051091E405FB8DFA15A8F0D80178
:103D4000ED91FC910190F081E02DD70112968D91BB
:103D50009C9113974816590619F46091EB0502C01F
:103D60006091EC05C80108C0D801ED91FC9101906B
:103D7000F081E02DC80160E209958091E305909102
:103D8000E405B1010E949530A3944A2C5524EF8D8F
:103D9000F8A14E165F060CF4CFCED70151968C9148
:103DA00081FF36C08091E3059091E405688D4F89CD
:103DB0000E941424DD2423C0F701828193810091A5
:103DC000E3051091E4052817390751F4D801ED9166
:103DD000FC910190F081E02DC8016091EB050DC0D0
:103DE000D801ED91FC918D2D6AE00E941836692F63
:103DF0006F5C0190F081E02DC8010995D3942D2DC1
:103E000030E0F7018681978182179307ACF64AC0AC
:103E100082FF48C02DB73EB72A5030400FB6F89405
:103E20003EBF0FBE2DBFEDB7FEB731968E010F5FBF
:103E30001F4FADB7BEB712961C930E9311978FEE1E
:103E400092E0938382838091EB05992787FD90957B
:103E500095838483D70112968D919C911397019637
:103E60009783868316968D919C91179701969187DB
:103E700080870E94300BEDB7FEB73A960FB6F894E4
:103E8000FEBF0FBEEDBF8091E3059091E405688D04
:103E90004F890E9414248091E3059091E405B801B4
:103EA0000E949530D70151964C91519746FF2CC0F6
:103EB00012962D913C9113972F5F3F4F16966D915F
:103EC0007C9117976F5F7F4F84E690E0FC012E9FF7
:103ED000C0012F9F900D3E9F900D11240E943836F7
:103EE000862FD70150966C916F5FBA8D6B9F602DB6
:103EF0001124F7019685690F942F90959170691B95
:103F00004785298D0E947418D70151968C9151973D
:103F10000091E3051091E40584FF32C012962D91C3
:103F20003C911397ED8DFE8D2E1B3F0BC901698DC2
:103F300070E00E943836D70150968C91509790E0EF
:103F40000196FC016E9FC0016F9F900D7E9F900DAA
:103F500011241E96EC91E80FC901698D70E00E9452
:103F60003836D7011F964C91480FC8016E2F0E941A
:103F700014248091E3059091E4050E94E62303C098
:103F8000C8010E94F0238C8DA0960FB6F894DEBF76
:103F90000FBECDBFCF91DF911F910F91FF90EF909A
:103FA000DF90CF90BF90AF909F908F907F906F9059
:103FB0005F904F903F902F9008958A2D90E0880F4A
:103FC000991FD701ED91FC911197E80FF91F6591A9
:103FD000749150964C9150E04F5F5F4FC1010E9429
:103FE000180A982FF7018089981708F072CE892F48
:103FF00059CECF92DF92FF920F931F93DF93CF930F
:10400000CDB7DEB78C01CDB6DEB6FC01808990E07D
:1040100001962DB73EB7281B390B0FB6F8943EBF5B
:104020000FBE2DBFC8010E94191DF82E82E390E03B
:104030000E942719F801338522858330910581F18B
:10404000843091054CF48130910599F082309105CE
:10405000E4F4892B59F04CC085309105B9F18530D5
:1040600091053CF1069709F043C039C0FF20F1F2F9
:10407000D9CFF801828193811816190614F401979B
:1040800044C0F8018681978140C0F80122813381C4
:104090008681978128173907F4F52F5F3F4F40C07D
:1040A000F801878522813381281B310937FDBACF7A
:1040B00037C0F801878522813381280F311D868121
:1040C0009781821793070CF4ADCF2AC08091E30546
:1040D0009091E4050E94022421E030E024C0809108
:1040E000E3059091E4050E9402242FEF3FEF1BC0EF
:1040F000F80142815381239FC0011124840F951F31
:1041000026813781281739071CF0938382838ACF51
:104110004217530721F4F8011382128283CFF8016A
:10412000338322837FCFC9010FB6F894DEBE0FBE62
:10413000CDBECF91DF911F910F91FF90DF90CF9077
:1041400008950F931F93DF93CF93CDB7DEB7659795
:104150000FB6F894DEBF0FBECDBF8C018091E30592
:104160009091E4050E9443241A8309831C821B82D8
:104170004091E5055091E6052091E7053091E8056D
:1041800018861F82249FC001259F900D349F900D9B
:1041900011240A9721F081E090E098878F832B8784
:1041A0004C871F86188A1B8A1A8A8E010F5F1F4F41
:1041B000C8010E94531B86E791E09A8389831C8281
:1041C0001B8281E090E098878F8389E0898B8091C2
:1041D000E50589508F878091E7058150888B81E0C4
:1041E0008B878C871B8A1A8AC8010E94F91F8F5FF0
:1041F0009F4F19F08B819C8100C065960FB6F89493
:10420000DEBF0FBECDBFCF91DF911F910F910895FB
:10421000EF92FF920F931F93DF93CF93CDB7DEB74B
:104220002A970FB6F894DEBF0FBECDBF9093E4057A
:104230008093E3057093EA056093E9055093EE05DA
:104240004093ED053093E6052093E5051093E805CE
:104250000093E705E092EB0525EA2093EC05892B16
:10426000E9F000E010E07E010894E11CF11CF80187
:10427000EE0FFF1FEA5AFE4F65917491C7010E942D
:10428000110A8091E3059091E405602FA7010E9437
:10429000BE230F5F1F4F0630110549F71092EF053F
:1042A0002A960FB6F894DEBF0FBECDBFCF91DF9137
:1042B0001F910F91FF90EF900895FC018281089566
:1042C0007093450460934404089570934704609389
:1042D00046040895709349046093480408957093C8
:1042E0004B0460934A04089570934D0460934C040A
:1042F0000895FC0183858F3F11F480E008950784C1
:10430000F089E02DE80FF11D80810895FC0184857E
:1043100008951F93CF93DF93EC01E881F981028820
:10432000F389E02D0995182F8C85823009F467C038
:10433000833030F4882371F0813009F0A5C04BC080
:10434000843009F476C0843008F47BC0853009F0ED
:104350009BC00BC01F3FD9F10E9402316C837D834B
:104360008E839F8385E08C878FC01F3F91F18B8563
:10437000811739F50E9402312C813D814E815F8188
:10438000621B730B840B950B2091460430914704FC
:1043900040E050E0261737074807590708F074C077
:1043A00081E08C870E9402316C837D838E839F83A2
:1043B0006093F0057093F1058093F2059093F305F7
:1043C00061C00E9402316C837D838E839F831B8733
:1043D0005BC01C86FCCF1F3F49F08B85811711F411
:1043E00082E001C085E08C8782E001C084E08C8798
:1043F0000E9402316C837D838E839F8345C08B85B1
:104400008117A1F70E9402312C813D814E815F818D
:10441000621B730B840B950B20914404309145046F
:1044200040E050E0261737074807590768F583E052
:10443000DECF1F3F11F41C8627C085E08C871B87C9
:10444000D7CF8B85811719F084E08C8715C00E9427
:1044500002312C813D814E815F81621B730B840B85
:10446000950B20914A0430914B0440E050E0261710
:1044700037074807590740F40E9402316C837D8357
:104480008E839F838B8501C08FEFDF91CF911F912A
:104490000895CF93DF93EC010E9489218F3F11F49F
:1044A00080E005C0EF85F889E80FF11D8081DF917C
:1044B000CF910895EF920F931F93CF93DF93EC0169
:1044C00087ED94E09983888388E08A83788B6F876F
:1044D0005E874D873A8B298B0887E9868FEF8B871C
:1044E0001C860E9402316C837D838E839F8300E053
:1044F00010E012C0ED85FE85E00FF11F808160E0C5
:104500000E940532ED85FE85E00FF11F808160E09D
:104510000E9444320F5F1F4F888590E008171907EB
:104520004CF3DF91CF911F910F91EF9008951F935E
:10453000CF93DF93EC0110E027C0ED85FE85E10FFE
:10454000F11D80810E94E331598540E020E030E098
:1045500018C0E989FA89E20FF31F0190F081E02D7C
:10456000E81BF90BF7FF03C0F095E195FF4F2E5FB5
:104570003F4F3A972CF4519F802D1124840F08C08F
:104580004F5F451730F31F5F88851817B0F28FEF24
:10459000DF91CF911F910895DF93CF9300D0CDB7D6
:1045A000DEB72091A0063091A106CE01019621151B
:1045B000310529F4845A96409A83898318C0AC0146
:1045C000421B530BE091A206F091A30620E030E0DD
:1045D00008C0808191810296280F391F0280F381E3
:1045E000E02D3097B1F7240F351F3A832983898155
:1045F0009A810F900F90CF91DF9108950F931F93A1
:104600008C01FC01868160E00E94443281E090E0F0
:104610000E943631F801868161E00E94443281E0D7
:1046200090E00E943631F801868160E00E944432B9
:1046300084E690E00E9436311F910F910895CF9249
:10464000DF92EF92FF920F931F93CF93DF93D82EB9
:10465000C92E282F392FC9018C01C0E0D0E0E62EE9
:10466000FF24F801878161E00E940532B7010C2E1A
:1046700002C0759567950A94E2F76170F801878129
:104680000E94443221960F5F1F4FC830D10549F771
:104690008D2D9C2D0E94FE22DF91CF911F910F91B5
:1046A000FF90EF90DF90CF900895CF92DF92EF923E
:1046B000FF920F931F93CF93DF93D82EC92E282FED
:1046C000392FC9018C01C0E0D0E0E62EFF24F801AB
:1046D000878161E00E940532B7010C2E02C07595FA
:1046E00067950A94E2F76170F80187810E9444326D
:1046F00021960F5F1F4FC430D10549F78D2D9C2D9A
:104700000E94FE22DF91CF911F910F91FF90EF90B9
:10471000DF90CF9008951F93CF93DF93EC01162F76
:104720008C81642F0E9444328D818F3F19F060E0AC
:104730000E9444328F8584FF05C0CE01612F0E9404
:104740001F230EC0612F70E084E0759567958A95F0
:10475000E1F7CE010E945523CE01612F0E9455231F
:10476000DF91CF911F91089541E00E948B2381E05A
:1047700090E0089540E00E948B230895EF92FF920D
:104780000F931F93CF93DF938C017A016770660FAD
:10479000660F660F60640E94BA23C0E0D0E0D801C3
:1047A000ED91FC91D701AC0FBD1F0190F081E02D80
:1047B000C8016C9109952196C830D10581F7DF9128
:1047C000CF911F910F91FF90EF900895FC016089A8
:1047D000862F8160808B6960CF010E94BA23089583
:1047E000FC0160896E7F608B68600E94BA23089527
:1047F000FC016089862F8260808B6A60CF010E94F5
:10480000BA230895FC0160896D7F608B68600E9407
:10481000BA230895FC016089862F8460808B6C60C8
:10482000CF010E94BA230895DF93CF93CDB7DEB7AF
:1048300028970FB6F894DEBF0FBECDBF9C01FE01D6
:104840003196A3EFB4E088E00D9001928150E1F73A
:10485000F9018389481710F0482F4150E42FF0E008
:10486000EE0FFF1FEC0FFD1F8181680F6068C9010B
:104870000E94BA2328960FB6F894DEBF0FBECDBFB4
:10488000CF91DF91089561E00E94BA2380ED97E017
:104890000E9436310895CF93DF93EC01423018F037
:1048A0008F8588608F874B8B1C8A222329F04130AB
:1048B00019F48F8584608F8780E593EC0E943631F0
:1048C0008C8160E00E9444328E8160E00E9444321C
:1048D0008D818F3F19F060E00E9444326F8564FD46
:1048E0001DC0CE0163E00E94552384E991E10E943E
:1048F0003631CE0163E00E94552384E991E10E94A4
:104900003631CE0163E00E94552386E990E00E9493
:104910003631CE0162E00E94552316C06062CE019E
:104920000E94BA2384E991E10E9436316F8560626A
:10493000CE010E94BA2386E990E00E9436316F854D
:104940006062CE010E94BA236F856062CE010E9430
:10495000BA2384E0888BCE010E940A24CE010E94F3
:10496000432482E0898BCE0166E00E94BA23DF9166
:10497000CF9108956F927F928F92AF92CF92EF92E4
:104980000F931F93DF93CF93CDB7DEB73C01162F64
:10499000842FF301448325830683E782C086A186A2
:1049A00082869D8593879E8594879F859587988924
:1049B000968761E00E940532F30185818F3F19F0EF
:1049C00061E00E940532F301868161E00E940532B8
:1049D000112319F0F301178603C080E1F3018787E3
:1049E000C30160E141E020E00E944B24CF91DF91C0
:1049F0001F910F91EF90CF90AF908F907F906F901D
:104A000008958F92AF92CF92EF920F931F93CF930F
:104A1000DF93DC01362F542F722F102FAE2C8C2CED
:104A200013961C921E9212978FEE94E011969C930F
:104A30008E9300D000D0EDB7FEB73196CDB7DEB77C
:104A40001982118212821382CD0161E0432F2FEF70
:104A5000052FE72EC12E0E94BA240F900F900F90C1
:104A60000F90DF91CF911F910F91EF90CF90AF906A
:104A70008F9008959C01F999FECF32BD21BDF89A1F
:104A800080B5089584E690E09093F9058093F80549
:104A9000089580914E0490914F048617970714F063
:104AA00081E008958AEF95E067EF72E00E94983008
:104AB00080E00895CF93DF93EB016F5F7F4F0E94FB
:104AC0004925882331F0F999FECFD2BDC1BDF89AAE
:104AD00080B5DF91CF9108950E945A250895FC0179
:104AE0008091F6059091F70501969093F7058093D4
:104AF000F6050190F081E02D309719F0E817F907DD
:104B000044F48AEF95E061E273E00E94983080E01F
:104B1000089580914E0490914F048617970714F0E2
:104B200081E008958AEF95E067EF72E00E94983087
:104B300080E008951F93CF93DF93142FEB016F5FF5
:104B40007F4F0E946F25882361F0F999FECF1FBA2D
:104B5000D2BDC1BD10BD0FB6F894FA9AF99A0FBE36
:104B600081E0DF91CF911F9108950E949A250895C9
:104B70008F929F92AF92BF92CF92DF92EF92FF926D
:104B80000F931F93DF93CF9300D000D0CDB7DEB744
:104B90005C016B0129833A834B835C836C5F7F4F9D
:104BA0000E946F25882311F18E010F5F1F4FEE24A5
:104BB000FF2494E0892E912C8C0E9D1EC501B60118
:104BC0000E945A25F8014081841739F0C501B601C9
:104BD0000E949A250894E11CF11C0815190541F062
:104BE0000894C11CD11C0F5F1F4FE8CFEE24FF2497
:104BF00080E0EF2809F081E00F900F900F900F9068
:104C0000CF91DF911F910F91FF90EF90DF90CF90A8
:104C1000BF90AF909F908F900895CF92DF92EF92C8
:104C2000FF920F931F93DF93CF9300D0CDB7DEB7E2
:104C30006C017B015A8349836E5F7F4F0E946F2511
:104C4000882319F400E010E022C0C601B7010E94D9
:104C50005A254981841719F400E010E006C0C60106
:104C6000B7010E949A2501E010E00894E11CF11CB4
:104C7000C601B7010E945A25FE0131964181841771
:104C800031F0C601B7010E949A250F5F1F4F80E0E7
:104C9000012B09F081E00F900F90CF91DF911F91D0
:104CA0000F91FF90EF90DF90CF900895CF93DF9317
:104CB000C091F405D091F5056C0F7D1F7093F5053B
:104CC0006093F40580914E0490914F0486179707E6
:104CD0004CF48AEF95E067EF72E00E949830D0952F
:104CE000C195DF4FCE01DF91CF9108950F931F93B0
:104CF000DF93CF9300D000D0CDB7DEB78B016C5FD0
:104D00007F4F0E944925882321F470E060E090E005
:104D10000DC0CE010196B80144E050E02AE335E22F
:104D20000E946A0A79816A819B818C81272F362FA4
:104D3000492F582FB901CA010F900F900F900F9073
:104D4000CF91DF911F910F910895CF93DF93EB01E6
:104D50006C5F7F4F0E944925882329F420E030E0D2
:104D600040E050E007C0CE016AE375E20E94860A87
:104D70009B01AC01B901CA01DF91CF910895CF9396
:104D8000DF93EB016E5F7F4F0E944925882319F462
:104D900020E030E006C0CE016AE375E20E94AC0A72
:104DA0009C01C901DF91CF910895FC01EC5BFF4F9D
:104DB00060817181828193810895FC01EC5BFF4FDA
:104DC0004083518362837383399681E080830895A1
:104DD000FC01E85BFF4F60817181828193810895BE
:104DE000FC01E85BFF4F419351936193719381E024
:104DF00080830895FC01E35BFF4F10820895FC015E
:104E0000E45BFF4F10820895FC01E35BFF4F80815C
:104E10000895FC01E45BFF4F80810895FC01E35B92
:104E2000FF4F8081ED54F0408823A9F0EC5BFF4FE9
:104E30002081318142815381E454F04087859089FB
:104E4000A189B289281739074A075B0724F4278705
:104E5000308B418B528BE45BFF4F8081EC54F040F0
:104E60008823A9F0E85BFF4F208131814281538183
:104E7000E854F04087859089A189B2898217930709
:104E8000A407B50724F42787308B418B528B0895F4
:104E9000EF92FF920F931F93CF93DF93EC017A0170
:104EA0008B01C35BDF4F8881CD54D0408823B9F09C
:104EB000FE01EC5BFF4F80819181A281B3812B8544
:104EC0003C854D855E85821B930BA40BB50B8E0D27
:104ED0009F1DA01FB11F80839183A283B383C45BF6
:104EE000DF4F8881CC54D0408823B9F0FE01E85BC5
:104EF000FF4F80819181A281B3812B853C854D85B7
:104F00005E85821B930BA40BB50B8E0D9F1DA01FFE
:104F1000B11F80839183A283B383DF91CF911F91CF
:104F20000F91FF90EF900895FC012785308941890A
:104F3000528983859485A585B685281B390B4A0B34
:104F40005B0BB901CA010895FC01678570898189ED
:104F500092890895FC0163857485858596850895F9
:104F6000CF92DF92EF92FF920F931F936C017A0121
:104F70008B01DC01ED91FC91008CF18DE02D099508
:104F8000F601E386F48605871687D6011F96ED9213
:104F9000FD920D931C93529713AA14AA15AA16AA50
:104FA00093961D921D921D921C9296971F910F91A0
:104FB000FF90EF90DF90CF9008956F927F928F9245
:104FC0009F92AF92BF92CF92DF92EF92FF920F9398
:104FD0001F93CF93DF93EC01AF84B888C988DA8838
:104FE0008B859C85AD85BE85A81AB90ACA0ADB0ADD
:104FF0002B893C894D895E89CA01B9010E942D35F2
:105000007B018C012B8D3C8D4D8D5E8DCA01B901CC
:105010000E9476339B01AC01C801B7010E94DE33C8
:105020000E9446349B01AC01A114B104C104D10417
:10503000B9F462307105810591050CF085C01BA2A1
:105040001CA21DA21EA280E090E0A0E0B0E08B8B2D
:105050009C8BAD8BBE8B1BAA1CAA1DAA1EAA0BC1C2
:10506000EBA8FCA80DA91EA91A141B041C041D04FE
:1050700044F51E141F041006110674F46A157B050E
:105080008C059D05B4F5CD5BDF4F8881C354D040BE
:10509000882309F059C02DC0E114F1040105110560
:1050A00009F452C06A157B058C059D050CF04CC0B7
:1050B000CD5BDF4F8881C354D040813009F044C0BC
:1050C00038C01E141F0410061106DCF48827992727
:1050D000DC018A199B09AC09BD09281739074A0761
:1050E0005B073CF4CD5BDF4F8881C354D0408130F7
:1050F00059F588279927DC01821B930BA40BB50B6C
:105100001FC0E114F10401051105F1F0882799276A
:10511000DC018A199B09AC09BD09281739074A0720
:105120005B0794F4CD5BDF4F8881C354D040882364
:1051300059F488279927DC018E199F09A00BB10B20
:105140008BAB9CABADABBEAB6BA87CA88DA89EA86F
:105150006114710481049104A9F48FA998ADA9ADDB
:10516000BAAD8BAF9CAFADAFBEAFFE01ED5BFF4FF5
:1051700010821A141B041C041D040CF049C081E0A9
:10518000808346C0ABACBCACCDACDEACC601B501D7
:1051900020E030E040E050EC0E942D357B018C0196
:1051A000C401B3010E94793420E030E040E850E4CB
:1051B0000E942D3520E030E040E85FE30E94763326
:1051C0009B01AC01C801B7010E94DE339B01AC0119
:1051D000C601B5010E9476337B018C016BAF7CAFB9
:1051E0008DAF9EAFEF96A880B980CA80DB80EF9725
:1051F0009501A6010E942935181624F4D801C7018B
:1052000057016D01C501D6018BAF9CAFADAFBEAFED
:105210008BA99CA9ADA9BEA90196A11DB11D8BABFF
:105220009CABADABBEAB6BAD7CAD8DAD9EAD0E940E
:105230004B346BA37CA38DA39EA360E074E284E750
:1052400099E42BAD3CAD4DAD5EAD0E94DE339B01CC
:10525000AC016B8B7C8B8D8B9E8BCD5BDF4F888104
:10526000C354D040882339F4DA01C901B0588B8B7C
:105270009C8BAD8BBE8BDF91CF911F910F91FF90D7
:10528000EF90DF90CF90BF90AF909F908F907F90E6
:105290006F900895CF93DF93EC018F859889A9894A
:1052A000BA8984179507A607B70771F04F87588BFF
:1052B000698B7A8BE881F9810688F789E02DCE0128
:1052C0000995CE010E94DD27DF91CF910895FC0161
:1052D000DB01CA014385548565857685480F591FD2
:1052E0006A1F7B1FCF010E944A290895EF92FF9207
:1052F0000F931F93CF93DF93EC017A018B016F899A
:10530000788D898D9A8DA80197010E94DA338823C0
:10531000E1F1EF8AF88E098F1A8FEF9660E074E260
:1053200084E799E4A80197010E94DE3368837983BA
:105330008A839B83EF978BA99CA9ADA9BEA9181658
:1053400019061A061B060CF52B893C894D895E89C6
:10535000CA01B9010E942D357B018C012B8D3C8D3A
:105360004D8D5E8DCA01B9010E9476339B01AC015F
:10537000C801B7010E94DE330E9446346BAB7CABA0
:105380008DAB9EABCE010E94DD27DF91CF911F91A7
:105390000F91FF90EF9008954F925F926F927F92DE
:1053A0008F929F92AF92BF92CF92DF92EF92FF9235
:1053B0000F931F93CF93DF932C017A018B01CB01C5
:1053C000BA01F20123893489458956890E94DA336A
:1053D000882309F455C0F201A788B08CC18CD28C07
:1053E0003501460197FA909497F89094C801B70157
:1053F000A40193010E94DA3388231CF48401730111
:105400000AC0C801B701A60195010E9429351816E6
:1054100014F486017501C801B70120E030E040E0D6
:1054200050E00E94DA33882331F4F20113A214A26F
:1054300015A216A220C060E074E284E799E4A801F6
:1054400097010E94DE339F770E944B34F20163A3E1
:1054500074A385A396A3E201CD5BDF4F1882C80138
:10546000B70120E030E040E050E00E9429351816F6
:1054700014F481E08883F201E38AF48A058B168BA9
:10548000DF91CF911F910F91FF90EF90DF90CF9020
:10549000BF90AF909F908F907F906F905F904F9054
:1054A0000895FC012389348945895689B901CA01C7
:1054B0000895DC0112968C911297833001F18430AB
:1054C00040F4813089F0ED91FC911197823098F48D
:1054D00007C0863011F1883049F1843079F516C063
:1054E0000084F185E02D1FC0ED91FC91119702849D
:1054F000F385E02D18C00484F585E02D14C0ED91EE
:10550000FC9111970684F785E02D0DC0ED91FC917B
:1055100011970088F189E02D06C0ED91FC9111975B
:105520000288F389E02DCD0109950895ED91FC9154
:1055300011970488F589E02DCD0109950895CF9341
:10554000DF93EC016B897C898D899E8920E030E0B6
:1055500040E050E00E94293518161CF4EFA5F8A988
:1055600002C0E9A9FAA90995DF91CF910895DC015C
:105570004370507060707070413051056105710565
:10558000F1F0423051056105710534F441155105C2
:105590006105710561F0089542305105610571059D
:1055A000B1F0433051056105710501F518C0ED9169
:1055B000FC9111970480F581E02D62E00EC0ED9121
:1055C000FC9111970480F581E02D63E006C0ED9118
:1055D000FC910480F581E02D61E009950895ED913D
:1055E000FC910480F581E02D60E009950895CF934A
:1055F000DF93EC01CB01BA0123E030E040E050E062
:105600000E946D36613071058105910591F062301F
:10561000710581059105A9F0611571058105910557
:10562000C1F4E881F9810480F581E02DCE0164E0C8
:105630000FC0E881F9810480F581E02DCE0161E0A1
:1056400007C0E881F9810480F581E02DCE0162E098
:105650000995DF91CF910895DC014370507060701F
:1056600070704130510561057105F1F0423051050E
:105670006105710534F4411551056105710561F04D
:1056800008954230510561057105B1F0433051056F
:105690006105710501F518C0ED91FC911197048029
:1056A000F581E02D65E00EC0ED91FC91119704802D
:1056B000F581E02D66E006C0ED91FC910480F58156
:1056C000E02D6AE009950895ED91FC910480F58143
:1056D000E02D69E009950895CF93DF93EC01CB01AC
:1056E000BA0126E030E040E050E00E946D366230C2
:1056F00071058105910589F1633071058105910579
:1057000064F46115710581059105B9F06130710589
:105710008105910509F041C018C06430710581050B
:10572000910559F16430710581059105F4F06530FA
:1057300071058105910589F528C0E881F98104800A
:10574000F581E02DCE0164E027C0E881F981048075
:10575000F581E02DCE0165E01FC0E881F98104806C
:10576000F581E02DCE0161E017C0E881F981048068
:10577000F581E02DCE0163E00FC0E881F98104805E
:10578000F581E02DCE0162E007C0E881F981048057
:10579000F581E02DCE0166E00995DF91CF91089566
:1057A000DC014770507060707070433051056105C6
:1057B000710509F443C0443051056105710584F455
:1057C000413051056105710549F1423051056105CE
:1057D000710564F54115510561057105B9F008952C
:1057E0004530510561057105C9F145305105610527
:1057F000710564F14630510561057105B9F1473015
:1058000051056105710509F040C038C0ED91FC916A
:1058100011970480F581E02D61E02EC0ED91FC919F
:1058200011970480F581E02D65E026C0ED91FC9193
:1058300011970480F581E02D64E01EC0ED91FC918C
:1058400011970480F581E02D66E016C0ED91FC9182
:1058500011970480F581E02D62E00EC0ED91FC917E
:1058600011970480F581E02D6AE006C0ED91FC916E
:105870000480F581E02D68E009950895ED91FC9193
:105880000480F581E02D69E009950895AF92BF92FB
:10589000CF92DF92EF92FF920F931F93CF93DF93FC
:1058A000EC01AB88BC88CD88DE88C601B50120E05C
:1058B00030E040E050E00E94DA338823B9F1C601BD
:1058C000B501A60195010E942D357B018C012B8D20
:1058D0003C8D4D8D5E8DCA01B9010E9476339B01CE
:1058E000AC01C801B7010E94DE330E9446347B013F
:1058F0008C010894E11CF11C011D111DC601B501AC
:1059000020E030E040E050E00E942935181624F4F1
:10591000CE01B801A70108C044275527BA014E1986
:105920005F09600B710BCE010E946729DF91CF9157
:105930001F910F91FF90EF90DF90CF90BF90AF90AD
:105940000895CF93DF93EC018A81882309F18B813D
:1059500061E00E9405328C8161E00E9405328A81FB
:10596000843011F0883041F48D8161E00E9405326D
:105970008E8161E00E9405328EA58F3F49F061E083
:105980000E9405326DA581E068278EA50E944432F1
:10599000DF91CF9108954F925F926F927F928F9295
:1059A0009F92AF92BF92CF92EF920F93FC018FEF35
:1059B00094E091838083628313861486158616860D
:1059C0001786108A118A128A0F2EF0E04F2EF0E00F
:1059D0005F2EF0E06F2EF0E07F2EF02D438A548A88
:1059E000658A768A0F2EF0E08F2EF0E09F2EF0E889
:1059F000AF2EFFE3BF2EF02D878A908EA18EB28E40
:105A0000838E948EA58EB68E878E90A2A1A2B2A20E
:105A100013A214A215A216A281E090E094A783A776
:105A20008FEF86A717A210A611A612A64383248380
:105A30000583E682E35BFF4F10821292EC54F04044
:105A400013AA14AA15AA16AA47AA50AE61AE72AE3E
:105A500043AE54AE65AE76AEFF9681929192A1921E
:105A6000B1921082E354F04017821086118612869C
:105A7000CC2019F0CF010E94A12C0F91EF90CF9074
:105A8000BF90AF909F908F907F906F905F904F905E
:105A90000895CF93DF93EC018A81882371F0E88128
:105AA000F9810480F581E02DCE0160E009958EA595
:105AB0008F3F19F06DA50E944432DF91CF91089578
:105AC000CF92DF92EF92FF920F931F93CF93DF93CA
:105AD000FC012281243029F0283019F092E0D92EDF
