:100000000C94B3010C94DD010C94DD010C94DD0122
:100010000C94DD010C94DD010C94DD010C94DD01E8
:100020000C94DD010C94DD010C94DD010C94DD01D8
:100030000C94DD010C94DD010C94DD010C94DD01C8
:100040000C94DD010C94DD010C944E1B0C94DD012D
:100050000C94EF130C94C5130C94DD010C94DD018A
:100060000C94DD010C94DD010C94DD010C94DD0198
:100070000C94DD010C94DD010C94DD010C94DD0188
:100080000C94DD010C94DD010C94DD0190059305C9
:10009000A505B505C405D805E105B50FBB0FC10F12
:1000A000C70FCD0FD30FD90F14111B112211291116
:1000B00030114711371147113E11171A1A1A0D1A2C
:1000C000111A311A311A1E1A221A281A2C1A6E61A4
:1000D0006E00696E66006364696E6F707375785840
:1000E0005B65666745464700616E006E66696E69CE
:1000F000747900CDCCCC3D0AD7233C17B7D13877E3
:10010000CC2B329595E6241FB14F0A000020410008
:1001100000C84200401C4620BCBE4CCA1B0E5AAE52
:10012000C59D743E5945533C204E4F2000205945F3
:1001300053203E4E4F3C002D0123010704001C10AC
:100140001D020500080C0A09091A1800001F1F1FCC
:100150001F401F0E040040404040401F0E0400405E
:100160004040401F1F1F1F001F1F1F1F40404040D7
:1001700000040E1F404040404000040E1F401F1F5F
:100180001F1F005265746F7572206D656E75004695
:100190006F726D617420454550524F4D004D656D35
:1001A0006F69726520646973706F00416363656C89
:1001B0002E206D6F74657572005669746573736572
:1001C000206D6F7465757200506172616D65747237
:1001D0006167650052756E007A01710168015F0107
:1001E00056014D0144013B01B901AB019D018F0155
:1001F0008301D401C80100002100240027002A0047
:1002000000002200250028002B0004040202020244
:1002100004040404020202020101010101010101BE
:10022000030303030303030304040102040801029C
:100230000408204010204080804020100804020163
:10024000010204081020408010800000000100001E
:10025000000003080200090A00000000000000007E
:100260000000000000000000040700407A10F35A6C
:1002700000A0724E18090010A5D4E80000E87648E6
:10028000170000E40B54020000CA9A3B000000E192
:10029000F505000080969800000040420F00000025
:1002A000A08601000000102700000000E803000005
:1002B00000006400000000000A00000000000100CF
:1002C000000000002C76D888DC674F0823DFC1DFF0
:1002D000AE59E1B1B796E5E3E453C63AE6519976F3
:1002E00096E8E6C28426EB898C9B62ED407C6FFC2D
:1002F000EFBC9C9F40F2BAA56FA5F490055A2AF76F
:100300005C936B6CF9676DC11BFCE0E40D47FEF577
:1003100020E6B500D0ED902E0300943577050080DF
:10032000841E080000204E0A000000C80C3333333E
:10033000330F986E12831141EF8D2114893BE655DE
:1003400016CFFEE6DB18D1844B381BF77C1D901DC1
:10035000A4BBE424203284725E228100C9F124EC23
:10036000A1E53D270C2D11241FBECFEFD0E4DEBF49
:10037000CDBF15E0A0E0B1E0E6EFF7E600E00BBF8F
:1003800002C007900D92A43EB107D9F727E0A4EE72
:10039000B5E001C01D92A236B207E1F711E0C3EB50
:1003A000D1E004C02197FE010E94832FC23BD107F8
:1003B000C9F70E94A3240C94F9330C9400007093A5
:1003C0001D0160931C0108957F928F929F92AF92BE
:1003D000BF92CF92DF92EF92FF920F931F93CF9332
:1003E000DF93A62E742EE22EF12C670191E0C91A3C
:1003F000D108A601440F551F843608F083E6849F78
:100400009001859F300D1124C90164E670E00E94BF
:100410002E2F8B010F5F1F4FC80117FD01964C0156
:1004200095948794C0E0D0E0CE15DF0509F448C06C
:100430004C2F470D6A2D80910006909101060E9475
:10044000CB148091000690910106C815D90529F5B5
:10045000C11108C0DC01ED91FC910190F081E02D0B
:1004600060E02BC0CC15DD0541F4DC01ED91FC9181
:100470000190F081E02D65E020C09E01220F331F26
:10048000DC01ED91FC910190F081E02D0217130742
:1004900011F462E012C063E010C0DC01ED91FC9148
:1004A0000190F081E02DC11102C061E006C0CC15C1
:1004B000DD0511F464E001C060E209952196B4CF36
:1004C000DF91CF911F910F91FF90EF90DF90CF9030
:1004D000BF90AF909F908F907F9008958F929F9242
:1004E000AF92BF92CF92DF92EF92FF92CF936C01C7
:1004F0000E94421B4B015C010D2C000CEE08FF0812
:10050000C0E09091FE058091FF05E92FF82FEC0FD8
:10051000F11DEC0FF11D80819181009741F1DC010B
:10052000ED91FC910190F081E02D09958823E9F08F
:10053000982FE091FC05F091FD0520E0619171910B
:1005400030E0DB01A30FB11D4C91442339F084133B
:1005500003C091E0920F05C03F5FF3CF2F5F2630BD
:1005600069F7892F990F990B12C0CF5FCACF0E94EC
:10057000421BDC01CB0188199909AA09BB098C151A
:100580009D05AE05BF0508F4BBCF80E090E0CF919C
:10059000FF90EF90DF90CF90BF90AF909F908F90A3
:1005A00008952F923F924F925F926F927F928F9217
:1005B0009F92AF92BF92CF92DF92EF92FF920F93F2
:1005C0001F93CF93DF93CDB7DEB7A5970FB6F894FF
:1005D000DEBF0FBECDBF8C01FF24F39480E090E01E
:1005E0009E012F5F3F4F19018F37910519F0FF20B2
:1005F00009F483C2D8011B96BC91BA8FF801F28529
:10060000F88FFB9FF02C1124D8011D96BC91BD8F53
:10061000F801F485FE8F0E94421B24EF31E040E098
:1006200050E00E94422F49015A01D80150968C9106
:100630005097853118F084E150968C93F8014189E8
:10064000828193810680F781E02D2F2D30E045FFD8
:1006500011C04F2D4695682F641B67FD12C0841B87
:100660009109820F931FE817F90764F461E06E0F98
:100670006F1908C0B9010E942E2FF69E602D11241B
:1006800001C060E0FA94F60EF98E8F2D90E0E81725
:10069000F9070CF4E98F6F8BF12C862F90E09C8F7B
:1006A0008B8F820F931F98A38F8FB88DAB2FB0E0E5
:1006B000BAA3A9A3EF894E2E512C2F8D38A1421633
:1006C00053060CF036C1F801E088FF89298D2F17F9
:1006D00010F4F101D7C0D80151962D913C91529759
:1006E000C90188709927ED91FC91119730FF76C070
:1006F000892B09F454C012968D919C91139748163A
:10070000590609F04CC0C201880F991FE80FF91F64
:10071000C080D180F60101900020E9F731979F0158
:100720002C193D098E2D90E082179307C0F5280FF4
:10073000391F40E050E0C501B4010E94642F4B0115
:100740005C018E189108A108B108C4010E2C000CA0
:10075000FF08682F6819462F50E04E155F050CF012
:1007600069C097FD0CC0F60101900020E9F79F01D8
:100770002C193D09225031092817390730F4F101AD
:10078000E60FF11DB0E2B08308C0F601E80FF91FD3
:100790002081F101E40FF51F20830196DACF4E2D61
:1007A00050E04F5F5F4FD801ED91FC91C201880F7F
:1007B000991FE80FF91F60817181C1010E94B83251
:1007C000F8019089891708F068C0F101E80FF11D60
:1007D00020E220838F5F8913F8CF50C0892B89F1E5
:1007E000D80112968D919C9113974816590649F598
:1007F0006201CC0CDD1CCE0EDF1EF60185919491BA
:100800000E94A4326E2C712C6816790608F4F9C186
:1008100018C077FE12C2F101E20FF11D20E2208321
:10082000BFEF6B1A7B0A262D2819C22ED12CCE14AD
:10083000DF047CF3F101EE0DFF1D1082FF24F39421
:100840002CC0D801ED91FC91C201880F991FE80FCF
:10085000F91F659174914E2D50E04F5F5F4FC101BC
:100860000E949032F80190898917B8F4F101E80FDD
:10087000F11D20E220838F5F8913F8CFF101E80F8B
:10088000F11D0AC08E2F82198E1518F430E23193B3
:10089000F9CFF101EE0DF11D1082C201AB8DBC8DBF
:1008A0008A1B9B0B69A17AA10E942E2FF801478514
:1008B000480F8089869F600D11249685690F80916D
:1008C0000006909101060E94CB14D80151968C919C
:1008D00080FF24C08091000690910106BF89E98DB8
:1008E000EB17A0F0DC01ED91FC910190F081E02D7F
:1008F000D80112962D913C9113974216530619F484
:100900006091F7050AC06091F60507C0DC01ED9122
:10091000FC910190F081E02D60E20995B101809198
:100920000006909101060E94C313BF89BF5FBF8B71
:10093000C1CED80151968C9181FF34C04E8D6D8D02
:1009400080910006909101060E94CB14E12C8E2D1F
:1009500090E0D80116962D913C91179728173907EA
:100960000CF464C0F80122813381A0910006B0919B
:100970000106ED91FC9111978217930731F40190D4
:10098000F081E02D6091F70509C08E2D6AE00E948C
:10099000222F61E3690F0190F081E02DCD010995CF
:1009A000E394D5CF82FF42C0F801668177818281CE
:1009B00093812091F705AB014F5F5F4F693071055F
:1009C00074F45F934F9301969F938F93822F022E1F
:1009D000000C990B9F932F93ADEBB2E00DC05F938A
:1009E0004F9301969F938F93822F022E000C990BA9
:1009F0009F932F93A5ECB2E0BF93AF933F922F92BA
:100A00000E9465310FB6F894DEBF0FBECDBF4E8D8C
:100A10006D8D80910006909101060E94CB14B1016A
:100A200080910006909101060E94C313D80151964F
:100A30008D919C91529786FF26C050962C9150978D
:100A40003A8D329F300D11241E962C91320F8170F9
:100A50009927B1E08B27381BF801428153814F5F02
:100A60005F4F24E6249FC001259F900D11246681CD
:100A700077816F5F7F4F0E942E2F862F288D4785AD
:100A8000632F0E94E401D80151968C915197E09117
:100A90000006F091010684FF29C012968D919C9169
:100AA00013972B8D3C8D821B930B388D632F70E039
:100AB0000E942E2FD8011F964C911F97480F5096D9
:100AC0008C915097869F600D11241E969C91690F02
:100AD000CF010E94CB148091000690910106FC0189
:100AE0006089262F2160208B696005C060896E7F38
:100AF000608B6860CF010E94C11482E390E00E9485
:100B00006E02D8011B963C911B971A962C91873048
:100B1000910508F05FC0FC01EA5BFF4F0C94832F46
:100B200080E090E061CDF80182819381181619066A
:100B300014F4019726C0D8018681978113969C935F
:100B40008E9312978FE790E04FCDF80182819381C9
:100B5000268137818217930714F4019612C0D801B9
:100B600013961C921E921297EDCF32300CF47CC07B
:100B7000F80182819381821B910927FD939597FD4E
:100B800073C093838283DECF32300CF470C0D801FF
:100B900012968D919C911397820F911D27FD9A9526
:100BA00016962D913C911797281739073CF65FC090
:100BB00080910006909101060E94C41481E090E0AB
:100BC00059C080910006909101060E94C4148FEFD5
:100BD0009FEF50C0F80142815381CA01329F800DBE
:100BE000911D11249C0186819781821793071CF027
:100BF00033832283A7CF4817590709F4B0CFD80110
:100C00009DCFF601859194910E94A432860D971D87
:100C10009C0140E050E0C501B4010E94642F4B01EB
:100C20005C018E189108A108B1083401F6014591C4
:100C300054910E2C000CFF08F6CDCA012BA34CA337
:100C40005DA30E94A43201972BA14CA15DA1861542
:100C5000970508F4E0CDFA01E60DF71DE491D10106
:100C6000AC0DBD1DEC93DCCD8EEF9FEFBDCC8DEFB9
:100C70009FEFBACCA5960FB6F894DEBF0FBECDBFDE
:100C8000DF91CF911F910F91FF90EF90DF90CF9068
:100C9000BF90AF909F908F907F906F905F904F909C
:100CA0003F902F9008954F925F926F927F928F9214
:100CB0009F92AF92BF92CF92DF92EF92FF920F93EB
:100CC0001F93CF93DF93CDB7DEB765970FB6F89438
:100CD000DEBF0FBECDBF8C01809100069091010652
:100CE0000E94F9141A8309831C821B820091FA0561
:100CF0001091FB05C090F805D090F9050C9D90016E
:100D00000D9D300D1C9D300D112481E090E02A30A6
:100D1000310511F480E090E098878F83CB860C87B3
:100D20001F86188A1B8A1A8AA02E4C2CB12CE12C03
:100D3000F12C3801772421E0621A7108B41408F00C
:100D400057C08B819C818E0D9F1DA981BA81FD01A9
:100D500001900020E9F73197EA1BFB0B8E179F07E4
:100D600028F4A80FB91F8C918A3029F48FEFE81A64
:100D7000F80A512C01C0582E48894B0D6F8580917F
:100D80000006909101060E94CB14812C912C8A14AC
:100D900068F58091000690910106DC01ED91FC91CF
:100DA0000190F081E02D511004C060E20995970197
:100DB00018C0652D099597012F5F3F4F49815A81D2
:100DC0008B819C81840F951FFC01E20FF31F5080E3
:100DD000BAE05B1206C0861497041CF42F5F3F4FE5
:100DE000512C8FEF881A980A7901D1CFB394A6CFEE
:100DF0008A899B890197E1F4AB81BC8189819A81C1
:100E0000FC0101900020E9F73197E81BF90B8F8571
:100E1000080F24E630E00E948C2F9F0140E050E054
:100E20000E94642F822F2C2D4889602F0E94E4019C
:100E300087E391E09A8389831C821B8281E090E0A2
:100E400098878F8389E0898B8091FA0589508F87F5
:100E50008091F8058150888B81E08B878C871B8A75
:100E60001A8ACE0101960E94D102019619F08B8157
:100E70009C8100C065960FB6F894DEBF0FBECDBF53
:100E8000DF91CF911F910F91FF90EF90DF90CF9066
:100E9000BF90AF909F908F907F906F905F904F909A
:100EA00008952F923F924F925F926F927F928F920E
:100EB0009F92AF92BF92CF92DF92EF92FF920F93E9
:100EC0001F93CF93DF93CDB7DEB727970FB6F89474
:100ED000DEBF0FBECDBF8C012DB73EB73F832E8343
:100EE000DC01ED91FC911197E080F18050965C90CF
:100EF000852C912CC4010196EDB7FEB7E81BF90BC8
:100F00000FB6F894FEBF0FBEEDBF2DB73EB72F5FF3
:100F10003F4F690185E0EFECF2E0DE0111965D01E3
:100F200001900D928A95E1F7422E2D2CF90190E265
:100F30008E2F8419851510F49193FACF8C0C9D1C7B
:100F4000F4011082D8011F964C911F971E966C9148
:100F500080910006909101060E94CB14B601809109
:100F60000006909101060E94C313F801478566852B
:100F700080910006909101060E94CB14D8015196F1
:100F80008D919C9152978130910561F0823091054D
:100F900069F0892BF9F4FF92EF928EE293E09F9330
:100FA0008F930EC080E3850D8B8306C080E3850D93
:100FB0008A8384E68B831C82FF92EF92BF92AF926A
:100FC000DF92CF920E9465310F900F900F900F909B
:100FD0000F900F90B60180910006909101060E943B
:100FE000C313F8014785668580910006909101063C
:100FF0000E94CB148091000690910106DC0150966E
:101000006C915097262F226050962C936A600E9414
:10101000C11480E3382E350C9EE2692E93E0792EC0
:1010200082E390E00E946E0299278330910509F4D3
:10103000A7C034F481309105A1F0029799F1F0CF67
:101040008530910509F4B8C00CF4A8C0069741F7A3
:1010500080910006909101060E94C4148FEF9FEFCB
:10106000B8C0F80182859385E80EF91E86819781C4
:101070008E159F0514F4E280F380D8011F964C91E1
:101080001F971E966C9180910006909101060E9418
:10109000CB14E42DF22D8E2F8419851520F5B0E2A6
:1010A000B193F9CFF80182859385E81AF90A828114
:1010B0009381E816F90614F4E680F780D8011F96AC
:1010C0004C911F971E966C9180910006909101069D
:1010D0000E94CB14E42DF22D8E2F8419851518F45F
:1010E000B0E2B193F9CFF4011082B601809100060D
:1010F000909101060E94C313D8011F964C911F972F
:101100001E966C9180910006909101060E94CB146E
:10111000F801818992898130910551F082309105E1
:1011200049F0892BC9F4FF92EF927F926F920AC027
:101130003B8204C03A82F4E6FB831C82FF92EF926A
:10114000BF92AF92DF92CF920E9465310F900F90C5
:101150000F900F900F900F90B60180910006909124
:1011600001060E94C313D8011F964C911F971E962B
:101170006C9180910006909101060E94CB1450CF93
:10118000D801ED91FC91F182E0828091000690916E
:1011900001060E94C4148DEF9FEF1BC0D801ED9192
:1011A000FC91F182E08280910006909101060E94FC
:1011B000C4148CEF9FEF0DC0D801ED91FC91F1822A
:1011C000E08280910006909101060E94C41481E0A3
:1011D00090E02E813F810FB6F8943EBF0FBE2DBF29
:1011E00027960FB6F894DEBF0FBECDBFDF91CF912B
:1011F0001F910F91FF90EF90DF90CF90BF90AF9035
:101200009F908F907F906F905F904F903F902F9026
:1012100008950F931F93CF93DF93EC0110E000E04C
:101220002091FA053091FB05412F50E042175307FA
:10123000CCF535952795FE0101900020E9F731970F
:10124000EC1BFD0BDF01B695A795BD016E1B7F0B57
:10125000620F731F80910006909101064617570791
:1012600040F4DC01ED91FC910190F081E02D6EE302
:101270000CC02A0F3B1FDC01ED91FC914217530774
:1012800030F00190F081E02D6CE3099509C0DE019A
:10129000A00FB11D0190F081E02D6C9109950F5FB9
:1012A0001F5FBECFDF91CF911F910F910895CF9215
:1012B000DF92EF92FF92CF93DF936B017C01EA0103
:1012C0008091F0059091F105BC01990F880B990B65
:1012D0000E94AA239B01AC01C701B6010E94E5232D
:1012E0002091F2053091F3054091F4055091F505F8
:1012F0000E9428300E949A30688379838A839B8376
:10130000DF91CF91FF90EF90DF90CF900895CF9233
:10131000DF92EF92FF92CF93DF93EA010E94AA231C
:101320002091F2053091F3054091F4055091F505B7
:101330000E94E5236B017C018091F0059091F105FD
:10134000BC01990F880B990B0E94AA239B01AC0149
:10135000C701B6010E942830688379838A839B8302
:10136000DF91CF91FF90EF90DF90CF900895409163
:10137000C1065091C2066091C3067091C4064093A5
:10138000EC055093ED056093EE057093EF058091A9
:101390004507909146070E94EB18882391F04091F1
:1013A000EC055091ED056091EE057091EF0589E136
:1013B00096E00E946A1864ED72E089E196E00C9470
:1013C000AE130895AF92BF92CF92DF92EF92FF9249
:1013D0000F931F93CF93DF93CDB7DEB7A0970FB6D0
:1013E000F894DEBF0FBECDBF0E94421B0091E805FE
:1013F0001091E9052091EA053091EB05DC01CB0164
:10140000801B910BA20BB30B893C9105A105B10583
:1014100008F4CEC040E060E084E097E00E94CB1486
:10142000C090C506D090C606E090C706F090C806EA
:101430006091C1067091C2068091C3069091C40666
:10144000AE01435E5F4F0E948709AE01475E5F4F6A
:10145000C701B6010E9487098C8D8F938B8D8F9366
:101460008A8D8F93898D8F9388A18F938F8D8F9382
:101470008E8D8F938D8D8F9387ED92E09F938F93B9
:101480009E012F5F3F4F79013F932F930E9465315B
:10149000B70184E097E00E94C31341E060E084E07C
:1014A00097E00E94CB14E0910A06F0910B06EE0F34
:1014B000FF1FEE0FFF1FEA5BFE4FD080C180B2809E
:1014C000A3800FB6F894DEBF0FBECDBF20E03CE393
:1014D0004CE156ECD601F5016B2F7A2F8F2F9E2F02
:1014E0000E9423308E010E5E1F4F811106C068EEF0
:1014F00072E0C8010E945E3111C0AF92BF92CF92DC
:10150000DF9281EE92E09F938F931F930F930E943F
:1015100065310FB6F894DEBF0FBECDBF1F930F939A
:10152000E0910A06F0910B06ED51FE4F8081282FC5
:10153000082E000C330B3F938F938EEE92E09F9317
:101540008F93FF92EF920E946531C7010E940909B3
:101550000E94421B0091E4051091E5052091E605EB
:101560003091E705DC01CB01801B910BA20BB30B83
:101570000FB6F894DEBF0FBECDBF8D329140A105EE
:10158000B10560F00E94B7090E94421B6093E40518
:101590007093E5058093E6059093E7050E94421B52
:1015A0006093E8057093E9058093EA059093EB0555
:1015B000A0960FB6F894DEBF0FBECDBFDF91CF91DE
:1015C0001F910F91FF90EF90DF90CF90BF90AF9061
:1015D0000895CF92DF92EF92FF9260910C06709186
:1015E0000D06072E000C880B990B0E94AA236B0195
:1015F0007C019B01AC016091CD067091CE0680917B
:10160000CF069091D0060E942330882309F451C060
:10161000C092CD06D092CE06E092CF06F092D006D0
:10162000A701960160E074E284E799E40E94283003
:101630006093F5067093F6068093F7069093F8068C
:101640008091E9069091EA06A091EB06B091EC0634
:10165000181619061A061B0664F56091C9067091E2
:10166000CA068091CB069091CC069B01AC010E94EA
:10167000E5236B017C016091D1067091D2068091C7
:10168000D3069091D4069B01AC010E94B72F9B0119
:10169000AC01C701B6010E9428300E949A306093C5
:1016A000E9067093EA068093EB069093EC060E949D
:1016B000141560910E0670910F06072E000C880B12
:1016C000990B0E94AA236B017C0120E030E0A90164
:1016D0000E942330882321F0C701B6010E94C7165B
:1016E000C090EC05D090ED05E090EE05F090EF0590
:1016F000B701A60186EB96E00E944A11C092C1068E
:10170000D092C206E092C306F092C406C092C5060B
:10171000D092C606E092C706F092C8061092E9067B
:101720001092EA061092EB061092EC061092D9067F
:101730001092DA061092DB061092DC06FF90EF9012
:10174000DF90CF9008954F925F926F927F928F9229
:101750009F92AF92BF92CF92DF92EF92FF920F9340
:101760001F93CF93DF938130910529F0029731F4D5
:10177000CFEFDFEF05C0C1E0D0E002C0C0E0D0E0B5
:101780008091250790E07C0100EB14E09701215047
:10179000310923303105A0F50197029760F423E069
:1017A000E216F10441F4CE01809FE001819FD00D4B
:1017B000909FD00D112489E197E00E94E812C0901B
:1017C0002507D12C8091C1069091C206A091C30635
:1017D000B091C406AE010D2E000C660B770B4A01CA
:1017E0005B01880E991EAA1EBB1EC501B4010E9492
:1017F000AF170E94A61A0E94E209C7017601C6CF60
:101800008091C5069091C606A091C706B091C80602
:101810006C01092E000CEE08FF084091C1065091A2
:10182000C2066091C3067091C40697018601041B2D
:10183000150B260B370B101611061206130624F48F
:10184000EC01C41BD50B03C0EA01C81BD90B609186
:10185000C9067091CA068091CB069091CC069B0177
:10186000AC010E94B72F4B015C0120E030E0A901E0
:101870000E94F430181624F0B7FAB094B7F8B09478
:1018800020E030E0A901C501B4010E942330882383
:1018900021F0C501B4010E94C7164090C9065090BE
:1018A000CA066090CB067090CC0620E030E0A9011B
:1018B000C301B2010E942330882309F443C0A3016D
:1018C0009201C301B2010E94E5234B015C016091CA
:1018D000D1067091D2068091D3069091D4069B01D7
:1018E000AC010E94B72F9B01AC01C501B4010E945D
:1018F00028300E949A304B015C012FEF821A920A25
:10190000A20AB20A20E030E0A901C301B2010E949C
:10191000F4304091C1065091C2066091C3067091A7
:10192000C40618163CF4CB01BA01680D791D8A1D56
:101930009B1D06C0CB01BA01681979098A099B0968
:101940000E94AF178091C5069091C606A091C70668
:10195000B091C8060091C1061091C2062091C3063D
:101960003091C406AC01BD01401B510B620B730BDF
:10197000141615061606170634F0B901A801481BFF
:10198000590B6A0B7B0BCE01DD0FAA0BBB0B841727
:101990009507A607B70724F4C701B6010E94AF1741
:1019A000C090C506D090C606E090C706F090C80665
:1019B000C701B60122E030E040E050E00E94642F11
:1019C0006130710581059105D9F4A7019601F7FEF3
:1019D00007C022273327A9012C193D094E095F09A9
:1019E000C701B6010E94642FC901330FAA0BBB0BBC
:1019F000BC01CD016C0D7D1D8E1D9F1D0E94AF177A
:101A000060910E0670910F06072E000C880B990B43
:101A10000E94AA236B017C0120E030E0A9010E9412
:101A20002330882321F0C701B6010E94C7164091D8
:101A3000C1065091C2066091C3067091C4068091A0
:101A4000C5069091C606A091C706B091C806481772
:101A500059076A077B0729F00E94A61A0E94E2092B
:101A6000E6CF0E94811A4B015C0189ECC82ED12C73
:101A7000E12CF12C0E94811ADC01CB018819990913
:101A8000AA09BB09883E9340A105B10558F081E041
:101A9000C81AD108E108F10898EE890E93E0991E62
:101AA000A11CB11CC114D104E104F10419F70E9476
:101AB000E2090E94B709DF91CF911F910F91FF902A
:101AC000EF90DF90CF90BF90AF909F908F907F90DE
:101AD0006F905F904F900C94E90A809103078823E0
:101AE000B1F04091FA065091FB066091FC067091AE
:101AF000FD06409306065093070660930806709310
:101B0000090680914307909144070E94EB18809149
:101B100002078823B1F04091FE065091FF066091C4
:101B200000077091010740930206509303066093EB
:101B300004067093050680914107909142070C942A
:101B4000EB1808958F929F92AF92BF92CF92DF923F
:101B5000EF92FF920F931F93CF93DF93CDB7DEB732
:101B6000E2970FB6F894DEBF0FBECDBF8C017B01AC
:101B7000D42EC52EFC0180809180A280B380C50147
:101B8000B4010E94AA239B01AC010E943F31811144
:101B900004C089288A288B2881F5C70104968130E2
:101BA00092403CF186EF92E00E94011560E070E007
:101BB00080E090E0F80160837183828393839F9338
:101BC0008F937F936F93CF92DF9280E293E09F9306
:101BD0008F938E010F5F1F4F1F930F930E946531EC
:101BE000C8010E9401150FB6F894DEBF0FBECDBF2D
:101BF00004C0C7010E94DF33DDCFE2960FB6F89430
:101C0000DEBF0FBECDBFDF91CF911F910F91FF902F
:101C1000EF90DF90CF90BF90AF909F908F900895FE
:101C2000AF92BF92CF92DF92EF92FF920F931F93EA
:101C3000CF93DF93CDB7DEB7E2970FB6F894DEBF50
:101C40000FBECDBF8C017B01B42EA52EFC01C08040
:101C5000D180B6010D2C000C880B990B0E94AA2391
:101C60009B01AC010E943F31811102C0CD2851F58A
:101C7000C7010296813092400CF186EF92E00E94FB
:101C8000011580E090E0F801808391839F938F930A
:101C9000AF92BF9289E293E09F938F938E010F5F83
:101CA0001F4F1F930F930E946531C8010E940115B9
:101CB0000FB6F894DEBF0FBECDBF04C0C7010E94AF
:101CC000E533E1CFE2960FB6F894DEBF0FBECDBF8D
:101CD000DF91CF911F910F91FF90EF90DF90CF9008
:101CE000BF90AF900895CF93DF9381E393E00E947C
:101CF0000115C0913F07D0914007CE0188599F4FF1
:101D00000E94D317882371F066E471E0CE010E942F
:101D10003B191816190634F484E493E0DF91CF914F
:101D20000C940115DF91CF910895CF92DF92EF923D
:101D3000FF920F931F93CF93DF936C017A018B0176
:101D4000C0E0D0E0CE15DF0589F0D8016D918D019E
:101D5000D601ED91FC910190F081E02DC60109952D
:101D6000892B11F47E0102C02196ECCFC701DF91CF
:101D7000CF911F910F91FF90EF90DF90CF9008953A
:101D8000FC01918D828D981761F0828DDF01A80F83
:101D9000B11D5D968C91928D9F5F9F73928F90E0A5
:101DA00008958FEF9FEF0895FC01918D828D981714
:101DB00031F0828DE80FF11D858D90E008958FEF51
:101DC0009FEF0895FC01918D228D892F90E0805C1A
:101DD0009F4F821B91098F739927089589E196E09F
:101DE0000E94E20E21E0892B09F420E0822F089561
:101DF000FC01848DDF01A80FB11DA35ABF4F2C91A8
:101E0000848D90E001968F739927848FA689B78976
:101E10002C93A089B1898C9180648C93938D848D4F
:101E2000981306C00288F389E02D80818F7D80831E
:101E30000895EF92FF920F931F93CF93DF93EC01DE
:101E400081E0888F9B8D8C8D981305C0E889F98976
:101E5000808185FD24C0F62E0B8D10E00F5F1F4F93
:101E60000F731127E02E8C8DE8120CC00FB607FC03
:101E7000FACFE889F989808185FFF5CFCE010E94EC
:101E8000F80EF1CF8B8DFE01E80FF11DE35AFF4FE5
:101E9000F0820B8FEA89FB898081806207C0EE891E
:101EA000FF896083E889F98980818064808381E08B
:101EB00090E0DF91CF911F910F91FF90EF900895E7
:101EC000CF93DF93EC01888D8823C9F0EA89FB89E1
:101ED000808185FD05C0A889B9898C9186FD0FC0D8
:101EE0000FB607FCF5CF808185FFF2CFA889B989AD
:101EF0008C9185FFEDCFCE010E94F80EE7CFDF91E8
:101F0000CF91089580E090E0892B21F00E94EE0EA1
:101F100081110DC080E090E0892B71F080E090E0AD
:101F2000892B51F00E940000811104C008950E9485
:101F30000000F0CF0C9400000895CF93DF9347701A
:101F4000552766277727FA013197EC01A881B981D7
:101F5000E730F10520F4E35BFF4F0C94832F1496D8
:101F6000ED91FC91159761E029C01496ED91FC91DB
:101F7000159765E023C01496ED91FC91159764E0E8
:101F80001DC01496ED91FC91159766E017C014964C
:101F9000ED91FC91159762E011C01496ED91FC91C2
:101FA00015976AE00BC01496ED91FC91159768E0C7
:101FB00005C01496ED91FC91159769E0DF91CF91E2
:101FC0000994CF93DF93EC01CB01BA0126E030E016
:101FD00040E050E00E94642F623071058105910558
:101FE00059F18CF46115710581059105F1F06130AD
:101FF000710581059105C1F5E881F9810480F581BC
:10200000E02D65E02DC0643071058105910511F169
:10201000D4F0653071058105910531F5E881F981CC
:102020000480F581E02D66E01BC0E881F981048021
:10203000F581E02D64E014C0E881F9810480F58128
:10204000E02D61E00DC0E881F9810480F581E02D8B
:1020500063E006C0E881F9810480F581E02D62E04B
:10206000CE01DF91CF910994DF91CF910895437014
:10207000552766277727DC01ED91FC910480F581D7
:10208000E02D423051056105710571F04330510575
:102090006105710559F0413051056105710511F077
:1020A00065E005C066E003C06AE001C069E009942C
:1020B000CF93DF93EC01CB01BA0123E030E040E0A5
:1020C00050E00E94642F613071058105910581F017
:1020D000623071058105910591F0672B682B692BA2
:1020E000C1F4E881F9810480F581E02D64E00DC040
:1020F000E881F9810480F581E02D61E006C0E88186
:10210000F9810480F581E02D62E0CE01DF91CF916D
:102110000994DF91CF91089543705527662777275B
:10212000DC01ED91FC910480F581E02D42305105F8
:102130006105710571F0433051056105710559F074
:10214000413051056105710511F062E005C063E0A1
:1021500003C061E001C060E009940F931F93CF9327
:10216000DF93EC01E881F9810480F581E02D8C0199
:102170000D5B1F4FD8018C91811102C060E001C03E
:1021800062E0CE010995E881F9810480F581E02DB6
:10219000D8018C91811102C061E001C063E0CE01E1
:1021A0000995EBA5FCA5E230F10538F0EE0FFF1F15
:1021B000EE0FFF1F35973197F1F7E881F981048021
:1021C000F581E02DD8018C91811102C060E001C041
:1021D00062E0CE01DF91CF911F910F910994CF93CF
:1021E000DF93EC0120E030E0A9016B897C898D89C7
:1021F0009E890E94F43018161CF4EFA5F8A902C0BD
:10220000E9A9FAA9DF91CF9109940F931F93DC01FB
:102210001296EC910E2F10E009301105C0F5F8016F
:10222000EC5AFF4F0C94832FDC01ED91FC9100845C
:10223000F185E02D29C0DC01ED91FC910284F3854C
:10224000E02D22C0DC01ED91FC910484F585E02DA8
:102250001BC0DC01ED91FC910684F785E02D14C0D4
:10226000DC01ED91FC910088F189E02D0DC0DC01CD
:10227000ED91FC910288F389E02D06C0DC01ED911F
:10228000FC910488F589E02D1F910F9109941F910D
:102290000F910895CF92DF92EF92FF920F931F93C9
:1022A000CF93DF93FC01E35BFF4F20812223C1F03A
:1022B00039970081118122813381DC011B96CD90F9
:1022C000DD90ED90FC901E970C191D092E093F0919
:1022D000040F151F261F371F0083118322833383AA
:1022E000FC01E45BFF4F20812223C1F03497008181
:1022F000118122813381EC018B859C85AD85BE8562
:1023000068017901C81AD90AEA0AFB0A4C0D5D1D59
:102310006E1D7F1D4083518362837383DF91CF9154
:102320001F910F91FF90EF90DF90CF900895FC01E7
:10233000DC01A35BBF4F8C91882399F019978D9195
:102340009D910D90BC91A02D47855089618972891E
:1023500084179507A607B70724F48787908BA18B6E
:10236000B28BDF01A45BBF4F8C91882399F0149747
:102370008D919D910D90BC91A02D478550896189CB
:102380007289481759076A077B0724F48787908B5F
:10239000A18BB28B0895CF93DF93DC0140E057E02F
:1023A00018968C911897481708F045C01D96ED9126
:1023B000FC911E97E40FF11D8081883018F4952F51
:1023C000981B01C09FEF9770906490937C00809160
:1023D0007A00806480937A0080917A0086FDFCCF39
:1023E000609178008091790070E0782B19968C913B
:1023F0001997C0E0D0E09C2FC817D8F45196ED9102
:10240000FC9152979E01220F331FE20FF31F208190
:102410003181261B370B37FF03C0319521953109D8
:1024200021962C3031053CF7489F900D1124892FBF
:1024300003C04F5FB5CF8FEFDF91CF910895FC01BF
:1024400084850895FC0193859F3F39F00784F089C6
:10245000E02DE90FF11D8081089580E008957093CB
:1024600021016093200108957093AF016093AE0144
:1024700008957093230160932201089570931F01C2
:1024800060931E010895FC01828108950E945931D4
:10249000CF93DF93FC012281222321F1EC0161E043
:1024A00083810E94451A61E08C810E94451A8A81CD
:1024B000843011F0883041F461E08D810E94451A2A
:1024C00061E08E810E94451A8EA58F3F59F061E030
:1024D0000E94451A6DA581E068278EA5DF91CF91F6
:1024E0000C94F019DF91CF910895CF93DF93FC0105
:1024F0002281222389F0EC010190F081E02D0480FB
:10250000F581E02D60E009958EA58F3F29F06DA53E
:10251000DF91CF910C94F019DF91CF910895AF9294
:10252000BF92DF92EF92FF920F931F93CF93DF93AF
:102530001F92CDB7DEB7FC012281243021F0283074
:1025400011F022E001C024E05C01F7E0AF0EB11C05
:1025500000E010E0E62EF12CDD24D394C701002E1C
:1025600002C0959587950A94E2F7F501608180FD98
:102570006D25F5013497808129830E94F0190F5F42
:102580001F4FFFEFAF1ABF0A2981021738F30F90D0
:10259000DF91CF911F910F91FF90EF90DF90BF904F
:1025A000AF900895CF93DF93EC0160E08E810E949D
:1025B000F01961E08E810E94F01960E08E810E9426
:1025C000F0198BE891E00197F1F7DF91CF91089531
:1025D0000F931F93CF93DF93EC01E881F981028879
:1025E000F389E02D0995182F8C85823009F457C0A6
:1025F00030F4882361F0813009F44DC0A9C08430E3
:1026000009F46CC008F478C0853069F0A1C01F3FA0
:1026100009F43FC00E94421B6C837D838E839F839D
:1026200085E08C8795C01F3F99F18B85811329C068
:102630000E94421B0C811D812E813F81AB01BC0198
:10264000401B510B620B730B80912201909123016F
:10265000A0E0B0E084179507A607B70708F078C098
:1026600081E08C870E94421B6C837D838E839F83D5
:1026700060931506709316068093170690931806BC
:102680005EC00E94421B6C837D838E839F8301C04A
:102690001C861B875DC01F3F29F082E004C08B852C
:1026A000811719F084E08C8720C00E94421B0C81A6
:1026B0001D812E813F81AB01BC01401B510B620B80
:1026C000730B80911E0190911F01A0E0B0E0841770
:1026D0009507A607B707E0F583E0E5CF1F3F11F4A4
:1026E0001C8636C085E08C871B870E94421B6C834A
:1026F0007D838E839F832CC08B85811719F084E0A6
:102700008C8717C00E94421B0C811D812E813F8146
:10271000AB01BC01401B510B620B730B80911C0180
:1027200090911D01A0E0B0E084179507A607B707B8
:1027300078F40E94421B6C837D838E839F838B85FC
:102740008F3F31F0EF85F889E80FF11D808101C0DE
:1027500080E0DF91CF911F910F9108956115710570
:1027600079F0FB0101900020E9F73197AF01461B9A
:10277000570BDC01ED91FC910280F381E02D09946F
:1027800080E090E008950C94AE131F920F920FB664
:102790000F9211240BB60F922F933F934F935F9399
:1027A0006F937F938F939F93AF93BF93EF93FF9319
:1027B00089E196E00E94F80EFF91EF91BF91AF91F1
:1027C0009F918F917F916F915F914F913F912F9149
:1027D0000F900BBE0F900FBE0F901F9018951F9279
:1027E0000F920FB60F9211240BB60F922F938F9367
:1027F0009F93EF93FF93E0912906F0912A06808141
:10280000E0912F06F091300682FD12C090818091F8
:1028100032068F5F8F7320913306821751F0E0915B
:102820003206F0E0E75EF94F958F8093320601C0E3
:102830008081FF91EF919F918F912F910F900BBE0F
:102840000F900FBE0F901F901895AF92BF92CF922E
:10285000DF92EF92FF920F931F93CF93DF935C0170
:102860007C0187E0E80EF11CC0E0D0E0062F10E00C
:10287000670161E0F70181917F010E94451AB8016B
:102880000C2E02C0759567950A94E2F76170F60107
:1028900080810E94F0192196C430D10549F7C50105
:1028A000DF91CF911F910F91FF90EF90DF90CF902C
:1028B000BF90AF900C94D212AF92BF92CF92DF92A2
:1028C000EF92FF920F931F93CF93DF93EC01F62EBD
:1028D000642F8C810E94F0198D818F3F19F060E088
:1028E0000E94F0198F850F2D10E084FF2DC05E012E
:1028F00087E0A80EB11CE12CF12C650161E0F50127
:1029000081915F010E94451AB8010E2C02C0759595
:1029100067950A94E2F76170F60180810E94F019D0
:10292000FFEFEF1AFF0A88E0E816F10431F7CE0155
:10293000DF91CF911F910F91FF90EF90DF90CF909B
:10294000BF90AF900C94D212B80184E07595679552
:102950008A95E1F7CE010E9425146F2DCE01DF91FB
:10296000CF911F910F91FF90EF90DF90CF90BF908C
:10297000AF900C94251441E00E945C1481E090E03B
:10298000089540E00C945C14FC0160896D7F608BBD
:1029900068600C94C114CF93DF93CDB7DEB728974E
:1029A0000FB6F894DEBF0FBECDBF9C0188E0E5E610
:1029B000F2E0DE01119601900D928A95E1F7F9019E
:1029C0008389481710F04FEF480FFE013196E40F4E
:1029D000F11DE40FF11D9081690F6068C90128960F
:1029E0000FB6F894DEBF0FBECDBFDF91CF910C9430
:1029F000C11461E00E94C1148BE39FE10197F1F7DC
:102A00000895CF93DF93BC0189E196E00E94AE1355
:102A1000EC0164ED72E089E196E00E94AE138C0F48
:102A20009D1FDF91CF9108954F925F926F927F9299
:102A30008F929F92AF92BF92CF92DF92EF92FF92CE
:102A40000F931F93CF93DF9300D000D0CDB7DEB7A5
:102A5000C090C506D090C606E090C706F090C806A4
:102A60008091C1069091C206A091C306B091C406A0
:102A7000C81AD90AEA0AFB0A6091C9067091CA0607
:102A80008091CB069091CC069B01AC010E94E5237E
:102A90004B015C016091D1067091D2068091D30602
:102AA0009091D4069B01AC010E94B72F9B01AC0111
:102AB000C501B4010E9428300E949A30C114D1048B
:102AC000E104F104F9F462307105810591050CF01F
:102AD00092C01092D9061092DA061092DB0610927C
:102AE000DC061092C9061092CA061092CB0610920C
:102AF000CC061092E9061092EA061092EB061092AC
:102B0000EC0630C10091E9061091EA062091EB062F
:102B10003091EC061C141D041E041F040CF5101645
:102B200011061206130654F46C157D058E059F05DB
:102B300064F52091F90621115EC027C00115110529
:102B40002105310509F457C06C157D058E059F05DB
:102B50000CF051C08091F906882309F44CC03CC0A8
:102B6000101611061206130614F5002711279801F6
:102B70000C191D092E093F09601771078207930779
:102B800024F42091F9062223B1F19B01AC0188279E
:102B90009927DC01821B930BA40BB50B8093E906EC
:102BA0009093EA06A093EB06B093EC0624C00115BF
:102BB000110521053105F9F08824992454018C1858
:102BC0009D08AE08BF08681579058A059B059CF429
:102BD0008091F90681110FC03095209510950195CF
:102BE0001F4F2F4F3F4F0093E9061093EA062093A3
:102BF000EB063093EC068090E9069090EA06A090F0
:102C0000EB06B090EC0681149104A104B104D1F458
:102C10008091ED069091EE06A091EF06B091F0063E
:102C20008093F1069093F206A093F306B093F40616
:102C300081E01C141D041E041F040CF080E080932E
:102C4000F9064AC0C090F106D090F206E090F30673
:102C5000F090F406A7019601C701B6010E94B72FB4
:102C60002B013C01C501B4010E94AA2320E030E001
:102C700040E850E40E94E52320E030E040E85FE3D4
:102C80000E94B72F9B01AC01C301B2010E94283002
:102C90009B01AC01C701B6010E94B62F7B018C01DC
:102CA0007090F5066090F606C090F706D090F80692
:102CB000272D362DA6010E94F43018161CF0E72CA3
:102CC000F62C8601A701B8014093F1065093F20655
:102CD0006093F3067093F4063FEF831A930AA30AF6
:102CE000B30A8092E9069092EA06A092EB06B092AF
:102CF000EC062091F1063091F2064091F3065091D6
:102D0000F406CA01B90129833A834B835C830E948C
:102D1000A1306093D9067093DA068093DB06909316
:102D2000DC0629813A814B815C8160E074E284E7B2
:102D300099E40E9428306093C9067093CA06809374
:102D4000CB069093CC062091F90621110BC0DC0133
:102D5000CB01B0588093C9069093CA06A093CB06C6
:102D6000B093CC060F900F900F900F90DF91CF9102
:102D70001F910F91FF90EF90DF90CF90BF90AF9099
:102D80009F908F907F906F905F904F9008954F929B
:102D90005F926F927F928F929F92AF92BF92CF92EB
:102DA000DF92EF92FF926B017C018090D1069090B0
:102DB000D206A090D306B090D4069B01AC01C50109
:102DC000B4010E942330882309F450C06091E906C1
:102DD0007091EA068091EB069091EC060E94AA237E
:102DE0002B013C01A7019601C501B4010E942830C6
:102DF0009B01AC01C301B2010E94E5230E949A30FD
:102E00006093E9067093EA068093EB069093EC06D4
:102E1000A701960160E070E080E89FE30E942830FF
:102E20000E94FF3020E034E244E759E40E94E523A9
:102E30006093ED067093EE068093EF069093F00694
:102E4000C092D106D092D206E092D306F092D40678
:102E5000FF90EF90DF90CF90BF90AF909F908F90BA
:102E60007F906F905F904F900C941415FF90EF90AF
:102E7000DF90CF90BF90AF909F908F907F906F909A
:102E80005F904F9008950F931F93CF93DF93EC01C2
:102E9000623018F08F8588608F876B8B1C8A8BE37C
:102EA0009DE00197F1F760E08C810E94F01960E0ED
:102EB0008E810E94F0198D818F3F19F060E00E9491
:102EC000F0196F8564FD1DC063E0CE010E942514DA
:102ED0000BE416E4C8010197F1F763E0CE010E940C
:102EE0002514C8010197F1F763E0CE010E94251473
:102EF00083E592E00197F1F762E0CE010E9425148C
:102F000016C06062CE010E94C1148BE496E4019762
:102F1000F1F76F856062CE010E94C11483E592E0F3
:102F20000197F1F76F856062CE010E94C1146F8531
:102F30006062CE010E94C11484E0888B6CE0CE01F7
:102F40000E94C114CE010E94F91482E0898B66E0D0
:102F5000CE01DF91CF911F910F910C94C1140F936B
:102F60001F930091C5061091C6062091C7063091A7
:102F7000C806061717072807390791F0DC01CB01AF
:102F80008093C5069093C606A093C706B093C80663
:102F900086EB96E00E9497111F910F910C941415E7
:102FA0001F910F91089520915107309152072F5F83
:102FB0003F4F309352072093510740914F07509154
:102FC00050074115510519F0421753071CF481ECC5
:102FD00095E005C08130924034F086EF92E00E9487
:102FE000011580E0089581E00895FF920F931F93EB
:102FF000CF93DF931F92CDB7DEB78C010196698323
:103000000E94D317F82E6981882319F0C8010E9405
:10301000EB338F2D0F90DF91CF911F910F91FF9088
:1030200008959C012F5F3F4F2130324014F40C94DF
:10303000D73386EF92E00E94011580E008958F92C9
:103040009F92AF92BF92CF92DF92EF92FF920F9337
:103050001F93CF93DF9300D0CDB7DEB76C017A8397
:10306000698302960E94D3178823F9F04E0183E00A
:10307000880E911CFE0131967F0100E010E0CE1A0F
:10308000DF0A5601AE0CBF1CC5010E941118F701E2
:1030900061917F01861729F0C5010E94F5170F5F26
:1030A0001F4FE814F90469F702C000E010E081E066
:1030B000012B09F480E00F900F90DF91CF911F91C9
:1030C0000F91FF90EF90DF90CF90BF90AF909F90C7
:1030D0008F9008954F925F926F927F928F929F92FE
:1030E000AF92BF92CF92DF92EF92FF920F931F9316
:1030F000CF93DF93CDB7DEB7A1970FB6F894DEBFBD
:103100000FBECDBF8C016A017B0177FF2FC0DC01B0
:10311000ED91FC910190F081E02D6DE209955C014B
:1031200022273327A9012C193D094E095F0919A24D
:10313000FE01B1967F019AE0492E512C612C712C31
:10314000CA01B901A30192010E94422F605DD7011B
:103150006E937D01211531054105510589F7BD01AA
:10316000C8010E94AE138A0D9B1D1EC09A01AB01BF
:1031700019A2FE01B1967F018AE0882E912CA12C24
:10318000B12CCA01B901A50194010E94422F605DD2
:10319000D7016E937D01211531054105510589F750
:1031A000BD01C8010E94AE13A1960FB6F894DEBF10
:1031B0000FBECDBFDF91CF911F910F91FF90EF9088
:1031C000DF90CF90BF90AF909F908F907F906F9047
:1031D0005F904F9008958F929F92AF92BF92CF923F
:1031E000DF92EF92FF920F931F93CF93DF9300D064
:1031F00000D0CDB7DEB76C0149835A836B837C83E3
:1032000004960E94D3178823F9F04E0185E0880EBA
:10321000911CFE0131967F0100E010E0CE1ADF0A1A
:103220005601AE0CBF1CC5010E941118F701619137
:103230007F01861729F0C5010E94F5170F5F1F4F08
:10324000E814F90469F702C000E010E081E0012B06
:1032500009F480E00F900F900F900F90DF91CF91C5
:103260001F910F91FF90EF90DF90CF90BF90AF90A4
:103270009F908F900895AF92BF92CF92DF92EF927E
:10328000FF920F931F93CF93DF936B0128E6C20E3B
:10329000D11CEB0100E010E05C01A61AB70A750131
:1032A000EC0EFD1EC7010E9411186991861729F0C6
:1032B000C7010E94F5170F5F1F4FCC15DD0579F789
:1032C000C801DF91CF911F910F91FF90EF90DF9098
:1032D000CF90BF90AF9008958F929F92AF92BF9280
:1032E000CF92DF92EF92FF92CF9320E030E0A901DE
:1032F0006091C9067091CA068091CB069091CC0668
:103300000E942330882309F461C0C090CD06D0907C
:10331000CE06E090CF06F090D00646015701B7FAEE
:10332000B094B7F8B09420E030E0A901C501B40131
:103330000E94F430181654F020E030E0A901C701D3
:10334000B6010E94233087FD03C00CC075016401E3
:1033500020E030E0A901C701B6010E9423308111AD
:103360000DC003C0C12CD12C76011092D906109249
:10337000DA061092DB061092DC0620C0A701960147
:1033800060E074E284E799E40E9428309F770E940D
:10339000A1306093D9067093DA068093DB06909390
:1033A000DC06C1E020E030E0A901C701B6010E94BF
:1033B000F43018160CF0C0E0C093F906C092C906AC
:1033C000D092CA06E092CB06F092CC06CF91FF9045
:1033D000EF90DF90CF90BF90AF909F908F90089527
:1033E000362F90E0FC01E65BFD4F4491FC01E65D69
:1033F000FD4F2491FC01E65FFD4F8491882309F481
:1034000043C0442371F150E0FA013197EA30F105ED
:1034100040F5E35AFF4F0C94832F909180009F77E3
:1034200003C0909180009F7D909380001AC094B556
:103430009F7702C094B59F7D94BD13C09091B0005A
:103440009F7703C09091B0009F7D9093B00009C01A
:10345000909190009F7703C0909190009F7D9093F2
:103460009000E82FF0E0EE0FFF1FE050FE4FA59117
:10347000B4918FB7F894EC91311103C020952E23AD
:1034800001C02E2B2C938FBF0895CF93DF9390E034
:10349000FC01E65DFD4F2491FC01E65FFD4F849148
:1034A000882361F190E0880F991FFC01EA50FE4FDC
:1034B000C591D491FC01E050FE4FA591B4916111EA
:1034C00009C09FB7F8948881209582238883EC9166
:1034D0002E230BC0623061F49FB7F8943881822F9D
:1034E000809583238883EC912E2B2C939FBF06C05D
:1034F0008FB7F894E8812E2B28838FBFDF91CF916F
:1035000008953FB7F8948091580790915907A0917A
:103510005A07B0915B0726B5A89B05C02F3F19F04D
:103520000196A11DB11D3FBFBA2FA92F982F882743
:10353000820F911DA11DB11DBC01CD0142E0660F9E
:10354000771F881F991F4A95D1F70895CF92DF9270
:10355000EF92FF928091D9069091DA06A091DB0656
:10356000B091DC06892B8A2B8B2B09F45EC00E945C
:10357000811A6B017C014091DD065091DE0660915D
:10358000DF067091E0068091D9069091DA06A0914D
:10359000DB06B091DC06840F951FA61FB71F8417AA
:1035A0009507A607B70730F0C816D906EA06FB0646
:1035B00058F405C0C816D906EA06FB06B0F1C416D1
:1035C000D506E606F70688F52091F9068091C10632
:1035D0009091C206A091C306B091C406222321F0A7
:1035E0000196A11DB11D03C00197A109B1098093E6
:1035F000C1069093C206A093C306B093C40640913F
:10360000C1065091C2066091C3067091C40686EB54
:1036100096E00E940511C092DD06D092DE06E0928F
:10362000DF06F092E0060E94141520E030E0A901C8
:103630006091C9067091CA068091CB069091CC0624
:103640000E942330811118C081E0C090C506D0903F
:10365000C606E090C706F090C8064091C10650919A
:10366000C2066091C3067091C406C416D506E6066C
:10367000F70619F480E001C081E0FF90EF90DF9041
:10368000CF9008952FB7F894609154077091550723
:1036900080915607909157072FBF08951F920F9260
:1036A0000FB60F9211242F933F938F939F93AF9355
:1036B000BF938091540790915507A0915607B09100
:1036C00057073091530723E0230F2D3720F401963D
:1036D000A11DB11D05C026E8230F0296A11DB11D35
:1036E000209353078093540790935507A093560750
:1036F000B09357078091580790915907A0915A07A6
:10370000B0915B070196A11DB11D8093580790935E
:103710005907A0935A07B0935B07BF91AF919F9150
:103720008F913F912F910F900FBE0F901F90189582
:103730002F923F924F925F926F927F928F929F92C1
:10374000AF92BF92CF92DF92EF92FF920F931F93AF
:10375000CF93DF93CDB7DEB763970FB6F894DEBF94
:103760000FBECDBF6C014B012A01FC0117821682EE
:10377000838181FF43C3AE014F5F5F4F3A01F60182
:103780009381F40193FD859193FF81914F018823EB
:1037900009F430C3853239F493FD859193FF81910B
:1037A0004F01853239F4B60190E00E941533520181
:1037B0002501E5CF10E0F12C20E02032A0F48B327F
:1037C00069F030F4803259F0833269F420612CC002
:1037D0008D3239F0803339F4216026C022602460B4
:1037E00023C0286021C027FD27C030ED380F3A30B4
:1037F00078F426FF06C0FAE01F9F300D1124132F26
:1038000013C04AE0F49E300D1124F32E20620CC048
:103810008E3221F426FDEEC2206406C08C3611F4EF
:10382000206802C0883641F4F40193FD859193FF2E
:1038300081914F018111C1CF9BEB980F933018F408
:103840002061805E06C09BE9980F933008F071C13B
:103850002F7E26FF16E02F73322E853619F4206452
:10386000322E08C0863621F4F22FF0683F2E02C0B7
:103870001111115037FE07C01C3350F4EE24E394AD
:10388000E10E27E00BC0183038F027E017E005C044
:1038900027E04CE3E42E02C0212FE12C520144E04A
:1038A000A40EB11CF20160817181828193810E2D81
:1038B000A3010E9495312C01098100FF02C003FF82
:1038C00007C031FC08C032FE09C030E2232E07C019
:1038D0002DE2222E04C09BE2292E01C0212C802F34
:1038E0008C7019F0211068C2A8C237FE0FC0E40C1A
:1038F00004FF04C08A81813309F4EA941E1474F52C
:10390000F8E0FE1578F588E0E82E2CC036FC2AC0D9
:10391000812F90E0841595059CF02CEF42162FEF37
:10392000520674F0432D4068342E0AC0E2E0F0E005
:10393000EC0FFD1FE10FF11D8081803319F4115050
:103940001111F4CF37FE0EC0EE24E394E10E812F67
:1039500090E0481659062CF4141904C0EE24E394A0
:1039600001C010E037FE06C01414150434F4C2017F
:10397000019605C085E090E002C081E090E0211052
:103980000196112331F0212F30E02F5F3F4F820F3E
:10399000931F2F2D30E08217930714F4F81A01C0FB
:1039A000F12C832D897049F4FF2039F0B60180E2B3
:1039B00090E00E941533FA94F7CF222029F0B60147
:1039C000822D90E00E94153333FC09C0FF2039F0AE
:1039D000B60180E390E00E941533FA94F7CF37FEEA
:1039E0005AC0942D852D57FE02C090E080E0292E0C
:1039F000382E20E030E0A2014E1951095D874C8736
:103A0000A201421953095F874E87612F70E0442756
:103A10005527461B570B598B488B5FEF25163506EC
:103A200049F4B6018EE290E02A8B3B8B0E9415335D
:103A30003B892A89421453046CF04C855D854215FC
:103A4000530544F4EE85FF85E20FF31FE60DF71DE5
:103A5000818101C080E351E0251A31082F5F3F4F7B
:103A600048895989241635064CF0B60190E02A8B16
:103A70003B8B0E9415332A893B89CFCF2414350410
:103A800039F49A81963318F4953311F404FF81E3E5
:103A9000B60190E04BC08A81813309F00F7EB601F8
:103AA00090E00E941533111105C034FC18C085E662
:103AB00090E017C0B6018EE290E00E94153382E0DC
:103AC000EE24E394E80EF301E80FF11D8081B601C6
:103AD00090E00E94153311508E2D91F7E6CF85E4CA
:103AE00090E0B6010E94153357FC05C04114510403
:103AF00039F404FF05C05194419451088DE201C08E
:103B00008BE2B60190E00E94153380E39AE04916FB
:103B100051042CF08F5F5AE0451A5108F7CFB601D7
:103B200090E00E941533B601C201C0960E94153381
:103B300057C1833631F0833779F0833509F058C0A7
:103B400021C05201E2E0AE0EB11CF20180818983F6
:103B500001E010E0230114C05201F2E0AF0EB11CED
:103B6000F2014080518026FF03C0612F70E002C047
:103B70006FEF7FEFC2012A8B0E94CC328C012A8921
:103B80002F7715C05201F2E0AF0EB11CF201408058
:103B9000518026FF03C0612F70E002C06FEF7FEFFE
:103BA000C2012A8B0E94AD328C012A892068322EF4
:103BB00023FD1AC08F2D90E008171907A8F4B6014D
:103BC00080E290E00E941533FA94F4CFF20137FCC2
:103BD000859137FE81912F01B60190E00E94153347
:103BE000F110FA94015011090115110579F7F8C087
:103BF000843611F0893659F5520127FF09C0F4E0E7
:103C0000AF0EB11CF20160817181828193810AC083
:103C1000F2E0AF0EB11CF20160817181072E000C41
:103C2000880B990B2F76322E97FF09C090958095BF
:103C3000709561957F4F8F4F9F4F2068322E2AE0FD
:103C400030E0A3010E946633E82EE6183FC0022F41
:103C5000853721F40F7E2AE030E01DC0097F8F36C2
:103C600091F018F4883559F0C5C0803719F08837BD
:103C700011F0C0C0006104FF09C0046007C024FF48
:103C800008C0066006C028E030E005C020E130E052
:103C900002C020E132E0520107FF09C0F4E0AF0E9C
:103CA000B11CF201608171818281938108C0F2E0D0
:103CB000AF0EB11CF2016081718180E090E0A30140
:103CC0000E946633E82EE6180F77302E36FE0BC0C2
:103CD000332D3E7FE11650F434FE0AC032FC08C09A
:103CE000332D3E7E05C00E2D332D03C00E2D01C099
:103CF000012F34FF0CC0FE01EE0DF11D80818033D9
:103D000011F4397E08C032FF05C00E5F04C0832F56
:103D1000867809F00F5F33FD13C030FF06C01E2DFB
:103D20000F1518F41F0D101B0F2D0F1568F4B60199
:103D300080E290E03B8B0E9415330F5F3B89F5CF0B
:103D40000F1510F4F01A01C0F12C34FF12C0B601A7
:103D500080E390E03B8B0E9415333B8932FF17C014
:103D600031FD03C088E790E002C088E590E0B6012D
:103D70000CC0832F867859F031FF02C08BE201C05E
:103D800080E237FD8DE2B60190E00E941533E11626
:103D900038F4B60180E390E00E9415331150F7CF5C
:103DA000EA94F301EE0DF11D8081B60190E00E94CE
:103DB0001533E110F5CF14C0F4E0FF1558F584E099
:103DC000F81A33FE1EC0211026C003FF2AC00EECD5
:103DD00010E0F32DF0713F2EF8018491811124C081
:103DE000FF2009F4E5CCB60180E290E00E94153393
:103DF000FA94F6CFF6018681978126C08FEF9FEF68
:103E000023C0B60180E290E00E941533FA94F110CD
:103E1000F8CFD9CFF12CB601822D90E00E94153356
:103E2000D4CF02ED10E0D5CF31108052B60190E032
:103E30000E9415330F5F1F4FCFCF23E02F1510F4D3
:103E400083E0BECFF12CC1CF63960FB6F894DEBFEE
:103E50000FBECDBFDF91CF911F910F91FF90EF90DB
:103E6000DF90CF90BF90AF909F908F907F906F909A
:103E70005F904F903F902F90089520FD09C0FC0166
:103E800023FD05C022FF02C07383628351834083F8
:103E9000089544FD10C046FD10C0DB01FC01AA0FCF
:103EA000BB1FEE1FFF1F1094D1F76A0F7B1F8E1FE1
:103EB0009F1F31E003C033E001C034E0660F771F7D
:103EC000881F991F3150D1F7620F711D811D911DFF
:103ED00008950F931F93CF93DF938C01C8010E9425
:103EE000D732EC0197FD08C00E946D32892BB1F7E3
:103EF000B801CE010E944D33CE01DF91CF911F91C9
:103F00000F9108958F929F92AF92BF92CF92DF92BE
:103F1000EF92FF920F931F93CF93DF937C018B015E
:103F20006A01D22F0E94D7329C0133272B323105F0
:103F300021F02D32310559F4D0680150110911F4E6
:103F400080E069C0C7010E94D73297FDF9CFCD2F1D
:103F5000CD7F2D2F207309F58033F9F4580181E0CE
:103F6000A81AB10809F443C0C7010E94D73297FDCF
:103F70003EC0282F2F7D283551F4C264025011090C
:103F8000B1F1C7010E94D73297FF07C030C0D6FFFA
:103F900002C0C26001C0C2618501812C912C540114
:103FA00020ED280F283080F0C4FF04C0B7010E9424
:103FB0004D331AC02A3040F0C6FFF8CF2F7D3FEEB8
:103FC000320F363098F727504C2FC501B4010E94AC
:103FD000491F4B015C01C2600150110959F0C70132
:103FE0000E94D73297FFDCCFC1FD04C0A9CF812C3E
:103FF000912C5401C7FF08C0B094A0949094809471
:10400000811C911CA11CB11C2C2FB501A401C6015F
:104010000E943D1F81E0DF91CF911F910F91FF9092
:10402000EF90DF90CF90BF90AF909F908F900895CA
:104030004F925F926F927F928F929F92AF92BF92B8
:10404000CF92DF92EF92FF920F931F93CF93DF9364
:10405000CDB7DEB7A0970FB6F894DEBF0FBECDBFC9
:104060004C015B017A018E010F5F1F4F680180E2F6
:10407000F80111928A95E9F7F401638040E050E07D
:10408000712C412C80E0A1E0B0E0F90163FC559077
:1040900063FE51908F01952D9F01511003C080E068
:1040A00090E080C0FEE55F1203C04115510561F14B
:1040B000682F70E0641775074CF46DE5561669F1CA
:1040C000EDE25E1203C0442009F103C0411001C0BB
:1040D000752C692F669566956695F601E60FF11DBC
:1040E000692F67708D0102C0000F111F6A95E2F7FA
:1040F000B8017081672B6083971559F0971510F4FC
:104100009F5FE7CF9150E5CF81E004C04424439402
:1041100001C0412C4F5F5F4FB8CF442019F09E8102
:1041200090629E83811103C07724739418C0F601B6
:104130009E012F5D3F4F808180958193E217F307A9
:10414000D1F7F2CFE114F10429F0F7018083C70120
:1041500001967C0191E0A91AB108712CE9F0C40123
:104160000E94D73297FD16C0282F269526952695B2
:10417000F601E20FF11D208130E0AC0147705527B8
:1041800002C0359527954A95E2F720FDDBCFB401B3
:104190000E944D33711083CFE114F10411F0F70147
:1041A0001082C801A0960FB6F894DEBF0FBECDBF37
:1041B000DF91CF911F910F91FF90EF90DF90CF9003
:1041C000BF90AF909F908F907F906F905F904F9037
:1041D00008952F923F924F925F926F927F928F92AB
:1041E0009F92AF92BF92CF92DF92EF92FF920F9386
:1041F0001F93CF93DF9300D000D000D0CDB7DEB7B0
:104200005C017B011A010E94D7329E838D8399271E
:104210008B32910521F08D9789F410E801C010E0F0
:1042200021E0E21AF10811F480E02CC1C5010E94DE
:10423000D7329E838D8397FF02C0F6CF10E08D8129
:104240009E810E9476328936910549F08E3691051D
:1042500009F03BC068EE862E60E0962E04C07BEE2F
:10426000872E70E0972EEFEF8E1A9E0AF401319799
:1042700004910023C9F081E0E81AF10871F0C5014A
:104280000E94D7326C0197FD08C00E947632081751
:1042900051F3B501C6010E944D339EEE891690E0A0
:1042A000990609F0C1CF05C0FBEE8F16F0E09F061E
:1042B00029F080E090E0A0E8BFE704C080E090E053
:1042C000A0ECBFE7BC01CD01CDC0412C512C320187
:1042D000C12CD12C2D8120532A3018F5012F0260DA
:1042E000812F887012FF06C0811121C02FEFC21AE2
:1042F000D20A1DC0882319F081E0C81AD10840E213
:10430000C301B2010E94491F2B013C0198E94916E3
:1043100099E95906690699E1790648F0012F066086
:1043200006C02E3F91F413FD10C0012F0860E1E09C
:10433000EE1AF10849F0C5010E94D7329E838D83A1
:10434000102F97FFC7CF01C0102F11FF6DCF8D81A8
:104350008F7D853409F04EC04701F1E08F1A910836
:1043600009F462CFC5010E94D7329E838D8397FDE9
:104370005BCF99278B32910519F08D9761F410610D
:10438000470122E0821A910809F44ECFC5010E942C
:10439000D7329E838D838D819E81C0970A9708F0C6
:1043A00043CF7401812C912CB401990C880B990B8B
:1043B0002D81205340E20E94491FAB01BC014A01FC
:1043C00081E0E81AF10871F0C50149835A836B83D3
:1043D0007C830E94D7329E838D83C09749815A8106
:1043E0000A9710F314FF04C088249924841A950AAC
:1043F000C80CD91CEF2841F0ED81FE81F7FD04C007
:10440000B501CF010E944D33C301B2010E94A82320
:10441000D7FE08C0D194C194D10857E0852E51E051
:10442000952E04C04FE1842E41E0942E5401F8E112
:10443000AF1AB10830E2E32EF12CCE14DF0450F0B5
:10444000F40125913591459154910E94E523CE18B0
:10445000DF08F3CF24E0821A9108F694E7948A14D7
:104460009B0459F717FF05C0DC01CB01B058BC0114
:10447000CD012114310429F0F1016083718382831D
:10448000938381E026960FB6F894DEBF0FBECDBFB2
:10449000DF91CF911F910F91FF90EF90DF90CF9020
:1044A000BF90AF909F908F907F906F905F904F9054
:1044B0003F902F9008954F925F926F927F928F92CC
:1044C0009F92AF92BF92CF92DF92EF92FF920F93A3
:1044D0001F93CF93DF931F92CDB7DEB76C012B01F3
:1044E0004A01FC0117821682A12CF601F380F20129
:1044F000F3FC8591F3FE8191482F2F01882309F465
:1045000010C190E049830E946D324981892B21F0CE
:10451000C6010E94691FE9CF453241F4F201F3FC64
:104520004591F3FE41912F01453269F4C60149835B
:104530000E94D732498197FDF2C04817B1F2B60107
:104540000E944D33EEC04A3239F4F3FC4591F3FE3C
:1045500041912F0151E001C050E0320100E010E034
:1045600020ED240F2A3088F45260B80180E090E0FA
:1045700040E259830E94491F8B01F301F3FC4591EE
:10458000F3FE41913F015981EBCFB52E342F23012A
:1045900051FF04C00115110519F4C3C00FEF1FEF3F
:1045A000483619F04C3659F013C0F301F3FC35913D
:1045B000F3FE31912F01383659F45860B52EFB2D9A
:1045C000F460BF2EF201F3FC3591F3FE31912F011F
:1045D000332309F4A6C0632F70E086ED90E03983A1
:1045E0000E947E323981892B09F49BC0B0FC07C040
:1045F000F401E080F180C40102964C0102C0E12C7C
:10460000F12C3E3651F4F6014681578160E070E0AE
:104610002B2DC7010E943D1F68CF3336A9F4B1FC92
:1046200002C001E010E0C6010E94D73297FD77C0BA
:10463000E114F10429F0F7018083C70101967C01A0
:104640000150110981F767C03B3559F49201A70168
:10465000B801C6010E9418202C01892B09F05BC00B
:1046600055C0C60139830E94691F398197FD57C023
:104670003F36D9F140F43436A1F13936C9F1383535
:1046800009F03DC02AC03337A1F018F4303729F1C2
:1046900036C0353731F1383701F131C0E114F1045A
:1046A00029F0F7016082C70101967C0101501109D0
:1046B00071F0C6010E94D7323C0197FD08C00E94EC
:1046C0006D32892B59F3B601C3010E944D33E114B9
:1046D000F10409F1F70110821EC0FB2DF064BF2E1A
:1046E00007C08B2D8062B82E03C09B2D9061B92E20
:1046F0002B2DA701B801C6010E94821F05C0A7018A
:10470000B801C6010E94E920811105C0F60183812C
:10471000807329F406C0B0FCE8CEA394E6CEAA20AC
:1047200019F08A2D90E002C08FEF9FEF0F90DF917C
:10473000CF911F910F91FF90EF90DF90CF90BF909E
:10474000AF909F908F907F906F905F904F90089563
:10475000E89409C097FB3EF490958095709561951B
:104760007F4F8F4F9F4F9923A9F0F92F96E9BB27D1
:104770009395F695879577956795B795F111F8CF4D
:10478000FAF4BB0F11F460FF1BC06F5F7F4F8F4FB8
:104790009F4F16C0882311F096E911C0772321F0AE
:1047A0009EE8872F762F05C0662371F096E8862F46
:1047B00070E060E02AF09A95660F771F881FDAF79D
:1047C000880F9695879597F908950E94F8230C9481
:1047D00069240E945B2438F00E94622420F0952313
:1047E00011F00C9452240C94582411240C949D2400
:1047F0000E947A2470F3959FC1F3950F50E0551FE6
:10480000629FF001729FBB27F00DB11D639FAA2725
:10481000F00DB11DAA1F649F6627B00DA11D661F74
:10482000829F2227B00DA11D621F739FB00DA11D95
:10483000621F839FA00D611D221F749F3327A00D4F
:10484000611D231F849F600D211D822F762F6A2FEB
:1048500011249F5750409AF0F1F088234AF0EE0F50
:10486000FF1FBB1F661F771F881F91505040A9F77D
:104870009E3F510580F00C9452240C949D245F3F80
:10488000E4F3983ED4F3869577956795B795F795B9
:10489000E7959F5FC1F7FE2B880F911D9695879531
:1048A00097F9089597F99F6780E870E060E00895B0
:1048B0009FEF80EC089500240A9416161706180638
:1048C0000906089500240A94121613061406050614
:1048D0000895092E0394000C11F4882352F0BB0FA5
:1048E00040F4BF2B11F460FF04C06F5F7F4F8F4F08
:1048F0009F4F089557FD9058440F551F59F05F3F43
:1049000071F04795880F97FB991F61F09F3F79F0F1
:1049100087950895121613061406551FF2CF469573
:10492000F1DF08C0161617061806991FF1CF8695F5
:104930007105610508940895E894BB2766277727D9
:10494000CB0197F90895CF93DF93CDB7DEB7C65A61
:10495000D1090FB6F894DEBF0FBECDBF789484B5F1
:10496000826084BD84B5816084BD85B5826085BD6B
:1049700085B5816085BD80916E00816080936E00F9
:1049800010928100809181008260809381008091EB
:10499000810081608093810080918000816080939C
:1049A00080008091B10084608093B1008091B0005C
:1049B00081608093B000809191008260809391002B
:1049C000809191008160809391008091900081603E
:1049D0008093900080917A00846080937A00809127
:1049E0007A00826080937A0080917A00816080935F
:1049F0007A0080917A00806880937A001092C100DA
:104A0000E0912906F0912A0682E08083E091250654
:104A1000F09126061082E0912706F091280680E1A9
:104A2000808310923106E0912D06F0912E0686E0EB
:104A30008083E0912B06F0912C0680818061808339
:104A4000E0912B06F0912C06808188608083E091B4
:104A50002B06F0912C06808180688083E0912B06E4
:104A6000F0912C0680818F7D80838FEF9FE790935C
:104A7000500780934F074FEF5FE760E070E089E1F8
:104A800096E00E946A1864ED72E089E196E00E9467
:104A9000AE1361E088E00E94451A61E089E00E945F
:104AA000451A61E084E00E94451A61E085E00E94B9
:104AB000451A61E086E00E94451A61E087E00E94A5
:104AC000451A61E08BE00E94451A61E08CE00E948B
:104AD000451A61E08DE00E94451AE0904D07F09084
:104AE0004E0780E090E0A0E0B0E4C257DF4F88833B
:104AF0009983AA83BB83CE58D040C70104960E94F5
:104B0000D317882341F14EE8842E912C8C0E9D1EE4
:104B100024E0820E911C8E0102571F4FC12CD12C14
:104B2000E01AF10A5701A00EB11EC5010E9411182A
:104B3000D8016D918D01861731F0C5010E94F517DE
:104B4000BFEFCB1ADB0A0815190561F7CD2819F05C
:104B50008AE593E002C085E793E00E9401158E018B
:104B60000D5C1F4F64E973E0C8010E945E31C09084
:104B70004D07D0904E078090F2059090F305A090DD
:104B8000F405B090F505A5019401C501B4010E949A
:104B90003F31FE0131967F01811109C020E030E0F4
:104BA000A901C501B4010E942330811132C0C601A0
:104BB0000496813092400CF424C786EF92E00E9464
:104BC000011570E060E090E080E0272F362F492F3C
:104BD000582FC901DA018093F2059093F305A09351
:104BE000F405B093F5055F934F936F937F931F93F5
:104BF0000F9387EA93E09F938F93FF92EF920E9427
:104C00006531C7010E9401150FB6F894DEBF0FBED3
:104C1000CDBF60E971E080914B0790914C070E94F5
:104C20001F18882319F081EB93E002C08FEC93E00A
:104C30000E94011561EF73E0C8010E945E3160912E
:104C40004B0770914C07A80180EF95E00E94100E71
:104C500067E074E0C8010E945E316091490770917D
:104C60004A07A8018CE096E00E94100E60E274E012
:104C7000C8010E945E316091470770914807A80102
:104C80008EE096E00E94100E6CE374E0C8010E9472
:104C90005E316091450770914607A8018CEE95E062
:104CA0000E94A20D6FE574E0C8010E945E31609120
:104CB000430770914407A80186E096E00E94A20D88
:104CC00069E774E0C8010E945E316091410770910C
:104CD0004207A80182E096E00E94A20D82E994E0DA
:104CE0000E94011560913F077091400748E650E02F
:104CF00086E491E00E94C73386EA94E00E940115A1
:104D000023EEA22E21E0B22E06E411E03DEBC32EED
:104D100034E0D32ED8019C9111962C9111971296C4
:104D20003C91129713964C910C5F1F4FF5018191A6
:104D30005F014F933F932F939F93282F082E000CD2
:104D4000330B3F938F93DF92CF92FF92EF920E94AB
:104D50006531C7010E9401150FB6F894DEBF0FBE82
:104D6000CDBF31E00E3A1307A9F60E94E90A8091FF
:104D7000060690910706A0910806B0910906809357
:104D8000FA069093FB06A093FC06B093FD0681E023
:104D90008093030740910206509103066091040638
:104DA000709105064093FE065093FF06609300073E
:104DB000709301078093020762E084E097E00E940D
:104DC000431760911407862F8460809314076C60EA
:104DD00084E097E00E94C11484E097E00E94F914F7
:104DE00084E690E0909323018093220122E330E057
:104DF000309321012093200124EF31E030931F01F3
:104E000020931E0190931D0180931C0184E097E084
:104E1000909301068093000680E491E09093FF0553
:104E20008093FE0584E291E09093FD058093FC055C
:104E300080E190E09093FB058093FA0582E090E09A
:104E40009093F9058093F8058EE78093F70585EA3E
:104E50008093F60598EDC92E91E0D92E00E010E080
:104E60004E0189E0880E911CF60165917491C7018D
:104E70000E9489326090000670900106B80183E0BC
:104E8000660F771F8A95E1F76064C3010E94C11421
:104E90005701D5016D915D01D301ED91FC91019018
:104EA000F081E02DC3010995A814B90491F70F5FB3
:104EB0001F4FB2E0CB0ED11C08301105A9F610929D
:104EC00010061E0195E6290E311C82EF91E0D101FA
:104ED00011969C938E9313961C921E92129781E0CA
:104EE00090E017969C938E9316978FE050968C9334
:104EF000509781E01A968C931A971B968C931B9768
:104F00001C961C921C979CE01D969C931D971E96C8
:104F10001C921E971F968C931F978DE290E05296DD
:104F20009C938E935197FE0131966F019E012658F6
:104F30003F4FCE56DF4F39832883C259D040CF012F
:104F400082569740CB55DF4F99838883C55AD0400E
:104F500084E097E00E94F91485EC94E00E9409092E
:104F6000C1010E94D102A9968EAD9FADA99700976D
:104F7000B1F1019769F788EE91E09CAB8BAB1EAA6B
:104F80001DAA84E090E09AAF89AF8FE024968FAF9E
:104F9000249781E08DAF8EAF1FAE9CE021969FAF2E
:104FA000219722961FAE229723968FAF23978DE2EB
:104FB00090E026969FAF8EAF26978CE0682E86E015
:104FC000782E90ECE92E92E1F92E2EE0A22E26E02A
:104FD000B22E3AE0832E912C06E915E01EC40E9401
:104FE0006C196091C1067091C2068091C3069091C0
:104FF000C4060E94AF170E94B70984E097E00E94A0
:10500000F9140E94E209E12CF12C00E010E0CC56EA
:10501000DF4F1882C459D0400E94A61A0E94E209AC
:10502000CC56DF4FE881C459D040EE2309F443C089
:105030004091C5065091C6066091C7067091C8069A
:105040008091C1069091C206A091C306B091C4069A
:10505000481759076A077B0749F40E94B7090E945D
:10506000E209CC56DF4F1882C459D0400E94421B3F
:105070008090110690901206A0901306B09014062E
:10508000DC01CB0188199909AA09BB09893C910562
:10509000A105B105A8F081E090E00E946E028C01AC
:1050A0000E94421B609311067093120680931306B0
:1050B0009093140605C082E390E00E946E028C017A
:1050C0000634110509F4C6C1ECF40330110509F4E6
:1050D00042C05CF40130110509F49BC00230110597
:1050E00009F09ACF82E090E096C00630110509F4ED
:1050F0002FCF0334110509F491C00430110509F0D4
:105100008BCF57C00E34110509F4F1C04CF40734AD
:10511000110509F40FC20D34110509F441C17CCF0A
:105120000435110509F480C20A35110509F496C049
:105130000335110509F070CF0E946C196091C1060A
:105140007091C2068091C3069091C4060E94AF1769
:105150000E94B7095CCF80912507833009F05CCFAE
:1051600080910207882351F08FEC94E00E9453064F
:10517000019709F0DAC110920207D7C186EE94E0D8
:105180000E945306019709F0D0C18091C106909109
:10519000C206A091C306B091C4068093FE06909308
:1051A000FF06A0930007B0930107F1E0F093020718
:1051B0002DC080912507833009F02ECF8091030701
:1051C000882351F08DEF94E00E945306019709F077
:1051D000ACC110920307A9C184E195E00E94530677
:1051E000019709F0A2C18091C1069091C206A091D9
:1051F000C306B091C4068093FA069093FB06A09371
:10520000FC06B093FD0621E0209303070E946D0D7C
:105210008CC181E090E00E94A30BFECE8091030739
:10522000882389F06091FA067091FB068091FC0654
:105230009091FD060E94AF1731E0CC56DF4F3883C6
:10524000C459D040E9CE41E060E084E097E00E949C
:10525000CB148BE295E00E940909DECEA0903807BE
:10526000B12CC5010197039748F48CE297E00E94A6
:10527000E812809138077501A82EF2CF82E0E81677
:10528000F10489F193E0E916F10409F0C5CE40E09C
:1052900050E0BA0186EB96E00E944A111092C106D6
:1052A0001092C2061092C3061092C4061092C50650
:1052B0001092C6061092C7061092C8061092E90610
:1052C0001092EA061092EB061092EC061092D906A4
:1052D0001092DA061092DB061092DC060E946D0D29
:1052E0000E94B709D8C160E070E0CB0194C1809101
:1052F0000A0690910B068931910531F00196909341
:105300000B0680930A0604C010920B0610920A0640
:10531000A0903807B12CC5010197039748F48CE29F
:1053200097E00E94E812809138077501A82EF2CF0D
:10533000B3E0EB16F10409F0AEC1E0910A06F0917A
:105340000B06EE0FFF1FEE0FFF1FEA5BFE4F808084
:105350009180A280B380EE968CAE9DAEAEAEBFAE15
:10536000EE9720E03CE34CE156ECC501B4010E940D
:105370002330882309F48FC1AE014D5C5F4FC50116
:10538000B4010E9457096BA97CA98DA99EA90E940E
:10539000AF17E1E0CC56DF4FE883C459D0407BC162
:1053A00080910A0690910B06009731F00197909337
:1053B0000B0680930A0606C029E130E030930B0605
:1053C00020930A06A0903807B12CC50101970397D6
:1053D00048F48CE297E00E94E8128091380775014A
:1053E000A82EF2CF33E0E316F10409F054C1E091A6
:1053F0000A06F0910B06EE0FFF1FEE0FFF1FEA5B90
:10540000FE4F80809180A280B380EE968CAE9DAEE0
:10541000AEAEBFAEEE9720E03CE34CE156ECC501EA
:10542000B4010E942330882309F435C1AE014D5CDC
:105430005F4FC501B4010E9457096BA97CA98DA9D2
:105440009EA90E94AF1781E0CC56DF4F8883C459D4
:10545000D04021C184E395E00E945306019709F0F2
:1054600064C08AE495E00E940115A0903F07B090C7
:105470004007C50188599F4F0E94D317882361F0C8
:105480006DEF71E0C5010E943B191816190624F44E
:105490008DE595E00E94011582E994E00E940115D6
:1054A00060913F077091400748E650E086E491E044
:1054B0000E94C73386EA94E00E94011573EEA72E7E
:1054C00071E0B72EE6E48E2EE1E09E2ED4019C9191
:1054D00011962C91119712963C91129713964C911C
:1054E000B4E08B0E911CF50181915F014F933F93C6
:1054F0002F939F93282F082E000C330B3F938F93ED
:10550000ADEBB4E0BF93AF93DF92CF920E946531D1
:10551000C6010E9401150FB6F894DEBF0FBECDBFC5
:105520003EEA831631E0930689F684E097E00E9414
:10553000F914B1C0A0903807B12C9E2D8F2D950184
:10554000215031092330310558F48CE297E00E9454
:10555000E812209138079A2D8B2DA22EB12CEFCF77
:10556000E92EF82E82E0E816F10459F193E0E916ED
:10557000F10409F051CD6091C1067091C20680918D
:10558000C3069091C4066BAB7CAB8DAB9EABAE01FA
:1055900046585F4F0E948709E0910A06F0910B067A
:1055A000EE0FFF1FEE0FFF1FEA5BFE4FEE968CAD76
:1055B0009DADAEADBFADEE9780839183A283B383E3
:1055C00068C0E0910A06F0910B06EE0FFF1FEE0F88
:1055D000FF1FEA5BFE4F80809180A280B380EE9631
:1055E0008CAE9DAEAEAEBFAEEE9720E03CE34CE19C
:1055F00056ECC501B4010E942330882309F40CCD78
:10560000AE014D5C5F4FC501B4010E9457096BA903
:105610007CA98DA99EA90E94AF17A1E0CC56DF4FAF
:10562000A883C459D040F8CC6091C1067091C206DD
:105630008091C3069091C406A6010E948709498003
:105640005A806B807C802DEC3CEC4CE45EE3C30123
:10565000B2010E94F43018166CF48DEC9CECACE4B2
:10566000BEE3C956DF4F88839983AA83BB83C7599A
:10567000D04008C0C956DF4F188219821A821B8297
:10568000C759D04080900A0690900B06811491046F
:1056900029F40E94730E0E94E209BECC20E030E0A3
:1056A000A901C956DF4F688179818A819B81C759D9
:1056B000D0400E94F430181664F75401C401880FDA
:1056C000991F880F991FDC01AA5BBE4FCB56DF4F95
:1056D000B983A883C559D040F4013197C556DF4F2F
:1056E000F983E883CB59D040CF01A0E0B0E0CF559B
:1056F000DF4F88839983AA83BB83C15AD040B7FC0C
:10570000C8CFA814B90459F4CB56DF4FE881F9810A
:10571000C559D040408251826282738262C0C556B0
:10572000DF4F28813981CB59D040A216B306C1F48E
:10573000C956DF4F288139814A815B81C759D040E2
:10574000C301B2010E94B62FCB56DF4FA881B981A9
:10575000C559D0406D937D938D939C93139741C011
:10576000A114B10449F4109246011092470110921D
:1057700048011092490135C0B5010B2C000C880B73
:10578000990B0E94AA23C356DF4F688379838A83CB
:105790009B83CD59D040CF55DF4F688179818A8175
:1057A0009B81C15AD0400E94A8239B01AC01C30138
:1057B000B2010E9428309B01AC01C356DF4F6881C3
:1057C00079818A819B81CD59D0400E94E523CB56B7
:1057D000DF4FE881F981C559D040608371838283AE
:1057E0009383F1E0AF1AB108CB56DF4F288139819E
:1057F000C559D04024503109CB56DF4F3983288317
:10580000C559D0407CCF83309105CCF083309105D1
:1058100009F4E2C0049709F49BCB84E097E00E946E
:10582000F91483E795E00E940909CE01C3960E940E
:10583000D1028DA99EA98230910529F787C00097D2
:1058400009F44BC0019749F7BA82A9821C821B82D6
:1058500080910C0690910D0698878F839C868B868D
:10586000A7E0AF8781E0888B84E0898B1B8A1A8A46
:1058700084E097E00E94F91480910D068F93809147
:105880000C068F931F930F93CD56DF4FB881C359EA
:10589000D040BF93CE56DF4FE881C259D040EF933E
:1058A0000E946531BE0166587F4F84E097E00E94F8
:1058B000C313C6010E94510760910E0670910F0636
:1058C00080914707909148070E941F180F900F90F2
:1058D0000F900F900F900F9029C07A8269821C82DE
:1058E0001B82F886EF8284E690E09C878B8797E0A6
:1058F0009F8781E0888B84E0898B1B8A1A8A84E0E9
:1059000097E00E94F9146EE775E084E097E00E944A
:10591000C313C6010E94510760910C0670910D06D9
:105920008091490790914A070E941F18882309F423
:1059300074CF84E097E00E94F9148FE895E00E940C
:1059400009090E94E90A88EE93E043C084E097E0E9
:105950000E94F91484EA95E00E94090941E067E099
:1059600084E097E00E94CB1480915E0790915F07DE
:10597000009749F4CB55DF4F28813981C55AD04073
:105980003A8329831AC0A601481B590BE09160078E
:10599000F091610780E090E0309759F09C012E5F14
:1059A0003F4F80819181820F931F0280F381E02D10
:1059B000F3CF840F951F9A83898349815A81052EDD
:1059C000000C660B770B84E097E00E946A1888EB66
:1059D0009BE00E946E0221CF80EB95E00E9453066F
:1059E000019709F01ACF412C512C60E0C2010E94AE
:1059F000F5173FEF431A530A411482E05806A9F7FE
:105A00000CCF44E050E0B601C7010E94C733798152
:105A10006A819B818C81D9C8CF93DF9310921C0639
:105A200010921B0688EE93E0A0E0B0E080931D0684
:105A300090931E06A0931F06B093200683E792E082
:105A400090931A068093190685EC90E090932606B1
:105A50008093250684EC90E0909328068093270697
:105A600080EC90E090932A068093290681EC90E0E8
:105A700090932C0680932B0682EC90E090932E0658
:105A800080932D0686EC90E09093300680932F064D
:105A90001092320610923306109234061092350698
:105AA00084E690E09093500780934F0784E090E065
:105AB0000E94062F90934E0780934D0782E090E05E
:105AC0000E94062F90934C0780934B0782E090E052
:105AD0000E94062F90934A078093490782E090E046
