:100000000C94B3010C94DD010C94DD010C94DD0122
:100010000C94DD010C94DD010C94DD010C94DD01E8
:100020000C94DD010C94DD010C94DD010C94DD01D8
:100030000C94DD010C94DD010C94DD010C94DD01C8
:100040000C94DD010C94DD010C94681B0C94DD0113
:100050000C94521A0C94281A0C94DD010C94DD01B6
:100060000C94DD010C94DD010C94DD010C94DD0198
:100070000C94DD010C94DD010C94DD010C94DD0188
:100080000C94DD010C94DD010C94DD01D906DC0635
:10009000EE06FE060D0721072A0729152C151F1548
:1000A000231543154315301534153A153E155917C8
:1000B0005F1765176B17711777177D17B818BF187B
:1000C000C618CD18D418EB18DB18EB18E2186E61BF
:1000D0006E00696E66006364696E6F707375785840
:1000E0005B65666745464700616E006E66696E69CE
:1000F000747900CDCCCC3D0AD7233C17B7D13877E3
:10010000CC2B329595E6241FB14F0A000020410008
:1001100000C84200401C4620BCBE4CCA1B0E5AAE52
:10012000C59D743E5945533C204E4F2000205945F3
:1001300053203E4E4F3C002D0123010704001C10AC
:100140001D020500080C0A09091A1800001F1F1FCC
:100150001F401F0E040040404040401F0E0400405E
:100160004040401F1F1F1F001F1F1F1F40404040D7
:1001700000040E1F404040404000040E1F401F1F5F
:100180001F1F005265746F7572206D656E75004695
:100190006F726D617420454550524F4D004D656D35
:1001A0006F69726520646973706F00416363656C89
:1001B0002E206D6F74657572005669746573736572
:1001C000206D6F7465757200506172616D65747237
:1001D0006167650052756E007A01710168015F0107
:1001E00056014D0144013B01B901AB019D018F0155
:1001F0008301D401C80100002100240027002A0047
:1002000000002200250028002B0004040202020244
:1002100004040404020202020101010101010101BE
:10022000030303030303030304040102040801029C
:100230000408204010204080804020100804020163
:10024000010204081020408010800000000100001E
:10025000000003080200090A00000000000000007E
:100260000000000000000000040700407A10F35A6C
:1002700000A0724E18090010A5D4E80000E87648E6
:10028000170000E40B54020000CA9A3B000000E192
:10029000F505000080969800000040420F00000025
:1002A000A08601000000102700000000E803000005
:1002B00000006400000000000A00000000000100CF
:1002C000000000002C76D888DC674F0823DFC1DFF0
:1002D000AE59E1B1B796E5E3E453C63AE6519976F3
:1002E00096E8E6C28426EB898C9B62ED407C6FFC2D
:1002F000EFBC9C9F40F2BAA56FA5F490055A2AF76F
:100300005C936B6CF9676DC11BFCE0E40D47FEF577
:1003100020E6B500D0ED902E0300943577050080DF
:10032000841E080000204E0A000000C80C3333333E
:10033000330F986E12831141EF8D2114893BE655DE
:1003400016CFFEE6DB18D1844B381BF77C1D901DC1
:10035000A4BBE424203284725E228100C9F124EC23
:10036000A1E53D272C2D11241FBECFEFD0E4DEBF29
:10037000CDBF15E0A0E0B1E0E6E3F8E600E00BBF9A
:1003800002C007900D92A43EB107D9F727E0A4EE72
:10039000B5E001C01D92A236B207E1F711E0C3EB50
:1003A000D1E004C02197FE010E94A32FC23BD107D8
:1003B000C9F70E94BD240C9419340C940000CF930B
:1003C000DF93DC0140E057E018968C9118974817AE
:1003D00008F045C01D96ED91FC911E97E40FF11DAC
:1003E0008081883018F4952F981B01C09FEF97707B
:1003F000906490937C0080917A00806480937A006E
:1004000080917A0086FDFCCF609178008091790020
:1004100070E0782B19968C911997C0E0D0E09C2F52
:10042000C817D8F45196ED91FC9152979E01220F76
:10043000331FE20FF31F20813181261B370B37FF5B
:1004400003C031952195310921962C3031053CF7B7
:10045000489F900D1124892F03C04F5FB5CF8FEFB8
:10046000DF91CF910895FC0184850895FC01938567
:100470009F3F39F00784F089E02DE90FF11D80815D
:10048000089580E0089570932301609322010895F8
:1004900070930101609300010895709325016093AA
:1004A0002401089570932101609320010895FC01B7
:1004B0008281089570931F0160931E0108950F9328
:1004C0001F93CF93DF93EC01E881F9810288F389D0
:1004D000E02D0995182F8C85823009F457C030F42F
:1004E000882361F0813009F44DC0A9C0843009F43B
:1004F0006CC008F478C0853069F0A1C01F3F09F4D2
:100500003FC00E945C1B6C837D838E839F8385E04C
:100510008C8795C01F3F99F18B85811329C00E945C
:100520005C1B0C811D812E813F81AB01BC01401BF6
:10053000510B620B730B8091240190912501A0E077
:10054000B0E084179507A607B70708F078C081E0E8
:100550008C870E945C1B6C837D838E839F8360935A
:10056000EC057093ED058093EE059093EF055EC06A
:100570000E945C1B6C837D838E839F8301C01C86DD
:100580001B875DC01F3F29F082E004C08B85811767
:1005900019F084E08C8720C00E945C1B0C811D81B7
:1005A0002E813F81AB01BC01401B510B620B730BD1
:1005B0008091200190912101A0E0B0E0841795077F
:1005C000A607B707E0F583E0E5CF1F3F11F41C86CF
:1005D00036C085E08C871B870E945C1B6C837D8303
:1005E0008E839F832CC08B85811719F084E08C87C4
:1005F00017C00E945C1B0C811D812E813F81AB01C5
:10060000BC01401B510B620B730B80911E0190913A
:100610001F01A0E0B0E084179507A607B70778F49C
:100620000E945C1B6C837D838E839F838B858F3FB1
:1006300031F0EF85F889E80FF11D808101C080E07D
:10064000DF91CF911F910F9108957F928F929F928A
:10065000AF92BF92CF92DF92EF92FF920F931F93D0
:10066000CF93DF93A62E742EE22EF12C670191E03A
:10067000C91AD108A601440F551F843608F083E635
:10068000849F9001859F300D1124C90164E670E0BC
:100690000E944E2F8B010F5F1F4FC80117FD01965F
:1006A0004C0195948794C0E0D0E0CE15DF0509F4A5
:1006B00048C04C2F470D6A2D809104069091050685
:1006C0000E942E1B8091040690910506C815D9053D
:1006D00029F5C11108C0DC01ED91FC910190F08178
:1006E000E02D60E02BC0CC15DD0541F4DC01ED917F
:1006F000FC910190F081E02D65E020C09E01220F69
:10070000331FDC01ED91FC910190F081E02D021787
:10071000130711F462E012C063E010C0DC01ED9138
:10072000FC910190F081E02DC11102C061E006C092
:10073000CC15DD0511F464E001C060E20995219655
:10074000B4CFDF91CF911F910F91FF90EF90DF9089
:10075000CF90BF90AF909F908F907F90089561E071
:100760000E94241B8BE39FE10197F1F708958F927C
:100770009F92AF92BF92CF92DF92EF92FF92CF9370
:100780006C010E945C1B4B015C010D2C000CEE08FF
:10079000FF08C0E09091020680910306E92FF82F30
:1007A000EC0FF11DEC0FF11D80819181009741F15B
:1007B000DC01ED91FC910190F081E02D09958823F9
:1007C000E9F0982FE0910006F091010620E0619198
:1007D000719130E0DB01A30FB11D4C91442339F03E
:1007E000841303C091E0920F05C03F5FF3CF2F5FEA
:1007F000263069F7892F990F990B12C0CF5FCACFA6
:100800000E945C1BDC01CB0188199909AA09BB096C
:100810008C159D05AE05BF0508F4BBCF80E090E0C8
:10082000CF91FF90EF90DF90CF90BF90AF909F90CF
:100830008F9008952F923F924F925F926F927F9286
:100840008F929F92AF92BF92CF92DF92EF92FF92E0
:100850000F931F93CF93DF93CDB7DEB7A5970FB656
:10086000F894DEBF0FBECDBF8C01FF24F39480E06F
:1008700090E09E012F5F3F4F19018F37910519F0CE
:10088000FF2009F483C2D8011B96BC91BA8FF801EE
:10089000F285F88FFB9FF02C1124D8011D96BC9196
:1008A000BD8FF801F485FE8F0E945C1B24EF31E0C0
:1008B00040E050E00E94622F49015A01D801509651
:1008C0008C915097853118F084E150968C93F80103
:1008D0004189828193810680F781E02D2F2D30E0C0
:1008E00045FF11C04F2D4695682F641B67FD12C050
:1008F000841B9109820F931FE817F90764F461E0E4
:100900006E0F6F1908C0B9010E944E2FF69E602D20
:10091000112401C060E0FA94F60EF98E8F2D90E05C
:10092000E817F9070CF4E98F6F8BF12C862F90E014
:100930009C8F8B8F820F931F98A38F8FB88DAB2FB7
:10094000B0E0BAA3A9A3EF894E2E512C2F8D38A168
:10095000421653060CF036C1F801E088FF89298D54
:100960002F1710F4F101D7C0D80151962D913C9169
:100970005297C90188709927ED91FC91119730FF2A
:1009800076C0892B09F454C012968D919C911397CF
:100990004816590609F04CC0C201880F991FE80F8C
:1009A000F91FC080D180F60101900020E9F731974E
:1009B0009F012C193D098E2D90E082179307C0F5F9
:1009C000280F391F40E050E0C501B4010E94842F78
:1009D0004B015C018E189108A108B108C4010E2CCE
:1009E000000CFF08682F6819462F50E04E155F0570
:1009F0000CF069C097FD0CC0F60101900020E9F7EA
:100A00009F012C193D09225031092817390730F46C
:100A1000F101E60FF11DB0E2B08308C0F601E80F66
:100A2000F91F2081F101E40FF51F20830196DACF31
:100A30004E2D50E04F5F5F4FD801ED91FC91C20108
:100A4000880F991FE80FF91F60817181C1010E9411
:100A5000D832F8019089891708F068C0F101E80FD1
:100A6000F11D20E220838F5F8913F8CF50C0892BBE
:100A700089F1D80112968D919C91139748165906C9
:100A800049F56201CC0CDD1CCE0EDF1EF60185910E
:100A900094910E94C4326E2C712C6816790608F469
:100AA000F9C118C077FE12C2F101E20FF11D20E278
:100AB0002083BFEF6B1A7B0A262D2819C22ED12C5A
:100AC000CE14DF047CF3F101EE0DFF1D1082FF2434
:100AD000F3942CC0D801ED91FC91C201880F991FAD
:100AE000E80FF91F659174914E2D50E04F5F5F4FF5
:100AF000C1010E94B032F80190898917B8F4F10160
:100B0000E80FF11D20E220838F5F8913F8CFF101F8
:100B1000E80FF11D0AC08E2F82198E1518F430E2ED
:100B20003193F9CFF101EE0DF11D1082C201AB8DB1
:100B3000BC8D8A1B9B0B69A17AA10E944E2FF801E4
:100B40004785480F8089869F600D11249685690F1F
:100B500080910406909105060E942E1BD8015196A3
:100B60008C9180FF24C08091040690910506BF8976
:100B7000E98DEB17A0F0DC01ED91FC910190F08183
:100B8000E02DD80112962D913C91139742165306F1
:100B900019F46091FB050AC06091FA0507C0DC01F9
:100BA000ED91FC910190F081E02D60E20995B10199
:100BB00080910406909105060E94261ABF89BF5FA6
:100BC000BF8BC1CED80151968C9181FF34C04E8D20
:100BD0006D8D80910406909105060E942E1BE12CDC
:100BE0008E2D90E0D80116962D913C9117972817DD
:100BF00039070CF464C0F80122813381A091040606
:100C0000B0910506ED91FC9111978217930731F48D
:100C10000190F081E02D6091FB0509C08E2D6AE006
:100C20000E94422F61E3690F0190F081E02DCD0118
:100C30000995E394D5CF82FF42C0F80166817781A0
:100C4000828193812091FB05AB014F5F5F4F69303B
:100C5000710574F45F934F9301969F938F93822F46
:100C6000022E000C990B9F932F93ADEBB2E00DC0B9
:100C70005F934F9301969F938F93822F022E000CC8
:100C8000990B9F932F93A5ECB2E0BF93AF933F9244
:100C90002F920E9485310FB6F894DEBF0FBECDBFF4
:100CA0004E8D6D8D80910406909105060E942E1B3D
:100CB000B10180910406909105060E94261AD80180
:100CC00051968D919C91529786FF26C050962C91FB
:100CD00050973A8D329F300D11241E962C91320F71
:100CE00081709927B1E08B27381BF801428153812D
:100CF0004F5F5F4F24E6249FC001259F900D112474
:100D0000668177816F5F7F4F0E944E2F862F288DDF
:100D10004785632F0E942503D80151968C915197E6
:100D2000E0910406F091050684FF29C012968D918A
:100D30009C9113972B8D3C8D821B930B388D632FC9
:100D400070E00E944E2FD8011F964C911F97480FBC
:100D500050968C915097869F600D11241E969C9101
:100D6000690FCF010E942E1B809104069091050609
:100D7000FC016089262F2160208B696005C0608995
:100D80006E7F608B6860CF010E94241B82E390E03D
:100D90000E94B703D8011B963C911B971A962C9181
:100DA0008730910508F05FC0FC01EA5BFF4F0C94AF
:100DB000A32F80E090E061CDF80182819381181625
:100DC000190614F4019726C0D801868197811396DD
:100DD0009C938E9312978FE790E04FCDF80182811C
:100DE0009381268137818217930714F4019612C0EC
:100DF000D80113961C921E921297EDCF32300CF44C
:100E00007CC0F80182819381821B910927FD939513
:100E100097FD73C093838283DECF32300CF470C0B1
:100E2000D80112968D919C911397820F911D27FDE9
:100E30009A9516962D913C911797281739073CF6ED
:100E40005FC080910406909105060E94271B81E0F7
:100E500090E059C080910406909105060E94271BDE
:100E60008FEF9FEF50C0F80142815381CA01329F3A
:100E7000800D911D11249C01868197818217930713
:100E80001CF033832283A7CF4817590709F4B0CF4A
:100E9000D8019DCFF601859194910E94C432860DB0
:100EA000971D9C0140E050E0C501B4010E94842FD1
:100EB0004B015C018E189108A108B1083401F601BC
:100EC000459154910E2C000CFF08F6CDCA012BA3BE
:100ED0004CA35DA30E94C43201972BA14CA15DA13C
:100EE0008615970508F4E0CDFA01E60DF71DE491AB
:100EF000D101AC0DBD1DEC93DCCD8EEF9FEFBDCCD1
:100F00008DEF9FEFBACCA5960FB6F894DEBF0FBE5B
:100F1000CDBFDF91CF911F910F91FF90EF90DF90A8
:100F2000CF90BF90AF909F908F907F906F905F9089
:100F30004F903F902F9008954F925F926F927F92C3
:100F40008F929F92AF92BF92CF92DF92EF92FF92D9
:100F50000F931F93CF93DF93CDB7DEB765970FB68F
:100F6000F894DEBF0FBECDBF8C0180910406909136
:100F700005060E94AF031A8309831C821B8200911D
:100F8000FE051091FF05C090FC05D090FD050C9D5D
:100F900090010D9D300D1C9D300D112481E090E0DD
:100FA0002A30310511F480E090E098878F83CB865A
:100FB0000C871F86188A1B8A1A8AA02E4C2CB12CEB
:100FC000E12CF12C3801772421E0621A7108B41465
:100FD00008F057C08B819C818E0D9F1DA981BA811D
:100FE000FD0101900020E9F73197EA1BFB0B8E17FA
:100FF0009F0728F4A80FB91F8C918A3029F48FEF2E
:10100000E81AF80A512C01C0582E48894B0D6F85FB
:1010100080910406909105060E942E1B812C912C34
:101020008A1468F58091040690910506DC01ED9123
:10103000FC910190F081E02D511004C060E209950F
:10104000970118C0652D099597012F5F3F4F498182
:101050005A818B819C81840F951FFC01E20FF31F45
:101060005080BAE05B1206C0861497041CF42F5F10
:101070003F4F512C8FEF881A980A7901D1CFB39442
:10108000A6CF8A899B890197E1F4AB81BC818981D4
:101090009A81FC0101900020E9F73197E81BF90BD8
:1010A0008F85080F24E630E00E94AC2F9F0140E0BE
:1010B00050E00E94842F822F2C2D4889602F0E949F
:1010C000250387E391E09A8389831C821B8281E058
:1010D00090E098878F8389E0898B8091FE05895005
:1010E0008F878091FC058150888B81E08B878C876E
:1010F0001B8A1A8ACE0101960E941A04019619F0E1
:101100008B819C8100C065960FB6F894DEBF0FBE40
:10111000CDBFDF91CF911F910F91FF90EF90DF90A6
:10112000CF90BF90AF909F908F907F906F905F9087
:101130004F9008952F923F924F925F926F927F92BD
:101140008F929F92AF92BF92CF92DF92EF92FF92D7
:101150000F931F93CF93DF93CDB7DEB727970FB6CB
:10116000F894DEBF0FBECDBF8C012DB73EB73F83D5
:101170002E83DC01ED91FC911197E080F180509677
:101180005C90852C912CC4010196EDB7FEB7E81B4D
:10119000F90B0FB6F894FEBF0FBEEDBF2DB73EB7EB
:1011A0002F5F3F4F690185E0EFECF2E0DE01119621
:1011B0005D0101900D928A95E1F7422E2D2CF901E7
:1011C00090E28E2F8419851510F49193FACF8C0C30
:1011D0009D1CF4011082D8011F964C911F971E96FA
:1011E0006C9180910406909105060E942E1BB60119
:1011F00080910406909105060E94261AF801478501
:10120000668580910406909105060E942E1BD801E8
:1012100051968D919C9152978130910561F0823069
:10122000910569F0892BF9F4FF92EF928EE293E039
:101230009F938F930EC080E3850D8B8306C080E360
:10124000850D8A8384E68B831C82FF92EF92BF9286
:10125000AF92DF92CF920E9485310F900F900F9046
:101260000F900F900F90B6018091040690910506A3
:101270000E94261AF80147856685809104069091A0
:1012800005060E942E1B8091040690910506DC0144
:1012900050966C915097262F226050962C936A603E
:1012A0000E94241B80E3382E350C9EE2692E93E0C9
:1012B000792E82E390E00E94B7039927833091054D
:1012C00009F4A7C034F481309105A1F0029799F197
:1012D000F0CF8530910509F4B8C00CF4A8C006978A
:1012E00041F780910406909105060E94271B8FEF1D
:1012F0009FEFB8C0F80182859385E80EF91E8681BC
:1013000097818E159F0514F4E280F380D8011F9613
:101310004C911F971E966C91809104069091050642
:101320000E942E1BE42DF22D8E2F8419851520F599
:10133000B0E2B193F9CFF80182859385E81AF90AF2
:1013400082819381E816F90614F4E680F780D801CB
:101350001F964C911F971E966C9180910406909158
:1013600005060E942E1BE42DF22D8E2F8419851563
:1013700018F4B0E2B193F9CFF4011082B601809174
:101380000406909105060E94261AD8011F964C91DA
:101390001F971E966C9180910406909105060E94FD
:1013A0002E1BF801818992898130910551F082309C
:1013B000910549F0892BC9F4FF92EF927F926F92C9
:1013C0000AC03B8204C03A82F4E6FB831C82FF928F
:1013D000EF92BF92AF92DF92CF920E9485310F9031
:1013E0000F900F900F900F900F90B6018091040610
:1013F000909105060E94261AD8011F964C911F97BE
:101400001E966C9180910406909105060E942E1BF9
:1014100050CFD801ED91FC91F182E08280910406D9
:10142000909105060E94271B8DEF9FEF1BC0D801EE
:10143000ED91FC91F182E082809104069091050685
:101440000E94271B8CEF9FEF0DC0D801ED91FC91FE
:10145000F182E08280910406909105060E94271B8C
:1014600081E090E02E813F810FB6F8943EBF0FBE21
:101470002DBF27960FB6F894DEBF0FBECDBFDF910C
:10148000CF911F910F91FF90EF90DF90CF90BF9081
:10149000AF909F908F907F906F905F904F903F9014
:1014A0002F9008950F931F93CF93DF93EC0110E0DB
:1014B00000E02091FE053091FF05412F50E04217DA
:1014C0005307CCF535952795FE0101900020E9F7EB
:1014D0003197EC1BFD0BDF01B695A795BD016E1B87
:1014E0007F0B620F731F80910406909105064617CB
:1014F000570740F4DC01ED91FC910190F081E02D63
:101500006EE30CC02A0F3B1FDC01ED91FC914217EA
:10151000530730F00190F081E02D6CE3099509C08C
:10152000DE01A00FB11D0190F081E02D6C910995B5
:101530000F5F1F5FBECFDF91CF911F910F91089575
:10154000CF92DF92EF92FF92CF93DF936B017C01FA
:10155000EA018091F4059091F505BC01990F880B83
:10156000990B0E94C4239B01AC01C701B6010E94E4
:10157000FF232091F6053091F7054091F805509131
:10158000F9050E9448300E94BA30688379838A83C3
:101590009B83DF91CF91FF90EF90DF90CF900895E4
:1015A000CF92DF92EF92FF92CF93DF93EA010E94F6
:1015B000C4232091F6053091F7054091F80550912C
:1015C000F9050E94FF236B017C018091F405909145
:1015D000F505BC01990F880B990B0E94C4239B0150
:1015E000AC01C701B6010E944830688379838A83C1
:1015F0009B83DF91CF91FF90EF90DF90CF90089584
:101600004091C5065091C6066091C7067091C80604
:101610004093F0055093F1056093F2057093F30544
:101620008091490790914A070E946113882391F0A5
:101630004091F0055091F1056091F2057091F3052C
:101640008DE196E00E94E01264ED72E08DE196E09B
:101650000C94111A0895AF92BF92CF92DF92EF923D
:10166000FF920F931F93CF93DF93CDB7DEB7A09771
:101670000FB6F894DEBF0FBECDBF0E945C1B009179
:10168000E8051091E9052091EA053091EB05DC01B0
:10169000CB01801B910BA20BB30B893C9105A105DB
:1016A000B10508F4CEC040E060E088E097E00E9419
:1016B0002E1BC090C906D090CA06E090CB06F090D1
:1016C000CC066091C5067091C6068091C7069091C0
:1016D000C806AE01435E5F4F0E94D00AAE01475E6E
:1016E0005F4FC701B6010E94D00A8C8D8F938B8DFE
:1016F0008F938A8D8F93898D8F9388A18F938F8DF0
:101700008F938E8D8F938D8D8F9387ED92E09F9326
:101710008F939E012F5F3F4F79013F932F930E943C
:101720008531B70188E097E00E94261A41E060E029
:1017300088E097E00E942E1BE0910E06F0910F06C4
:10174000EE0FFF1FEE0FFF1FE85BFE4FD080C18042
:10175000B280A3800FB6F894DEBF0FBECDBF20E0ED
:101760003CE34CE156ECD601F5016B2F7A2F8F2F1D
:101770009E2F0E9443308E010E5E1F4F811106C0C6
:1017800068EE72E0C8010E947E3111C0AF92BF9234
:10179000CF92DF9281EE92E09F938F931F930F93EE
:1017A0000E9485310FB6F894DEBF0FBECDBF1F93E8
:1017B0000F93E0910E06F0910F06ED51FE4F8081E0
:1017C000282F082E000C330B3F938F938EEE92E060
:1017D0009F938F93FF92EF920E948531C7010E94E1
:1017E000520A0E945C1B0091E4051091E5052091CE
:1017F000E6053091E705DC01CB01801B910BA20BC4
:10180000B30B0FB6F894DEBF0FBECDBF8D32914043
:10181000A105B10560F00E94000B0E945C1B609363
:10182000E4057093E5058093E6059093E7050E9433
:101830005C1B6093E8057093E9058093EA0590933B
:10184000EB05A0960FB6F894DEBF0FBECDBFDF91BB
:10185000CF911F910F91FF90EF90DF90CF90BF90AD
:10186000AF900895CF92DF92EF92FF9260911006B1
:1018700070911106072E000C880B990B0E94C4234F
:101880006B017C019B01AC016091D1067091D20685
:101890008091D3069091D4060E944330882309F4A6
:1018A00051C0C092D106D092D206E092D306F092F7
:1018B000D406A701960160E074E284E799E40E94EF
:1018C00048306093F9067093FA068093FB06909374
:1018D000FC068091ED069091EE06A091EF06B09186
:1018E000F006181619061A061B0664F56091CD0657
:1018F0007091CE068091CF069091D0069B01AC01ED
:101900000E94FF236B017C016091D5067091D60681
:101910008091D7069091D8069B01AC010E94D72FE9
:101920009B01AC01C701B6010E9448300E94BA3049
:101930006093ED067093EE068093EF069093F006A9
:101940000E94F60F6091120670911306072E000C8C
:10195000880B990B0E94C4236B017C0120E030E0CE
:10196000A9010E944330882321F0C701B6010E94DB
:10197000A911C090F005D090F105E090F205F0902B
:10198000F305B701A6018AEB96E00E94EE18C0921B
:10199000C506D092C606E092C706F092C806C0926D
:1019A000C906D092CA06E092CB06F092CC061092FD
:1019B000ED061092EE061092EF061092F0061092CD
:1019C000DD061092DE061092DF061092E006FF9010
:1019D000EF90DF90CF9008954F925F926F927F9239
:1019E0008F929F92AF92BF92CF92DF92EF92FF922F
:1019F0000F931F93CF93DF938130910529F00297C6
:101A000031F4CFEFDFEF05C0C1E0D0E002C0C0E0AD
:101A1000D0E08091290790E07C0100EB14E0970171
:101A20002150310923303105A0F50197029760F468
:101A300023E0E216F10441F4CE01809FE001819F92
:101A4000D00D909FD00D11248DE197E00E945F0290
:101A5000C0902907D12C8091C5069091C606A0910F
:101A6000C706B091C806AE010D2E000C660B770BB1
:101A70004A015B01880E991EAA1EBB1EC501B40156
:101A80000E9425120E94E2130E942B0BC7017601CF
:101A9000C6CF8091C9069091CA06A091CB06B0919D
:101AA000CC066C01092E000CEE08FF084091C5061B
:101AB0005091C6066091C7067091C80697018601CD
:101AC000041B150B260B370B1016110612061306F6
:101AD00024F4EC01C41BD50B03C0EA01C81BD90BCD
:101AE0006091CD067091CE068091CF069091D00680
:101AF0009B01AC010E94D72F4B015C0120E030E03C
:101B0000A9010E941431181624F0B7FAB094B7F85E
:101B1000B09420E030E0A901C501B4010E94433037
:101B2000882321F0C501B4010E94A9114090CD067F
:101B30005090CE066090CF067090D00620E030E046
:101B4000A901C301B2010E944330882309F443C0B4
:101B5000A3019201C301B2010E94FF234B015C016A
:101B60006091D5067091D6068091D7069091D806DF
:101B70009B01AC010E94D72F9B01AC01C501B401B0
:101B80000E9448300E94BA304B015C012FEF821A4C
:101B9000920AA20AB20A20E030E0A901C301B20110
:101BA0000E9414314091C5065091C6066091C70647
:101BB0007091C80618163CF4CB01BA01680D791D66
:101BC0008A1D9B1D06C0CB01BA01681979098A09D3
:101BD0009B090E9425128091C9069091CA06A09186
:101BE000CB06B091CC060091C5061091C606209197
:101BF000C7063091C806AC01BD01401B510B620BFA
:101C0000730B141615061606170634F0B901A80151
:101C1000481B590B6A0B7B0BCE01DD0FAA0BBB0BCC
:101C200084179507A607B70724F4C701B6010E94D9
:101C30002512C090C906D090CA06E090CB06F0905D
:101C4000CC06C701B60122E030E040E050E00E943F
:101C5000842F6130710581059105D9F4A7019601A2
:101C6000F7FE07C022273327A9012C193D094E0989
:101C70005F09C701B6010E94842FC901330FAA0B67
:101C8000BB0BBC01CD016C0D7D1D8E1D9F1D0E94E7
:101C900025126091120670911306072E000C880B16
:101CA000990B0E94C4236B017C0120E030E0A90164
:101CB0000E944330882321F0C701B6010E94A91178
:101CC0004091C5065091C6066091C7067091C8063E
:101CD0008091C9069091CA06A091CB06B091CC061E
:101CE000481759076A077B0729F00E94E2130E94F0
:101CF0002B0BE6CF69EC70E080E090E00E94FF15CE
:101D00000E942B0B0E94000BDF91CF911F910F912E
:101D1000FF90EF90DF90CF90BF90AF909F908F900B
:101D20007F906F905F904F900C94320C80910707DA
:101D30008823B1F04091FE065091FF0660910007A4
:101D40007091010740930A0650930B0660930C06AE
:101D500070930D0680914707909148070E94611388
:101D6000809106078823B1F0409102075091030744
:101D7000609104077091050740930606509307068B
:101D80006093080670930906809145079091460775
:101D90000C94611308958F929F92AF92BF92CF924D
:101DA000DF92EF92FF920F931F93CF93DF93CDB704
:101DB000DEB7E2970FB6F894DEBF0FBECDBF8C0141
:101DC0007B01D42EC52EFC0180809180A280B3803F
:101DD000C501B4010E94C4239B01AC010E945F3184
:101DE000811104C089288A288B2881F5C7010496AF
:101DF000813092403CF186EF92E00E94E30F60E078
:101E000070E080E090E0F8016083718382839383C7
:101E10009F938F937F936F93CF92DF9280E293E0B3
:101E20009F938F938E010F5F1F4F1F930F930E94FD
:101E30008531C8010E94E30F0FB6F894DEBF0FBED4
:101E4000CDBF04C0C7010E94FF33DDCFE2960FB6BD
:101E5000F894DEBF0FBECDBFDF91CF911F910F91E0
:101E6000FF90EF90DF90CF90BF90AF909F908F90BA
:101E70000895AF92BF92CF92DF92EF92FF920F93AD
:101E80001F93CF93DF93CDB7DEB7E2970FB6F894E9
:101E9000DEBF0FBECDBF8C017B01B42EA52EFC0191
:101EA000C080D180B6010D2C000C880B990B0E94CC
:101EB000C4239B01AC010E945F31811102C0CD2877
:101EC00051F5C7010296813092400CF186EF92E005
:101ED0000E94E30F80E090E0F801808391839F935C
:101EE0008F93AF92BF9289E293E09F938F938E017D
:101EF0000F5F1F4F1F930F930E948531C8010E94EF
:101F0000E30F0FB6F894DEBF0FBECDBF04C0C7010C
:101F10000E940534E1CFE2960FB6F894DEBF0FBE03
:101F2000CDBFDF91CF911F910F91FF90EF90DF9088
:101F3000CF90BF90AF900895CF93DF9381E393E06C
:101F40000E94E30FC0914307D0914407CE01885906
:101F50009F4F0E944912882371F068E471E0CE011E
:101F60000E94B1131816190634F484E493E0DF914B
:101F7000CF910C94E30FDF91CF9108953FB7F89480
:101F80008091190690911A06A0911B06B0911C062B
:101F900026B5A89B05C02F3F19F00196A11DB11DC4
:101FA0003FBFBA2FA92F982F8827820F911DA11DFF
:101FB000B11DBC01CD0142E0660F771F881F991F3C
:101FC0004A95D1F70895CF93DF93BC018DE196E058
:101FD0000E94111AEC0164ED72E08DE196E00E941E
:101FE000111A8C0F9D1FDF91CF9108954F925F9230
:101FF0006F927F928F929F92AF92BF92CF92DF9219
:10200000EF92FF920F931F93CF93DF9300D000D0F6
:10201000CDB7DEB7C090C906D090CA06E090CB0617
:10202000F090CC068091C5069091C606A091C70697
:10203000B091C806C81AD90AEA0AFB0A6091CD060F
:102040007091CE068091CF069091D0069B01AC0195
:102050000E94FF234B015C016091D5067091D6066A
:102060008091D7069091D8069B01AC010E94D72F92
:102070009B01AC01C501B4010E9448300E94BA30F6
:10208000C114D104E104F104F9F462307105810551
:1020900091050CF092C01092DD061092DE061092AF
:1020A000DF061092E0061092CD061092CE06109236
:1020B000CF061092D0061092ED061092EE06109206
:1020C000EF061092F00630C10091ED061091EE0679
:1020D0002091EF063091F0061C141D041E041F040D
:1020E0000CF5101611061206130654F46C157D0536
:1020F0008E059F0564F52091FD0621115EC027C065
:10210000011511052105310509F457C06C157D0530
:102110008E059F050CF051C08091FD06882309F4BF
:102120004CC03CC0101611061206130614F5002709
:10213000112798010C191D092E093F096017710715
:102140008207930724F42091FD062223B1F19B011D
:10215000AC0188279927DC01821B930BA40BB50BDC
:102160008093ED069093EE06A093EF06B093F006F1
:1021700024C00115110521053105F9F088249924A1
:1021800054018C189D08AE08BF08681579058A05AA
:102190009B059CF48091FD0681110FC03095209520
:1021A000109501951F4F2F4F3F4F0093ED06109351
:1021B000EE062093EF063093F0068090ED069090A7
:1021C000EE06A090EF06B090F00681149104A104F1
:1021D000B104D1F48091F1069091F206A091F3063A
:1021E000B091F4068093F5069093F606A093F70657
:1021F000B093F80681E01C141D041E041F040CF0AB
:1022000080E08093FD064AC0C090F506D090F606A7
:10221000E090F706F090F806A7019601C701B60115
:102220000E94D72F2B013C01C501B4010E94C42399
:1022300020E030E040E850E40E94FF2320E030E05E
:1022400040E85FE30E94D72F9B01AC01C301B201BC
:102250000E9448309B01AC01C701B6010E94D62FF5
:102260007B018C017090F9066090FA06C090FB0625
:10227000D090FC06272D362DA6010E941431181689
:102280001CF0E72CF62C8601A701B8014093F50657
:102290005093F6066093F7067093F8063FEF831AA3
:1022A000930AA30AB30A8092ED069092EE06A092DA
:1022B000EF06B092F0062091F5063091F6064091B7
:1022C000F7065091F806CA01B90129833A834B8376
:1022D0005C830E94C1306093DD067093DE068093BC
:1022E000DF069093E00629813A814B815C8160E0B2
:1022F00074E284E799E40E9448306093CD067093BD
:10230000CE068093CF069093D0062091FD06211132
:102310000BC0DC01CB01B0588093CD069093CE0664
:10232000A093CF06B093D0060F900F900F900F9010
:10233000DF91CF911F910F91FF90EF90DF90CF90A1
:10234000BF90AF909F908F907F906F905F904F90D5
:1023500008954F925F926F927F928F929F92AF9269
:10236000BF92CF92DF92EF92FF926B017C0180903F
:10237000D5069090D606A090D706B090D8069B01BF
:10238000AC01C501B4010E944330882309F450C058
:102390006091ED067091EE068091EF069091F00647
:1023A0000E94C4232B013C01A7019601C501B40181
:1023B0000E9448309B01AC01C301B2010E94FF237F
:1023C0000E94BA306093ED067093EE068093EF069C
:1023D0009093F006A701960160E070E080E89FE32B
:1023E0000E9448300E941F3120E034E244E759E463
:1023F0000E94FF236093F1067093F2068093F30628
:102400009093F406C092D506D092D606E092D706F5
:10241000F092D806FF90EF90DF90CF90BF90AF90F2
:102420009F908F907F906F905F904F900C94F60FDD
:10243000FF90EF90DF90CF90BF90AF909F908F90E4
:102440007F906F905F904F9008950F931F9300912E
:10245000C9061091CA062091CB063091CC0606170A
:1024600017072807390791F0DC01CB018093C906D3
:102470009093CA06A093CB06B093CC068AEB96E065
:102480000E943B191F910F910C94F60F1F910F9111
:10249000089520915707309158072F5F3F4F309391
:1024A00058072093570740915307509154074115FF
:1024B000510519F0421753071CF481EC95E005C053
:1024C0008130924034F086EF92E00E94E30F80E08A
:1024D000089581E00895FF920F931F93CF93DF93A8
:1024E0001F92CDB7DEB78C01019669830E94491215
:1024F000F82E6981882319F0C8010E940B348F2DB2
:102500000F90DF91CF911F910F91FF9008959C0143
:102510002F5F3F4F2130324014F40C94F73386EF95
:1025200092E00E94E30F80E008958F929F92AF9215
:10253000BF92CF92DF92EF92FF920F931F93CF93B0
:10254000DF9300D0CDB7DEB76C017A836983029642
:102550000E9449128823F9F04E0183E0880E911CF5
:10256000FE0131967F0100E010E0CE1ADF0A56012D
:10257000AE0CBF1CC5010E948712F70161917F015B
:10258000861729F0C5010E946B120F5F1F4FE814D8
:10259000F90469F702C000E010E081E0012B09F4C2
:1025A00080E00F900F90DF91CF911F910F91FF90DE
:1025B000EF90DF90CF90BF90AF909F908F90089555
:1025C0004F925F926F927F928F929F92AF92BF9243
:1025D000CF92DF92EF92FF920F931F93CF93DF93EF
:1025E000CDB7DEB7A1970FB6F894DEBF0FBECDBF53
:1025F0008C016A017B0177FF2FC0DC01ED91FC911A
:102600000190F081E02D6DE209955C0122273327CE
:10261000A9012C193D094E095F0919A2FE01B196C5
:102620007F019AE0492E512C612C712CCA01B9010D
:10263000A30192010E94622F605DD7016E937D011C
:10264000211531054105510589F7BD01C8010E94D9
:10265000111A8A0D9B1D1EC09A01AB0119A2FE0121
:10266000B1967F018AE0882E912CA12CB12CCA0151
:10267000B901A50194010E94622F605DD7016E939C
:102680007D01211531054105510589F7BD01C801BD
:102690000E94111AA1960FB6F894DEBF0FBECDBFEF
:1026A000DF91CF911F910F91FF90EF90DF90CF902E
:1026B000BF90AF909F908F907F906F905F904F9062
:1026C00008958F929F92AF92BF92CF92DF92EF9236
:1026D000FF920F931F93CF93DF9300D000D0CDB71D
:1026E000DEB76C0149835A836B837C8304960E9416
:1026F00049128823F9F04E0185E0880E911CFE01F5
:1027000031967F0100E010E0CE1ADF0A5601AE0CD0
:10271000BF1CC5010E948712F70161917F018617D6
:1027200029F0C5010E946B120F5F1F4FE814F904D6
:1027300069F702C000E010E081E0012B09F480E0BD
:102740000F900F900F900F90DF91CF911F910F91ED
:10275000FF90EF90DF90CF90BF90AF909F908F90C1
:102760000895AF92BF92CF92DF92EF92FF920F93B4
:102770001F93CF93DF936B0128E6C20ED11CEB01B0
:1027800000E010E05C01A61AB70A7501EC0EFD1E10
:10279000C7010E9487126991861729F0C7010E941C
:1027A0006B120F5F1F4FCC15DD0579F7C801DF9164
:1027B000CF911F910F91FF90EF90DF90CF90BF903E
:1027C000AF900895CF92DF92EF92FF928091DD0655
:1027D0009091DE06A091DF06B091E006892B8A2B4E
:1027E0008B2B09F45EC00E94BE0F6B017C014091EF
:1027F000E1065091E2066091E3067091E406809153
:10280000DD069091DE06A091DF06B091E006840F10
:10281000951FA61FB71F84179507A607B70730F0A7
:10282000C816D906EA06FB0658F405C0C816D9062C
:10283000EA06FB06B0F1C416D506E606F70688F5EB
:102840002091FD068091C5069091C606A091C7060D
:10285000B091C806222321F00196A11DB11D03C02D
:102860000197A109B1098093C5069093C606A0936C
:10287000C706B093C8064091C5065091C606609140
:10288000C7067091C8068AEB96E00E94A918C0920C
:10289000E106D092E206E092E306F092E4060E949E
:1028A000F60F20E030E0A9016091CD067091CE06D0
:1028B0008091CF069091D0060E944330811118C0BC
:1028C00081E0C090C906D090CA06E090CB06F09097
:1028D000CC064091C5065091C6066091C70670911E
:1028E000C806C416D506E606F70619F480E001C04E
:1028F00081E0FF90EF90DF90CF9008958F929F92AC
:10290000AF92BF92CF92DF92EF92FF92CF9320E0EF
:1029100030E0A9016091CD067091CE068091CF067E
:102920009091D0060E944330882309F461C0C09082
:10293000D106D090D206E090D306F090D40646019E
:102940005701B7FAB094B7F8B09420E030E0A9018D
:10295000C501B4010E941431181654F020E030E093
:10296000A901C701B6010E94433087FD03C00CC016
:102970007501640120E030E0A901C701B6010E94A1
:10298000433081110DC003C0C12CD12C76011092AF
:10299000DD061092DE061092DF061092E00620C0DF
:1029A000A701960160E074E284E799E40E94483050
:1029B0009F770E94C1306093DD067093DE0680939E
:1029C000DF069093E006C1E020E030E0A901C701F6
:1029D000B6010E94143118160CF0C0E0C093FD0639
:1029E000C092CD06D092CE06E092CF06F092D006ED
:1029F000CF91FF90EF90DF90CF90BF90AF909F90DE
:102A00008F900895362F90E0FC01E65BFD4F4491D6
:102A1000FC01E65DFD4F2491FC01E65FFD4F8491D2
:102A2000882309F443C0442371F150E0FA0131973F
:102A3000EA30F10540F5E35BFF4F0C94A32F909132
:102A400080009F7703C0909180009F7D90938000CD
:102A50001AC094B59F7702C094B59F7D94BD13C0F2
:102A60009091B0009F7703C09091B0009F7D9093AC
:102A7000B00009C0909190009F7703C090919000A2
:102A80009F7D90939000E82FF0E0EE0FFF1FE05045
:102A9000FE4FA591B4918FB7F894EC91311103C01A
:102AA00020952E2301C02E2B2C938FBF08950F93BA
:102AB0001F93CF93DF93EC01623018F08F8588600D
:102AC0008F876B8B1C8A8BE39DE00197F1F760E0A9
:102AD0008C810E94021560E08E810E9402158D811A
:102AE0008F3F19F060E00E9402156F8564FD1DC0E4
:102AF00063E0CE010E94881A0BE416E4C801019736
:102B0000F1F763E0CE010E94881AC8010197F1F73E
:102B100063E0CE010E94881A83E592E00197F1F705
:102B200062E0CE010E94881A16C06062CE010E9447
:102B3000241B8BE496E40197F1F76F856062CE0168
:102B40000E94241B83E592E00197F1F76F85606294
:102B5000CE010E94241B6F856062CE010E94241B5F
:102B600084E0888B6CE0CE010E94241BCE010E9481
:102B7000AF0382E0898B66E0CE01DF91CF911F9198
:102B80000F910C94241BCF93DF9390E0FC01E65D42
:102B9000FD4F2491FC01E65FFD4F8491882361F194
:102BA00090E0880F991FFC01EA50FE4FC591D49127
:102BB000FC01E050FE4FA591B491611109C09FB78F
:102BC000F8948881209582238883EC912E230BC072
:102BD000623061F49FB7F8943881822F8095832307
:102BE0008883EC912E2B2C939FBF06C08FB7F8944F
:102BF000E8812E2B28838FBFDF91CF9108958F928C
:102C00009F92AF92BF92CF92DF92EF92FF926B01B1
:102C10007C010E94BE0F4B015C01C114D104E10490
:102C2000F104F1F00E94BE0FDC01CB018819990973
:102C3000AA09BB09883E9340A105B10570F321E0C4
:102C4000C21AD108E108F10888EE880E83E0981EC8
:102C5000A11CB11CC114D104E104F10419F7DDCFAA
:102C6000FF90EF90DF90CF90BF90AF909F908F90AC
:102C70000895CF92DF92EF92FF920F931F93CF931D
:102C8000DF936C017A018B01C0E0D0E0CE15DF0547
:102C900089F0D8016D918D01D601ED91FC910190E3
:102CA000F081E02DC6010995892B11F47E0102C047
:102CB0002196ECCFC701DF91CF911F910F91FF902B
:102CC000EF90DF90CF900895FC01918D828D981741
:102CD00061F0828DDF01A80FB11D5D968C91928D00
:102CE0009F5F9F73928F90E008958FEF9FEF0895FD
:102CF000FC01918D828D981731F0828DE80FF11DC6
:102D0000858D90E008958FEF9FEF0895FC01918DE0
:102D1000228D892F90E0805C9F4F821B91098F73D9
:102D2000992708958DE196E00E94861621E0892B6F
:102D300009F420E0822F0895FC01848DDF01A80FA3
:102D4000B11DA35ABF4F2C91848D90E001968F73D3
:102D50009927848FA689B7892C93A089B1898C91F2
:102D600080648C93938D848D981306C00288F389B8
:102D7000E02D80818F7D80830895EF92FF920F93E5
:102D80001F93CF93DF93EC0181E0888F9B8D8C8D17
:102D9000981305C0E889F989808185FD24C0F62E45
:102DA0000B8D10E00F5F1F4F0F731127E02E8C8DDE
:102DB000E8120CC00FB607FCFACFE889F9898081C8
:102DC00085FFF5CFCE010E949C16F1CF8B8DFE01C1
:102DD000E80FF11DE35AFF4FF0820B8FEA89FB8960
:102DE0008081806207C0EE89FF896083E889F98964
:102DF00080818064808381E090E0DF91CF911F919A
:102E00000F91FF90EF900895CF93DF93EC01888DA1
:102E10008823C9F0EA89FB89808185FD05C0A889DE
:102E2000B9898C9186FD0FC00FB607FCF5CF808164
:102E300085FFF2CFA889B9898C9185FFEDCFCE01AE
:102E40000E949C16E7CFDF91CF91089580E090E03B
:102E5000892B21F00E94921681110DC080E090E034
:102E6000892B71F080E090E0892B51F00E940000E6
:102E7000811104C008950E940000F0CF0C9400005E
:102E80000895CF93DF934770552766277727FA0178
:102E90003197EC01A881B981E730F10520F4E95AB6
:102EA000FF4F0C94A32F1496ED91FC91159761E0C0
:102EB00029C01496ED91FC91159765E023C01496F6
:102EC000ED91FC91159764E01DC01496ED91FC9175
:102ED000159766E017C01496ED91FC91159762E086
:102EE00011C01496ED91FC9115976AE00BC01496F1
:102EF000ED91FC91159768E005C01496ED91FC9159
:102F0000159769E0DF91CF910994CF93DF93EC019E
:102F1000CB01BA0126E030E040E050E00E94842F6F
:102F2000623071058105910559F18CF461157105C7
:102F300081059105F1F06130710581059105C1F5BB
:102F4000E881F9810480F581E02D65E02DC06430D1
:102F500071058105910511F1D4F065307105810588
:102F6000910531F5E881F9810480F581E02D66E075
:102F70001BC0E881F9810480F581E02D64E014C074
:102F8000E881F9810480F581E02D61E00DC0E881E0
:102F9000F9810480F581E02D63E006C0E881F981C4
:102FA0000480F581E02D62E0CE01DF91CF9109949C
:102FB000DF91CF9108954370552766277727DC016D
:102FC000ED91FC910480F581E02D423051056105C1
:102FD000710571F0433051056105710559F04130BB
:102FE00051056105710511F065E005C066E003C09B
:102FF0006AE001C069E00994CF93DF93EC01CB0153
:10300000BA0123E030E040E050E00E94842F6130BC
:1030100071058105910581F0623071058105910589
:1030200091F0672B682B692BC1F4E881F98104804A
:10303000F581E02D64E00DC0E881F9810480F5811F
:10304000E02D61E006C0E881F9810480F581E02D82
:1030500062E0CE01DF91CF910994DF91CF91089585
:103060004370552766277727DC01ED91FC9104809A
:10307000F581E02D423051056105710571F0433055
:1030800051056105710559F0413051056105710522
:1030900011F062E005C063E003C061E001C060E0E0
:1030A00009940F931F93CF93DF93EC01E881F9818B
:1030B0000480F581E02D8C010D5B1F4FD8018C91B0
:1030C000811102C060E001C062E0CE010995E88193
:1030D000F9810480F581E02DD8018C91811102C025
:1030E00061E001C063E0CE010995EBA5FCA5E230EB
:1030F000F10538F0EE0FFF1FEE0FFF1F35973197E8
:10310000F1F7E881F9810480F581E02DD8018C91F7
:10311000811102C060E001C062E0CE01DF91CF9179
:103120001F910F910994CF93DF93EC0120E030E0E1
:10313000A9016B897C898D899E890E94143118169A
:103140001CF4EFA5F8A902C0E9A9FAA9DF91CF9173
:1031500009940F931F93DC011296EC910E2F10E04F
:1031600009301105C0F5F801E25AFF4F0C94A32F66
:10317000DC01ED91FC910084F185E02D29C0DC019A
:10318000ED91FC910284F385E02D22C0DC01ED91EC
:10319000FC910484F585E02D1BC0DC01ED91FC91D0
:1031A0000684F785E02D14C0DC01ED91FC910088C8
:1031B000F189E02D0DC0DC01ED91FC910288F389CD
:1031C000E02D06C0DC01ED91FC910488F589E02D2D
:1031D0001F910F9109941F910F910895CF92DF9243
:1031E000EF92FF920F931F93CF93DF93FC01E35B6A
:1031F000FF4F20812223C1F0399700811181228164
:103200003381DC011B96CD90DD90ED90FC901E97F4
:103210000C191D092E093F09040F151F261F371F02
:103220000083118322833383FC01E45BFF4F208101
:103230002223C1F034970081118122813381EC0176
:103240008B859C85AD85BE8568017901C81AD90A30
:10325000EA0AFB0A4C0D5D1D6E1D7F1D40835183E4
:1032600062837383DF91CF911F910F91FF90EF9055
:10327000DF90CF900895FC01DC01A35BBF4F8C91E0
:10328000882399F019978D919D910D90BC91A02D57
:10329000478550896189728984179507A607B70702
:1032A00024F48787908BA18BB28BDF01A45BBF4F87
:1032B0008C91882399F014978D919D910D90BC91DC
:1032C000A02D4785508961897289481759076A0777
:1032D0007B0724F48787908BA18BB28B08950E9483
:1032E0007931CF93DF93FC012281222321F1EC017C
:1032F00061E083810E94C31561E08C810E94C31547
:103300008A81843011F0883041F461E08D810E941F
:10331000C31561E08E810E94C3158EA58F3F59F0C1
:1033200061E00E94C3156DA581E068278EA5DF913D
:10333000CF910C940215DF91CF910895CF93DF9335
:10334000FC012281222389F0EC010190F081E02D23
:103350000480F581E02D60E009958EA58F3F29F06E
:103360006DA5DF91CF910C940215DF91CF91089557
:10337000AF92BF92DF92EF92FF920F931F93CF9382
:10338000DF931F92CDB7DEB7FC012281243021F0FC
:10339000283011F022E001C024E05C01F7E0AF0E1C
:1033A000B11C00E010E0E62EF12CDD24D394C7011F
:1033B000002E02C0959587950A94E2F7F501608189
:1033C00080FD6D25F5013497808129830E940215C7
:1033D0000F5F1F4FFFEFAF1ABF0A2981021738F3A3
:1033E0000F90DF91CF911F910F91FF90EF90DF90A1
:1033F000BF90AF900895CF93DF93EC0160E08E8192
:103400000E94021561E08E810E94021560E08E81AB
:103410000E9402158BE891E00197F1F7DF91CF91BF
:1034200008956115710579F0FB0101900020E9F71D
:103430003197AF01461B570BDC01ED91FC910280E7
:10344000F381E02D099480E090E008950C94111A26
:103450001F920F920FB60F9211240BB60F922F935B
:103460003F934F935F936F937F938F939F93AF930C
:10347000BF93EF93FF938DE196E00E949C16FF911E
:10348000EF91BF91AF919F918F917F916F915F91DC
:103490004F913F912F910F900BBE0F900FBE0F9049
:1034A0001F9018951F920F920FB60F9211240BB612
:1034B0000F922F938F939F93EF93FF93E0912D069D
:1034C000F0912E068081E0913306F091340682FD62
:1034D00012C09081809136068F5F8F7320913706DE
:1034E000821751F0E0913606F0E0E35EF94F958FD8
:1034F0008093360601C08081FF91EF919F918F915B
:103500002F910F900BBE0F900FBE0F901F9018952C
:10351000AF92BF92CF92DF92EF92FF920F931F93E1
:10352000CF93DF935C017C0187E0E80EF11CC0E0E3
:10353000D0E0062F10E0670161E0F70181917F0183
:103540000E94C315B8010C2E02C0759567950A94A8
:10355000E2F76170F60180810E9402152196C43065
:10356000D10549F7C501DF91CF911F910F91FF90D0
:10357000EF90DF90CF90BF90AF900C94FB19AF927B
:10358000BF92CF92DF92EF92FF920F931F93CF9350
:10359000DF93EC01F62E642F8C810E9402158D8141
:1035A0008F3F19F060E00E9402158F850F2D10E00B
:1035B00084FF2DC05E0187E0A80EB11CE12CF12C28
:1035C000650161E0F50181915F010E94C315B801B9
:1035D0000E2C02C0759567950A94E2F76170F601AA
:1035E00080810E940215FFEFEF1AFF0A88E0E816BB
:1035F000F10431F7CE01DF91CF911F910F91FF9030
:10360000EF90DF90CF90BF90AF900C94FB19B80172
:1036100084E0759567958A95E1F7CE010E94881A36
:103620006F2DCE01DF91CF911F910F91FF90EF9001
:10363000DF90CF90BF90AF900C94881A41E00E9429
:10364000BF1A81E090E0089540E00C94BF1AFC019D
:1036500060896D7F608B68600C94241BCF93DF932F
:10366000CDB7DEB728970FB6F894DEBF0FBECDBF3B
:103670009C0188E0E5EBF2E0DE01119601900D92ED
:103680008A95E1F7F9018389481710F04FEF480F49
:10369000FE013196E40FF11DE40FF11D9081690FD9
:1036A0006068C90128960FB6F894DEBF0FBECDBF83
:1036B000DF91CF910C94241B2FB7F89460915A0797
:1036C00070915B0780915C0790915D072FBF089513
:1036D0001F920F920FB60F9211242F933F938F9347
:1036E0009F93AF93BF9380915A0790915B07A091EE
:1036F0005C07B0915D073091590723E0230F2D3708
:1037000020F40196A11DB11D05C026E8230F0296E5
:10371000A11DB11D2093590780935A0790935B0711
:10372000A0935C07B0935D078091190690911A06EB
:10373000A0911B06B0911C060196A11DB11D80939E
:10374000190690931A06A0931B06B0931C06BF910E
:10375000AF919F918F913F912F910F900FBE0F903E
:103760001F9018952F923F924F925F926F927F9287
:103770008F929F92AF92BF92CF92DF92EF92FF9281
:103780000F931F93CF93DF93CDB7DEB763970FB639
:10379000F894DEBF0FBECDBF6C014B012A01FC01C6
:1037A00017821682838181FF43C3AE014F5F5F4F53
:1037B0003A01F6019381F40193FD859193FF819184
:1037C0004F01882309F430C3853239F493FD859184
:1037D00093FF81914F01853239F4B60190E00E9448
:1037E000353352012501E5CF10E0F12C20E02032E5
:1037F000A0F48B3269F030F4803259F0833269F4EE
:1038000020612CC08D3239F0803339F4216026C01C
:103810002260246023C0286021C027FD27C030ED2E
:10382000380F3A3078F426FF06C0FAE01F9F300DBB
:103830001124132F13C04AE0F49E300D1124F32EEF
:1038400020620CC08E3221F426FDEEC2206406C038
:103850008C3611F4206802C0883641F4F40193FDDF
:10386000859193FF81914F018111C1CF9BEB980FFF
:10387000933018F42061805E06C09BE9980F933066
:1038800008F071C12F7E26FF16E02F73322E853689
:1038900019F42064322E08C0863621F4F22FF06825
:1038A0003F2E02C01111115037FE07C01C3350F4D7
:1038B000EE24E394E10E27E00BC0183038F027E047
:1038C00017E005C027E04CE3E42E02C0212FE12CD5
:1038D000520144E0A40EB11CF20160817181828129
:1038E00093810E2DA3010E94B5312C01098100FFA7
:1038F00002C003FF07C031FC08C032FE09C030E23D
:10390000232E07C02DE2222E04C09BE2292E01C0E7
:10391000212C802F8C7019F0211068C2A8C237FEAC
:103920000FC0E40C04FF04C08A81813309F4EA94D7
:103930001E1474F5F8E0FE1578F588E0E82E2CC02A
:1039400036FC2AC0812F90E0841595059CF02CEF61
:1039500042162FEF520674F0432D4068342E0AC0F1
:10396000E2E0F0E0EC0FFD1FE10FF11D80818033FC
:1039700019F411501111F4CF37FE0EC0EE24E39468
:10398000E10E812F90E0481659062CF4141904C05A
:10399000EE24E39401C010E037FE06C014141504B1
:1039A00034F4C201019605C085E090E002C081E0D8
:1039B00090E021100196112331F0212F30E02F5F8C
:1039C0003F4F820F931F2F2D30E08217930714F47F
:1039D000F81A01C0F12C832D897049F4FF2039F0C9
:1039E000B60180E290E00E943533FA94F7CF2220AE
:1039F00029F0B601822D90E00E94353333FC09C0D6
:103A0000FF2039F0B60180E390E00E943533FA944C
:103A1000F7CF37FE5AC0942D852D57FE02C090E097
:103A200080E0292E382E20E030E0A2014E19510905
:103A30005D874C87A201421953095F874E87612F2A
:103A400070E044275527461B570B598B488B5FEF77
:103A50002516350649F4B6018EE290E02A8B3B8BA1
:103A60000E9435333B892A89421453046CF04C85FB
:103A70005D854215530544F4EE85FF85E20FF31F83
:103A8000E60DF71D818101C080E351E0251A310860
:103A90002F5F3F4F48895989241635064CF0B601EF
:103AA00090E02A8B3B8B0E9435332A893B89CFCF0C
:103AB0002414350439F49A81963318F4953311F4AB
:103AC00004FF81E3B60190E04BC08A81813309F0A5
:103AD0000F7EB60190E00E943533111105C034FC11
:103AE00018C085E690E017C0B6018EE290E00E9413
:103AF000353382E0EE24E394E80EF301E80FF11D84
:103B00008081B60190E00E94353311508E2D91F7DF
:103B1000E6CF85E490E0B6010E94353357FC05C03E
:103B20004114510439F404FF05C0519441945108E3
:103B30008DE201C08BE2B60190E00E94353380E354
:103B40009AE0491651042CF08F5F5AE0451A51084B
:103B5000F7CFB60190E00E943533B601C201C0969E
:103B60000E94353357C1833631F0833779F083357E
:103B700009F058C021C05201E2E0AE0EB11CF201C2
:103B80008081898301E010E0230114C05201F2E03A
:103B9000AF0EB11CF2014080518026FF03C0612F9F
:103BA00070E002C06FEF7FEFC2012A8B0E94EC32FF
:103BB0008C012A892F7715C05201F2E0AF0EB11C9B
:103BC000F2014080518026FF03C0612F70E002C0E7
:103BD0006FEF7FEFC2012A8B0E94CD328C012A89C0
:103BE0002068322E23FD1AC08F2D90E00817190788
:103BF000A8F4B60180E290E00E943533FA94F4CF45
:103C0000F20137FC859137FE81912F01B60190E0DA
:103C10000E943533F110FA94015011090115110574
:103C200079F7F8C0843611F0893659F5520127FF2B
:103C300009C0F4E0AF0EB11CF20160817181828194
:103C400093810AC0F2E0AF0EB11CF2016081718174
:103C5000072E000C880B990B2F76322E97FF09C088
:103C600090958095709561957F4F8F4F9F4F2068FD
:103C7000322E2AE030E0A3010E948633E82EE618B7
:103C80003FC0022F853721F40F7E2AE030E01DC0AF
:103C9000097F8F3691F018F4883559F0C5C0803708
:103CA00019F0883711F0C0C0006104FF09C004603A
:103CB00007C024FF08C0066006C028E030E005C049
:103CC00020E130E002C020E132E0520107FF09C0EC
:103CD000F4E0AF0EB11CF2016081718182819381A9
:103CE00008C0F2E0AF0EB11CF2016081718180E08A
:103CF00090E0A3010E948633E82EE6180F77302E5D
:103D000036FE0BC0332D3E7FE11650F434FE0AC060
:103D100032FC08C0332D3E7E05C00E2D332D03C06E
:103D20000E2D01C0012F34FF0CC0FE01EE0DF11D60
:103D30008081803311F4397E08C032FF05C00E5FE8
:103D400004C0832F867809F00F5F33FD13C030FF66
:103D500006C01E2D0F1518F41F0D101B0F2D0F156B
:103D600068F4B60180E290E03B8B0E9435330F5F30
:103D70003B89F5CF0F1510F4F01A01C0F12C34FF78
:103D800012C0B60180E390E03B8B0E9435333B8943
:103D900032FF17C031FD03C088E790E002C088E51C
:103DA00090E0B6010CC0832F867859F031FF02C035
:103DB0008BE201C080E237FD8DE2B60190E00E9407
:103DC0003533E11638F4B60180E390E00E943533D4
:103DD0001150F7CFEA94F301EE0DF11D8081B60189
:103DE00090E00E943533E110F5CF14C0F4E0FF15E8
:103DF00058F584E0F81A33FE1EC0211026C003FFD8
:103E00002AC00EEC10E0F32DF0713F2EF8018491E2
:103E1000811124C0FF2009F4E5CCB60180E290E0D6
:103E20000E943533FA94F6CFF6018681978126C039
:103E30008FEF9FEF23C0B60180E290E00E94353300
:103E4000FA94F110F8CFD9CFF12CB601822D90E081
:103E50000E943533D4CF02ED10E0D5CF311080521F
:103E6000B60190E00E9435330F5F1F4FCFCF23E0A4
:103E70002F1510F483E0BECFF12CC1CF63960FB69F
:103E8000F894DEBF0FBECDBFDF91CF911F910F9190
:103E9000FF90EF90DF90CF90BF90AF909F908F906A
:103EA0007F906F905F904F903F902F90089520FDEE
:103EB00009C0FC0123FD05C022FF02C07383628399
:103EC00051834083089544FD10C046FD10C0DB01BE
:103ED000FC01AA0FBB1FEE1FFF1F1094D1F76A0F42
:103EE0007B1F8E1F9F1F31E003C033E001C034E011
:103EF000660F771F881F991F3150D1F7620F711D10
:103F0000811D911D08950F931F93CF93DF938C0113
:103F1000C8010E94F732EC0197FD08C00E948D3263
:103F2000892BB1F7B801CE010E946D33CE01DF912C
:103F3000CF911F910F9108958F929F92AF92BF9250
:103F4000CF92DF92EF92FF920F931F93CF93DF9365
:103F50007C018B016A01D22F0E94F7329C0133272A
:103F60002B32310521F02D32310559F4D068015042
:103F7000110911F480E069C0C7010E94F73297FD72
:103F8000F9CFCD2FCD7F2D2F207309F58033F9F494
:103F9000580181E0A81AB10809F443C0C7010E9482
:103FA000F73297FD3EC0282F2F7D283551F4C2648B
:103FB00002501109B1F1C7010E94F73297FF07C003
:103FC00030C0D6FF02C0C26001C0C2618501812C31
:103FD000912C540120ED280F283080F0C4FF04C03C
:103FE000B7010E946D331AC02A3040F0C6FFF8CFE7
:103FF0002F7D3FEE320F363098F727504C2FC501FA
:10400000B4010E94631F4B015C01C26001501109A1
:1040100059F0C7010E94F73297FFDCCFC1FD04C001
:10402000A9CF812C912C5401C7FF08C0B094A09453
:1040300090948094811C911CA11CB11C2C2FB50163
:10404000A401C6010E94571F81E0DF91CF911F910B
:104050000F91FF90EF90DF90CF90BF90AF909F9027
:104060008F9008954F925F926F927F928F929F925E
:10407000AF92BF92CF92DF92EF92FF920F931F9376
:10408000CF93DF93CDB7DEB7A0970FB6F894DEBF1E
:104090000FBECDBF4C015B017A018E010F5F1F4F38
:1040A000680180E2F80111928A95E9F7F4016380D2
:1040B00040E050E0712C412C80E0A1E0B0E0F9013B
:1040C00063FC559063FE51908F01952D9F01511017
:1040D00003C080E090E080C0FEE55F1203C04115A0
:1040E000510561F1682F70E0641775074CF46DE5B8
:1040F000561669F1EDE25E1203C0442009F103C0D7
:10410000411001C0752C692F669566956695F6017C
:10411000E60FF11D692F67708D0102C0000F111F9E
:104120006A95E2F7B8017081672B6083971559F0A3
:10413000971510F49F5FE7CF9150E5CF81E004C061
:104140004424439401C0412C4F5F5F4FB8CF4420BB
:1041500019F09E8190629E83811103C0772473942D
:1041600018C0F6019E012F5D3F4F8081809581939D
:10417000E217F307D1F7F2CFE114F10429F0F701C8
:104180008083C70101967C0191E0A91AB108712CC6
:10419000E9F0C4010E94F73297FD16C0282F26953A
:1041A00026952695F601E20FF11D208130E0AC0145
:1041B0004770552702C0359527954A95E2F720FDAF
:1041C000DBCFB4010E946D33711083CFE114F10491
:1041D00011F0F7011082C801A0960FB6F894DEBF67
:1041E0000FBECDBFDF91CF911F910F91FF90EF9048
:1041F000DF90CF90BF90AF909F908F907F906F9007
:104200005F904F9008952F923F924F925F926F92DE
:104210007F928F929F92AF92BF92CF92DF92EF9256
:10422000FF920F931F93CF93DF9300D000D000D065
:10423000CDB7DEB75C017B011A010E94F7329E8385
:104240008D8399278B32910521F08D9789F410E8A1
:1042500001C010E021E0E21AF10811F480E02CC165
:10426000C5010E94F7329E838D8397FF02C0F6CF6F
:1042700010E08D819E810E9496328936910549F029
:104280008E36910509F03BC068EE862E60E0962ED2
:1042900004C07BEE872E70E0972EEFEF8E1A9E0AF9
:1042A000F401319704910023C9F081E0E81AF10884
:1042B00071F0C5010E94F7326C0197FD08C00E94A1
:1042C0009632081751F3B501C6010E946D339EEE78
:1042D000891690E0990609F0C1CF05C0FBEE8F1654
:1042E000F0E09F0629F080E090E0A0E8BFE704C07E
:1042F00080E090E0A0ECBFE7BC01CD01CDC0412C37
:10430000512C3201C12CD12C2D8120532A3018F58B
:10431000012F0260812F887012FF06C0811121C019
:104320002FEFC21AD20A1DC0882319F081E0C81AE3
:10433000D10840E2C301B2010E94631F2B013C017E
:1043400098E9491699E95906690699E1790648F00C
:10435000012F066006C02E3F91F413FD10C0012FFF
:104360000860E1E0EE1AF10849F0C5010E94F73259
:104370009E838D83102F97FFC7CF01C0102F11FF91
:104380006DCF8D818F7D853409F04EC04701F1E0FE
:104390008F1A910809F462CFC5010E94F7329E83FB
:1043A0008D8397FD5BCF99278B32910519F08D97FF
:1043B00061F41061470122E0821A910809F44ECF9E
:1043C000C5010E94F7329E838D838D819E81C097A7
:1043D0000A9708F043CF7401812C912CB401990CF9
:1043E000880B990B2D81205340E20E94631FAB0183
:1043F000BC014A0181E0E81AF10871F0C501498366
:104400005A836B837C830E94F7329E838D83C0978F
:1044100049815A810A9710F314FF04C08824992413
:10442000841A950AC80CD91CEF2841F0ED81FE8151
:10443000F7FD04C0B501CF010E946D33C301B20185
:104440000E94C223D7FE08C0D194C194D10857E07E
:10445000852E51E0952E04C04FE1842E41E0942E2C
:104460005401F8E1AF1AB10830E2E32EF12CCE147A
:10447000DF0450F0F40125913591459154910E944B
:10448000FF23CE18DF08F3CF24E0821A9108F694B8
:10449000E7948A149B0459F717FF05C0DC01CB0190
:1044A000B058BC01CD012114310429F0F101608321
:1044B00071838283938381E026960FB6F894DEBFE2
:1044C0000FBECDBFDF91CF911F910F91FF90EF9065
:1044D000DF90CF90BF90AF909F908F907F906F9024
:1044E0005F904F903F902F9008954F925F926F9200
:1044F0007F928F929F92AF92BF92CF92DF92EF9274
:10450000FF920F931F93CF93DF931F92CDB7DEB728
:104510006C012B014A01FC0117821682A12CF601C5
:10452000F380F201F3FC8591F3FE8191482F2F0176
:10453000882309F410C190E049830E948D3249819B
:10454000892B21F0C6010E94831FE9CF453241F437
:10455000F201F3FC4591F3FE41912F01453269F4DC
:10456000C60149830E94F732498197FDF2C048177E
:10457000B1F2B6010E946D33EEC04A3239F4F3FC59
:104580004591F3FE41912F0151E001C050E032010D
:1045900000E010E020ED240F2A3088F45260B801CA
:1045A00080E090E040E259830E94631F8B01F30199
:1045B000F3FC4591F3FE41913F015981EBCFB52EBC
:1045C000342F230151FF04C00115110519F4C3C094
:1045D0000FEF1FEF483619F04C3659F013C0F301B6
:1045E000F3FC3591F3FE31912F01383659F45860C0
:1045F000B52EFB2DF460BF2EF201F3FC3591F3FED6
:1046000031912F01332309F4A6C0632F70E086EDAA
:1046100090E039830E949E323981892B09F49BC036
:10462000B0FC07C0F401E080F180C40102964C01A7
:1046300002C0E12CF12C3E3651F4F601468157813F
:1046400060E070E02B2DC7010E94571F68CF333602
:10465000A9F4B1FC02C001E010E0C6010E94F732EB
:1046600097FD77C0E114F10429F0F7018083C701B9
:1046700001967C010150110981F767C03B3559F45F
:104680009201A701B801C6010E9432202C01892B9A
:1046900009F05BC055C0C60139830E94831F398170
:1046A00097FD57C03F36D9F140F43436A1F1393681
:1046B000C9F1383509F03DC02AC03337A1F018F4EC
:1046C000303729F136C0353731F1383701F131C093
:1046D000E114F10429F0F7016082C70101967C0121
:1046E0000150110971F0C6010E94F7323C0197FD9B
:1046F00008C00E948D32892B59F3B601C3010E9474
:104700006D33E114F10409F1F70110821EC0FB2D95
:10471000F064BF2E07C08B2D8062B82E03C09B2D86
:104720009061B92E2B2DA701B801C6010E949C1FD4
:1047300005C0A701B801C6010E940321811105C06F
:10474000F6018381807329F406C0B0FCE8CEA394FF
:10475000E6CEAA2019F08A2D90E002C08FEF9FEFDD
:104760000F90DF91CF911F910F91FF90EF90DF900D
:10477000CF90BF90AF909F908F907F906F905F9001
:104780004F900895E89409C097FB3EF4909580956A
:10479000709561957F4F8F4F9F4F9923A9F0F92F07
:1047A00096E9BB279395F695879577956795B79585
:1047B000F111F8CFFAF4BB0F11F460FF1BC06F5F6B
:1047C0007F4F8F4F9F4F16C0882311F096E911C07D
:1047D000772321F09EE8872F762F05C0662371F09E
:1047E00096E8862F70E060E02AF09A95660F771FB2
:1047F000881FDAF7880F9695879597F908950E9494
:1048000012240C9483240E94752438F00E947C2486
:1048100020F0952311F00C946C240C947224112434
:104820000C94B7240E94942470F3959FC1F3950FC4
:1048300050E0551F629FF001729FBB27F00DB11D24
:10484000639FAA27F00DB11DAA1F649F6627B00DB4
:10485000A11D661F829F2227B00DA11D621F739F9D
:10486000B00DA11D621F839FA00D611D221F749FAB
:104870003327A00D611D231F849F600D211D822FF2
:10488000762F6A2F11249F5750409AF0F1F0882319
:104890004AF0EE0FFF1FBB1F661F771F881F915046
:1048A0005040A9F79E3F510580F00C946C240C9465
:1048B000B7245F3FE4F3983ED4F3869577956795E8
:1048C000B795F795E7959F5FC1F7FE2B880F911D70
:1048D0009695879597F9089597F99F6780E870E016
:1048E00060E008959FEF80EC089500240A94161666
:1048F000170618060906089500240A9412161306CE
:10490000140605060895092E0394000C11F488235B
:1049100052F0BB0F40F4BF2B11F460FF04C06F5F77
:104920007F4F8F4F9F4F089557FD9058440F551F4D
:1049300059F05F3F71F04795880F97FB991F61F021
:104940009F3F79F087950895121613061406551F98
:10495000F2CF4695F1DF08C0161617061806991F04
:10496000F1CF86957105610508940895E894BB27F9
:1049700066277727CB0197F90895CF93DF93CDB7BB
:10498000DEB7C65AD1090FB6F894DEBF0FBECDBF51
:10499000789484B5826084BD84B5816084BD85B51A
:1049A000826085BD85B5816085BD80916E00816026
:1049B00080936E00109281008091810082608093CC
:1049C00081008091810081608093810080918000CE
:1049D0008160809380008091B10084608093B100F9
:1049E0008091B00081608093B000809191008260DE
:1049F00080939100809191008160809391008091DB
:104A0000900081608093900080917A008460809310
:104A10007A0080917A00826080937A0080917A0097
:104A2000816080937A0080917A00806880937A0018
:104A30001092C100E0912D06F0912E0682E0808355
:104A4000E0912906F0912A061082E0912B06F09160
:104A50002C0680E1808310923506E0913106F091BA
:104A6000320686E08083E0912F06F0913006808147
:104A700080618083E0912F06F0913006808188600C
:104A80008083E0912F06F0913006808180688083DA
:104A9000E0912F06F091300680818F7D80838FEF2B
:104AA0009FE790935407809353074FEF5FE760E0D1
:104AB00070E08DE196E00E94E01264ED72E08DE11D
:104AC00096E00E94111A61E088E00E94C31561E03F
:104AD00089E00E94C31561E084E00E94C31561E093
:104AE00085E00E94C31561E086E00E94C31561E085
:104AF00087E00E94C31561E08BE00E94C31561E06E
:104B00008CE00E94C31561E08DE00E94C315E09027
:104B10005107F090520780E090E0A0E0B0E4C25767
:104B2000DF4F88839983AA83BB83CE58D040C701C7
:104B300004960E944912882341F14EE8842E912C5C
:104B40008C0E9D1E24E0820E911C8E0102571F4F79
:104B5000C12CD12CE01AF10A5701A00EB11EC501DB
:104B60000E948712D8016D918D01861731F0C50121
:104B70000E946B12BFEFCB1ADB0A0815190561F70B
:104B8000CD2819F08AE593E002C085E793E00E9402
:104B9000E30F8E010D5C1F4F64E973E0C8010E94B2
:104BA0007E31C0905107D09052078090F6059090CA
:104BB000F705A090F805B090F905A5019401C5018D
:104BC000B4010E945F31FE0131967F01811109C05D
:104BD00020E030E0A901C501B4010E9443308111F9
:104BE00032C0C6010496813092400CF42AC786EF89
:104BF00092E00E94E30F70E060E090E080E0272FF9
:104C0000362F492F582FC901DA018093F60590936A
:104C1000F705A093F805B093F9055F934F936F9351
:104C20007F931F930F9387EA93E09F938F93FF9255
:104C3000EF920E948531C7010E94E30F0FB6F894EE
:104C4000DEBF0FBECDBF60E971E080914F0790914C
:104C500050070E949512882319F081EB93E002C05F
:104C60008FEC93E00E94E30F61EF73E0C8010E94B4
:104C70007E3160914F0770915007A80184EF95E055
:104C80000E94390F67E074E0C8010E947E31609194
:104C90004D0770914E07A80180E196E00E94390F00
:104CA00060E274E0C8010E947E3160914B07709110
:104CB0004C07A80182E196E00E94390F6CE374E092
:104CC000C8010E947E316091490770914A07A8018E
:104CD00080EF95E00E94CB0E6FE574E0C8010E9462
:104CE0007E316091470770914807A8018AE096E0FD
:104CF0000E94CB0E69E774E0C8010E947E3160918A
:104D0000450770914607A80186E096E00E94CB0E09
:104D100082E994E00E94E30F609143077091440799
:104D200048E650E088E491E00E94E73386EA94E0A8
:104D30000E94E30F23EEA22E21E0B22E08E411E040
:104D40003DEBC32E34E0D32ED8019C9111962C91CB
:104D5000119712963C91129713964C910C5F1F4F2E
:104D6000F50181915F014F933F932F939F93282FDC
:104D7000082E000C330B3F938F93DF92CF92FF925C
:104D8000EF920E948531C7010E94E30F0FB6F8949D
:104D9000DEBF0FBECDBF31E0003B1307A9F60E9476
:104DA000320C80910A0690910B06A0910C06B091EE
:104DB0000D068093FE069093FF06A0930007B09324
:104DC000010781E08093070740910606509107068E
:104DD00060910806709109064093020750930307FB
:104DE00060930407709305078093060762E088E0EC
:104DF00097E00E94571560911807862F8460809372
:104E000018076C6088E097E00E94241B88E097E018
:104E10000E94AF0384E690E09093250180932401E3
:104E200022E330E0309323012093220124EF31E08C
:104E3000309321012093200190931F0180931E0144
:104E400088E097E0909305068093040682E491E061
:104E5000909303068093020686E291E09093010608
:104E60008093000680E190E09093FF058093FE051B
:104E700082E090E09093FD058093FC058EE780939F
:104E8000FB0585EA8093FA0598EDC92E91E0D92EAD
:104E900000E010E04E0189E0880E911CF60165915A
:104EA0007491C7010E94A9326090040670900506B3
:104EB000B80183E0660F771F8A95E1F76064C3014C
:104EC0000E94241B5701D5016D915D01D301ED9125
:104ED000FC910190F081E02DC3010995A814B9045B
:104EE00091F70F5F1F4FB2E0CB0ED11C08301105B8
:104EF000A9F6109214061E0195E6290E311C82EFC8
:104F000091E0D10111969C938E9313961C921E9260
:104F1000129781E090E017969C938E9316978FE0FE
:104F200050968C93509781E01A968C931A971B9603
:104F30008C931B971C961C921C979CE01D969C932F
:104F40001D971E961C921E971F968C931F978DE29D
:104F500090E052969C938E935197FE0131966F018B
:104F60009E0126583F4FCE56DF4F39832883C259C2
:104F7000D040CF0182569740CB55DF4F998388832D
:104F8000C55AD04088E097E00E94AF0385EC94E0DA
:104F90000E94520AC1010E941A04A9968EAD9FADCB
:104FA000A9970097B1F1019769F788EE91E09CAB62
:104FB0008BAB1EAA1DAA84E090E09AAF89AF8FE068
:104FC00024968FAF249781E08DAF8EAF1FAE9CE00B
:104FD00021969FAF219722961FAE229723968FAFDF
:104FE00023978DE290E026969FAF8EAF269780E1C3
:104FF000682E86E0782E90ECE92E92E1F92E22E1DF
:10500000A22E26E0B22E3AE0832E912C06E915E07E
:105010001EC40E947E146091C5067091C6068091E0
:10502000C7069091C8060E9425120E94000B88E0D6
:1050300097E00E94AF030E942B0BE12CF12C00E0C3
:1050400010E0CC56DF4F1882C459D0400E94E213C2
:105050000E942B0BCC56DF4FE881C459D040EE2381
:1050600009F443C04091C9065091CA066091CB062D
:105070007091CC068091C5069091C606A091C70696
:10508000B091C806481759076A077B0749F40E9480
:10509000000B0E942B0BCC56DF4F1882C459D04016
:1050A0000E945C1B8090150690901606A090170633
:1050B000B0901806DC01CB0188199909AA09BB092F
:1050C000893C9105A105B105A8F081E090E00E941E
:1050D000B7038C010E945C1B609315067093160643
:1050E000809317069093180605C082E390E00E9413
:1050F000B7038C010634110509F4C6C1ECF4033082
:10510000110509F442C05CF40130110509F49BC09B
:105110000230110509F09ACF82E090E096C0063087
:10512000110509F42FCF0334110509F491C004309F
:10513000110509F08BCF57C00E34110509F4F1C0E9
:105140004CF40734110509F40FC20D34110509F4AC
:1051500041C17CCF0435110509F480C20A3511051F
:1051600009F496C00335110509F070CF0E947E1432
:105170006091C5067091C6068091C7069091C806D9
:105180000E9425120E94000B5CCF8091290783307A
:1051900009F05CCF80910607882351F08FEC94E0F2
:1051A0000E949C07019709F0DAC110920607D7C147
:1051B00086EE94E00E949C07019709F0D0C180918F
:1051C000C5069091C606A091C706B091C806809307
:1051D000020790930307A0930407B0930507F1E03B
:1051E000F09306072DC080912907833009F02ECF58
:1051F00080910707882351F08DEF94E00E949C076F
:10520000019709F0ACC110920707A9C184E195E0AC
:105210000E949C07019709F0A2C18091C506909158
:10522000C606A091C706B091C8068093FE0690936B
:10523000FF06A0930007B093010721E02093070722
:105240000E94960E8CC181E090E00E94EC0CFECE94
:1052500080910707882389F06091FE067091FF0610
:1052600080910007909101070E94251231E0CC56F1
:10527000DF4F3883C459D040E9CE41E060E088E098
:1052800097E00E942E1B8BE295E00E94520ADECE30
:10529000A0903C07B12CC5010197039748F480E327
:1052A00097E00E945F0280913C077501A82EF2CF23
:1052B00082E0E816F10489F193E0E916F10409F0BF
:1052C000C5CE40E050E0BA018AEB96E00E94EE18AD
:1052D0001092C5061092C6061092C7061092C80614
:1052E0001092C9061092CA061092CB061092CC06F4
:1052F0001092ED061092EE061092EF061092F00654
:105300001092DD061092DE061092DF061092E00683
:105310000E94960E0E94000BD8C160E070E0CB01A5
:1053200094C180910E0690910F068931910531F05C
:10533000019690930F0680930E0604C010920F06FC
:1053400010920E06A0903C07B12CC501019703975F
:1053500048F480E397E00E945F0280913C0775016A
:10536000A82EF2CFB3E0EB16F10409F0AEC1E09144
:105370000E06F0910F06EE0FFF1FEE0FFF1FE85B0A
:10538000FE4F80809180A280B380EE968CAE9DAE61
:10539000AEAEBFAEEE9720E03CE34CE156ECC5016B
:1053A000B4010E944330882309F48FC1AE014D5CE3
:1053B0005F4FC501B4010E94A00A6BA97CA98DA909
:1053C0009EA90E942512E1E0CC56DF4FE883C45924
:1053D000D0407BC180910E0690910F06009731F06E
:1053E000019790930F0680930E0606C029E130E0E6
:1053F00030930F0620930E06A0903C07B12CC501F8
:105400000197039748F480E397E00E945F02809140
:105410003C077501A82EF2CF33E0E316F10409F042
:1054200054C1E0910E06F0910F06EE0FFF1FEE0F34
:10543000FF1FE85BFE4F80809180A280B380EE96D4
:105440008CAE9DAEAEAEBFAEEE9720E03CE34CE13D
:1054500056ECC501B4010E944330882309F435C1DC
:10546000AE014D5C5F4FC501B4010E94A00A6BA95B
:105470007CA98DA99EA90E94251281E0CC56DF4F00
:105480008883C459D04021C184E395E00E949C07E1
:10549000019709F064C08AE495E00E94E30FA090B0
:1054A0004307B0904407C50188599F4F0E94491295
:1054B000882361F06DEF71E0C5010E94B1131816E9
:1054C000190624F48DE595E00E94E30F82E994E04B
:1054D0000E94E30F609143077091440748E650E053
:1054E00088E491E00E94E73386EA94E00E94E30FAB
:1054F00073EEA72E71E0B72EE8E48E2EE1E09E2E2B
:10550000D4019C9111962C91119712963C9112976F
:1055100013964C91B4E08B0E911CF50181915F01C3
:105520004F933F932F939F93282F082E000C330BFC
:105530003F938F93ADEBB4E0BF93AF93DF92CF92E5
:105540000E948531C6010E94E30F0FB6F894DEBFBA
:105550000FBECDBF30EB831631E0930689F688E0AD
:1055600097E00E94AF03B1C0A0903C07B12C9E2DE4
:105570008F2D9501215031092330310558F480E3F6
:1055800097E00E945F0220913C079A2D8B2DA22E5E
:10559000B12CEFCFE92EF82E82E0E816F10459F194
:1055A00093E0E916F10409F051CD6091C5067091C0
:1055B000C6068091C7069091C8066BAB7CAB8DABDD
:1055C0009EABAE0146585F4F0E94D00AE0910E0696
:1055D000F0910F06EE0FFF1FEE0FFF1FE85BFE4F6F
:1055E000EE968CAD9DADAEADBFADEE978083918351
:1055F000A283B38368C0E0910E06F0910F06EE0F10
:10560000FF1FEE0FFF1FE85BFE4F80809180A2809E
:10561000B380EE968CAE9DAEAEAEBFAEEE9720E000
:105620003CE34CE156ECC501B4010E9443308823B1
:1056300009F40CCDAE014D5C5F4FC501B4010E9471
:10564000A00A6BA97CA98DA99EA90E942512A1E0A0
:10565000CC56DF4FA883C459D040F8CC6091C50622
:105660007091C6068091C7069091C806A6010E9457
:10567000D00A49805A806B807C802DEC3CEC4CE455
:105680005EE3C301B2010E94143118166CF48DEC74
:105690009CECACE4BEE3C956DF4F88839983AA83B0
:1056A000BB83C759D04008C0C956DF4F1882198242
:1056B0001A821B82C759D04080900E0690900F0628
:1056C0008114910429F40E949C0F0E942B0BBECCE4
:1056D00020E030E0A901C956DF4F688179818A81D5
:1056E0009B81C759D0400E941431181664F75401A9
:1056F000C401880F991F880F991FDC01A85BBE4F5A
:10570000CB56DF4FB983A883C559D040F4013197F8
:10571000C556DF4FF983E883CB59D040CF01A0E0D5
:10572000B0E0CF55DF4F88839983AA83BB83C15AEA
:10573000D040B7FCC8CFA814B90459F4CB56DF4FFA
:10574000E881F981C559D0404082518262827382DA
:1057500062C0C556DF4F28813981CB59D040A2168F
:10576000B306C1F4C956DF4F288139814A815B8174
:10577000C759D040C301B2010E94D62FCB56DF4F8C
:10578000A881B981C559D0406D937D938D939C9329
:10579000139741C0A114B10449F41092480110922A
:1057A000490110924A0110924B0135C0B5010B2CF2
:1057B000000C880B990B0E94C423C356DF4F6883EB
:1057C00079838A839B83CD59D040CF55DF4F688141
:1057D00079818A819B81C15AD0400E94C2239B015A
:1057E000AC01C301B2010E9448309B01AC01C35619
:1057F000DF4F688179818A819B81CD59D0400E9499
:10580000FF23CB56DF4FE881F981C559D040608333
:10581000718382839383F1E0AF1AB108CB56DF4FD7
:1058200028813981C559D04024503109CB56DF4FEA
:1058300039832883C559D0407CCF83309105CCF083
:105840008330910509F4E2C0049709F49BCB88E00A
:1058500097E00E94AF0383E795E00E94520ACE01D1
:10586000C3960E941A048DA99EA98230910529F73A
:1058700087C0009709F44BC0019749F7BA82A98203
:105880001C821B82809110069091110698878F834D
:105890009C868B86A7E0AF8781E0888B84E0898B2C
:1058A0001B8A1A8A88E097E00E94AF038091110654
:1058B0008F93809110068F931F930F93CD56DF4FD8
:1058C000B881C359D040BF93CE56DF4FE881C2594B
:1058D000D040EF930E948531BE0166587F4F88E02B
:1058E00097E00E94261AC6010E949A08609112064B
:1058F0007091130680914B0790914C070E9495126E
:105900000F900F900F900F900F900F9029C07A82F8
:1059100069821C821B82F886EF8284E690E09C8775
:105920008B8797E09F8781E0888B84E0898B1B8A37
:105930001A8A88E097E00E94AF036EE775E088E07E
:1059400097E00E94261AC6010E949A0860911006EC
:105950007091110680914D0790914E070E9495120B
:10596000882309F474CF88E097E00E94AF038FE8A2
:1059700095E00E94520A0E94320C88EE93E043C0E8
:1059800088E097E00E94AF0384EA95E00E94520A03
:1059900041E067E088E097E00E942E1B80915E075F
:1059A00090915F07009749F4CB55DF4F28813981EB
:1059B000C55AD0403A8329831AC0A601481B590B07
:1059C000E0916007F091610780E090E0309759F036
:1059D0009C012E5F3F4F80819181820F931F028037
:1059E000F381E02DF3CF840F951F9A83898349813A
:1059F0005A81052E000C660B770B88E097E00E9419
:105A0000E01288EB9BE00E94B70321CF80EB95E08A
:105A10000E949C07019709F01ACF412C512C64E693
:105A200070E080E090E00E94FF1560E0C2010E94FB
:105A30006B123FEF431A530A411482E0580679F77C
:105A400006CF44E050E0B601C7010E94E7337981F8
:105A50006A819B818C81D3C8CF93DF9310922006FB
:105A600010921F0688EE93E0A0E0B0E0809321063C
:105A700090932206A0932306B09324068BE692E02F
:105A800090931E0680931D0685EC90E090932A0665
:105A90008093290684EC90E090932C0680932B064B
:105AA00080EC90E090932E0680932D0681EC90E0A0
:105AB0009093300680932F0682EC90E0909332060C
:105AC0008093310686EC90E0909334068093330601
:105AD0001092360610923706109238061092390648
