:100000000C9485010C94AD010C94AD010C94AD01E0
:100010000C94AD010C94AD010C94AD010C94AD01A8
:100020000C94AD010C94AD010C94AD010C94AD0198
:100030000C94AD010C94AD010C94AD010C94AD0188
:100040000C94401A0C94AD010C946F130C9449134A
:100050000C94AD010C94AD010C94AD010C94AD0168
:100060000C94AD010C94AD01600563057505850523
:100070009405A805B1053D0F430F490F4F0F550FCC
:100080005B0F610F9C10A310AA10B110B810CF1015
:10009000BF10CF10C6106E616E00696E660063649B
:1000A000696E6F70737578585B6566674546470083
:1000B000616E006E66696E69747900CDCCCC3D0AC4
:1000C000D7233C17B7D13877CC2B329595E6241F30
:1000D000B14F0A000020410000C84200401C4620E9
:1000E000BCBE4CCA1B0E5AAEC59D743E5945533C0E
:1000F000204E4F200020594553203E4E4F3C00F5E6
:1001000000EB000704001C101D020500080C0A0982
:10011000091A1800001F1F1F1F401F0E0400404037
:100120004040401F0E0400404040401F1F1F1F0062
:100130001F1F1F1F4040404000040E1F4040404012
:100140004000040E1F401F1F1F1F005265746F7573
:1001500072206D656E7500466F726D617420454545
:1001600050524F4D004D656D6F6972652064697323
:10017000706F00416363656C2E206D6F74657572DE
:100180000056697465737365206D6F7465757200D0
:10019000506172616D6574726167650052756E00C1
:1001A00042013901300127011E0115010C01030133
:1001B00081017301650157014B019C019001000011
:1001C0000000240027002A0000000000250028006D
:1001D0002B000404040404040404020202020202C8
:1001E00003030303030301020408102040800102FB
:1001F000040810200102040810200000000800027A
:10020000010000030407000000000000000000409F
:100210007A10F35A00A0724E18090010A5D4E80015
:1002200000E87648170000E40B54020000CA9A3B2D
:10023000000000E1F50500008096980000004042B3
:100240000F000000A0860100000010270000000041
:10025000E803000000006400000000000A00000045
:1002600000000100000000002C76D888DC674F08F1
:1002700023DFC1DFAE59E1B1B796E5E3E453C63AF7
:10028000E651997696E8E6C28426EB898C9B62ED6E
:10029000407C6FFCEFBC9C9F40F2BAA56FA5F49028
:1002A000055A2AF75C936B6CF9676DC11BFCE0E49F
:1002B0000D47FEF520E6B500D0ED902E03009435F5
:1002C00077050080841E080000204E0A000000C848
:1002D0000C333333330F986E12831141EF8D211499
:1002E000893BE65516CFFEE6DB18D1844B381BF769
:1002F0007C1D901DA4BBE424203284725E22810008
:10030000C9F124ECA1E53D27362B11241FBECFEF08
:10031000D8E0DEBFCDBF15E0A0E0B1E0E8E9F4E64B
:1003200002C005900D92A43EB107D9F727E0A4EED4
:10033000B5E001C01D92AE35B207E1F711E0C5E8A6
:10034000D1E004C02197FE010E94AD2DC438D10731
:10035000C9F70E94F8220C944A320C940000709362
:100360001D0160931C0108957F928F929F92AF921E
:10037000BF92CF92DF92EF92FF920F931F93CF9392
:10038000DF93A62E742EE22EF12C670191E0C91A9C
:10039000D108A601440F551F843608F083E6849FD8
:1003A0009001859F300D1124C90164E670E00E9420
:1003B000582D8B010F5F1F4FC80117FD01964C018F
:1003C00095948794C0E0D0E0CE15DF0509F448C0CD
:1003D0004C2F470D6A2D8091FC059091FD050E94E0
:1003E00047148091FC059091FD05C815D90529F5A4
:1003F000C11108C0DC01ED91FC910190F081E02D6C
:1004000060E02BC0CC15DD0541F4DC01ED91FC91E1
:100410000190F081E02D65E020C09E01220F331F86
:10042000DC01ED91FC910190F081E02D02171307A2
:1004300011F462E012C063E010C0DC01ED91FC91A8
:100440000190F081E02DC11102C061E006C0CC1521
:10045000DD0511F464E001C060E209952196B4CF96
:10046000DF91CF911F910F91FF90EF90DF90CF9090
:10047000BF90AF909F908F907F9008958F929F92A2
:10048000AF92BF92CF92DF92EF92FF92CF936C0127
:100490000E94341A4B015C010D2C000CEE08FF0881
:1004A000C0E09091FA058091FB05E92FF82FEC0F41
:1004B000F11DEC0FF11D80819181009741F1DC016C
:1004C000ED91FC910190F081E02D09958823E9F0F0
:1004D000982FE091F805F091F90520E06191719174
:1004E00030E0DB01A30FB11D4C91442339F084139C
:1004F00003C091E0920F05C03F5FF3CF2F5F26301E
:1005000069F7892F990F990B12C0CF5FCACF0E944C
:10051000341ADC01CB0188199909AA09BB098C1589
:100520009D05AE05BF0508F4BBCF80E090E0CF91FC
:10053000FF90EF90DF90CF90BF90AF909F908F9003
:1005400008952F923F924F925F926F927F928F9277
:100550009F92AF92BF92CF92DF92EF92FF920F9352
:100560001F93CF93DF93CDB7DEB7A5970FB6F8945F
:10057000DEBF0FBECDBF8C01FF24F39480E090E07E
:100580009E012F5F3F4F19018F37910519F0FF2012
:1005900009F483C2D8011B96BC91BA8FF801F28589
:1005A000F88FFB9FF02C1124D8011D96BC91BD8FB4
:1005B000F801F485FE8F0E94341A24EF31E040E008
:1005C00050E00E946C2D49015A01D80150968C913F
:1005D0005097853118F084E150968C93F801418949
:1005E000828193810680F781E02D2F2D30E045FF39
:1005F00011C04F2D4695682F641B67FD12C0841BE8
:100600009109820F931FE817F90764F461E06E0FF8
:100610006F1908C0B9010E94582DF69E602D112453
:1006200001C060E0FA94F60EF98E8F2D90E0E81785
:10063000F9070CF4E98F6F8BF12C862F90E09C8FDB
:100640008B8F820F931F98A38F8FB88DAB2FB0E045
:10065000BAA3A9A3EF894E2E512C2F8D38A1421693
:1006600053060CF036C1F801E088FF89298D2F1759
:1006700010F4F101D7C0D80151962D913C915297B9
:10068000C90188709927ED91FC91119730FF76C0D0
:10069000892B09F454C012968D919C91139748169A
:1006A000590609F04CC0C201880F991FE80FF91FC5
:1006B000C080D180F60101900020E9F731979F01B9
:1006C0002C193D098E2D90E082179307C0F5280F55
:1006D000391F40E050E0C501B4010E948E2D4B014E
:1006E0005C018E189108A108B108C4010E2C000C01
:1006F000FF08682F6819462F50E04E155F050CF073
:1007000069C097FD0CC0F60101900020E9F79F0138
:100710002C193D09225031092817390730F4F1010D
:10072000E60FF11DB0E2B08308C0F601E80FF91F33
:100730002081F101E40FF51F20830196DACF4E2DC1
:1007400050E04F5F5F4FD801ED91FC91C201880FDF
:10075000991FE80FF91F60817181C1010E94093161
:10076000F8019089891708F068C0F101E80FF11DC0
:1007700020E220838F5F8913F8CF50C0892B89F145
:10078000D80112968D919C9113974816590649F5F8
:100790006201CC0CDD1CCE0EDF1EF601859194911A
:1007A0000E94F5306E2C712C6816790608F4F9C198
:1007B00018C077FE12C2F101E20FF11D20E2208382
:1007C000BFEF6B1A7B0A262D2819C22ED12CCE140E
:1007D000DF047CF3F101EE0DFF1D1082FF24F39482
:1007E0002CC0D801ED91FC91C201880F991FE80F30
:1007F000F91F659174914E2D50E04F5F5F4FC1011D
:100800000E94E130F80190898917B8F4F101E80FEE
:10081000F11D20E220838F5F8913F8CFF101E80FEB
:10082000F11D0AC08E2F82198E1518F430E2319313
:10083000F9CFF101EE0DF11D1082C201AB8DBC8D1F
:100840008A1B9B0B69A17AA10E94582DF80147854C
:10085000480F8089869F600D11249685690F8091CD
:10086000FC059091FD050E944714D80151968C918A
:1008700080FF24C08091FC059091FD05BF89E98D22
:10088000EB17A0F0DC01ED91FC910190F081E02DDF
:10089000D80112962D913C9113974216530619F4E4
:1008A0006091F3050AC06091F20507C0DC01ED918B
:1008B000FC910190F081E02D60E20995B1018091F9
:1008C000FC059091FD050E944713BF89BF5FBF8B58
:1008D000C1CED80151968C9181FF34C04E8D6D8D63
:1008E0008091FC059091FD050E944714E12C8E2D0E
:1008F00090E0D80116962D913C911797281739074B
:100900000CF464C0F80122813381A091FC05B09100
:10091000FD05ED91FC9111978217930731F4019039
:10092000F081E02D6091F30509C08E2D6AE00E94F0
:100930004C2D61E3690F0190F081E02DCD01099507
:10094000E394D5CF82FF42C0F8016681778182812E
:1009500093812091F305AB014F5F5F4F69307105C3
:1009600074F45F934F9301969F938F93822F022E7F
:10097000000C990B9F932F93ADEBB2E00DC05F93EA
:100980004F9301969F938F93822F022E000C990B09
:100990009F932F93A5ECB2E0BF93AF933F922F921A
:1009A0000E948C2F0FB6F894DEBF0FBECDBF4E8DC8
:1009B0006D8D8091FC059091FD050E944714B10159
:1009C0008091FC059091FD050E944713D801519636
:1009D0008D919C91529786FF26C050962C915097EE
:1009E0003A8D329F300D11241E962C91320F81705A
:1009F0009927B1E08B27381BF801428153814F5F63
:100A00005F4F24E6249FC001259F900D112466812D
:100A100077816F5F7F4F0E94582D862F288D4785E5
:100A2000632F0E94B401D80151968C915197E091A7
:100A3000FC05F091FD0584FF29C012968D919C91D3
:100A400013972B8D3C8D821B930B388D632F70E099
:100A50000E94582DD8011F964C911F97480F509611
:100A60008C915097869F600D11241E969C91690F62
:100A7000CF010E9447148091FC059091FD05FC0177
:100A80006089262F2160208B696005C060896E7F98
:100A9000608B6860CF010E943D1482E390E00E9469
:100AA0003E02D8011B963C911B971A962C918730D9
:100AB000910508F05FC0FC01EC5CFF4F0C94AD2D7C
:100AC00080E090E061CDF8018281938118161906CB
:100AD00014F4019726C0D8018681978113969C93C0
:100AE0008E9312978FE790E04FCDF801828193812A
:100AF000268137818217930714F4019612C0D8011A
:100B000013961C921E921297EDCF32300CF47CC0DB
:100B1000F80182819381821B910927FD939597FDAE
:100B200073C093838283DECF32300CF470C0D8015F
:100B300012968D919C911397820F911D27FD9A9586
:100B400016962D913C911797281739073CF65FC0F0
:100B50008091FC059091FD050E94401481E090E099
:100B600059C08091FC059091FD050E9440148FEFC3
:100B70009FEF50C0F80142815381CA01329F800D1E
:100B8000911D11249C0186819781821793071CF087
:100B900033832283A7CF4817590709F4B0CFD80170
:100BA0009DCFF601859194910E94F530860D971D99
:100BB0009C0140E050E0C501B4010E948E2D4B0124
:100BC0005C018E189108A108B1083401F601459125
:100BD00054910E2C000CFF08F6CDCA012BA34CA398
:100BE0005DA30E94F53001972BA14CA15DA1861554
:100BF000970508F4E0CDFA01E60DF71DE491D10167
:100C0000AC0DBD1DEC93DCCD8EEF9FEFBDCC8DEF19
:100C10009FEFBACCA5960FB6F894DEBF0FBECDBF3E
:100C2000DF91CF911F910F91FF90EF90DF90CF90C8
:100C3000BF90AF909F908F907F906F905F904F90FC
:100C40003F902F9008954F925F926F927F928F9274
:100C50009F92AF92BF92CF92DF92EF92FF920F934B
:100C60001F93CF93DF93CDB7DEB765970FB6F89498
:100C7000DEBF0FBECDBF8C018091FC059091FD05BC
:100C80000E9475141A8309831C821B820091F60549
:100C90001091F705C090F405D090F5050C9D9001DA
:100CA0000D9D300D1C9D300D112481E090E02A3007
:100CB000310511F480E090E098878F83CB860C8714
:100CC0001F86188A1B8A1A8AA02E4C2CB12CE12C64
:100CD000F12C3801772421E0621A7108B41408F06D
:100CE00057C08B819C818E0D9F1DA981BA81FD010A
:100CF00001900020E9F73197EA1BFB0B8E179F0745
:100D000028F4A80FB91F8C918A3029F48FEFE81AC4
:100D1000F80A512C01C0582E48894B0D6F858091DF
:100D2000FC059091FD050E944714812C912C8A149A
:100D300068F58091FC059091FD05DC01ED91FC9139
:100D40000190F081E02D511004C060E209959701F7
:100D500018C0652D099597012F5F3F4F49815A8132
:100D60008B819C81840F951FFC01E20FF31F508043
:100D7000BAE05B1206C0861497041CF42F5F3F4F45
:100D8000512C8FEF881A980A7901D1CFB394A6CF4E
:100D90008A899B890197E1F4AB81BC8189819A8121
:100DA000FC0101900020E9F73197E81BF90B8F85D2
:100DB000080F24E630E00E94B32D9F0140E050E090
:100DC0000E948E2D822F2C2D4889602F0E94B40105
:100DD0008FEF90E09A8389831C821B8281E090E0F0
:100DE00098878F8389E0898B8091F60589508F875A
:100DF0008091F4058150888B81E08B878C871B8ADA
:100E00001A8ACE0101960E94A102019619F08B81E7
:100E10009C8100C065960FB6F894DEBF0FBECDBFB3
:100E2000DF91CF911F910F91FF90EF90DF90CF90C6
:100E3000BF90AF909F908F907F906F905F904F90FA
:100E400008952F923F924F925F926F927F928F926E
:100E50009F92AF92BF92CF92DF92EF92FF920F9349
:100E60001F93CF93DF93CDB7DEB727970FB6F894D4
:100E7000DEBF0FBECDBF8C012DB73EB73F832E83A3
:100E8000DC01ED91FC911197E080F18050965C902F
:100E9000852C912CC4010196EDB7FEB7E81BF90B28
:100EA0000FB6F894FEBF0FBEEDBF2DB73EB72F5F54
:100EB0003F4F690185E0EFECF2E0DE0111965D0144
:100EC00001900D928A95E1F7422E2D2CF90190E2C6
:100ED0008E2F8419851510F49193FACF8C0C9D1CDC
:100EE000F4011082D8011F964C911F971E966C91A9
:100EF0008091FC059091FD050E944714B6018091F8
:100F0000FC059091FD050E944713F8014785668511
:100F10008091FC059091FD050E944714D8015196DF
:100F20008D919C9152978130910561F082309105AD
:100F300069F0892BF9F4FF92EF928BE293E09F9393
:100F40008F930EC080E3850D8B8306C080E3850DF3
:100F50008A8384E68B831C82FF92EF92BF92AF92CA
:100F6000DF92CF920E948C2F0F900F900F900F90D6
:100F70000F900F90B6018091FC059091FD050E94A5
:100F80004713F801478566858091FC059091FD0522
:100F90000E9447148091FC059091FD05DC0150965C
:100FA0006C915097262F226050962C936A600E9475
:100FB0003D1480E3382E350C9BE2692E93E0792EA8
:100FC00082E390E00E943E0299278330910509F464
:100FD000A7C034F481309105A1F0029799F1F0CFC8
:100FE0008530910509F4B8C00CF4A8C0069741F704
:100FF0008091FC059091FD050E9440148FEF9FEFBA
:10100000B8C0F80182859385E80EF91E8681978124
:101010008E159F0514F4E280F380D8011F964C9141
:101020001F971E966C918091FC059091FD050E9482
:101030004714E42DF22D8E2F8419851520F5B0E28A
:10104000B193F9CFF80182859385E81AF90A828174
:101050009381E816F90614F4E680F780D8011F960C
:101060004C911F971E966C918091FC059091FD0507
:101070000E944714E42DF22D8E2F8419851518F443
:10108000B0E2B193F9CFF4011082B6018091FC0572
:101090009091FD050E944713D8011F964C911F9710
:1010A0001E966C918091FC059091FD050E9447145D
:1010B000F801818992898130910551F08230910542
:1010C00049F0892BC9F4FF92EF927F926F920AC088
:1010D0003B8204C03A82F4E6FB831C82FF92EF92CB
:1010E000BF92AF92DF92CF920E948C2F0F900F9001
:1010F0000F900F900F900F90B6018091FC0590918A
:10110000FD050E944713D8011F964C911F971E960C
:101110006C918091FC059091FD050E94471450CF81
:10112000D801ED91FC91F182E0828091FC059091D3
:10113000FD050E9440148DEF9FEF1BC0D801ED917B
:10114000FC91F182E0828091FC059091FD050E9466
:1011500040148CEF9FEF0DC0D801ED91FC91F1820E
:10116000E0828091FC059091FD050E94401481E091
:1011700090E02E813F810FB6F8943EBF0FBE2DBF89
:1011800027960FB6F894DEBF0FBECDBFDF91CF918B
:101190001F910F91FF90EF90DF90CF90BF90AF9095
:1011A0009F908F907F906F905F904F903F902F9087
:1011B00008950F931F93CF93DF93EC0110E000E0AD
:1011C0002091F6053091F705412F50E04217530763
:1011D000CCF535952795FE0101900020E9F7319770
:1011E000EC1BFD0BDF01B695A795BD016E1B7F0BB8
:1011F000620F731F8091FC059091FD0546175707FC
:1012000040F4DC01ED91FC910190F081E02D6EE362
:101210000CC02A0F3B1FDC01ED91FC9142175307D4
:1012200030F00190F081E02D6CE3099509C0DE01FA
:10123000A00FB11D0190F081E02D6C9109950F5F19
:101240001F5FBECFDF91CF911F910F910895CF9275
:10125000DF92EF92FF92CF93DF936B017C01EA0163
:101260008091EC059091ED05BC01990F880B990BCD
:101270000E94FF219B01AC01C701B6010E943A22E6
:101280002091EE053091EF054091F0055091F10568
:101290000E944F2E0E94C12E688379838A839B838C
:1012A000DF91CF91FF90EF90DF90CF900895CF9294
:1012B000DF92EF92FF92CF93DF93EA010E94FF212A
:1012C0002091EE053091EF054091F0055091F10528
:1012D0000E943A226B017C018091EC059091ED0512
:1012E000BC01990F880B990B0E94FF219B01AC0157
:1012F000C701B6010E944F2E688379838A839B833E
:10130000DF91CF91FF90EF90DF90CF9008954091C3
:10131000BD065091BE066091BF067091C006409315
:10132000E8055093E9056093EA057093EB05809119
:101330004107909142070C947717AF92BF92CF92DA
:10134000DF92EF92FF920F931F93CF93DF93CDB76E
:10135000DEB7A0970FB6F894DEBF0FBECDBF0E94D8
:10136000341A0091E4051091E5052091E6053091CD
:10137000E705DC01CB01801B910BA20BB30B893C71
:101380009105A105B10508F4ACC040E060E080E043
:1013900097E00E944714C090C106D090C206E0902A
:1013A000C306F090C4066091BD067091BE068091A0
:1013B000BF069091C006AE01435E5F4F0E94570981
:1013C000AE01475E5F4FC701B6010E9457098C8D81
:1013D0008F938B8D8F938A8D8F93898D8F9388A117
:1013E0008F938F8D8F938E8D8F938D8D8F9384EDB3
:1013F00092E09F938F93CE0101967C019F938F93F0
:101400000E948C2FB70180E097E00E94471341E0D3
:1014100060E080E097E00E944714E0910606F091BA
:101420000706EE0FFF1FEE0FFF1FEA5BFE4FD08097
:10143000C180B280A3800FB6F894DEBF0FBECDBFCF
:1014400020E03CE34CE156ECD601F5016B2F7A2FFE
:101450008F2F9E2F0E944A2E8E010E5E1F4F8111EC
:1014600006C065EE72E0C8010E94852F11C0AF92E0
:10147000BF92CF92DF928EED92E09F938F931F9356
:101480000F930E948C2F0FB6F894DEBF0FBECDBF16
:101490001F930F93E0910606F0910706ED51FE4F62
:1014A0008081282F082E000C330B3F938F938BEEF7
:1014B00092E09F938F93FF92EF920E948C2FC7012F
:1014C0000E94D9080E94341A6093E4057093E505E0
:1014D0008093E6059093E7050FB6F894DEBF0FBE44
:1014E000CDBFA0960FB6F894DEBF0FBECDBFDF9183
:1014F000CF911F910F91FF90EF90DF90CF90BF9011
:10150000AF900895CF92DF92EF92FF92609108061C
:1015100070910906072E000C880B990B0E94FF2181
:101520006B017C019B01AC016091C9067091CA06F8
:101530008091CB069091CC060E944A2E882309F414
:1015400051C0C092C906D092CA06E092CB06F09272
:10155000CC06A701960160E074E284E799E40E945A
:101560004F2E6093F1067093F2068093F3069093EA
:10157000F4068091E5069091E606A091E706B09109
:10158000E806181619061A061B0664F56091C506CA
:101590007091C6068091C7069091C8069B01AC0168
:1015A0000E943A226B017C016091CD067091CE06BB
:1015B0008091CF069091D0069B01AC010E94DE2D58
:1015C0009B01AC01C701B6010E944F2E0E94C12EA3
:1015D0006093E5067093E6068093E7069093E8062D
:1015E0000E94901460910A0670910B06072E000C61
:1015F000880B990B0E94FF216B017C0120E030E0F9
:10160000A9010E944A2E882321F0C701B6010E9439
:101610004316C090E805D090E905E090EA05F09007
:10162000EB05B701A60182EB96E00E94D210C092B2
:10163000BD06D092BE06E092BF06F092C006C092F0
:10164000C106D092C206E092C306F092C406109280
:10165000E5061092E6061092E7061092E806109250
:10166000D5061092D6061092D7061092D806FF9093
:10167000EF90DF90CF9008954F925F926F927F929C
:101680008F929F92AF92BF92CF92DF92EF92FF9292
:101690000F931F93CF93DF938130910529F0029729
:1016A00031F4CFEFDFEF05C0C1E0D0E002C0C0E011
:1016B000D0E08091210790E07C0100EB14E09701DD
:1016C0002150310923303105A0F50197029760F4CC
:1016D00023E0E216F10441F4CE01809FE001819FF6
:1016E000D00D909FD00D112485E197E00E946C12DF
:1016F000C0902107D12C8091BD069091BE06A0918B
:10170000BF06B091C006AE010D2E000C660B770B24
:101710004A015B01880E991EAA1EBB1EC501B401B9
:101720000E94C7170E9498190E949D09C70176015F
:10173000C6CF8091C1069091C206A091C306B09118
:10174000C4066C01092E000CEE08FF084091BD068E
:101750005091BE066091BF067091C0069701860148
:10176000041B150B260B370B101611061206130659
:1017700024F4EC01C41BD50B03C0EA01C81BD90B30
:101780006091C5067091C6068091C7069091C80603
:101790009B01AC010E94DE2D4B015C0120E030E09A
:1017A000A9010E941B2F181624F0B7FAB094B7F8BD
:1017B000B09420E030E0A901C501B4010E944A2E96
:1017C000882321F0C501B4010E9443164090C5064C
:1017D0005090C6066090C7067090C80620E030E0C2
:1017E000A901C301B2010E944A2E882309F443C013
:1017F000A3019201C301B2010E943A224B015C0194
:101800006091CD067091CE068091CF069091D00662
:101810009B01AC010E94DE2D9B01AC01C501B4010E
:101820000E944F2E0E94C12E4B015C012FEF821AA5
:10183000920AA20AB20A20E030E0A901C301B20173
:101840000E941B2F4091BD065091BE066091BF06BD
:101850007091C00618163CF4CB01BA01680D791DD1
:101860008A1D9B1D06C0CB01BA01681979098A0936
:101870009B090E94C7178091C1069091C206A09152
:10188000C306B091C4060091BD061091BE0620911A
:10189000BF063091C006AC01BD01401B510B620B6D
:1018A000730B141615061606170634F0B901A801B5
:1018B000481B590B6A0B7B0BCE01DD0FAA0BBB0B30
:1018C00084179507A607B70724F4C701B6010E943D
:1018D000C717C090C106D090C206E090C306F09032
:1018E000C406C701B60122E030E040E050E00E94AB
:1018F0008E2D6130710581059105D9F4A7019601FE
:10190000F7FE07C022273327A9012C193D094E09EC
:101910005F09C701B6010E948E2DC901330FAA0BC2
:10192000BB0BBC01CD016C0D7D1D8E1D9F1D0E944A
:10193000C71760910A0670910B06072E000C880BE2
:10194000990B0E94FF216B017C0120E030E0A9018E
:101950000E944A2E882321F0C701B6010E94431637
:101960004091BD065091BE066091BF067091C006C1
:101970008091C1069091C206A091C306B091C406A1
:10198000481759076A077B0729F00E9498190E9497
:101990009D09E6CF0E9473194B015C0189ECC82EAA
:1019A000D12CE12CF12C0E947319DC01CB01881998
:1019B0009909AA09BB09883E9340A105B10558F0D1
:1019C00081E0C81AD108E108F10898EE890E93E089
:1019D000991EA11CB11CC114D104E104F10419F732
:1019E0000E949D090E948709DF91CF911F910F915D
:1019F000FF90EF90DF90CF90BF90AF909F908F902F
:101A00007F906F905F904F900C94820A8091FF06B8
:101A10008823B1F04091F6065091F7066091F806E0
:101A20007091F906409302065093030660930406F2
:101A30007093050680913F07909140070E947717A9
:101A40008091FE068823B1F04091FA065091FB0682
:101A50006091FC067091FD064093FE055093FF05D2
:101A6000609300067093010680913D0790913E07B8
:101A70000C94771708958F929F92AF92BF92CF9256
:101A8000DF92EF92FF920F931F93CF93DF93CDB727
:101A9000DEB7E2970FB6F894DEBF0FBECDBF8C0164
:101AA0007B01D42EC52EFC0180809180A280B38062
:101AB000C501B4010E94FF219B01AC010E94662F69
:101AC000811104C089288A288B2881F5C7010496D2
:101AD000813092403CF183EF92E00E947D1460E0FF
:101AE00070E080E090E0F8016083718382839383EB
:101AF0009F938F937F936F93CF92DF928DE193E0CB
:101B00009F938F938E010F5F1F4F1F930F930E9420
:101B10008C2FC8010E947D140FB6F894DEBF0FBE53
:101B2000CDBF04C0C7010E943032DDCFE2960FB6B0
:101B3000F894DEBF0FBECDBFDF91CF911F910F9103
:101B4000FF90EF90DF90CF90BF90AF909F908F90DD
:101B50000895AF92BF92CF92DF92EF92FF920F93D0
:101B60001F93CF93DF93CDB7DEB7E2970FB6F8940C
:101B7000DEBF0FBECDBF8C017B01B42EA52EFC01B4
:101B8000C080D180B6010D2C000C880B990B0E94EF
:101B9000FF219B01AC010E94662F811102C0CD285C
:101BA00051F5C7010296813092400CF183EF92E02B
:101BB0000E947D1480E090E0F801808391839F93E0
:101BC0008F93AF92BF9286E293E09F938F938E01A3
:101BD0000F5F1F4F1F930F930E948C2FC8010E940D
:101BE0007D140FB6F894DEBF0FBECDBF04C0C70191
:101BF0000E943632E1CFE2960FB6F894DEBF0FBEF8
:101C0000CDBFDF91CF911F910F91FF90EF90DF90AB
:101C1000CF90BF90AF900895CF93DF938EE293E083
:101C20000E947D14C0913B07D0913C07CE0188599A
:101C30009F4F0E943917882371F066E471E0CE014E
:101C40000E9436181816190634F481E493E0DF91E7
:101C5000CF910C947D14DF91CF910895CF92DF92B4
:101C6000EF92FF920F931F93CF93DF936C017A0152
:101C70008B01C0E0D0E0CE15DF0589F0D8016D9171
:101C80008D01D601ED91FC910190F081E02DC6010E
:101C90000995892B11F47E0102C02196ECCFC70172
:101CA000DF91CF911F910F91FF90EF90DF90CF9038
:101CB0000895FC01918D828D981761F0828DDF016E
:101CC000A80FB11D5D968C91928D9F5F9F73928F2F
:101CD00090E008958FEF9FEF0895FC01918D828D24
:101CE000981731F0828DE80FF11D858D90E00895F1
:101CF0008FEF9FEF0895FC01918D228D892F90E049
:101D0000805C9F4F821B91098F739927089585E10D
:101D100096E00E947B0E21E0892B09F420E0822FBF
:101D20000895FC01848DDF01A80FB11DA35ABF4F98
:101D30002C91848D90E001968F739927848FA689CA
:101D4000B7892C93A089B1898C9180648C93938DF1
:101D5000848D981306C00288F389E02D80818F7DE1
:101D600080830895EF92FF920F931F93CF93DF9399
:101D7000EC0181E0888F9B8D8C8D981305C0E889DC
:101D8000F989808185FD24C0F62E0B8D10E00F5F50
:101D90001F4F0F731127E02E8C8DE8120CC00FB669
:101DA00007FCFACFE889F989808185FFF5CFCE015C
:101DB0000E94910EF1CF8B8DFE01E80FF11DE35AC9
:101DC000FF4FF0820B8FEA89FB898081806207C018
:101DD000EE89FF896083E889F98980818064808346
:101DE00081E090E0DF91CF911F910F91FF90EF90F4
:101DF0000895CF93DF93EC01888D8823C9F0EA8999
:101E0000FB89808185FD05C0A889B9898C9186FDF3
:101E10000FC00FB607FCF5CF808185FFF2CFA889F0
:101E2000B9898C9185FFEDCFCE010E94910EE7CF4D
:101E3000DF91CF91089580E090E0892B29F00E94F6
:101E4000870E81110C9400000895CF93DF934770A3
:101E5000552766277727FA013197EC01A881B981C8
:101E6000E730F10520F4E55CFF4F0C94AD2D14969E
:101E7000ED91FC91159761E029C01496ED91FC91CC
:101E8000159765E023C01496ED91FC91159764E0D9
:101E90001DC01496ED91FC91159766E017C014963D
:101EA000ED91FC91159762E011C01496ED91FC91B3
:101EB00015976AE00BC01496ED91FC91159768E0B8
:101EC00005C01496ED91FC91159769E0DF91CF91D3
:101ED0000994CF93DF93EC01CB01BA0126E030E007
:101EE00040E050E00E948E2D623071058105910521
:101EF00059F18CF46115710581059105F1F061309E
:101F0000710581059105C1F5E881F9810480F581AC
:101F1000E02D65E02DC0643071058105910511F15A
:101F2000D4F0653071058105910531F5E881F981BD
:101F30000480F581E02D66E01BC0E881F981048012
:101F4000F581E02D64E014C0E881F9810480F58119
:101F5000E02D61E00DC0E881F9810480F581E02D7C
:101F600063E006C0E881F9810480F581E02D62E03C
:101F7000CE01DF91CF910994DF91CF910895437005
:101F8000552766277727DC01ED91FC910480F581C8
:101F9000E02D423051056105710571F04330510566
:101FA0006105710559F0413051056105710511F068
:101FB00065E005C066E003C06AE001C069E009941D
:101FC000CF93DF93EC01CB01BA0123E030E040E096
:101FD00050E00E948E2D613071058105910581F0E0
:101FE000623071058105910591F0672B682B692B93
:101FF000C1F4E881F9810480F581E02D64E00DC031
:10200000E881F9810480F581E02D61E006C0E88176
:10201000F9810480F581E02D62E0CE01DF91CF915E
:102020000994DF91CF91089543705527662777274C
:10203000DC01ED91FC910480F581E02D42305105E9
:102040006105710571F0433051056105710559F065
:10205000413051056105710511F062E005C063E092
:1020600003C061E001C060E009940F931F93CF9318
:10207000DF93EC01E881F9810480F581E02D8C018A
:102080000D5B1F4FD8018C91811102C060E001C02F
:1020900062E0CE010995E881F9810480F581E02DA7
:1020A000D8018C91811102C061E001C063E0CE01D2
:1020B0000995EBA5FCA5E230F10538F0EE0FFF1F06
:1020C000EE0FFF1F35973197F1F7E881F981048012
:1020D000F581E02DD8018C91811102C060E001C032
:1020E00062E0CE01DF91CF911F910F910994CF93C0
:1020F000DF93EC0120E030E0A9016B897C898D89B8
:102100009E890E941B2F18161CF4EFA5F8A902C087
:10211000E9A9FAA9DF91CF9109940F931F93DC01EC
:102120001296EC910E2F10E009301105C0F5F80160
:10213000EE5BFF4F0C94AD2DDC01ED91FC91008422
:10214000F185E02D29C0DC01ED91FC910284F3853D
:10215000E02D22C0DC01ED91FC910484F585E02D99
:102160001BC0DC01ED91FC910684F785E02D14C0C5
:10217000DC01ED91FC910088F189E02D0DC0DC01BE
:10218000ED91FC910288F389E02D06C0DC01ED9110
:10219000FC910488F589E02D1F910F9109941F91FE
:1021A0000F910895CF92DF92EF92FF920F931F93BA
:1021B000CF93DF93FC01E35BFF4F20812223C1F02B
:1021C00039970081118122813381DC011B96CD90EA
:1021D000DD90ED90FC901E970C191D092E093F090A
:1021E000040F151F261F371F00831183228333839B
:1021F000FC01E45BFF4F20812223C1F03497008172
:10220000118122813381EC018B859C85AD85BE8552
:1022100068017901C81AD90AEA0AFB0A4C0D5D1D4A
:102220006E1D7F1D4083518362837383DF91CF9145
:102230001F910F91FF90EF90DF90CF900895FC01D8
:10224000DC01A35BBF4F8C91882399F019978D9186
:102250009D910D90BC91A02D47855089618972890F
:1022600084179507A607B70724F48787908BA18B5F
:10227000B28BDF01A45BBF4F8C91882399F0149738
:102280008D919D910D90BC91A02D478550896189BC
:102290007289481759076A077B0724F48787908B50
:1022A000A18BB28B0895CF93DF93DC0140E01896A9
:1022B0008C911897481708F042C01D96ED91FC913B
:1022C0001E97E40FF11D90819E3008F09E5097708C
:1022D000906490937C0080917A00806480937A006F
:1022E00080917A0086FDFCCF609178008091790022
:1022F00070E0782B19968C911997C0E0D0E09C2F54
:10230000C817D8F45196ED91FC9152979E01220F77
:10231000331FE20FF31F20813181261B370B37FF5C
:1023200003C031952195310921962C3031053CF7B8
:10233000489F900D1124892F03C04F5FB8CF8FEFB6
:10234000DF91CF910895FC0184850895FC01938568
:102350009F3F39F00784F089E02DE90FF11D80815E
:10236000089580E0089570932101609320010895FD
:102370007093AF016093AE01089570932301609351
:102380002201089570931F0160931E010895FC01BE
:10239000828108950E94802FCF93DF93FC012281D8
:1023A000222321F1EC0161E083810E94371961E071
:1023B0008C810E9437198A81843011F0883041F471
:1023C00061E08D810E94371961E08E810E9437198A
:1023D0008EA58F3F59F061E00E9437196DA581E00D
:1023E00068278EA5DF91CF910C94EB18DF91CF91E8
:1023F0000895CF93DF93FC012281222389F0EC0121
:102400000190F081E02D0480F581E02D60E00995D8
:102410008EA58F3F29F06DA5DF91CF910C94EB181D
:10242000DF91CF910895AF92BF92DF92EF92FF922A
:102430000F931F93CF93DF931F92CDB7DEB7FC01AD
:102440002281243021F0283011F022E001C024E064
:102450005C01F7E0AF0EB11C00E010E0E62EF12CBD
:10246000DD24D394C701002E02C0959587950A9468
:10247000E2F7F501608180FD6D25F50134978081DB
:1024800029830E94EB180F5F1F4FFFEFAF1ABF0A9F
:102490002981021738F30F90DF91CF911F910F918F
:1024A000FF90EF90DF90BF90AF900895CF93DF93B0
:1024B000EC0160E08E810E94EB1861E08E810E9449
:1024C000EB1860E08E810E94EB188BE891E0019799
:1024D000F1F7DF91CF9108950F931F93CF93DF937F
:1024E000EC01E881F9810288F389E02D0995182F24
:1024F0008C85823009F457C030F4882361F0813034
:1025000009F44DC0A9C0843009F46CC008F478C047
:10251000853069F0A1C01F3F09F43FC00E94341A02
:102520006C837D838E839F8385E08C8795C01F3F5E
:1025300099F18B85811329C00E94341A0C811D8169
:102540002E813F81AB01BC01401B510B620B730B11
:102550008091220190912301A0E0B0E084179507BB
:10256000A607B70708F078C081E08C870E94341A6C
:102570006C837D838E839F83609311067093120614
:1025800080931306909314065EC00E94341A6C83E5
:102590007D838E839F8301C01C861B875DC01F3F88
:1025A00029F082E004C08B85811719F084E08C87C4
:1025B00020C00E94341A0C811D812E813F81AB0105
:1025C000BC01401B510B620B730B80911E0190915B
:1025D0001F01A0E0B0E084179507A607B707E0F554
:1025E00083E0E5CF1F3F11F41C8636C085E08C8761
:1025F0001B870E94341A6C837D838E839F832CC03B
:102600008B85811719F084E08C8717C00E94341ADB
:102610000C811D812E813F81AB01BC01401B510B00
:10262000620B730B80911C0190911D01A0E0B0E042
:1026300084179507A607B70778F40E94341A6C83AD
:102640007D838E839F838B858F3F31F0EF85F88963
:10265000E80FF11D808101C080E0DF91CF911F91D3
:102660000F9108956115710579F0FB01019000202B
:10267000E9F73197AF01461B570BDC01ED91FC9157
:102680000280F381E02D099480E090E008950C949D
:1026900032131F920F920FB60F9211242F933F9374
:1026A0004F935F936F937F938F939F93AF93BF935A
:1026B000EF93FF9385E196E00E94910EFF91EF91D9
:1026C000BF91AF919F918F917F916F915F914F914A
:1026D0003F912F910F900FBE0F901F9018951F9252
:1026E0000F920FB60F9211242F938F939F93EF9316
:1026F000FF93E0912506F09126068081E0912B065C
:10270000F0912C0682FD12C0908180912E068F5F81
:102710008F7320912F06821751F0E0912E06F0E082
:10272000EB5EF94F958F80932E0601C08081FF915B
:10273000EF919F918F912F910F900FBE0F901F904F
:102740001895AF92BF92CF92DF92EF92FF920F93C4
:102750001F93CF93DF935C017C0187E0E80EF11CAF
:10276000C0E0D0E0062F10E0670161E0F701819141
:102770007F010E943719B8010C2E02C0759567952C
:102780000A94E2F76170F60180810E94EB182196AD
:10279000C430D10549F7C501DF91CF911F910F9149
:1027A000FF90EF90DF90CF90BF90AF900C945612B7
:1027B000AF92BF92CF92DF92EF92FF920F931F934F
:1027C000CF93DF93EC01F62E642F8C810E94EB18DF
:1027D0008D818F3F19F060E00E94EB188F850F2DDF
:1027E00010E084FF2DC05E0187E0A80EB11CE12C33
:1027F000F12C650161E0F50181915F010E943719BB
:10280000B8010E2C02C0759567950A94E2F76170C5
:10281000F60180810E94EB18FFEFEF1AFF0A88E0B3
:10282000E816F10431F7CE01DF91CF911F910F919E
:10283000FF90EF90DF90CF90BF90AF900C94561226
:10284000B80184E0759567958A95E1F7CE010E94FD
:10285000A1136F2DCE01DF91CF911F910F91FF90AA
:10286000EF90DF90CF90BF90AF900C94A11341E018
:102870000E94D81381E090E0089540E00C94D813B2
:10288000FC0160896D7F608B68600C943D14CF9370
:10289000DF93CDB7DEB728970FB6F894DEBF0FBE33
:1028A000CDBF9C0188E0E5E6F2E0DE0111960190E3
:1028B0000D928A95E1F7F9018389481710F04FEFDF
:1028C000480FFE013196E40FF11DE40FF11D9081D8
:1028D000690F6068C90128960FB6F894DEBF0FBE75
:1028E000CDBFDF91CF910C943D1461E00E943D1467
:1028F0008BE39FE10197F1F70895CF93DF93BC013C
:1029000085E196E00E943213EC016EEB75E085E103
:1029100096E00E9432138C0F9D1FDF91CF91089596
:102920004F925F926F927F928F929F92AF92BF92DF
:10293000CF92DF92EF92FF920F931F93CF93DF938B
:1029400000D000D0CDB7DEB7C090C106D090C2068F
:10295000E090C306F090C4068091BD069091BE063B
:10296000A091BF06B091C006C81AD90AEA0AFB0AAC
:102970006091C5067091C6068091C7069091C80601
:102980009B01AC010E943A224B015C016091CD0693
:102990007091CE068091CF069091D0069B01AC013C
:1029A0000E94DE2D9B01AC01C501B4010E944F2E97
:1029B0000E94C12EC114D104E104F104F9F4623083
:1029C0007105810591050CF092C01092D506109208
:1029D000D6061092D7061092D8061092C50610920D
:1029E000C6061092C7061092C8061092E50610920D
:1029F000E6061092E7061092E80630C10091E5065F
:102A00001091E6062091E7063091E8061C141D049B
:102A10001E041F040CF5101611061206130654F4BA
:102A20006C157D058E059F0564F52091F506211135
:102A30005EC027C0011511052105310509F457C0F5
:102A40006C157D058E059F050CF051C08091F50633
:102A5000882309F44CC03CC0101611061206130658
:102A600014F50027112798010C191D092E093F099B
:102A7000601771078207930724F42091F50622233B
:102A8000B1F19B01AC0188279927DC01821B930BD4
:102A9000A40BB50B8093E5069093E606A093E7069A
:102AA000B093E80624C00115110521053105F9F0A0
:102AB0008824992454018C189D08AE08BF08681515
:102AC00079058A059B059CF48091F50681110FC05C
:102AD00030952095109501951F4F2F4F3F4F009334
:102AE000E5061093E6062093E7063093E80680900B
:102AF000E5069090E606A090E706B090E8068114FF
:102B00009104A104B104D1F48091E9069091EA0600
:102B1000A091EB06B091EC068093ED069093EE0643
:102B2000A093EF06B093F00681E01C141D041E0470
:102B30001F040CF080E08093F5064AC0C090ED06BB
:102B4000D090EE06E090EF06F090F006A701960117
:102B5000C701B6010E94DE2D2B013C01C501B40165
:102B60000E94FF2120E030E040E850E40E943A2239
:102B700020E030E040E85FE30E94DE2D9B01AC01E5
:102B8000C301B2010E944F2E9B01AC01C701B601E7
:102B90000E94DD2D7B018C017090F1066090F206A1
:102BA000C090F306D090F406272D362DA6010E9482
:102BB0001B2F18161CF0E72CF62C8601A701B80174
:102BC0004093ED065093EE066093EF067093F00687
:102BD0003FEF831A930AA30AB30A8092E506909204
:102BE000E606A092E706B092E8062091ED06309145
:102BF000EE064091EF065091F006CA01B901298313
:102C00003A834B835C830E94C82E6093D5067093F1
:102C1000D6068093D7069093D80629813A814B81B6
:102C20005C8160E074E284E799E40E944F2E609337
:102C3000C5067093C6068093C7069093C806209178
:102C4000F50621110BC0DC01CB01B0588093C506FD
:102C50009093C606A093C706B093C8060F900F9036
:102C60000F900F90DF91CF911F910F91FF90EF90F8
:102C7000DF90CF90BF90AF909F908F907F906F909C
:102C80005F904F9008954F925F926F927F928F92D4
:102C90009F92AF92BF92CF92DF92EF92FF926B0121
:102CA0007C018090CD069090CE06A090CF06B0908B
:102CB000D0069B01AC01C501B4010E944A2E8823B5
:102CC00009F450C06091E5067091E6068091E70630
:102CD0009091E8060E94FF212B013C01A70196017B
:102CE000C501B4010E944F2E9B01AC01C301B2018A
:102CF0000E943A220E94C12E6093E5067093E60678
:102D00008093E7069093E806A701960160E070E0E3
:102D100080E89FE30E944F2E0E94262F20E034E29D
:102D200044E759E40E943A226093E9067093EA0668
:102D30008093EB069093EC06C092CD06D092CE061F
:102D4000E092CF06F092D006FF90EF90DF90CF9008
:102D5000BF90AF909F908F907F906F905F904F90BB
:102D60000C949014FF90EF90DF90CF90BF90AF90B5
:102D70009F908F907F906F905F904F9008950F93EA
:102D80001F93CF93DF93EC01623018F08F8588603A
:102D90008F876B8B1C8A8BE39DE00197F1F760E0D6
:102DA0008C810E94EB1860E08E810E94EB188D816F
:102DB0008F3F19F060E00E94EB186F8564FD1DC025
:102DC00063E0CE010E94A1130BE416E4C801019751
:102DD000F1F763E0CE010E94A113C8010197F1F75A
:102DE00063E0CE010E94A11383E592E00197F1F721
:102DF00062E0CE010E94A11316C06062CE010E9463
:102E00003D148BE496E40197F1F76F856062CE0183
:102E10000E943D1483E592E00197F1F76F856062AF
:102E2000CE010E943D146F856062CE010E943D1468
:102E300084E0888B6CE0CE010E943D14CE010E949C
:102E4000751482E0898B66E0CE01DF91CF911F91EE
:102E50000F910C943D149C012F5F3F4F2130324065
:102E600014F40C94283283EF92E00E947D1480E0E9
:102E7000089520914F07309150072F5F3F4F3093B7
:102E8000500720934F0740914B0750914C07411535
:102E9000510519F0421753071CF481EC95E005C069
:102EA0008130924034F083EF92E00E947D1480E004
:102EB000089581E00895FF920F931F93CF93DF93BE
:102EC0001F92CDB7DEB78C01019669830E94391736
:102ED000F82E6981882319F0C8010E943C328F2D99
:102EE0000F90DF91CF911F910F91FF9008958F92D6
:102EF0009F92AF92BF92CF92DF92EF92FF920F9389
:102F00001F93CF93DF9300D000D0CDB7DEB76C0115
:102F100049835A836B837C8304960E9439178823E4
:102F2000F9F04E0185E0880E911CFE0131967F017B
:102F300000E010E0CE1ADF0A5601AE0CBF1CC5013E
:102F40000E942B17F70161917F01861729F0C501B7
:102F50000E945B170F5F1F4FE814F90469F702C066
:102F600000E010E081E0012B09F480E00F900F9069
:102F70000F900F90DF91CF911F910F91FF90EF90E5
:102F8000DF90CF90BF90AF909F908F9008950F9358
:102F90001F930091C1061091C2062091C306309183
:102FA000C406061717072807390791F0DC01CB0183
:102FB0008093C1069093C206A093C306B093C40643
:102FC00082EB96E00E941F111F910F910C949014B8
:102FD0001F910F9108958F929F92AF92BF92CF92BF
:102FE000DF92EF92FF920F931F93CF93DF9300D066
:102FF000CDB7DEB76C017A83698302960E943917D8
:103000008823F9F04E0183E0880E911CFE01319671
:103010007F0100E010E0CE1ADF0A5601AE0CBF1CA3
:10302000C5010E942B17F70161917F01861729F0D6
:10303000C5010E945B170F5F1F4FE814F90469F781
:1030400002C000E010E081E0012B09F480E00F9065
:103050000F90DF91CF911F910F91FF90EF90DF9034
:10306000CF90BF90AF909F908F900895AF92BF92F6
:10307000CF92DF92EF92FF920F931F93CF93DF9344
:103080006B0128E6C20ED11CEB0100E010E05C01F0
:10309000A61AB70A7501EC0EFD1EC7010E942B1778
:1030A0006991861729F0C7010E945B170F5F1F4FB8
:1030B000CC15DD0579F7C801DF91CF911F910F91F4
:1030C000FF90EF90DF90CF90BF90AF9008958F92D8
:1030D0009F92AF92BF92CF92DF92EF92FF92CF93E7
:1030E00020E030E0A9016091C5067091C60680918C
:1030F000C7069091C8060E944A2E882309F461C031
:10310000C090C906D090CA06E090CB06F090CC06DD
:1031100046015701B7FAB094B7F8B09420E030E018
:10312000A901C501B4010E941B2F181654F020E01C
:1031300030E0A901C701B6010E944A2E87FD03C0F5
:103140000CC07501640120E030E0A901C701B6019F
:103150000E944A2E81110DC003C0C12CD12C7601D2
:103160001092D5061092D6061092D7061092D80665
:1031700020C0A701960160E074E284E799E40E9410
:103180004F2E9F770E94C82E6093D5067093D60667
:103190008093D7069093D806C1E020E030E0A901E3
:1031A000C701B6010E941B2F18160CF0C0E0C09397
:1031B000F506C092C506D092C606E092C706F09208
:1031C000C806CF91FF90EF90DF90CF90BF90AF9067
:1031D0009F908F90089590E0FC01E650FE4F34914F
:1031E000FC01EA51FE4F2491FC01EE52FE4FE491A6
:1031F000EE2309F43BC0332339F1333091F038F436
:103200003130A9F0323001F584B58F7D12C03730EE
:1032100091F03830A1F03430B9F4809180008F7D86
:1032200003C0809180008F77809380000DC084B5AB
:103230008F7784BD09C08091B0008F7703C08091E3
:10324000B0008F7D8093B000F0E0EE0FFF1FE853D9
:10325000FE4FA591B4918FB7F894EC91611103C022
:1032600020952E2301C02E2B2C938FBF0895CF9332
:10327000DF9390E0FC01EA51FE4F2491FC01EE52F5
:10328000FE4F8491882361F190E0880F991FFC0123
:10329000E254FE4FC591D491FC01E853FE4FA59135
:1032A000B491611109C09FB7F89488812095822359
:1032B0008883EC912E230BC0623061F49FB7F894A1
:1032C0003881822F809583238883EC912E2B2C9339
:1032D0009FBF06C08FB7F894E8812E2B28838FBF3D
:1032E000DF91CF9108953FB7F89480915607909160
:1032F0005707A0915807B091590726B5A89B05C05C
:103300002F3F19F00196A11DB11D3FBFBA2FA92F64
:10331000982F8827820F911DA11DB11DBC01CD01E1
:1033200042E0660F771F881F991F4A95D1F70895CD
:10333000CF92DF92EF92FF928091D5069091D606C0
:10334000A091D706B091D806892B8A2B8B2B09F434
:103350005EC00E9473196B017C014091D9065091A7
:10336000DA066091DB067091DC068091D5069091BB
:10337000D606A091D706B091D806840F951FA61F38
:10338000B71F84179507A607B70730F0C816D906E8
:10339000EA06FB0658F405C0C816D906EA06FB067D
:1033A000B0F1C416D506E606F70688F52091F506B5
:1033B0008091BD069091BE06A091BF06B091C00657
:1033C000222321F00196A11DB11D03C00197A1097F
:1033D000B1098093BD069093BE06A093BF06B0933B
:1033E000C0064091BD065091BE066091BF06709127
:1033F000C00682EB96E00E948D10C092D906D09252
:10340000DA06E092DB06F092DC060E94901420E0DF
:1034100030E0A9016091C5067091C6068091C7068B
:103420009091C8060E944A2E811118C081E0C09078
:10343000C106D090C206E090C306F090C406409149
:10344000BD065091BE066091BF067091C006C416BD
:10345000D506E606F70619F480E001C081E0FF908A
:10346000EF90DF90CF9008952FB7F89460915207B6
:103470007091530780915407909155072FBF08957D
:103480001F920F920FB60F9211242F933F938F9399
:103490009F93AF93BF938091520790915307A09150
:1034A0005407B09155073091510723E0230F2D3772
:1034B00020F40196A11DB11D05C026E8230F029638
:1034C000A11DB11D2093510780935207909353077C
:1034D000A0935407B09355078091560790915707D2
:1034E000A0915807B09159070196A11DB11D809375
:1034F000560790935707A0935807B0935907BF9169
:10350000AF919F918F913F912F910F900FBE0F9090
:103510001F901895A3E1B0E0E0E9FAE10C94AF2F19
:103520006C014B012A01FC0117821682838181FF05
:1035300043C3AE014F5F5F4F3A01F6019381F4013F
:1035400093FD859193FF81914F01882309F430C346
:10355000853239F493FD859193FF81914F01853236
:1035600039F4B60190E00E94663152012501E5CFA1
:1035700010E0F12C20E02032A0F48B3269F030F41E
:10358000803259F0833269F420612CC08D3239F0D9
:10359000803339F4216026C02260246023C0286073
:1035A00021C027FD27C030ED380F3A3078F426FFD0
:1035B00006C0FAE01F9F300D1124132F13C04AE0FC
:1035C000F49E300D1124F32E20620CC08E3221F4B3
:1035D00026FDEEC2206406C08C3611F4206802C0BD
:1035E000883641F4F40193FD859193FF81914F0159
:1035F0008111C1CF9BEB980F933018F42061805E4E
:1036000006C09BE9980F933008F071C12F7E26FF0A
:1036100016E02F73322E853619F42064322E08C03E
:10362000863621F4F22FF0683F2E02C0111111509E
:1036300037FE07C01C3350F4EE24E394E10E27E07C
:103640000BC0183038F027E017E005C027E04CE346
:10365000E42E02C0212FE12C520144E0A40EB11C43
:10366000F20160817181828193810E2DA3010E94FC
:10367000E62F2C01098100FF02C003FF07C031FCC7
:1036800008C032FE09C030E2232E07C02DE2222EF0
:1036900004C09BE2292E01C0212C802F8C7019F0D0
:1036A000211068C2A8C237FE0FC0E40C04FF04C09A
:1036B0008A81813309F4EA941E1474F5F8E0FE154A
:1036C00078F588E0E82E2CC036FC2AC0812F90E0E7
:1036D000841595059CF02CEF42162FEF520674F0DE
:1036E000432D4068342E0AC0E2E0F0E0EC0FFD1FED
:1036F000E10FF11D8081803319F411501111F4CFC5
:1037000037FE0EC0EE24E394E10E812F90E04816C0
:1037100059062CF4141904C0EE24E39401C010E0FF
:1037200037FE06C01414150434F4C201019605C016
:1037300085E090E002C081E090E021100196112325
:1037400031F0212F30E02F5F3F4F820F931F2F2D3D
:1037500030E08217930714F4F81A01C0F12C832D7E
:10376000897049F4FF2039F0B60180E290E00E94B0
:103770006631FA94F7CF222029F0B601822D90E02D
:103780000E94663133FC09C0FF2039F0B60180E3A6
:1037900090E00E946631FA94F7CF37FE5AC0942D1C
:1037A000852D57FE02C090E080E0292E382E20E0C3
:1037B00030E0A2014E1951095D874C87A2014219E0
:1037C00053095F874E87612F70E044275527461BBA
:1037D000570B598B488B5FEF2516350649F4B60118
:1037E0008EE290E02A8B3B8B0E9466313B892A89CE
:1037F000421453046CF04C855D854215530544F426
:10380000EE85FF85E20FF31FE60DF71D818101C0F4
:1038100080E351E0251A31082F5F3F4F48895989CD
:10382000241635064CF0B60190E02A8B3B8B0E94A3
:1038300066312A893B89CFCF2414350439F49A8123
:10384000963318F4953311F404FF81E3B60190E048
:103850004BC08A81813309F00F7EB60190E00E944F
:103860006631111105C034FC18C085E690E017C020
:10387000B6018EE290E00E94663182E0EE24E3948D
:10388000E80EF301E80FF11D8081B60190E00E947F
:10389000663111508E2D91F7E6CF85E490E0B601A8
:1038A0000E94663157FC05C04114510439F404FFED
:1038B00005C05194419451088DE201C08BE2B601DC
:1038C00090E00E94663180E39AE0491651042CF0A2
:1038D0008F5F5AE0451A5108F7CFB60190E00E9479
:1038E0006631B601C201C0960E94663157C1833667
:1038F00031F0833779F0833509F058C021C0520187
:10390000E2E0AE0EB11CF2018081898301E010E09B
:10391000230114C05201F2E0AF0EB11CF20140804D
:10392000518026FF03C0612F70E002C06FEF7FEF70
:10393000C2012A8B0E941D318C012A892F7715C064
:103940005201F2E0AF0EB11CF2014080518026FF1F
:1039500003C0612F70E002C06FEF7FEFC2012A8BBE
:103960000E94FE308C012A892068322E23FD1AC065
:103970008F2D90E008171907A8F4B60180E290E0B7
:103980000E946631FA94F4CFF20137FC859137FE3C
:1039900081912F01B60190E00E946631F110FA94F6
:1039A000015011090115110579F7F8C0843611F09D
:1039B000893659F5520127FF09C0F4E0AF0EB11C5A
:1039C000F20160817181828193810AC0F2E0AF0EC1
:1039D000B11CF20160817181072E000C880B990BDC
:1039E0002F76322E97FF09C090958095709561953E
:1039F0007F4F8F4F9F4F2068322E2AE030E0A30187
:103A00000E94B731E82EE6183FC0022F853721F417
:103A10000F7E2AE030E01DC0097F8F3691F018F448
:103A2000883559F0C5C0803719F0883711F0C0C00B
:103A3000006104FF09C0046007C024FF08C00660DD
:103A400006C028E030E005C020E130E002C020E1FF
:103A500032E0520107FF09C0F4E0AF0EB11CF201E1
:103A6000608171818281938108C0F2E0AF0EB11C48
:103A7000F2016081718180E090E0A3010E94B73182
:103A8000E82EE6180F77302E36FE0BC0332D3E7F22
:103A9000E11650F434FE0AC032FC08C0332D3E7EDD
:103AA00005C00E2D332D03C00E2D01C0012F34FF94
:103AB0000CC0FE01EE0DF11D8081803311F4397EC2
:103AC00008C032FF05C00E5F04C0832F867809F05E
:103AD0000F5F33FD13C030FF06C01E2D0F1518F405
:103AE0001F0D101B0F2D0F1568F4B60180E290E03A
:103AF0003B8B0E9466310F5F3B89F5CF0F1510F4A9
:103B0000F01A01C0F12C34FF12C0B60180E390E03E
:103B10003B8B0E9466313B8932FF17C031FD03C0E9
:103B200088E790E002C088E590E0B6010CC0832FE2
:103B3000867859F031FF02C08BE201C080E237FD88
:103B40008DE2B60190E00E946631E11638F4B601CC
:103B500080E390E00E9466311150F7CFEA94F301C0
:103B6000EE0DF11D8081B60190E00E946631E110FA
:103B7000F5CF14C0F4E0FF1558F584E0F81A33FED1
:103B80001EC0211026C003FF2AC006E910E0F32D55
:103B9000F0713F2EF8018491811124C0FF2009F4B7
:103BA000E5CCB60180E290E00E946631FA94F6CF4F
:103BB000F6018681978126C08FEF9FEF23C0B60163
:103BC00080E290E00E946631FA94F110F8CFD9CFEC
:103BD000F12CB601822D90E00E946631D4CF0AE923
:103BE00010E0D5CF31108052B60190E00E946631CE
:103BF0000F5F1F4FCFCF23E02F1510F483E0BECF10
:103C0000F12CC1CF6396E2E10C94CB2F20FD09C0CB
:103C1000FC0123FD05C022FF02C073836283518330
:103C20004083089544FD10C046FD10C0DB01FC0137
:103C3000AA0FBB1FEE1FFF1F1094D1F76A0F7B1F47
:103C40008E1F9F1F31E003C033E001C034E0660FD8
:103C5000771F881F991F3150D1F7620F711D811D89
:103C6000911D08950F931F93CF93DF938C01C8018B
:103C70000E942831EC0197FD08C00E94BE30892BBC
:103C8000B1F7B801CE010E949E31CE01DF91CF91F4
:103C90001F910F910895A0E0B0E0E1E5FEE10C94E2
:103CA000B52F7C018B016A01D22F0E9428319C0123
:103CB00033272B32310521F02D32310559F4D068EC
:103CC0000150110911F480E069C0C7010E94283138
:103CD00097FDF9CFCD2FCD7F2D2F207309F58033A0
:103CE000F9F4580181E0A81AB10809F443C0C701EA
:103CF0000E94283197FD3EC0282F2F7D283551F492
:103D0000C26402501109B1F1C7010E94283197FF26
:103D100007C030C0D6FF02C0C26001C0C2618501C9
:103D2000812C912C540120ED280F283080F0C4FF05
:103D300004C0B7010E949E311AC02A3040F0C6FF6D
:103D4000F8CF2F7D3FEE320F363098F727504C2FAB
:103D5000C501B4010E94121E4B015C01C2600150FA
:103D6000110959F0C7010E94283197FFDCCFC1FD2E
:103D700004C0A9CF812C912C5401C7FF08C0B09476
:103D8000A09490948094811C911CA11CB11C2C2F98
:103D9000B501A401C6010E94061E81E0CDB7DEB7C1
:103DA000ECE00C94D12FA0E2B0E0E9EDFEE10C9440
:103DB000B12F4C015B017A018E010F5F1F4F68012B
:103DC00080E2F80111928A95E9F7F401638040E0FE
:103DD00050E0712C412C80E0A1E0B0E0F90163FCDF
:103DE000559063FE51908F01952D9F01511003C096
:103DF00080E090E080C0FEE55F1203C041155105F0
:103E000061F1682F70E0641775074CF46DE5561684
:103E100069F1EDE25E1203C0442009F103C04110D4
:103E200001C0752C692F669566956695F601E60FBB
:103E3000F11D692F67708D0102C0000F111F6A9577
:103E4000E2F7B8017081672B6083971559F09715D9
:103E500010F49F5FE7CF9150E5CF81E004C0442488
:103E6000439401C0412C4F5F5F4FB8CF442019F0FD
:103E70009E8190629E83811103C07724739418C041
:103E8000F6019E012F5D3F4F808180958193E2175F
:103E9000F307D1F7F2CFE114F10429F0F7018083A1
:103EA000C70101967C0191E0A91AB108712CE9F0D3
:103EB000C4010E94283197FD16C0282F269526950B
:103EC0002695F601E20FF11D208130E0AC0147702C
:103ED000552702C0359527954A95E2F720FDDBCF9F
:103EE000B4010E949E31711083CFE114F10411F0EE
:103EF000F7011082C801A096E0E10C94CD2FA6E056
:103F0000B0E0E5E8FFE10C94AF2F5C017B011A0102
:103F10000E9428319E838D8399278B32910521F051
:103F20008D9789F410E801C010E021E0E21AF10851
:103F300011F480E02CC1C5010E9428319E838D833D
:103F400097FF02C0F6CF10E08D819E810E94C7309E
:103F50008936910549F08E36910509F03BC060EB3A
:103F6000862E60E0962E04C073EB872E70E0972EAD
:103F7000EFEF8E1A9E0AF401319704910023C9F0E5
:103F800081E0E81AF10871F0C5010E9428316C0146
:103F900097FD08C00E94C730081751F3B501C6014C
:103FA0000E949E3196EB891690E0990609F0C1CFE8
:103FB00005C0F3EB8F16F0E09F0629F080E090E05B
:103FC000A0E8BFE704C080E090E0A0ECBFE7BC0140
:103FD000CD01CDC0412C512C3201C12CD12C2D81D1
:103FE00020532A3018F5012F0260812F887012FFAC
:103FF00006C0811121C02FEFC21AD20A1DC088232A
:1040000019F081E0C81AD10840E2C301B2010E9450
:10401000121E2B013C0198E9491699E959066906D7
:1040200099E1790648F0012F066006C02E3F91F411
:1040300013FD10C0012F0860E1E0EE1AF10849F00D
:10404000C5010E9428319E838D83102F97FFC7CF13
:1040500001C0102F11FF6DCF8D818F7D853409F048
:104060004EC04701F1E08F1A910809F462CFC501F3
:104070000E9428319E838D8397FD5BCF99278B32D9
:10408000910519F08D9761F41061470122E0821AC1
:10409000910809F44ECFC5010E9428319E838D837B
:1040A0008D819E81C0970A9708F043CF7401812CBF
:1040B000912CB401990C880B990B2D81205340E26F
:1040C0000E94121EAB01BC014A0181E0E81AF1080E
:1040D00071F0C50149835A836B837C830E94283128
:1040E0009E838D83C09749815A810A9710F314FFEC
:1040F00004C088249924841A950AC80CD91CEF2876
:1041000041F0ED81FE81F7FD04C0B501CF010E94B1
:104110009E31C301B2010E94FD21D7FE08C0D19497
:10412000C194D1085FEC852E50E0952E04C047EE77
:10413000842E40E0942E5401F8E1AF1AB10830E229
:10414000E32EF12CCE14DF0450F0F40125913591CB
:10415000459154910E943A22CE18DF08F3CF24E013
:10416000821A9108F694E7948A149B0459F717FF72
:1041700005C0DC01CB01B058BC01CD0121143104D4
:1041800029F0F101608371838283938381E0269615
:10419000E2E10C94CB2FA1E0B0E0E1EDF0E20C9471
:1041A000B12F6C012B014A01FC0117821682A12C50
:1041B000F601F380F201F3FC8591F3FE8191482F23
:1041C0002F01882309F410C190E049830E94BE307A
:1041D0004981892B21F0C6010E94321EE9CF453268
:1041E00041F4F201F3FC4591F3FE41912F01453278
:1041F00069F4C60149830E942831498197FDF2C0C4
:104200004817B1F2B6010E949E31EEC04A3239F42D
:10421000F3FC4591F3FE41912F0151E001C050E0C4
:10422000320100E010E020ED240F2A3088F45260C3
:10423000B80180E090E040E259830E94121E8B0199
:10424000F301F3FC4591F3FE41913F015981EBCF1E
:10425000B52E342F230151FF04C00115110519F4A7
:10426000C3C00FEF1FEF483619F04C3659F013C09A
:10427000F301F3FC3591F3FE31912F01383659F4F7
:104280005860B52EFB2DF460BF2EF201F3FC359182
:10429000F3FE31912F01332309F4A6C0632F70E0A0
:1042A0008EE990E039830E94CF303981892B09F45F
:1042B0009BC0B0FC07C0F401E080F180C40102960D
:1042C0004C0102C0E12CF12C3E3651F4F60146813E
:1042D000578160E070E02B2DC7010E94061E68CF59
:1042E0003336A9F4B1FC02C001E010E0C6010E941F
:1042F000283197FD77C0E114F10429F0F70180839C
:10430000C70101967C010150110981F767C03B3557
:1043100059F49201A701B801C6010E94D31E2C01D5
:10432000892B09F05BC055C0C60139830E94321E3B
:10433000398197FD57C03F36D9F140F43436A1F1A9
:104340003936C9F1383509F03DC02AC03337A1F0FC
:1043500018F4303729F136C0353731F1383701F1EB
:1043600031C0E114F10429F0F7016082C701019620
:104370007C010150110971F0C6010E9428313C01F5
:1043800097FD08C00E94BE30892B59F3B601C301C6
:104390000E949E31E114F10409F1F70110821EC060
:1043A000FB2DF064BF2E07C08B2D8062B82E03C09A
:1043B0009B2D9061B92E2B2DA701B801C6010E943B
:1043C0004B1E05C0A701B801C6010E947F1F8111C5
:1043D00005C0F6018381807329F406C0B0FCE8CEE5
:1043E000A394E6CEAA2019F08A2D90E002C08FEFA8
:1043F0009FEF2196E0E10C94CD2FE89409C097FB44
:104400003EF490958095709561957F4F8F4F9F4FAB
:104410009923A9F0F92F96E9BB279395F6958795EF
:1044200077956795B795F111F8CFFAF4BB0F11F4B2
:1044300060FF1BC06F5F7F4F8F4F9F4F16C0882359
:1044400011F096E911C0772321F09EE8872F762F8F
:1044500005C0662371F096E8862F70E060E02AF0D0
:104460009A95660F771F881FDAF7880F96958795BC
:1044700097F908950E944D220C94BE220E94B0220A
:1044800038F00E94B72220F0952311F00C94A72257
:104490000C94AD2211240C94F2220E94CF2270F3CE
:1044A000959FC1F3950F50E0551F629FF001729FD9
:1044B000BB27F00DB11D639FAA27F00DB11DAA1FE8
:1044C000649F6627B00DA11D661F829F2227B00D35
:1044D000A11D621F739FB00DA11D621F839FA00DC0
:1044E000611D221F749F3327A00D611D231F849F10
:1044F000600D211D822F762F6A2F11249F57504067
:104500009AF0F1F088234AF0EE0FFF1FBB1F661FE1
:10451000771F881F91505040A9F79E3F510580F0AA
:104520000C94A7220C94F2225F3FE4F3983ED4F35C
:10453000869577956795B795F795E7959F5FC1F74E
:10454000FE2B880F911D9695879597F9089597F9F9
:104550009F6780E870E060E008959FEF80EC089529
:1045600000240A9416161706180609060895002452
:104570000A9412161306140605060895092E0394CC
:10458000000C11F4882352F0BB0F40F4BF2B11F440
:1045900060FF04C06F5F7F4F8F4F9F4F089557FD9F
:1045A0009058440F551F59F05F3F71F04795880FA1
:1045B00097FB991F61F09F3F79F087950895121638
:1045C00013061406551FF2CF4695F1DF08C01616E4
:1045D00017061806991FF1CF869571056105089495
:1045E0000895E894BB2766277727CB0197F90895AC
:1045F000CF93DF93CDB7DEB7C25AD1090FB6F89487
:10460000DEBF0FBECDBF789484B5826084BD84B513
:10461000816084BD85B5826085BD85B5816085BDBD
:1046200080916E00816080936E0010928100809175
:1046300081008260809381008091810081608093FD
:104640008100809180008160809380008091B10022
:1046500084608093B1008091B00081608093B0004D
:1046600080917A00846080937A0080917A008260E1
:1046700080937A0080917A00816080937A008091A3
:104680007A00806880937A001092C100E09125063C
:10469000F091260682E08083E0912106F0912206C7
:1046A0001082E0912306F091240680E1808310922D
:1046B0002D06E0912906F0912A0686E08083E0919C
:1046C0002706F0912806808180618083E09127068B
:1046D000F0912806808188608083E0912706F09120
:1046E0002806808180688083E0912706F091280663
:1046F00080818F7D808361E088E00E94371961E0CE
:1047000089E00E94371961E084E00E94371961E076
:1047100085E00E94371961E086E00E94371961E068
:1047200087E00E94371961E08BE00E94371961E051
:104730008CE00E94371961E08DE00E943719E0900B
:104740004907F0904A0780E090E0A0E0B0E4C2574B
:10475000DF4F88839983AA83BB83CE58D040C7019B
:1047600004960E943917882341F14EE8842E912C3B
:104770008C0E9D1E24E0820E911C8E0102571F4F4D
:10478000C12CD12CE01AF10A5701A00EB11EC501AF
:104790000E942B17D8016D918D01861731F0C5014C
:1047A0000E945B17BFEFCB1ADB0A0815190561F7EA
:1047B000CD2819F087E593E002C082E793E00E94DC
:1047C0007D148E010D5C1F4F61E973E0C8010E94EA
:1047D000852FC0904907D0904A078090EE059090B1
:1047E000EF05A090F005B090F105A5019401C50179
:1047F000B4010E94662FFE0131967F01811109C02C
:1048000020E030E0A901C501B4010E944A2E8111C7
:1048100032C0C6010496813092400CF41CC783EF6D
:1048200092E00E947D1470E060E090E080E0272F2D
:10483000362F492F582FC901DA018093EE05909346
:10484000EF05A093F005B093F1055F934F936F933D
:104850007F931F930F9384EA93E09F938F93FF922C
:10486000EF920E948C2FC7010E947D140FB6F8941E
:10487000DEBF0FBECDBF60E971E080914707909128
:1048800048070E94EB17882319F08EEA93E002C0D4
:104890008CEC93E00E947D146EEE73E0C8010E94E0
:1048A000852F6091470770914807A8018CEE95E02D
:1048B0000E94A90D64E074E0C8010E94852F6091F8
:1048C000450770914607A80188E096E00E94A90D6F
:1048D0006DE174E0C8010E94852F609143077091DB
:1048E0004407A8018AE096E00E94A90D69E374E0FC
:1048F000C8010E94852F6091410770914207A8016D
:1049000088EE95E00E943B0D6CE574E0C8010E94C2
:10491000852F60913F0770914007A80182E096E0E3
:104920000E943B0D66E774E0C8010E94852F6091EC
:104930003D0770913E07A8018EEF95E00E943B0D68
:104940008FE894E00E947D1460913B0770913C07D2
:1049500048E650E086E491E00E94183283EA94E051
:104960000E947D1423EEA22E21E0B22E06E411E077
:104970003AEBC32E34E0D32ED8019C9111962C91A2
:10498000119712963C91129713964C910C5F1F4F02
:10499000F50181915F014F933F932F939F93282FB0
:1049A000082E000C330B3F938F93DF92CF92FF9230
:1049B000EF920E948C2FC7010E947D140FB6F894CD
:1049C000DEBF0FBECDBF31E00E3A1307A9F60E943D
:1049D000820A8091020690910306A0910406B0918C
:1049E00005068093F6069093F706A093F806B09319
:1049F000F90681E08093FF064091FE055091FF0586
:104A000060910006709101064093FA065093FB06F0
:104A10006093FC067093FD068093FE0662E080E0E2
:104A200097E00E94BF1660911007862F84608093E4
:104A300010076C6080E097E00E943D1480E097E0F2
:104A40000E94751484E690E09093230180932201E4
:104A500022E330E0309321012093200124EF31E064
:104A600030931F0120931E0190931D0180931C0120
:104A700080E097E09093FD058093FC0580E491E051
:104A80009093FB058093FA0584E291E09093F905F9
:104A90008093F80580E190E09093F7058093F60508
:104AA00082E090E09093F5058093F4058EE7809383
:104AB000F30585EA8093F20590EAC92E91E0D92E9C
:104AC00000E010E04E0189E0880E911CF60165912E
:104AD0007491C7010E94DA306090FC057090FD056A
:104AE000B80183E0660F771F8A95E1F76064C30120
:104AF0000E943D145701D5016D915D01D301ED91E7
:104B0000FC910190F081E02DC3010995A814B9042E
:104B100091F70F5F1F4FB2E0CB0ED11C083011058B
:104B2000A9F610920C06FE01EB59FF4F8AEB91E0BB
:104B3000918380831382128281E090E09783868341
:104B40008FE0808B81E08287838714869CE0958745
:104B5000168687878DE290E0928B818BDE0111961D
:104B60004D01FD01EE55F740CF55DF4FF983E88346
:104B7000C15AD04080E097E00E94751482EC94E026
:104B80000E94D908CE018B599F4F0E94A102A9967D
:104B90008EAD9FADA997009799F1019759F780EBDA
:104BA00091E09CAB8BAB1EAA1DAA84E090E09AAF6B
:104BB00089AF8FE024968FAF249781E08DAF8EAFC1
:104BC0001FAE9CE021969FAF219722961FAE2297A1
:104BD00023968FAF23978DE290E026969FAF8EAFFE
:104BE000269788E0A82E86E0B82E90EC692E92E1F8
:104BF000792E24E6422E512C8E0106581F4FFFC3FA
:104C00000E9467186091BD067091BE068091BF0634
:104C10009091C0060E94C7170E94870980E097E024
:104C20000E9475140E949D09E12CF12C00E010E017
:104C3000CE56DF4F1882C259D0400E9498190E9468
:104C40009D09CE56DF4FE881C259D040EE2309F4CA
:104C500043C04091C1065091C2066091C306709155
:104C6000C4068091BD069091BE06A091BF06B0918A
:104C7000C006481759076A077B0749F40E9487094D
:104C80000E949D09CE56DF4F1882C259D0400E9423
:104C9000341A40900D0650900E0660900F067090EA
:104CA0001006DC01CB0184199509A609B709893CD6
:104CB0009105A105B105A8F081E090E00E943E02B7
:104CC0008C010E94341A60930D0670930E06809337
:104CD0000F069093100605C082E390E00E943E020A
:104CE0008C010634110509F4C6C1ECF4033011053A
:104CF00009F442C05CF40130110509F49BC0023094
:104D0000110509F09ACF82E090E096C006301105B7
:104D100009F430CF0334110509F491C004301105B2
:104D200009F08BCF57C00E34110509F4F1C04CF4D3
:104D30000734110509F40FC20D34110509F441C1FE
:104D40007CCF0435110509F480C20A35110509F438
:104D500096C00335110509F070CF0E946718609165
:104D6000BD067091BE068091BF069091C0060E945C
:104D7000C7170E9487095CCF80912107833009F013
:104D80005CCF8091FE06882351F08CEC94E00E9469
:104D90002306019709F0DAC11092FE06D7C183EE0F
:104DA00094E00E942306019709F0D0C18091BD06CE
:104DB0009091BE06A091BF06B091C0068093FA06FE
:104DC0009093FB06A093FC06B093FD06F1E0F093F0
:104DD000FE062DC080912107833009F02ECF8091EF
:104DE000FF06882351F08AEF94E00E942306019782
:104DF00009F0ACC11092FF06A9C181E195E00E94C3
:104E00002306019709F0A2C18091BD069091BE06CC
:104E1000A091BF06B091C0068093F6069093F70666
:104E2000A093F806B093F90621E02093FF060E94B4
:104E3000060D8CC181E090E00E943C0BFECE80917B
:104E4000FF06882389F06091F6067091F70680913D
:104E5000F8069091F9060E94C71731E0CE56DF4F51
:104E60003883C259D040E9CE41E060E080E097E06D
:104E70000E94471488E295E00E94D908DECEA090F7
:104E80003407B12CC5010197039748F488E297E0F5
:104E90000E946C12809134077501A82EF2CF82E037
:104EA000E816F10489F193E0E916F10409F0C5CEA2
:104EB00040E050E0BA0182EB96E00E94D2101092DE
:104EC000BD061092BE061092BF061092C006109248
:104ED000C1061092C2061092C3061092C406109228
:104EE000E5061092E6061092E7061092E806109288
:104EF000D5061092D6061092D7061092D8060E94B8
:104F0000060D0E948709D8C160E070E0CB0194C112
:104F100080910606909107068931910531F001963E
:104F2000909307068093060604C01092070610921D
:104F30000606A0903407B12CC5010197039748F4E9
:104F400088E297E00E946C12809134077501A82EC8
:104F5000F2CFB3E0EB16F10409F0AEC1E091060622
:104F6000F0910706EE0FFF1FEE0FFF1FEA5BFE4FEB
:104F70004080518062807380EE964CAE5DAE6EAE26
:104F80007FAEEE9720E03CE34CE156ECC301B2016A
:104F90000E944A2E882309F48FC1AE014D5C5F4FF9
:104FA000C301B2010E9427096BA97CA98DA99EA902
:104FB0000E94C717E1E0CE56DF4FE883C259D040C8
:104FC0007BC18091060690910706009731F001970A
:104FD000909307068093060606C029E130E03093DF
:104FE000070620930606A0903407B12CC50101974F
:104FF000039748F488E297E00E946C12809134078E
:105000007501A82EF2CF33E0E316F10409F054C184
:10501000E0910606F0910706EE0FFF1FEE0FFF1F4F
:10502000EA5BFE4F4080518062807380EE964CAE0A
:105030005DAE6EAE7FAEEE9720E03CE34CE156EC09
:10504000C301B2010E944A2E882309F435C1AE0182
:105050004D5C5F4FC301B2010E9427096BA97CA977
:105060008DA99EA90E94C71781E0CE56DF4F888385
:10507000C259D04021C181E395E00E9423060197E7
:1050800009F064C087E495E00E947D14A0903B077E
:10509000B0903C07C50188599F4F0E94391788235B
:1050A00061F06DEF71E0C5010E94361818161906FF
:1050B00024F48AE595E00E947D148FE894E00E9434
:1050C0007D1460913B0770913C0748E650E086E410
:1050D00091E00E94183283EA94E00E947D1463EE0E
:1050E000A62E61E0B62E76E4672E71E0772ED3010E
:1050F0009C9111962C91119712963C9112971396B0
:105100004C91B4E06B0E711CF50181915F014F93DE
:105110003F932F939F93282F082E000C330B3F9320
:105120008F93AAEBB4E0BF93AF939F928F920E94AC
:105130008C2FC4010E947D140FB6F894DEBF0FBE01
:10514000CDBF3EEA631631E0730689F680E097E052
:105150000E947514B1C0A0903407B12C9E2D8F2DE4
:105160009501215031092330310558F488E297E048
:105170000E946C12209134079A2D8B2DA22EB12CF7
:10518000EFCFE92EF82E82E0E816F10459F193E012
:10519000E916F10409F051CD6091BD067091BE068B
:1051A0008091BF069091C0066BAB7CAB8DAB9EAB84
:1051B000AE0146585F4F0E945709E0910606F091F4
:1051C0000706EE0FFF1FEE0FFF1FEA5BFE4FEE9686
:1051D0008CAD9DADAEADBFADEE9780839183A283C4
:1051E000B38368C0E0910606F0910706EE0FFF1F3B
:1051F000EE0FFF1FEA5BFE4F40805180628073809C
:10520000EE964CAE5DAE6EAE7FAEEE9720E03CE328
:105210004CE156ECC301B2010E944A2E882309F4E6
:105220000CCDAE014D5C5F4FC301B2010E94270956
:105230006BA97CA98DA99EA90E94C717A1E0CE5693
:10524000DF4FA883C259D040F8CC6091BD06709161
:10525000BE068091BF069091C006A4010E94570926
:1052600049805A806B807C802DEC3CEC4CE45EE302
:10527000C301B2010E941B2F18166CF48DEC9CEC3C
:10528000ACE4BEE3CD56DF4F88839983AA83BB830A
:10529000C359D04008C0CD56DF4F188219821A82F8
:1052A0001B82C359D0402090060630900706211477
:1052B000310429F40E940C0E0E949D09BECC20E00E
:1052C00030E0A901CD56DF4F688179818A819B81C9
:1052D000C359D0400E941B2F181664F75101C10119
:1052E000880F991F880F991FDC01AA5BBE4F6D01C3
:1052F000F1013197C956DF4FF983E883C759D04090
:10530000CF01A0E0B0E0C356DF4F88839983AA8322
:10531000BB83CD59D040B7FCCDCFA214B30431F438
:10532000F601408251826282738258C0C956DF4FB3
:1053300028813981C759D040A216B30699F4CD56B9
:10534000DF4F288139814A815B81C359D040C30135
:10535000B2010E94DD2DD6016D937D938D939C93B8
:1053600013973CC0A114B10449F410924601109265
:105370004701109248011092490130C0B5010B2C31
:10538000000C880B990B0E94FF21C756DF4F6883E2
:1053900079838A839B83C959D040C356DF4F688184
:1053A00079818A819B81CD59D0400E94FD219B014A
:1053B000AC01C301B2010E944F2E9B01AC01C75644
:1053C000DF4F688179818A819B81C959D0400E94D1
:1053D0003A22F6016083718382839383F1E0AF1AEE
:1053E000B10824E0C21AD10896CF83309105CCF0E1
:1053F0008330910509F41AC1049709F4BBCB80E00E
:1054000097E00E94751480E795E00E94D908CE01CC
:10541000C3960E94A1028DA99EA98230910529F709
:105420007FC0009709F445C0019749F78AE096E0EC
:105430009A8389831C821B828091080690910906B9
:1054400098878F838AE090E09C878B8787E08F879F
:1054500081E0888B84E0898B1B8A1A8A80E097E040
:105460000E947514809109068F93809108068F938E
:1054700083E995E09F938F931F930F930E948C2F46
:10548000B80180E097E00E944713C4010E94210701
:1054900060910A0670910B06809143079091440732
:1054A0000E94EB170F900F900F900F900F900F909E
:1054B00027C0BA82A9821C821B8278866F825C8692
:1054C0004B8687E08F8781E0888B84E0898B1B8AFD
:1054D0001A8A80E097E00E9475146BE775E080E01F
:1054E00097E00E944713C4010E94210760910806BB
:1054F0007091090680914507909146070E94EB172D
:10550000882309F47CCF80E097E00E9475148CE832
:1055100095E00E94D9080E94820A88EE93E083C039
:1055200080E097E00E94751481EA95E00E94D90816
:1055300041E067E080E097E00E94471480915A07BD
:1055400090915B07009739F4CF55DF4F888199819F
:10555000C15AD04018C0A401481B590BE0915C0708
:10556000F0915D0780E090E0309759F09C012E5F4C
:105570003F4F80819181820F931F0280F381E02D44
:10558000F3CF840F951F9A838983C980DA800D2C0D
:10559000000CEE08FF08F7FE28C0E0910007F0912C
:1055A00001070190F081E02D6DE280E097E0099520
:1055B00022273327A9012C193D094E095F0919A299
:1055C000DE0191967D01CA01B9012AE030E040E098
:1055D00050E00E946C2D605DF70162937F01211500
:1055E00031054105510579F717C0A701960119A2A8
:1055F000CE0181967C01CA01B9012AE030E040E089
:1056000050E00E946C2D605DD7016E937D012115E5
:1056100031054105510579F7B70180E097E00E9417
:10562000321388EB9BE00E943E02E9CE8DEA95E0C2
:105630000E942306019709F0E2CEE12CF12C60E0F4
:10564000C7010E945B17BFEFEB1AFB0AE114E2E00F
:10565000FE06A9F7D4CE44E050E0B601C7010E948F
:10566000183279816A819B818C81E1C8CF93DF9365
:10567000109218061092170688EE93E0A0E0B0E0B2
:105680008093190690931A06A0931B06B0931C06EC
:1056900083E792E0909316068093150685EC90E0E0
:1056A000909322068093210684EC90E09093240648
:1056B0008093230680EC90E0909326068093250645
:1056C00081EC90E0909328068093270682EC90E08E
:1056D00090932A068093290686EC90E090932C06FE
:1056E00080932B0610922E0610922F0610923006F1
:1056F0001092310684E690E090934C0780934B071C
:1057000084E090E00E94302D90934A0780934907EF
:1057100082E090E00E94302D9093480780934707E5
:1057200082E090E00E94302D9093460780934507D9
:1057300082E090E00E94302D9093440780934307CD
:1057400084E090E00E94302D9093420780934107BF
:1057500084E090E00E94302D9093400780933F07B3
:1057600084E090E00E94302D90933E0780933D07A7
:1057700088E690E00E94302D90933C0780933B0791
:1057800089EA92E0909329078093280788E0809324
:105790002A0786ED91E0909338078093370785EDCF
:1057A00091E0909336078093350787EC91E09093D2
:1057B0003A078093390781E08093300787E0809330
:1057C00031078FEF80933307109234070E94341A09
:1057D00060932C0770932D0780932E0790932F07CB
:1057E000C0E0D0E08091300790E0C817D907B4F44A
:1057F000E0913507F0913607EC0FFD1F60E08081E6
:105800000E943719E0913507F0913607EC0FFD1F24
:1058100060E080810E94EB182196E4CF89EA92E053
:10582000909316078093150788E0809317078FEBF6
:1058300091E090932507809324078EEB91E090935D
:1058400023078093220780EB91E0909327078093B2
:10585000260781E080931D0787E080931E078FEF66
:1058600080932007109221070E94341A6093190731
:1058700070931A0780931B0790931C07C0E0D0E039
:1058800080911D0790E0C817D907B4F4E091220772
:10589000F0912307EC0FFD1F60E080810E94371913
:1058A000E0912207F0912307EC0FFD1F60E080815B
:1058B0000E94EB182196E4CF109203071092020782
:1058C00081EA92E0909301078093000788E080933B
:1058D00004078FEF8093050789E08093060784E033
:1058E0008093070785E08093080786E08093090787
:1058F00087E080930A0710920B0710920C07109212
:105900000D0710920E0761E088E00E943719809120
:1059100005078F3F19F061E00E94371961E080911F
:1059200006070E94371910920F0761E080E097E0A8
:105930000E94BF1683E892E09093B3068093B2066C
:1059400081E08093B4061092BD061092BE061092BC
:10595000BF061092C0061092C1061092C2061092A5
:10596000C3061092C4061092C5061092C606109285
:10597000C7061092C80680E090E0A0E8BFE38093DD
:10598000C9069093CA06A093CB06B093CC06809329
:10599000CD069093CE06A093CF06B093D006809309
:1059A000D1069093D206A093D306B093D40610925A
:1059B000D5061092D6061092D7061092D80621E08E
:1059C00030E03093DE062093DD062FEF2093E006D3
:1059D0001092D9061092DA061092DB061092DC06BD
:1059E0002CE02093B5062DE02093B60624E020930A
:1059F000B70625E02093B8061092FF061092FE0627
:105A00001092E5061092E6061092E7061092E8065C
:105A10001092E9061092EA061092EB061092EC063C
:105A20001092ED061092EE061092EF061092F0061C
:105A30008093F1069093F206A093F306B093F406D8
:105A40001092F5061092B9061092BA061092BB0693
:105A50001092BC0682EB96E0DF91CF910C94CC11B2
:105A6000CF93DF93C0914D07D0914E078C0F9D1FB0
:105A700090934E0780934D07813092404CF083EF16
:105A800092E00E947D14882799278C1B9D0B01C0F2
:105A9000CE01DF91CF910895991B79E004C0991F41
:105AA000961708F0961B881F7A95C9F78095089578
:105AB00097FB072E16F4009407D077FD09D00E94BB
:105AC000BA2D07FC05D03EF4909581959F4F08951F
:105AD000709561957F4F0895A1E21A2EAA1BBB1BFA
